:020000040800F2
:100000008810002041020008450E00081F09000862
:10001000410E0008AB030008C91B000800000000E7
:10002000000000000000000000000000A90100081E
:10003000AF03000800000000ED010008AD13000848
:100040005B0200085B0200085B0200085B0200081C
:100050005B0200085B020008E90300081D040008B9
:100060005B0200085B0200085B0200085B020008FC
:100070005B0200085B0200085B0200085B020008EC
:100080005B0200085B0200085B0200085B020008DC
:100090005B0200085B0200085B0200085B020008CC
:1000A0005B0200085B0200085B0200085B020008BC
:1000B000411400085B0200085B0200085B020008B4
:1000C0005B0200085B0200085B0200085B0200089C
:1000D0005B0200085B02000895170008A9180008D9
:1000E0005B0200085B0200085B02000800F002F8F7
:1000F00000F04AF80AA090E8000C82448344AAF178
:100100000107DA4501D100F03FF8AFF2090EBAE875
:100110000F0013F0010F18BFFB1A43F0010318473B
:10012000803C0000A03C00000A4410F8014B14F091
:100130000F0508BF10F8015B240908BF10F8014B38
:100140006D1E05D010F8013B6D1E01F8013BF9D181
:10015000641E03D0641E01F8015BFBD19142E4D31D
:10016000704700000023002400250026103A28BF15
:1001700078C1FBD8520728BF30C148BF0B60704719
:100180001FB51FBD10B510BD00F0DAF81146FFF71E
:10019000F7FF02F0C5F900F0F8F803B4FFF7F2FF3B
:1001A00003BC00F0FBF80000224B19680868B0E8B7
:1001B000F00F80F30988BFF36F8F4FF0000080F3DA
:1001C00011884EF00D0E70470000000006480068D0
:1001D000006880F3088862B661B6BFF34F8FBFF343
:1001E0006F8F00DF00BF00BF08ED00E0EFF3098074
:1001F000BFF36F8F0F4B1A6820E9F00F106008B53E
:100200004FF0500080F31188BFF34F8FBFF36F8F13
:1002100002F014FB4FF0000080F31188BDE80840A5
:1002200019680868B0E8F00F80F30988BFF36F8F92
:10023000704700BF0C090020EFF3058070470000F5
:100240000948804709480047FEE7FEE7FEE7FEE76A
:10025000FEE7FEE7FEE7FEE7FEE7FEE704480549A6
:10026000054A064B70470000E1130008ED00000846
:10027000880A002088100020880C0020880C0020AC
:100280004FF000020429C0F0128010F0030C00F0BF
:100290001B80CCF1040CBCF1020F18BF00F8012B3D
:1002A000A8BF20F8022BA1EB0C0100F00DB85FEA0B
:1002B000C17C24BF00F8012B00F8012B48BF00F8D7
:1002C000012B70474FF0000200B513469446964646
:1002D000203922BFA0E80C50A0E80C50B1F1200159
:1002E000BFF4F7AF090728BFA0E80C5048BF0CC007
:1002F0005DF804EB890028BF40F8042B08BF704765
:1003000048BF20F8022B11F0804F18BF00F8012BD6
:10031000704770477047704700487047240A0020B4
:1003200010B5FFF7F9FF006810BD10B50446FFF7E0
:10033000F3FF046010BD000000487047240A00204D
:100340007546FFF7F9FFAE4605006946534620F0B3
:100350000700854618B020B5FFF780FFBDE82040B4
:100360004FF000064FF000074FF000084FF0000B71
:1003700021F00701AC46ACE8C009ACE8C009ACE824
:10038000C009ACE8C0098D46704710B50446AFF30C
:1003900000802046BDE81040FFF7FFBE014918204D
:1003A000ABBEFEE726000200704700BFFEE77047C5
:1003B0000149096801607047DC080020044A11689F
:1003C000014400BF024A12688A42FBD37047000012
:1003D000DC08002000BF00BF704700000149096829
:1003E000016070472408002010B5012000F086F855
:1003F00001280DD100F086FA012801D101F04CF856
:1004000000F080FA20B901F03FF80120024908709D
:10041000012000F06DF810BD2808002010B5022062
:1004200000F06CF8012847D1244A2549254800F0FE
:10043000D7FB00283DD124480078012804D00021B2
:10044000084600F077FB10BD2048FFF7C7FF0021EA
:100450001C48006800F076FE1D4908601D480168D0
:100460001A48006800F0E8FD1B4908601B48016855
:100470001248006800F020FD19490860144800681F
:100480001549096808441749086008460068144976
:100490000968401A14490860124800681049096840
:1004A000084412490860084601680F48006800F0D7
:1004B00041FB022000F01CF800BFC4E73808002010
:1004C00034080020300800206C080020CC080020F0
:1004D000D008002064080020D4080020680800200C
:1004E000D8080020C0080020C4080020C808002048
:1004F00001490860704700001404014001460020D3
:100500000022074B1B6803EA0102054B14331B68EA
:100510000B4013B10AB1012000E000207047000039
:10052000000401402DE9F04102460025002600208C
:1005300000230024002791F803C00CF00F0591F868
:1005400003C00CF0100CBCF1000F03D091F802C0F6
:100550004CEA050591F800C0BCF1000F31D01468D9
:1005600000202BE04FF0010C0CFA00F3B1F800C0B2
:100570000CEA03069E4220D183004FF00F0C0CFAC8
:1005800003F7BC4305FA03FC4CEA040491F803C0EA
:10059000BCF1280F06D14FF0010C0CFA00FCC2F898
:1005A00014C00AE091F803C0BCF1480F05D14FF028
:1005B000010C0CFA00FCC2F810C0401C0828D1D372
:1005C0001460B1F800C0BCF1FF0F34DD54680020A6
:1005D0002EE000F1080C4FF0010808FA0CF3B1F816
:1005E00000C00CEA03069E4221D183004FF00F0C9D
:1005F0000CFA03F7BC4305FA03FC4CEA040491F837
:1006000003C0BCF1280F05D100F1080C08FA0CF862
:10061000C2F8148091F803C0BCF1480F07D100F173
:10062000080C4FF0010808FA0CF8C2F81080401CC2
:100630000828CED35460BDE8F08110B500F030F842
:1006400000F01CF910BD000010B50446224602213E
:10065000014800F05FF910BD000C014010B50446E0
:1006600022460121014800F055F910BD000C01405F
:1006700010B5044622464FF48041024800F04AF982
:1006800010BD0000000C014010B5044622464FF496
:100690000041024800F03EF910BD0000000C01408E
:1006A00008B50121042000F093FD0121082000F08D
:1006B0008FFD0121084600F08BFD01212A4800F042
:1006C00065F84020ADF8000018208DF803000320E5
:1006D0008DF8020069462548FFF724FF8020ADF819
:1006E000000018208DF8030003208DF802006946F1
:1006F0001E48FFF717FF4FF40050ADF80000102020
:100700008DF8030003208DF8020069461848FFF7B2
:1007100009FF0320ADF8000010208DF8030003202E
:100720008DF8020069461248FFF7FCFE4FF4404086
:10073000ADF8000010208DF8030003208DF80200B2
:1007400069460B48FFF7EEFE012000F013F8002089
:10075000FFF77AFF0020FFF781FF0020FFF788FFF7
:100760000020FFF791FF08BD0002300000080140A3
:10077000000C014010B5044622464FF400510248D7
:1007800000F0C8F810BD0000000C0140F0B50A46AA
:10079000002300240021002500F00046B6F1004FA0
:1007A00002D11D4EF16901E01B4E7168C0F3034593
:1007B00083B200F44016B6F5401F08D121F07061F5
:1007C000154E766826F07066134F7E6012E000F4D6
:1007D0008016B6F5801F06D1032606FA05F4A1435C
:1007E00041F0706106E0460D360103FA06F6B143AA
:1007F00041F0706122B1460D360103FA06F631432D
:1008000000F00046B6F1004F02D1034EF16101E065
:10081000014E7160F0BD0000000001400246002062
:1008200093680B400BB1012000E0002070470000EE
:1008300010B5044622464FF48061034800F06AF880
:100840000120FFF7C7FD10BD000C014010B50446A4
:1008500022464FF40061034800F05CF80120FFF7E6
:10086000B9FD10BD000C014010B54FF40061024805
:10087000FFF7D4FF10BD0000000C014008B50121B6
:10088000042000F0A5FC0121082000F0A1FC1820A4
:100890008DF803000420ADF8000003208DF802005D
:1008A00069461648FFF73EFE48208DF803000820F1
:1008B000ADF8000003208DF8020069460F48FFF7ED
:1008C00031FE18208DF803004FF48060ADF8000071
:1008D00003208DF8020069460948FFF723FE4820EF
:1008E0008DF803004FF40060ADF8000003208DF890
:1008F000020069460248FFF715FE08BD00080140E6
:10090000000C014010B501210148FFF787FF10BD21
:10091000000801400AB1016100E04161704700BF79
:10092000FEE72DE9F04104460E4617461D4600F04D
:1009300088F8002141EA4401C8B200F06DF800F0E7
:1009400031F8304600F068F800F02CF80A20FFF784
:1009500041FD00F076F8012101EB4401C8B200F03E
:100960005BF800F01FF84FF000080AE028466D1C05
:1009700000F027F8002000F043F808F1010000F033
:10098000FF08781E4045F1DC284600F01AF80120E7
:1009900000F036F81E20FFF71DFD00F060F8002083
:1009A000BDE8F08110B50120FFF750FF0120FFF7EF
:1009B0003FFFFFF759FF04460020FFF739FF2046AD
:1009C00010BD70B50446002020700120FFF73EFFE7
:1009D000002512E00120FFF72BFF20784006000ED3
:1009E0002070FFF741FF18B1207840F0010020701F
:1009F0000020FFF71DFF681CC5B2082DEADB70BDA3
:100A000010B504462046FFF721FF0120FFF710FF35
:100A10000020FFF70DFF10BD70B5044600250DE066
:100A200004F08000FFF712FF0120FFF701FF002014
:100A3000FFF7FEFE6006040E681CC5B2082DEFDB52
:100A400070BD10B50120FFF701FF0120FFF7F0FE98
:100A50000020FFF7FBFE0020FFF7EAFE10BD10B5F7
:100A60000020FFF7F3FE0120FFF7E2FE0120FFF771
:100A7000EDFE10BD2DE9F04105460E4617461C4619
:100A8000FFF7DFFF002141EA4501C8B2FFF7C4FFCD
:100A9000FFF788FF3046FFF7BFFFFFF783FF4FF0F8
:100AA000000809E02078FFF7B7FFFFF77BFF641C21
:100AB00008F1010000F0FF08781E4045F2DC2078C4
:100AC000FFF7AAFFFFF76EFF1E20FFF783FCFFF77B
:100AD000C6FF0020BDE8F08110B50120FFF74AFEF7
:100AE00010BD10B5FFF7F8FF4FF4E151084600F0D4
:100AF00021F810BD10B50120FFF7A6FD0020FFF77B
:100B0000ADFD10BD10B50020FFF79EFD0120FFF7E1
:100B1000A5FD10BD10B50446204600F0DBFC10BD5D
:100B200010B50A464B42904200DD1046984200DA6A
:100B3000184610BD70B505460C46002D0BDBFFF7BF
:100B4000E1FF4FF4E1512846FFF7EAFF0546A8B25E
:100B5000FFF7E0FF0FE0FFF7CDFF4FF4E15128462C
:100B6000FFF7DEFF05462E1E01DB314600E0714235
:100B700088B2FFF7CFFF002C0BDB00F023F84FF417
:100B8000E1512046FFF7CCFF0446A0B200F022F866
:100B90000FE000F00FF84FF4E1512046FFF7C0FFDF
:100BA0000446261E01DB314600E0714288B200F0A7
:100BB00011F870BD10B50020FFF75AFD0120FFF7B6
:100BC00063FD10BD10B50120FFF752FD0020FFF7B7
:100BD0005BFD10BD10B50446204600F085FC10BD3D
:100BE0002DE9F04F91B00446894692460AA80BA918
:100BF0000CAB0DAACDE900108A498B4801F0AAFB85
:100C000020B14FF0FF3011B0BDE8F08FBDF82C00DF
:100C100000F4807000287DD00D9802F0DBFD0546C1
:100C20004FF09D4102F0F8FC804908600E9802F0F8
:100C3000D1FD05464FF09D4102F0EEFC7C49086075
:100C40000F9802F0C7FD05464FF09D4102F0E4FC0D
:100C500078490860109802F0BDFD05464FF09D41AF
:100C600002F0DAFC74490860704801684FF0804077
:100C700002F0FCFD05906F480168059802F0F6FD52
:100C800083466B4801684FF0404002F0EFFD05904D
:100C900069480168059802F0E9FD5946069002F09E
:100CA0004DFC079002F01EFCCDE9080101F00AF8A6
:100CB00007464FF06632614B02F03AF9054601F003
:100CC000B5FE20605B4801684FF0804002F0CEFD29
:100CD000029058480168029802F0C8FD83465448C3
:100CE00001684FF0404002F0C1FD02905048016899
:100CF000029802F0BBFD5946039002F0BFFE804609
:100D00004FF07E5102F01AFC074602F0EBFBCDE9F2
:100D1000060100E084E0454801684FF0804002F0A1
:100D2000A5FD039042480168039802F09FFD8046AC
:100D3000404801684FF0804002F098FD03903E4823
:100D40000168039802F092FD8346414602F0F6FBEB
:100D5000074602F0C7FBCDE90401DDE9062301F0F7
:100D6000F9F94FF06632354BCDE9080102F0E0F8B1
:100D7000054601F05BFEC9F800002F4801680068D5
:100D800002F074FD04902B480168006802F06EFDCB
:100D9000029027480168006802F068FD019023482E
:100DA0000168006802F062FD0090019902F0C6FB44
:100DB0008346029902F062FE0390049902F05EFEFF
:100DC000059002F08FFB05460E461B480168174848
:100DD000006802F04BFD0490164801681448006852
:100DE00002F044FD0390049902F0A8FB4FF080410B
:100DF000059002F03BFD834602F074FB2A46334621
:100E0000CDE9060101F0A6F94FF066320B4BCDE9B2
:100E1000080102F08DF8074601F008FECAF800004C
:100E20000020F0E65E080020580800204808002056
:100E30004C080020500800205408002066A64C40B2
:100E400000BFFEE77047000070B5002100230F22AD
:100E5000C47804B3154C246804F4E064C4F5E06479
:100E6000210AC1F10403CA40447804FA03F18478EA
:100E70001440214309010E4C0678A155047804F072
:100E80001F050124AC4005786D11AD0005F1E0258A
:100E9000C5F8004109E0047804F01F050124AC40C6
:100EA000044D0678761145F8264070BD0CED00E043
:100EB00000E400E080E100E02DE9F05F05460C462B
:100EC0002146284602F0CFFD5049086050494F485E
:100ED000006802F097FD07D24E494C48006802F0C6
:100EE000CDFD4A4908600CE04B494848006802F0D3
:100EF00089FC06D247494548006802F01FFB434978
:100F00000860424801684548006802F017FB434901
:100F1000086043494148006802F074FD02D240482D
:100F20003E4908603F493D48006802F06BFC02D230
:100F30003C483A4908600021284602F063FC04D28C
:100F40000021204602F05EFC09D30021284602F071
:100F500059FD04D90021204602F054FD20D8324822
:100F600001683248006802F081FC80462B48016825
:100F70002F48006802F07AFC8146244801682D4819
:100F8000006802F073FC8246494602F0D7FA074631
:100F9000414602F0D3FA064602F000FCBDE8F09F9D
:100FA0000021284602F02EFC04D30021204602F046
:100FB00029FC28D21D48006880F000491A480168C1
:100FC000484602F053FC07461948006880F0004B81
:100FD00012480168584602F049FC814615480068ED
:100FE00080F0004B09480168584602F03FFC8246F9
:100FF000494602F0A3FA8046394602F09FFA0646B7
:1010000002F0CCFBCAE70020C8E70000B0080020CF
:10101000000034430000B443000034C3B40800208F
:101020000000FA430000FAC3BC080020AC0800200E
:10103000A8080020A40800202DE9F35FDDE90001E5
:1010400002F011FD344908603448006802F04AFAA1
:1010500006464FF06632324B01F06AFF04460D46F9
:101060002D48006802F03EFA06464FF033322D4B11
:1010700001F05EFF804622462B4601F009FD8246C4
:1010800001F0D4FC2449086008460168264800683D
:1010900002F054FA2449086024492348006802F009
:1010A000B1FC02D221482049086021491E4800684D
:1010B00002F0A8FB02D21E481B49086017480168CD
:1010C0001548006802F0DAFC1A4908601248006806
:1010D00012490860174801681748006802F0C6FB0B
:1010E0000646114801681548006802F0BFFB074634
:1010F000094801681248006802F0B8FB804639468A
:1011000002F01CFA0546314602F018FA044602F0D5
:1011100045FBBDE8FC9F0000940800209C080020CF
:101120006666E63F3333D33F9808002000007A44D8
:1011300000007AC4A0080020900800208C0800203D
:10114000880800202DE9F04104460D462946204636
:1011500002F089FC11490860114801680F480068D5
:1011600002F08CFC0F4908600C4800680C490860CC
:101170000C4801680C48006802F078FB07460748F5
:1011800001680A48006802F071FB8046394602F0A7
:10119000D5F9064602F002FBBDE8F0817808002090
:1011A00080080020840800207408002070080020B7
:1011B00029B1064AD2690243044BDA6104E0034ACA
:1011C000D2698243014BDA6170470000001002408F
:1011D00029B1064A92690243044B9A6104E0034A2A
:1011E00092698243014B9A617047000000100240EF
:1011F00030B500210022002400232D4D6D6805F03C
:101200000C0121B1042905D0082923D105E0294D7D
:10121000056022E0274D05601FE0254D6D6805F44F
:101220007012234D6D6805F48034022505EB92425F
:101230001CB9214D554305600BE01D4D6D6805F44B
:1012400000351DB11C4D5543056002E0194D554355
:10125000056002E0174D056000BF00BF144D6D68CA
:1012600005F0F0010909154D6B5C0568DD4045602E
:101270000F4D6D6805F4E061090A104D6B5C45681F
:10128000DD4085600A4D6D6805F46051C90A0B4D5B
:101290006B5C4568DD40C560054D6D6805F44041F7
:1012A000890B074D6B5CC568B5FBF3F5056130BD77
:1012B0000010024000127A0000093D0000000020EA
:1012C0001000002010B500F001F810BD0CB5002092
:1012D000019000903348006840F480303149086044
:1012E00000BF3048006800F4003000900198401CB6
:1012F0000190009818B90198B0F5A06FF1D1294874
:10130000006800F4003010B10120009001E00020DE
:1013100000900098012843D12348006840F0100055
:10132000214908600846006820F00300086008466C
:10133000006840F0020008601A4840681949486097
:101340000846406848600846406840F4806048604D
:101350000846406820F47C1048600846406840F425
:10136000E81048600846006840F08070086000BFE0
:101370000C48006800F000700028F9D00948406867
:1013800020F00300074948600846406840F002002A
:10139000486000BF0348406800F00C000828F9D1FD
:1013A0000CBD0000001002400020024010B500BF3C
:1013B000502080F31188BFF34F8FBFF36F8F00BFB2
:1013C00001F06CFA18B14FF080500449086000BF7A
:1013D000002080F3118800BF10BD000004ED00E084
:1013E00010B51348006840F0010011490860084634
:1013F0004068104908400E494860084600680E4998
:1014000008400B4908600846006820F48020086006
:101410000846406820F4FE0048604FF41F008860D2
:10142000FFF750FF4FF000600449086010BD000056
:10143000001002400000FFF8FFFFF6FE08ED00E09C
:1014400010B50121880700F02FF8012804D10548C4
:101450000068401C034908600121880700F004F877
:1014600010BD0000DC080020CA430282704721B191
:10147000028842F00102028004E002884FF6FE7307
:101480001A4002807047000010B500210148FFF7A4
:10149000EEFF10BD0008004010B501210148FFF724
:1014A000E6FF10BD0008004030B5024600200023D2
:1014B0000024158A05EA0103958905EA010413B1A0
:1014C0000CB1012000E0002030BD10B500F016F88E
:1014D00010BD000010B504462146024800F0FAF89D
:1014E00010BD00000004004010B50446214602482B
:1014F00000F0F2F810BD00000004004000B587B015
:1015000001210220FFF754FE684600F0D9F80020C0
:10151000ADF81600ADF812004FF4E150ADF814002C
:101520004720ADF8100000208DF8180004A91448D9
:1015300000F0D4F86020ADF800000020ADF80800FD
:101540000120ADF802000020ADF8060069460C4805
:1015500000F018F86020ADF800000020ADF8080099
:101560000120ADF802000020ADF8060069460448ED
:1015700000F054F801210248FFF779FF07B000BDE1
:101580000004004070B5002400220023058C4FF6B3
:10159000FE7635400584028C8388048B4FF68F7568
:1015A0002C40B51E2C400D882C43751E2A400D89F9
:1015B0002A434D882A43144DA8420BD0134DA8420C
:1015C00008D0134DA84205D0124DA84202D0124DAA
:1015D000A84213D14FF6F7752A404D892A434FF69A
:1015E000FB752A408D882A434FF6FF652B404FF646
:1015F000FF552B408D892B43CD892B43838004835A
:10160000CD888586028470BD002C014000340140E5
:1016100000400140004401400048014070B50024F2
:1016200000220023058C4FF6EF7635400584028CAE
:101630008388048B48F6FF752C404FF6FF452C40FD
:101640000D884FF6FF7606EA05252C434FF6DF7529
:101650002A400D8906EA05152A434D8806EA051534
:101660002A43154DA84202D0144DA8421DD14FF671
:101670007F752A404D894FF6FF7606EA05152A4305
:101680004FF6BF752A408D8806EA05152A434FF6A6
:10169000FF352B404FF2FF752B408D8906EA8505FB
:1016A0002B43CD8906EA85052B4383800483CD88AF
:1016B0000587028470BD0000002C01400034014009
:1016C0000021018041808180C1800181418181812F
:1016D000C181704781867047018770470022028868
:1016E0001D4B98420ED01D4B98420BD0B0F1804F4D
:1016F00008D01B4B984205D01A4B984202D01A4B87
:10170000984204D14FF68F731A404B881A43174BF7
:10171000984207D0164B984204D04FF6FF431A4028
:10172000CB881A4302808B8883850B8803850A4BFC
:1017300098420BD0094B984208D00E4B984205D0E6
:101740000D4B984202D00D4B984201D10B7A038683
:101750000123838270470000002C014000340140C7
:101760000004004000080040000C00400010004051
:101770000014004000400140004401400048014086
:1017800010B54FF480610248FEF77AFD10BD0000ED
:101790001400002010B540F225510F4800F034F934
:1017A000012818D10D480088B0F5806F02D30020C1
:1017B0000A4908800848001D00880949074A12881C
:1017C000885406480088401C0449088040F225518E
:1017D000014800F0F1F810BD00440040140400205E
:1017E0001400002000B585B0FFF7CAFF01214804AE
:1017F000FFF7DEFC4FF4E13001900020ADF810005F
:101800000C20ADF80E000020ADF80C00ADF80A0079
:10181000ADF8080001A90F4800F046F920210D4855
:1018200000F0C1F8012240F225510A4800F016F9F3
:1018300026208DF8000001208DF8030002208DF88D
:1018400001006846FFF700FB0121024800F0C3F8E1
:1018500005B000BD0044004010B5044621460548CF
:1018600000F0AEF900BF8021024800F0C0F8002867
:10187000F9D010BD0044004070B50446002504E0D6
:10188000605DFFF7E9FF681C85B2605D0028F7D155
:1018900070BD000010B54FF480610248FEF7F0FC07
:1018A00010BD00001904002010B540F225510F486A
:1018B00000F0AAF8012818D10D480088B0F5806F13
:1018C00002D300200A4908800848001D0088094901
:1018D000074A1288885406480088401C044908803A
:1018E00040F22551014800F067F810BD0048004063
:1018F0001A0800201904002000B585B0FFF7CAFFC0
:1019000001218804FFF754FC4FF4E13001900020DE
:10191000ADF810000C20ADF80E000020ADF80C0062
:10192000ADF80A00ADF8080001A90F4800F0BCF8B6
:1019300020210D4800F037F8012240F225510A48D5
:1019400000F08CF827208DF8000001208DF80300AE
:1019500002208DF801006846FFF776FA012102485F
:1019600000F039F805B000BD0048004010B504464D
:101970002146054800F024F900BF8021024800F00C
:1019800036F80028F9D010BD0048004070B5044674
:10199000002504E0605DFFF7E9FF681C85B2605D2B
:1019A0000028F7D170BD01F40072B2F5007F00D1BC
:1019B00000BFCA430280704710B50022002340F6E2
:1019C0006A14A14200D100BF0A1201249440A3B2BC
:1019D000DC43048010BD21B1828942F4005282812F
:1019E00004E082894DF6FF731A40828170470246F7
:1019F0000020B1F5007F00D100BF13880B400BB170
:101A0000012000E00020704770B50246002400234A
:101A10000025002040F66A16B14200D100BFC1F394
:101A2000421501F01F03012606FA03F3012D02D12E
:101A30009689334006E0022D02D1168A334001E038
:101A4000968A33400C12012606FA04F416883440B4
:101A500013B10CB1012000E0002070BDF0B50346C9
:101A6000002400260025002040F66A17B94200D164
:101A700000BF1846C1F3421401F01F06012707FA00
:101A800006F5012C01D10C3004E0022C01D11030FC
:101A900000E014301AB107682F43076002E00768BE
:101AA000AF430760F0BD00002DE9F04786B0054662
:101AB0000E460024A24600BFA1460027B08900B10F
:101AC00000BF2F462C8A4CF6FF700440F088044378
:101AD0002C82AC894EF6F3100440B088318908435B
:101AE000718908430443AC81AC8A4FF6FF4004403F
:101AF000B0890443AC8201A8FFF77AFB1F488742F4
:101B000002D1DDF810A001E0DDF80CA0A88900F4F6
:101B1000004040B10AEBCA0000EB0A1031684900EE
:101B2000B0FBF1F807E00AEBCA0000EB0A103168DD
:101B30008900B0FBF1F86420B8FBF0F00401200943
:101B4000642101FB1089A88900F4004040B13220D3
:101B500000EBC900B0FBF1F000F00700044308E01F
:101B6000322000EB09106421B0FBF1F000F00F000F
:101B700004432C8106B0BDE8F08700000038014026
:101B800010B5FFF72FFEFFF7B7FE03A0FFF774FEB7
:101B900006A0FFF7FBFE10BD41200A4361722D55E0
:101BA000534152543220496E69740A0041200A435D
:101BB00061722D55534152543320496E69740A00A5
:101BC000C1F308028280704700BFFEE7490050EA77
:101BD000C12018BF04204A0D18BF40F0010040F298
:101BE000FF72B2EB515F08BF40F00200012808BF4E
:101BF000052070472DE9F0414F1E00EBC701044658
:101C0000D1E9000115461E4637F006020DD02A46DE
:101C1000334601F08DF97F1E04EBC703D3E900239F
:101C200000F036FF37F00602F1D1022F25D0042F45
:101C300013D0062F18BFBDE8F0812A46334601F0C5
:101C400077F9D4E90A2300F023FF2A46334601F04E
:101C50006FF9D4E9082300F01BFF2A46334601F050
:101C600067F9D4E9062300F013FF2A46334601F052
:101C70005FF9D4E9042300F00BFF2A46334601F054
:101C800057F9D4E9022300F003FF2A46334601F056
:101C90004FF9D4E90023BDE8F04100F0F9BE01227C
:101CA00001F093BF00F0F4BE002213461046114627
:101CB00000F0AABF024A0020110701F086BF000011
:101CC00001FDFFFF2DE9F04D8D4F21F0004A86B058
:101CD00005460C46BA452ADBAAEB070028430AD082
:101CE0008848824501DC1AD1CDB106B02846BDE84E
:101CF000F04DFFF7D4BF844A844B284601F018F911
:101D000007460E46824A834B2846214601F010F9C9
:101D100006B03A463346BDE8F04D00F0B9BE0120AA
:101D2000FEF703FB06B0BDE8F04DFFF7BDBF7A48F4
:101D3000824542DABAF1795F0BDA2846FFF746FFAF
:101D4000042808BFFFF7B6FF284606B02146BDE8C5
:101D5000F08D2A460B46104601F0EAF8834602460B
:101D60006E480E460B4606217844FFF743FF5A465D
:101D7000334601F0DDF8804669488A465A463346C4
:101D800004217844FFF736FF5A46334601F0D0F875
:101D900000223B4600F07CFE02460B464046514680
:101DA00000F032FF2A46234601F0C2F806B02A4668
:101DB0002346BDE8F04D00F06BBE284624F00041FC
:101DC00000223D463B4601F0B1F94FF0FF3201F0F1
:101DD000FCFE0646024653480F460B460621784451
:101DE000FFF708FF32463B4601F0A2F8CDE90001BB
:101DF0004D4832463B4604217844FFF7FBFE32460D
:101E00003B4601F095F800222B4600F041FE834648
:101E100002913046394600F0EBFC804643480D46BF
:101E2000504517DCDDE900015A46029B00F0ECFE4C
:101E300042462B4601F07CF842462B4600F028FE35
:101E4000012201F0C2FE304A304B01F061FA304A03
:101E5000304B4CE04FF0000A52460B46404600F033
:101E600017FECDE9031052462B461046194601F0E5
:101E70005FF832463B4601F059F9DDE9033200F0E4
:101E8000C3FE06460F46DDE900015A46029B00F0FC
:101E9000BBFE8346009101223046394601F095FE93
:101EA000194A1A4B01F042F906460F4601224046F4
:101EB000294601F08AFE5A46009B01F039F8324665
:101EC0003B4601F025FA06460F46012250462946B8
:101ED00001F07BFE0E4DDFF858802A46434601F0A4
:101EE00025F932463B4601F021F92A46434601F0E6
:101EF0001DF9002CD8BF81F0004106B0BDE8F08D7F
:101F00000000F03F0000F07F075C143326A6913CF0
:101F1000182D4454FB21F93F0000E03F441F00000E
:101F20005A1F0000CE1E0000E41E00003333EF3FB6
:101F3000FB21E93F2DE9F84F04460D4621F0004012
:101F400000917349814211DC7249884201DC06D15B
:101F50002CB120462946BDE8F84FFFF7A0BE6E48D9
:101F6000002DCCBF6D496E49BDE8F88F6D498142A7
:101F700011DD6D498142D8BF4FF0FF366DDD20463F
:101F80002946FFF723FE042808BFFFF793FE2046EB
:101F90002946BDE8F88F6549654F25F00045814227
:101FA00033DD6449814219DD002632464FF080431B
:101FB0002046294600F06CFD80468A4601222046D4
:101FC000294601F002FE00223B4601F0A1F94246FB
:101FD000534600F019FE04460D463EE0012600225D
:101FE000BA463B462046294600F052FD80460F4641
:101FF000002253462046294601F08AF942463B46D4
:1020000000F002FE04460D4627E04B4981421BDDED
:10201000DFF828A10226002253462046294600F078
:1020200087FF00223B4600F033FD80460F4600222A
:1020300053462046294601F06BF942463B4600F0E4
:10204000E3FD04460D4608E0032622462B46002009
:102050003B4900F0D9FD04460D4622462B4610466A
:10206000194600F065FF8B46824602460B4600F09B
:102070005FFF07460246334888460B4606217844F0
:10208000FFF7B8FD52465B4600F052FF82462E48ED
:102090008B463A46434605217844FFF7ABFD3A4666
:1020A000434600F045FF02460B46002E5046594677
:1020B0000CDA00F0EDFC22462B4600F039FF01B0AF
:1020C00022462B46BDE8F04F01F030B800F0E0FCAE
:1020D00022462B4600F02CFF1C4A7A4402EBC60332
:1020E000D3E9002301F014F922462B4601F010F940
:1020F000174A7A4402EBC603D3E9002301F016F82D
:10210000009A002AB8BF81F00041BDE8F88F0000B6
:10211000000010440000F07F182D4454FB21F93FCB
:10212000FB21F9BF0000DC3F0000203E0000F33F30
:102130000000F03F0000E63F008003400000F83F51
:102140000000F0BFE61C0000A41C0000421C0000C0
:102150000A1C00002DE9F04D9446CCF1000423F058
:1021600000464CEA0404594F46EAD4749A4688461D
:1021700021F00042BC4206D8454240EA050442EA4A
:10218000D474BC4204D9BDE8F04D6246FFF78ABD65
:10219000AAF14055A5F17F6555EA0C040BD0022445
:1021A00004EAAA744A4DDFF82CE144EAD87452EAF2
:1021B000000B04D00CE0BDE8F04DFFF7BBBE002CD7
:1021C00014BF012CBDE8F08D022C30D0032C32D08E
:1021D00056EA0C0B0AD0BE4220D1BA4209D126F0F1
:1021E000804622F080423346114617E000291ADB70
:1021F00025E0DFF8E4B0FB44002C04BFDBE900017C
:10220000BDE8F08D012C02BFDBE9000181F0004147
:10221000BDE8F08D022C0AD0032C0CD0BA4212D1AA
:10222000B8F1000F0BDA2A482C49BDE8F08D28469A
:102230002B49BDE8F08D28467146BDE8F08D244855
:102240002849BDE8F08D921B12153C2AC4BF204FCF
:10225000244E10DCBAF1000FBEBF12F13C0F002774
:102260003E4608DB624600F0CFFC21F00041FFF75C
:1022700061FE07460E4694B1012C08BF86F0004669
:102280000DD0194A194B022C3846314615D001F0B1
:102290003FF82A46BDE8F04D114B01F039B8002255
:1022A00013463846314600F007FE04BF0220FEF711
:1022B0003CF838463146BDE8F08D01F029F82A4651
:1022C000BDE8F04D064B00F031BF00000000F07F8C
:1022D000182D4454FB2109C09E1B0000FB21F9BFAF
:1022E000FB210940FB21F93F075C143326A6A13CE2
:1022F0002DE9F0410446E07800F0C006E07800F0F7
:102300003F05607800F0010098B1EF102846E9170A
:1023100005EB5171C910A5EBC101491C01F0FF0883
:102320000B48006820B10A48414602683846904789
:1023300000BF607800F0080030B10548406818B16F
:10234000B011034A516888470020BDE8F0810000C1
:102350004C0900202DE9F04F8DB007468846154600
:102360009946DDE9166B0024002030806B49887B9C
:102370005A4605A900F0E0F818B1601E0DB0BDE89E
:10238000F08F6648807A00F01400002867D09DF82E
:10239000140000069DF8151040EA01409DF8161043
:1023A00040EA01209DF81710084328609DF81800A6
:1023B00000069DF8191040EA01409DF81A1040EA05
:1023C00001209DF81B10084368609DF81C00000662
:1023D0009DF81D1040EA01409DF81E1040EA0120C2
:1023E0009DF81F100843A8609DF8200000069DF886
:1023F000211040EA01409DF8221040EA01209DF89A
:1024000023100843E86004F11000C4B228680014E7
:102410000190686800140290A86800140390E868AE
:102420000014049001984043029901FB01000399B4
:1024300001FB0100049901FB010ABAF1706F02DB94
:10244000BAF1885F05DD00F0D7F800203080401E2B
:1024500094E7B6F9000040F48070308000BF2F4848
:10246000807A00F0400020B305A9601C085C095D7B
:1024700040EA012000B2A8F8000005A9E01C095CB0
:1024800005AAA01C105C41EA002000B2A8F80200D6
:1024900005A9601D095C201D105C41EA002000B206
:1024A000A8F80400A01DC4B2B6F9000040F008006E
:1024B00030801A48408900F4C07008B305A9601C38
:1024C000085C095D40EA012000B2388005A9E01CE3
:1024D000095C05AAA01C105C41EA002000B27880CB
:1024E00005A9601D095C201D105C41EA002000B2B6
:1024F000B880A01DC4B2B6F9000040F07000308072
:102500000648807A00F0030018B105A90819FFF702
:10251000EFFE4846FDF74CFF00202FE74C09002056
:1025200010B5FEF78AF8FEF7D0FFFFF729FBFEF79C
:10253000D8FA002010BD0000F8B504460F46164634
:102540002C4890F8240010B94FF0FF30F8BD29480E
:10255000807A10B94FF0FF30F8E7264A1268117BF5
:10256000244A526810786B460222FEF7DAF910B15D
:102570004FF0FF30EAE79DF801009DF8001040EAB7
:102580000125A54203DA00203070401EDEE719481D
:1025900040684088B5EB600F17DD164A1268D17CA1
:1025A000144A526810786B460122FEF7BAF910B14E
:1025B0004FF0FF30CAE79DF8000000F0100020B196
:1025C00000F01AF86FF00100C0E7E2B2094B1B6897
:1025D000597B084B5B6818783B46FEF7A2F910B1AF
:1025E0004FF0FF30B2E795FBF4F0401E3070002052
:1025F000ACE70000E008002008B57048807A10B908
:102600004FF0FF3008BD002000906C4A1268517CEA
:102610006A4A526810786B460122FEF72BFA10B115
:102620004FF0FF30EEE7654A12685179634A52680D
:1026300010786B460122FEF71DFA10B14FF0FF3003
:10264000E0E75E4A126811795C4A526810786B467E
:102650000122FEF70FFA10B14FF0FF30D2E75748D2
:1026600090F82400002853D00C200090534A1268A0
:102670001179524A526810786B460122FEF7FAF936
:1026800010B14FF0FF30BDE73220FDF797FEC020BC
:1026900000904A48807A00F0010020B19DF80000C7
:1026A00040F020000090454A12681179434A526870
:1026B00010786B460122FEF7DDF910B14FF0FF30C4
:1026C000A0E73E48407C10B10220009001E00020CD
:1026D00000903A4A1268517C384A526810786B462A
:1026E0000122FEF7C7F910B14FF0FF308AE7002052
:1026F0000090324A12685179304A526810786B461D
:102700000122FEF7B7F9002855D04FF0FF3079E7E6
:1027100004200090294A12681179284A52681078DA
:102720006B460122FEF7A6F910B14FF0FF3069E7C2
:102730002248807C20B92148807A00F0010010B93D
:102740004020009001E0602000901C4A126811793E
:102750001A4A526810786B460122FEF78BF910B1C5
:102760004FF0FF304EE73220FDF728FE1348407C43
:1027700010B10120009001E0002000900F4A126883
:10278000517C0E4A526810786B460122FEF772F9AE
:1027900010B14FF0FF3035E7084A12685179074A07
:1027A00052681078054B10330122FEF763F910B11F
:1027B0004FF0FF3026E7002024E70000E00800206B
:1027C00009480068006808B9012000E0002020B135
:1027D0004FF0FF300549086005E003480068C06815
:1027E0000068024908607047100900203C09002079
:1027F0002DE9F04106460F4600F0A4FC041E0D46EC
:1028000018BF0120284320F00040C0F17F6000F194
:10281000E040C00F0ED0301C18BF0120384320F01C
:102820000040C0F17F6000F1E040C00F04BF012014
:10283000FDF77BFD20462946BDE8F081124800687F
:1028400018B10120114908601DE000200F490860FF
:102850000F480068B0FA80F0C0F11F0101EB81025F
:102860000C4B03EB820042685268426000F10802A0
:102870004368934202D14268526842604268D2681B
:10288000054B1A6000BF704748090020300900203E
:10289000240900205C0900200C0900202DE9F041EA
:1028A00000275748006800287ED156480068451C1C
:1028B000544805608DB95448D0F8008053480068EA
:1028C000514908605148C0F8008051480068401CD8
:1028D0004F490860FFF774FF00BF4E48006885420B
:1028E00076D300BF48480068006808B9012000E0BE
:1028F000002020B14FF0FF304649086067E04248B1
:102900000068C068C4686668B54202D24148066083
:102910005DE06069D4E902128A60D4E902214A606C
:10292000211D42688A4201D1E16841600022626152
:102930000168491E0160A06A98B1A06AD4E9071233
:102940008A60D4E907214A6004F1180142688A428A
:1029500001D1216A41600022A2620168491E016022
:1029600000BF94F82C10012088402B4909680843C7
:1029700029490860E16A01EB8101284A02EB8101E3
:102980004868A0608268E260211D826851608160B1
:10299000E16A01EB8101214A02EB81026261E16A95
:1029A00001EB81011D4A00E022E052F82110491C90
:1029B000E26A02EB8202194B43F822101849E06ADE
:1029C0000968C96A88428DD901278BE700E000BFFA
:1029D00013480068C06A00EB8000104951F82000DD
:1029E000012800D901270F48006800B1012704E041
:1029F0000D480068401C0C4908603846BDE8F0816D
:102A00004809002020090020100900201409002096
:102A1000340900203C090020240900205C09002022
:102A20000C090020300900202C09002021F0004270
:102A3000A2F16052B2F5801F01F0004328BFD2F12D
:102A40007F6C0BD95FEA001C43EAC20242EB507074
:102A500018BF704728BF20F001007047B2F5801FF3
:102A6000BCBF184670474FEA410C1CF5001F02D24C
:102A7000084600F0C2BF70B500F004FB00000089FA
:102A8000FFF7F6BF4FF00040A0F580007047000050
:102A900010B591EA030F48BF83F0004300F1408472
:102AA000841A71EB030C05D2121943EB0C03001BC3
:102AB00061EB0C01DFF824E14FEA1154A4EB135C45
:102AC0001EEA430F18BF9EEA445F73D023EA0E0349
:102AD000DCF1200E21EA045143F4801332D322FAB0
:102AE0000CFE10EB0E0023FA0CFE41EB0E01CCF1B4
:102AF000200E03FA0EFE10EB0E0051F10001B1F5AD
:102B0000801FCCF1200E32D201EB045112FA0EF2EA
:102B1000BDE8104058BF7047401C38BF5FEA420212
:102B200018BF7047002814BF20F0010041F10001D8
:102B30004FEA410313F5001F38BF7047A1F1C041B0
:102B400000F0EEBA012A43EB0302ACF1200CDCF1F9
:102B50001F0E32BF4FF0000E23FA0CF310EB0300F0
:102B600041EB0451B4EB115FD0D0A1EB045101F55E
:102B7000801149085FEA300001EB04510ED350F197
:102B8000000038BF12FA0EFE08D1BDE81040C9E7B8
:102B9000401C38BF5FEA4202CAD1C3E7BDE810401B
:102BA0004FEA410313F5001F38BF7047A1F1C04140
:102BB00000F0B6BA9EEA445F08D011EA5E0FBDE8A5
:102BC000104004BF01F0004100207047BDE81040F4
:102BD00070B500F057FA00BF64FBBE3E0000E0FF96
:102BE00002494FF0000000F0BEBF00BF0000F87FB8
:102BF000491058BFC1F140415B1058BFC3F1404379
:102C00008B42EFF3008070472DE9C04130B4DFF80C
:102C1000A0C23CEA111418BF3CEA131400F0EC8087
:102C200081EA03051CEA111444EAD57418BF1CEAB2
:102C3000131500F0C780A4EB05044FF0004545EAEA
:102C4000C12145EAC32341EA505143EA525304F1FA
:102C50007F74994204F500344FEAC0204FEAC22243
:102C600008BF904200F09C804FEA13650FF24016B7
:102C7000765D4FEA134506FB05F7C7F1807706FB43
:102C800007F74FEAD737A7FB03687642C8F58038C5
:102C9000A7FB06CE38BFA8F1010807FB08E64FF0F6
:102CA000000EA6FB028CE6FB03CEDCF1000CCEF19D
:102CB000004E38BFAEF1010EA6FB0C584FF00007D6
:102CC0004FF00005E6FB0E87A1FB08C6A0FB07CE70
:102CD00016EB0E0645F10005E1FB076515F1E04E28
:102CE0007EBFA4F580345FEA46066D4116F1800789
:102CF00045F100054FEA17274FEA066647EA0567E0
:102D0000A6F1DE46B6F1805F4FEA15251FD9384699
:102D100024F0010C05EBC471BCF1FE6F01EB0C114A
:102D200002D8F0BCBDE8008124425CBF01F5801EE2
:102D30009EEAC47F02D4F0BCBDE80081244238D4AE
:102D4000F0BCA1F1C041BDE8004100F0E9B94FEA93
:102D5000D22242EA43524FEAD323A7FB02864FEA2C
:102D6000D02040EA415007FB03661EEA0E0F4FEAEF
:102D7000D12105FB026658BFA6EB0056B6EB005604
:102D80004FEA520E4EEAC37E18EB0E0E56EB530E70
:102D9000BDD518EB02085E417F1C55F10005B6E772
:102DA0004FF480154FF000074FF000064FF0000879
:102DB000ADE7F0BC4FF0000001F1C04101F000416F
:102DC000BDE8008111EA0C1F0CEA131500D00CE0DD
:102DD00013EA0C1F00F025804FF00000F0BC81EAE0
:102DE000030101F00041BDE80081F0BCBDE80041F5
:102DF00081EA030100F094B9F0BCBDE8004170B570
:102E000000F040F9097EFC3E00F007B881EA0301BA
:102E10004FF0000001F00041704781EA030100F02B
:102E20007FB9F0BCBDE800414FF000002149704778
:102E3000FFFDFBF9F7F5F4F2F0EEEDEBE9E8E6E47F
:102E4000E3E1E0DEDDDBDAD8D7D5D4D3D1D0CFCD06
:102E5000CCCBCAC8C7C6C5C4C2C1C0BFBEBDBCBB3F
:102E6000BAB9B8B7B6B5B4B3B2B1B0AFAEADACAB3A
:102E7000AAA9A8A8A7A6A5A4A3A3A2A1A09F9F9E14
:102E80009D9C9C9B9A9999989797969595949393C6
:102E9000929191908F8F8E8E8D8C8C8B8B8A89895D
:102EA00088888787868585848483838282818180E0
:102EB0000000FF070000F87F51EA030C17D41CF54F
:102EC000801F58BFBCF5801F00F10680994218BFD3
:102ED000704708BF9042704707D711F5801F58BF51
:102EE00013F5801F19D499427047894270471CF529
:102EF000801F08D5BCF5801FF7D58B4218BF7047DF
:102F000008BF824270474FF4001C1CEB410F38BFD2
:102F10001CEB430F01D28B42704770B500F0B2F842
:102F2000922449004FF000514FF08053FFF760BEEC
:102F3000DFF848C170B51CEA111E1EBF1CEA13154C
:102F40009EEA0C0F95EA0C0F00F06F8081EA0304F3
:102F500023EA4C134EEAD47E21EA4C1141F480114D
:102F600043F48013AE44A1FB024CA0FB0365AEF119
:102F70007F7E361955EB0C05A1FB034C4CF1000389
:102F8000A0FB021C16EB0C06654153F1000309423D
:102F900018BF46F0010613F4007F0BD14FEA03314E
:102FA0004FEA0530340341EA155140EA16506FF0FC
:102FB00003020AE04FEAC3214FEAC520F40241EAC6
:102FC000555140EA56506FF0020202EB2E4201EBDF
:102FD000025585EACE710AD05FEA440C18BF24F08E
:102FE000004450F1000041F1000120EAD47040F2A9
:102FF000FE7C624500D270BDA84214BF4FF08044F1
:103000004FF04044002E08BF0024BEF1806FA8BFDF
:10301000A1F1C041BDE8704080F282804FF0000015
:1030200001F1C04101F0004170479EEA0C0F0CEA2B
:10303000131518BF95EA0C0F06D04FF0000081EA77
:10304000030E0EF0004170BD00F01CF88900013E37
:1030500000F007B800F009B84FEA430C5FEA5C5C87
:1030600008D081EA030100F05BB84FEA410C5FEA47
:103070005C5CF6D14FF00000014970470000FF078B
:103080000000F87F0EF1020E2EF0030E5EF8046BC6
:10309000364205D4012A43EB030515F5001F12D86B
:1030A000012841EB010C1CF5001F0CD80ED14FEA92
:1030B000D17C15F5001F0CEB4C0C0CF1020C08BF79
:1030C0004CEBD37C04E04FF0080C01E04FEAD37CDA
:1030D0000CEB4C0526FA05F606F00706B6F1040CD3
:1030E00006D20EEB860CBDE870404CF0010C604738
:1030F000DFE80CF0090B02024FF000414FF0000036
:10310000A1F5002170BD19461046012851EB0104BC
:1031100018BFD4F5001484BF002001F0004170BD39
:103120000808A0F500114FEA3101704791EA030F3A
:1031300010B581F000413FF5B3AC83F0004300F0DF
:10314000EFB800002DE9F04101F5801CBCF5001F2F
:10315000C0F2C3804FEA115C21EA0C510CF1FD0C66
:1031600041F480115FEA5C0C0CF5C07C01D3400097
:1031700049413DA4890241EA905187028E0E0A0C12
:10318000A45D04FB04F602FB06F6C6F14046A4FB70
:103190000662F60D46EA422606FB06F4A4FB01236E
:1031A0005242C3F1404338BF5B1EA6FB02420024DB
:1031B000E6FB0324D20B42EA4446A6FB0623A1FB0E
:1031C00002E2A3FB07E4A4184FF0000252F1000250
:1031D000E3FB01426442C2F1404E38BFAEF1010E42
:1031E000A6FB04234FF00002E6FB0E32A2FB0346CF
:1031F0004FF00004B61954F10004E2FB0264A1FB95
:1032000006E6A4FB07E816EB08064FF0000858F1A5
:103210000008E4FB01687642C8F1405838BFA8F1C5
:103220000108A2FB06E4A3FB08E52D194FF00004FA
:1032300054F10004E2FB0854A1FB05E6A7FB04E8F7
:1032400018EB06084FF0000656F10006E1FB048675
:1032500018F1200556F10006A809A8F11B08B109CC
:1032600008F03F08B8F10A0F40EA86601CD901EB6C
:103270000C51BDE8F08100BFFCF5EEE8E2DDD8D3EB
:10328000CFCBC7C3C0BDB9B6B4B1AEACA9A7A5A3D7
:10329000A19F9D9B9A9896959392908F8D8C8B89E8
:1032A0008887868584838281A0FB006800FB01F209
:1032B00008EB4208B8EB872807D5341858EB01040F
:1032C000D5D5401C51F10001D1E7341A78EB010447
:1032D000CDD4401E71F10001C9E75FEA4C0C5FEAF2
:1032E0009C5C0DD105D34FF0000001F00041BDE81A
:1032F000F081BDE8F04170B5FFF7C4FE6DDBFFBEA5
:10330000BDE8F0414FF00000004970470000F87F31
:1033100010B591EA030F48BF83F000433FF5C0ABFF
:10332000841A71EB030C07D212198CF0004C43EB9A
:103330000C03001B61EB0C01DFF8A4E14FEA115410
:10334000A4EB135C1EEA430F18BF9EEA445F00F033
:10335000B08023EA6E03524221EA0451C3EB6E03AC
:1033600038BF5B1EDCF1200E25D322FA0CFE10EBD9
:103370000E0043FA0CFE41EB0E01CCF1200E03FAD5
:103380000EFE10EB0E0051F10001CCF1200E29D4FD
:1033900012FA0EF201EB0451BDE8104058BF70471D
:1033A000401C1CBFB2F1004F704700280CBF491CE5
:1033B00020F00100704712EB020E43EB030218BF2E
:1033C0004FF0010E4EEA4202ACF1200CDCF11E0E71
:1033D00054D943FA0CFE10EB0E0051F1FF31CCF141
:1033E0001E0ED5D50EF1010E12FA0EFE404141EB34
:1033F000010101EB445C5FEA5C5C10D910EBDE700C
:1034000001EB045138BFBEF1004FBDE8104018BFBA
:10341000704700280CBF491C20F00100704730D2D3
:103420004FEAD42C11F5001124F400641BD0B1FA3A
:1034300081F20B3AA41AA41ED2F12003914030FA73
:1034400003F31943904001EBCC71002C01EB0451C4
:10345000BDE81040A8BF704701F1C0414FF0000027
:1034600001F000417047B0FA80F310FA03F100D187
:1034700010BDE41A173C4805C90AE4E701EB045102
:1034800010BD491001EB0451BDE810404FEA300077
:1034900002E04FF0000170474A0008BF0042F8D038
:1034A000B2F5001F28BF704701F000414FF0000047
:1034B00070479EEA445F07D011EA5E0FBDE81040F6
:1034C00004BF002100207047BDE8104070B5FFF731
:1034D000D9FD00BF40DFF63E83F000411046704743
:1034E0000000E0FF43004FEAD30C4FEA3C0C43409E
:1034F0001FBF40070CF1605113F0FE4F70471CF0E6
:10350000006F03D100200CF0004170470CF0004325
:1035100043EA507010B540EACC0000F028FA00BF32
:10352000000000924FEA0001FFF7FABD4FF00041A2
:103530004FF00000A1F500217047000090EA010F54
:1035400048BF81F0004100F1A082421A3CBF801ABE
:1035500089184FEAD0524FF07F4C1CEA410FA2EB82
:10356000D15318BF9CEA026F00F03B804FF0004C33
:103570004CEA00204CEA012121FA03FC10EB0C0C70
:103580001ED202F1FF325FEA1C2040EBC25038BF6E
:1035900070471CF07F0F4FEA400C18BFBCF17F4F03
:1035A00038BF7047C3F12003994008BF20F00100E5
:1035B000BCF17F4F38BF7047A0F1C04000F01DBA8A
:1035C0004FEA3C00000A40EBC25028BF1CF0FF0F3E
:1035D0004FEA400CE6D018BFBCF17F4F38BF7047B0
:1035E000EAE79CEA026F05D010EA5C0F08BF00F022
:1035F0000040704710B500F0BAF900BF64FBBE3E52
:10360000401058BFC0F14040491058BFC1F140417F
:103610008142EFF3008070474FF47F0C1CEAD01218
:103620001EBF1CEAD11392EA0C0F93EA0C0F00F0B4
:10363000858090EA010F48BF42F4807240F4000C8C
:1036400041F400002CF07F4120F07F4000B5814222
:10365000A2EB03020FF2081CACEB504EC0F10000CD
:103660009EF800E04FEA4E0E00FB0EFC38BF49000A
:103670004FEA2C1C02F5FA020CFB0EF34FEACE1EA9
:103680004FEA112C4FEAC1210EEB635E42EB22425E
:103690000EFB0CFC4FEA1C5300FB03114FEA112CEC
:1036A0004FEA01310EFB0CFC4FEADC4C00FB0C1125
:1036B000C14228BF09184CEB03335DF804EB10EB53
:1036C000410143EBC250B2F57C0F38BF704729D59A
:1036D00012F0F00F1CBF00F1C04000F00040704736
:1036E000008182838485868788898B8C8D8E8F91DB
:1036F0009293959697999A9C9D9FA0A2A3A5A7A8FF
:10370000AAACAEB0B2B3B5B7B9BCBEC0C2C5C7C92A
:10371000CCCED1D4D7D9DCDFE2E6E9ECF0F3F7FA8E
:10372000FE0000004FEA400C0CF1807CBCF17E4FA3
:1037300028BF7047B0F1C04000F05FB990EA010FB8
:103740000CEAD11348BF42F48072624538BF63452A
:1037500007D213F47F0F16D080EA010000F000407A
:10376000704710B500F003F9097EFC3E00F005B883
:1037700080EA010000F00040704780EA010000F09C
:10378000004000F03AB912F47F0F04BF02487047BE
:1037900080EA010000F031B90000C07F41000B0E4B
:1037A000D3F19E0208D950F400034FEA032323FA11
:1037B00002F048BF4042704710B500F0D8F800BF93
:1037C00049922480002070476FF0004282EA200076
:1037D0007047000010F0004148BF4042B0FA80F34B
:1037E00010FA03F2C3F19D030BD051EAC35101EB70
:1037F0001220530638BF704700F1010008BF20F0C7
:103800000100704750EA010C00F113801CF5000F15
:1038100058BFBCF5000F01D48842704707D710F598
:10382000000F58BF11F5000F15D488427047894228
:1038300070471CF5000F04D5BCF5000FF7D5814289
:1038400070474FF0807C1CEB400F38BF1CEB410FE2
:1038500001D28142704710B500F089F892244900E6
:103860004FF000504FF08051FFF7CABE4FF47F0C6D
:103870001CEAD0121EBF1CEAD11392EA0C0F93EA85
:103880000C0F00F0478090EA010F48BF42F48072AD
:103890004FF0004C4CEA00204CEA012102EB0302FD
:1038A000A0FB0113A2F50002002918BF43F0010399
:1038B0005B0028BF4FEA330342EB22425FEA132C3E
:1038C0004CEBC2502EBFBCEB436FB2F57C0F704780
:1038D0004FEA036CBCF1004F08BF20F00100B2F5C5
:1038E0007C0F38BF70470BD582F0FF0212F5803F86
:1038F000C8BF704700F1C040D8BF00F0004070471B
:1039000000F5000C5FEA4C0C48BF7047B0F1C040B6
:1039100000F073B890EA010F0CEAD11348BF42F4EB
:103920008072624538BF634504D280EA010000F02E
:103930000040704710B500F01AF800BF8900013E42
:1039400000F007B800F009B85FEA410C5FEA1C6CB0
:1039500008D080EA010000F050B85FEA400C5FEA4E
:103960001C6CF6D14FF00040A0F5800070470EF1BE
:10397000020E2EF0030E5EF8044B244204D44FEAEC
:103980004102B2F17F4F11D84FEA4003B3F17F4FAC
:103990000CD80ED14FEAD07CB2F17F4F0CEB4C0C1F
:1039A0000CF1020C08BF4CEBD17C04E04FF0080C8A
:1039B00001E04FEAD17C0CEB4C0324FA03F404F051
:1039C0000704B4F1040C06D20EEB840CBDE81040E1
:1039D0004CF0010C6047DFE80CF0070802024FF0E2
:1039E0000040A0F5800010BD0846420018BFD2F18B
:1039F000807288BF00F0004010BDFF2141EAD05026
:103A0000C005704751EA000C00F113801CF5000F4F
:103A100058BFBCF5000F01D48142704707D711F59C
:103A2000000F58BF10F5000F15D48142704789422E
:103A300070471CF5000F04D5BCF5000FF7D5884280
:103A400070474FF0807C1CEB410F38BF1CEB400FE0
:103A500001D28842704780EA010081EA000180EAD1
:103A60000100FFF7F8BE80F0004090EA010F7FF5FB
:103A70006CAD81F0004100F008B8000090EA010F41
:103A800048BF81F000413FF560AD421A04D882F092
:103A90000042A0EB020011444FEAD0524FF07F4C9D
:103AA0001CEA410FA2EBD15318BF9CEA026F4AD027
:103AB0004FF0004C4CEA00204CEA012121FA03FCB3
:103AC000B0EB0C0C0FD412F0FE0F36D05FEA4C00B6
:103AD0001DD5001240EBC25038BF70471CF03F0F9D
:103AE00018BF70470BE0A2F101025FEA1C2040EB17
:103AF000C25038BF70471CF07F0F18BF7047C3F12A
:103B00002003994014BF401E20F001007047800838
:103B10004FEA122308BF7047B0FA80FCA2EB0C02F8
:103B2000CCF1280C60FA0CF093EA122F04BF00EBE2
:103B3000C25070474FEAC3707047130A5FEADC1047
:103B400008BF7047F6E79CEA026F04D010EA5C0FEA
:103B500008BF0020704710B5FFF709FF40DFF63EB1
:103B600081F0004070470CF00F03092B08BF0820BC
:103B700000F059800A2B0BD0082B18BF704708BFE4
:103B80001CF0400F0AD04FF000004FF000017047CA
:103B90001CF0400F18BF4FF0004070471CF0100F92
:103BA00008D020F0704300F07F4242EAD3014FEA90
:103BB0004370704700F0604021F07F4242EA00020B
:103BC00001F07F4040EA727070474FF0FF0C4CF4F8
:103BD000E06C1CEA11531CBF9CEA030C9445C2BF65
:103BE000DA4201EB02517047002B0DD0BCF1000FFF
:103BF0000FD0002A01F00041A4BF41F0E04141F0A4
:103C00007F614FF00000704701F000414FF000006D
:103C1000704750EA01334FF09B0C18BF4CF0806C9A
:103C20007EF4DEAF70471CF4801F11D01CF4E02F2F
:103C300003D06FEACC31490070474FF04050EFF3AA
:103C4000008222F0704242EA000282F3008870474C
:103C50004FF000007047000075191A0C6A231B1CF6
:103C600000001F207274433B4138393A006B6C37B7
:103C70006F06246D6E706800000476005401F7FD35
:103C8000000100008300000000080000000100188F
:103C900032000500000020410000D242295C0F3EA6
:103CA0009A99993E3333733F295C0F3E0000000020
:103CB000555555555555C53F7D6FEB0312D6D4BFAD
:103CC0005544880E55C1C93F3B8F68B52882A4BFB3
:103CD00088B20175E0EF493F09F7FD0DE13D023F74
:103CE0004B2D8A1C273A03C0C88A599CE52A0040FC
:103CF00059018D1B6C06E6BF82922EB1C5B8B33F49
:103D00004FBB610567ACDD3F182D4454FB21E93FF3
:103D10009BF681D20B73EF3F182D4454FB21F93FE2
:103D2000E2652F227F2B7A3C075C143326A6813C68
:103D3000BDCBF07A8807703C075C143326A6913C13
:103D4000C4EB98999999C9BF711623FEC671BCBF7F
:103D50006D9A74AFF2B0B3BF9AFDDE522DDEADBFE7
:103D60002F6C6A2C44B4A2BF0D5555555555D53FFF
:103D7000FF8300922449C23F6E204CC5CD45B73F1A
:103D8000513DD0A0660DB13FEB0D76244B7BA93F92
:103D900011DA22E33AAD903F00000000000000007D
:103DA000C03D0008000000204C0900002801000868
:103DB000203E00084C0900203C0700006401000878
:103DC000510017FF0102030401020304060708095A
:103DD0000204060855534152543201FF01FF01FF0E
:103DE0008107FF55534152543201FF01FF01FF018A
:103DF000284364FF42FF022501620133D2430312CC
:103E0000704434C05AC50317F0C103393442092144
:103E1000583C0008763C00080539843C00088204C0
:04000005080000ED02
:00000001FF
