:020000040800F2
:10000000784400209D01000879250008F71D0008AC
:10001000752500082D100008793600080000000042
:1000200000000000000000000000000005010008C2
:10003000011500080000000049010008912A00088D
:10004000B7010008B7010008B7010008B7010008B0
:10005000B7010008B7010008B7010008ED15000856
:10006000B7010008B7010008B7010008B701000890
:10007000B7010008B7010008B7010008B701000880
:10008000B7010008B7010008B7010008B701000870
:10009000B7010008B7010008B701000819160008E9
:1000A000B7010008B7010008B7010008B701000850
:1000B000F92B0008B7010008B7010008B7010008D4
:1000C000B7010008B7010008B7010008B701000830
:1000D000B7010008B7010008E931000859330008EA
:1000E000B7010008B7010008B7010008DFF810D019
:1000F00000F0EAFC0048004737510008AFF30080E9
:1001000078440020224B19680868B0E8F00F80F3AB
:100110000988BFF36F8F4FF0000080F311884EF015
:100120000D0E70470000000006480068006880F36C
:10013000088862B661B6BFF34F8FBFF36F8F00DFE1
:1001400000BF00BF08ED00E0EFF30980BFF36F8F41
:100150000F4B1A6820E9F00F106008B54FF05000FF
:1001600080F31188BFF34F8FBFF36F8F06F016FD3A
:100170004FF0000080F31188BDE808401968086856
:10018000B0E8F00F80F30988BFF36F8F704700BFAE
:1001900030090020EFF305807047000006488047D3
:1001A00006480047FEE7FEE7FEE7FEE7FEE7FEE75C
:1001B000FEE7FEE7FEE7FEE7C52A0008ED000008BF
:1001C0002DE9F0410024061B254671F1000605DAF1
:1001D00001240027D0EB070067EB0101161E73F125
:1001E000000605DA0027D2EB0702012567EB0303BF
:1001F00000F044FB86460E4617469C46AC4204D0AF
:100200000025D0EB050E65EB010624B10020D2EBF2
:10021000000760EB030C704631463A466346BDE882
:10022000F081D2B201E000F8012B491EFBD27047E9
:100230000022F6E710B513460A4604461946FFF7B2
:10024000F0FF204610BD30B504460020034600E014
:100250005B1C934203D2E05CCD5C401BF8D030BD08
:10026000034611F8012B00F8012B002AF9D118469A
:100270007047F0B480EA0102D40F4200B2EB410FA4
:1002800002D20246084611464A0042D0C30DDDB2F2
:10029000C1F3C752AD1A202D35DAC1F3160141F46E
:1002A000000204B15242C5F1200602FA06F12A41C9
:1002B0001044B3EBD05F23D0C4B1012DA0EBC350E9
:1002C00009DCF0BC4FF0004202EAC352DBB200F599
:1002D000000000F03EBB400000F1807000EBC35016
:1002E000A0F1807040EAD170490009E0490841EA74
:1002F000C071A0EBC35000F50000400800EBC350F4
:10030000F0BC00F01DBB6142012202EB4101001B69
:10031000F6E7F0BC704781F00041AAE780F00040AA
:10032000A7E780EA010210B502F00043400022D0A6
:100330004A001FD0010E01EB1261C0F35600C2F358
:10034000560240F4000042F40002A0FB0220000428
:100350007F39140400D0401C50EA124001D4400000
:10036000491EC2B20C0604EBD010401C4008802A83
:1003700002D003E0002010BD20F00100002900DAC7
:100380000020184310BD30B480EA010202F000459D
:1003900030F0004221F0004013D090B1C30DD40DD5
:1003A000C2F31601C0F31600E41A41F4000140F450
:1003B00000027D34914201D3641C00E04900002C0E
:1003C00002DA30BC002070474FF400000023914255
:1003D00001D3891A034340084FEA4101F7D151B1D3
:1003E000914202D14FF0004105E002D24FF00101ED
:1003F00001E06FF0010103EBC450284430BC00F071
:100400009FBA2DE9FE4F804681EA0300C00F0C46DB
:10041000009021F0004123F00045B8EB0200A94113
:1004200005D24046214690461C460B46024623F024
:100430000040104347D0270DC7F30A00C3F30A5109
:100440000290401A019040286BDAC3F3130040F485
:10045000801B0098924620B10023D2EB030A63EB85
:100460000B0B01985946C0F14002504600F037FA94
:1004700006460D4650465946019A00F04FFA10EBD9
:1004800008006141002487EA115284EAE7731A43A5
:1004900040D0009A62B3019A012A4FEA075215DC54
:1004A000001B61EB02014FF0004202EA0752CDE966
:1004B0000042001C41F5801132462B4600F086FABE
:1004C00003B0BDE8F08F40462146F9E7001B61EB21
:1004D0000201001C41F5801300185B412018A2F5B1
:1004E000001747EB030140EAD570B6196D4111E0E2
:1004F0006D084FEA360645EAC0754FEA0752001B01
:1005000061EB0201001C41F5801149084FEA3000FF
:100510000019514132462B4603B0BDE8F04F00F0C0
:1005200046BA0098012240000023D0EB020263EBA0
:10053000E073009821464FEAE074B8EB000061EBED
:100540000401E9E783F000435BE781F0004158E7ED
:100550002DE9FE4F81EA030404F0004421F000413C
:1005600000944FF0000B23F0004350EA01045ED0EA
:1005700052EA03045BD0C3F30A54C1F30A552C4476
:10058000A4F2F3340194A0FB0254C1F3130141F42B
:100590008011C3F3130343F4801301FB024400FBF7
:1005A000034E840A970A44EA815447EA8357A4FB1E
:1005B000076802958D0A05FB07854FEA932C04FB1B
:1005C0000C542705029D4FEA065847EA1637B5EB4B
:1005D00008056EEB070C870E920E47EA811742EA78
:1005E0008312A7FB0201B6EB0B0164EB00042B0D99
:1005F00043EA0C335E1844EB1C50DA465146E7FBE5
:100600000201C5F313044FEA0B3343EA14534FEAD4
:100610000432019C43EA0603A4F10C040294009CFA
:10062000CDE900B400F0D2F903B0BDE8F08F0020AE
:100630000146F9E72DE9F04D81EA030404F0004B8F
:1006400021F0004514464FF0000A23F0004150EA23
:10065000050220D054EA01021DD0C5F30A57024614
:10066000C5F31303C1F31300C1F30A5640F4801518
:1006700043F48013A7EB0608101BD64608F2FD389A
:1006800073EB050002D308F1010801E092185B4109
:10069000B8F1000F03DA00200146BDE8F08D00201C
:1006A0004FF48011064684460EE0171B73EB0507D6
:1006B00005D3121B63EB050306434CEA010C490802
:1006C0004FEA300092185B4150EA0107EDD152EA3F
:1006D000030012D082EA040083EA0501084305D032
:1006E000101BAB4106D20122002306E000224FF08E
:1006F000004302E06FF0010253101AEB06004CEBCE
:10070000085110EB0A0041EB0B01BDE8F04D00F081
:100710004EB9C10F80EAE0700844CA079623002151
:1007200000F017B996230022114600F012B90EB559
:10073000C10F80EAE0700844CA07002140F2334349
:100740008DE80E000A460B4600F040F903B000BDEC
:100750000EB540F2334102910021CDE900110A4665
:100760000B4600F033F903B000BD00F0004220F06A
:100770000040C10DC0F3160040F400007F2901DAEB
:1007800000207047962903DCC1F19601C84001E0C2
:1007900096398840002AF4D04042704720F000404B
:1007A000C10DC0F3160040F400007F2901DA0020DB
:1007B0007047962903DCC1F19601C840704796390D
:1007C00088407047C1F30A5210B5C1F3130140F2DB
:1007D000FF3341F480119A4201DA002010BD40F24B
:1007E00033439A42A2F2334203DC524200F086F8CD
:1007F00010BD904010BD00F0004230F000400AD023
:10080000C10D01F56071C0F3160042EA0151C20842
:1008100040071143704700200146704701F0004334
:1008200030B421F0004150EA010206D00A0DA2F5D1
:100830006072C1F31301002A02DC30BC0020704753
:10084000440F44EAC104C100E01830BC00EBC250C0
:1008500000F076B8002801DBC0F10040002901DB80
:10086000C1F1004181427047002801DBC0F1004026
:10087000002901DBC1F10041884270472DE9F05F9A
:100880000546002092469B468846064681464024FF
:100890001BE0284641464746224600F02FF85346C3
:1008A0005A46C01A914110D311461846224600F00C
:1008B00016F82D1A67EB01084F4622460120002149
:1008C00000F00DF817EB00094E41201EA4F10104C1
:1008D000DFDC484631462A464346BDE8F09F202AE1
:1008E00004DB203A00FA02F1002070479140C2F187
:1008F000200320FA03F3194390407047202A04DBB9
:10090000203A21FA02F00021704721FA02F3D04088
:10091000C2F120029140084319467047202A06DBA5
:10092000CB17203A41FA02F043EAE07306E041FABD
:1009300002F3D040C2F120029140084319467047AB
:100940000029A8BF7047401C490008BF20F00100E3
:10095000704710B4B0FA80FC00FA0CF050EA0104C1
:1009600004BF10BC704749B1CCF1200421FA04F453
:1009700011FA0CF118BF012121430843A3EB0C012C
:10098000CB1D4FEA00614FEA102042BF002010BC8F
:10099000704700EBC35010440029A4BF10BC70473F
:1009A000401C490008BF20F0010010BC704710B582
:1009B000141E73F1000408DA401C41F10001921882
:1009C0005B411A4301D120F0010010BD2DE9F04D2B
:1009D00092469B4611B1B1FA81F202E0B0FA80F280
:1009E00020329046FFF77BFF04460F4640EA0A009C
:1009F00041EA0B0153465A46084313D0114653EAC5
:100A0000010019D0C8F140025046FFF777FF0546B4
:100A10000E46504659464246FFF761FF084305D04F
:100A2000012004E020463946BDE8F08D0020054352
:100A300046EAE0762C4337430A986305E40AA0EBC4
:100A400008000022FD0A44EA47540A3002D500207B
:100A50000146E9E7010510196941DDE9084500197A
:100A60006941BDE8F04DA2E770B521F000430343B2
:100A70000CD0C1F30A550024D5EB040564EB040344
:100A8000D617AD1AB34102DB0020014670BD201815
:100A900041EB025170BD000030B5041E71F100043D
:100AA00004DB4FF00044404264EB0101141E73F17B
:100AB000000405DB1C464FF00043524263EB040385
:100AC0008B4208BF824230BD064C074D06E0E0680D
:100AD00040F0010394E8070098471034AC42F6D385
:100AE000FFF708FBC07C0008E07C00082DE9F04D12
:100AF00000231A461B1A8A4103DB00200146BDE889
:100B0000F08DC1F30A52C1F3130141F480154FF087
:100B1000000BD10702D100186D41521E0027044678
:100B200040F2FF11384601EB620A3E46804602461B
:100B300000204FF48011FFF7E1FEC2197141BB188C
:100B400046EB0100B4EB030C75EB000C04D3E41A84
:100B500065EB000517460E46241908F101006D41AA
:100B600080463428E3DDF91946EB0600091BA8414D
:100B700003D24FF0FF32134601E0002213461BEB75
:100B8000070046EB0A51BDE8F04DFFF710BF70B506
:100B90008C1810F8015B15F0070301D110F8013B28
:100BA0002A1106D110F8012B03E010F8016B01F8AF
:100BB000016B5B1EF9D12B0705D40023521E0DD407
:100BC00001F8013BFAE710F8013BCB1A921C03E055
:100BD00013F8015B01F8015B521EF9D5A142D8D38D
:100BE000002070BD21B1826842F00102826003E002
:100BF000826822F001028260704721B1826842F46B
:100C00008072826003E0826822F4807282607047A2
:100C1000014600208A6802F004020AB1012000E0C7
:100C2000002070470146012902D0022906D102E0C6
:100C300003480078704703480078FBE70920F9E78C
:100C40003008002031080020014600208A6802F0A8
:100C500008020AB1012000E00020704700B591B001
:100C60000121480201F026FE0121084601F002FEA2
:100C70004FF4004001F0F2FD0523012219463148EE
:100C800000F02CF90523022204212E4800F026F959
:100C90000523032200212B4800F020F900200C90AE
:100CA0000F904FF460200E9001208DF835008DF8E4
:100CB000340003208DF840000CA9224800F0E2F82F
:100CC00020484C30019080150790002005901E4868
:100CD00002904FF4806008908020069000200390DE
:100CE000032004902020099000200B904FF48050A6
:100CF0000A9001A9154800F064FB0121134800F097
:100D000054FB01210F48FFF778FF01210D48FFF741
:100D100069FF0C4800F03EF900BF0A48FFF794FF56
:100D20000128FAD0074800F058F900BF0548FFF73E
:100D30006FFF0128FAD00121024800F043F911B0F9
:100D400000BD0000002401402A08002008000240E5
:100D50002DE9F04781468A4600240221012000F057
:100D60001FF946490988454A52881144434A9288E6
:100D70008818FFF7DCFC05460022414BFFF75AFCC0
:100D80000746FFF71FFD84B2544504DA0021012015
:100D900000F006F90BE04C4509DD0121084600F0A2
:100DA000FFF80221084600F0FBF800F0BBFB3349D6
:100DB0000988324A52888818FFF7B9FC0746002292
:100DC0004FF08043FFF736FC0546FFF7FBFC84B28B
:100DD000544504DA0021012000F0E2F819E04C4506
:100DE00017DD0121084600F0DBF80021022000F0A9
:100DF000D7F800F097FB012000F07AF948B90220FB
:100E000000F076F928B901F0A7FB0121032000F0DA
:100E100051FA1A498988194A52888818FFF787FCBD
:100E2000054600224FF08043FFF704FC0746FFF71A
:100E3000C9FC84B2544504DA0021012000F0B0F866
:100E400019E04C4517DD0121084600F0A9F8012101
:100E5000022000F0A5F800F065FB012000F048F941
:100E600048B9022000F044F928B901F075FB0121CE
:100E7000032000F01FFABDE8F08700002A080020D8
:100E80000000084030B502460020002350680F4C97
:100E900020400D790C6844EA052420435060906896
:100EA0000B4C2040D1E902542C434D7944EA4504CF
:100EB00020439060D06A20F470000C7C641EE4B281
:100EC000234340EA0350D06230BD0000FFFEF0FF34
:100ED000FDF7F1FF10B5FFF7C1FE10BDF0B50446F8
:100EE0000D4600200021092D11DDE068A5F10A065C
:100EF00006EB4607072606FA07F18843A5F10A061E
:100F000006EB460603FA06F10843E0600CE02069B0
:100F100005EB4507072606FA07F1884305EB45066A
:100F200003FA06F108432061072A0FDA606B561EA8
:100F300006EB86071F2606FA07F18843561E06EBC6
:100F4000860605FA06F10843606322E00D2A0FDAEF
:100F5000206BD61F06EB86071F2606FA07F188438B
:100F6000D61F06EB860605FA06F10843206310E05B
:100F7000E06AA2F10D0606EB86071F2606FA07F1C6
:100F80008843A2F10D0606EB860605FA06F1084332
:100F9000E062F0BD816841F00801816070470000A7
:100FA000012802D0022806D102E0044A117002E0B2
:100FB000034A117000BF00BF7047000030080020D6
:100FC0003108002021B1826842F4A002826003E06F
:100FD000826822F4A00282607047816841F00401B7
:100FE00081607047014621B1012905D0022909D14C
:100FF00005E005480088704703484088FBE7024841
:101000008088F8E70920F6E73208002005480088C4
:1010100005490880034840884880024880888880C5
:10102000704700002A0800203208002000BFFEE7B9
:101030003EB5002002900190009000F083F96420FA
:1010400005F028FC022000F0D5F828E0142102A8C1
:1010500000F048F96A4601A902A800F082F9DDE92A
:10106000001000F0D2FF0120FFF7DCFD01280ED0B8
:101070000F480088B0F5FA6F09DC0D484088B0F5DC
:10108000FA6F04DC0A488088B0F5FA6F07DD00F0DB
:1010900061F9502005F0FEFB00F04AF900E0D5E7C9
:1010A00000BF01F053FA044600F0C8F83EBD00004E
:1010B0002A08002070B50020FFF794FF04460120A5
:1010C000FFF790FF06460220FFF78CFF0546AC4273
:1010D00003DD012000F08EF808E0A54203DD0220C8
:1010E00000F088F802E0012000F084F870BD0000F4
:1010F0000146012904D0022905D0032909D105E0C0
:1011000005480078704705480078FBE704480078F8
:10111000F8E70920F6E700002A0900202B09002043
:101120002C09002010B50320FFF7E2FF012811D1A0
:101130000A2005F0AFFBFFF769FF012000F04CFB30
:10114000C82005F0A7FB002000F046FB002103208B
:1011500000F0B0F810BD000010B50120FFF762FDEF
:1011600060BBC82005F096FB0120FFF75BFD28BBA4
:101170000121022000F09EF81148006805F09AFC59
:10118000002000F0BFF9044600F0C6F9201AB0F5BF
:10119000617F09D200F0D6F8642005F07BFB00F0F7
:1011A000C7F8FFF787FF01E0FFF742FF00210220A9
:1011B00000F080F80248006805F0F0FB10BD000068
:1011C0009008002070B506460C461546142130469E
:1011D00000F088F80120FFF725FD022804D12A46F7
:1011E0002146304600F0BDF82968206800F00DFF68
:1011F00070BD000010B50446012C02D100F081F84A
:1012000003E0022C01D100F087F811E00A480088C1
:10121000B0F5AF6F09DC08484088B0F5AF6F04DC6B
:1012200005488088B0F5AF6F02DD00F081F800E07E
:10123000ECE700BF10BD00002A0800202DE9F041B6
:10124000044600F069F800252BE018480068FFF715
:101250008CFA05B216480088B0F5AF6F09DC144867
:101260004088B0F5AF6F04DC11488088B0F5AF6FEF
:1012700017DD204601F0E2F807460C480068FFF74A
:1012800074FA06B22D223946304601F013F940B9FE
:101290002D222146284601F00DF910B900F048F83A
:1012A00000E0D2E700BFBDE8F08100004408002064
:1012B0002A080020012804D0022805D0032808D1DC
:1012C00005E0054A117004E0044A117001E0044A87
:1012D000117000BF704700002A0900202B09002070
:1012E0002C0900202DE9F04104460D460026284631
:1012F000FFF718FA074601F099F906462660BDE89F
:10130000F08110B54FF4E151484200F07EFE01211A
:101310000846FFF7CFFF10BD10B50449484200F062
:1013200074FE01210846FFF7C5FF10BDE0E3FFFF93
:1013300010B50021084600F068FE00210120FFF7EB
:10134000B9FF10BD10B50249084600F05EFE10BDA1
:10135000E0E3FFFF10B54FF4E151084600F055FE01
:1013600010BD2DE9FC4106460F4690460020019035
:10137000009000250024306804460546694601A80F
:1013800001F062F900982D1A009804440198054470
:101390000198241A002D00DA0025002C00DA002420
:1013A0003D60C8F80040BDE8FC8121B1026842F010
:1013B0000102026004E002684FF6FE731A40026008
:1013C000704710B50022026847F6F0739A430C6A22
:1013D0008B6823430C6923434C6923438C69234363
:1013E000CC6923434C6A23438C6A23431A4302602B
:1013F000CB6843600B6883604B68C36010BD0170AD
:10140000704730B505460B4605B103B930BD2846D7
:1014100000F02BF80446E3619C6100BFF6E710B5CD
:10142000202003F09BFE04460CB9002010BD0020D4
:101430002061A061E0612046F8E72DE9F041054612
:101440000E461746202003F089FE044614B90020FA
:10145000BDE8F08129462046FEF702FF2661277588
:101460000020A061E0612046F2E702460AB90020B0
:101470007047114600E0C969C8690028FBD10846D9
:10148000F6E7000010B5FFF7CAFF0C49086001221B
:101490000B490CA0FFF7D1FF04462146074800681E
:1014A000FFF7AFFF0122094909A0FFF7C6FF044675
:1014B000214602480068FFF7A4FF10BD2409002060
:1014C0002809002042757A7A6572000029090020F7
:1014D000546970734C45440010B5FFF7D3FF00F01A
:1014E00001F810BD00B500210348FFF788FF002177
:1014F0000248FFF784FF00BD2809002029090020C9
:1015000070470000014611B10248006808600148B8
:1015100000687047F008002001480068704700002C
:10152000F408002002480068024908607047000083
:10153000F0080020F4080020044A1168014400BFAC
:10154000024A12688A42FBD370470000F00800206C
:1015500000BF00BF704700002DE9F0471B4800881E
:101560001B4908801B4800881B49088018490988C6
:10157000194A12888818FFF7DAF8074600224FF058
:101580008043FFF757F80546FFF748F9044613492B
:101590002046FEF7F8FE82461149FEF7C2FE81465C
:1015A000FFF729F9074600220E4BFEF7D1FF05464B
:1015B000FFF708F90C490880002004490880054914
:1015C00008800A2005F066F9BDE8F08720080020B1
:1015D0002408002022080020260800200000AF4434
:1015E00000005841000059402808002010B5022092
:1015F00000F07EF8012807D1044A0549054800F0AB
:101600006BFD022000F06EF810BD000044080020C1
:10161000400800203C08002010B5402000F068F889
:1016200001280FD14021294800F06CFB38B9284827
:101630000088401C26490880012000F03BFA402029
:1016400000F050F8802000F053F801280FD18021DD
:101650001E4800F057FB38B91D480088401C1C4943
:101660000880012000F026FA802000F03BF84FF4BB
:10167000807000F03DF8012810D10102134800F0FD
:1016800041FB38B913480088401C124908800120EA
:1016900000F010FA4FF4807000F024F84FF400705E
:1016A00000F026F8012810D14102084800F02AFB7A
:1016B00038B908480088401C06490880012000F01D
:1016C000F9F94FF4007000F00DF810BD000C014066
:1016D000200800202208002001490860704700000F
:1016E00014040140014908607047000014040140DF
:1016F000014600200022074B1B6803EA0102054B4C
:1017000014331B680B4013B10AB1012000E0002024
:101710007047000000040140002123498279002A1B
:101720003AD00A46126803689A430B461A600A1DAB
:10173000126803689A430B1D1A60027911440A6803
:1017400003681A430A60184A0832126803689A4309
:10175000154B08331A601A1D126803689A43124B1E
:101760000C331A604279102A0ED11A1F12680368CE
:101770001A430D4B08331A601A1D126803681A4386
:10178000094B0C331A600DE00749427911440A688D
:1017900003681A430A6005E0027911440A68036885
:1017A0009A430A60704700000004014008B5012117
:1017B000042001F07FF800208DF803003120ADF8FF
:1017C000000003208DF802006946024800F0BCF8D2
:1017D00008BD00000008014010B5044622464FF441
:1017E0008071024800F002FB10BD000000080140BB
:1017F00008B50121042001F05DF810208DF80300E8
:101800000001ADF8000003208DF80200694602488F
:1018100000F09AF808BD0000000801401FB5012142
:10182000082001F047F80121084601F043F848205C
:101830008DF80F00C020ADF80C0003208DF80E00CD
:1018400003A9204800F080F848208DF80F004FF4DD
:101850004070ADF80C0003208DF80E0003A9194864
:1018600000F072F80621012000F02EF80721012077
:1018700000F02AF80821012000F026F809210120B3
:1018800000F022F84FF47070FFF726FF4FF47070ED
:10189000019001208DF80A0000208DF808000C202E
:1018A0008DF8090001A8FFF737FF17208DF8000019
:1018B00001208DF8030003208DF80100684600F038
:1018C0005DFE1FBD000C014030B500228B071C0FD0
:1018D0000F2303FA04F20B4B8C1053F8243093437C
:1018E000084C8D1044F8253023468C1053F82430D2
:1018F0008C07240F00FA04F42343024C8D1044F8A3
:10190000253030BD0800014008B50121042000F059
:10191000D1FF14208DF803004FF4C050ADF8000043
:1019200003208DF802006946064800F00DF80122F8
:10193000D102044800F05AFA01221103014800F0D4
:1019400055FA08BD000801402DE9F0410246002586
:101950000026002000230024002791F803C00CF08B
:101960000F0591F803C00CF0100CBCF1000F03D070
:1019700091F802C04CEA050591F800C0BCF1000FD7
:1019800031D0146800202BE04FF0010C0CFA00F36A
:10199000B1F800C00CEA03069E4220D183004FF04C
:1019A0000F0C0CFA03F7BC4305FA03FC4CEA0404E1
:1019B00091F803C0BCF1280F06D14FF0010C0CFACE
:1019C00000FCC2F814C00AE091F803C0BCF1480F53
:1019D00005D14FF0010C0CFA00FCC2F810C0401CFD
:1019E0000828D1D31460B1F800C0BCF1FF0F34DD7A
:1019F000546800202EE000F1080C4FF0010808FAAE
:101A00000CF3B1F800C00CEA03069E4221D183001A
:101A10004FF00F0C0CFA03F7BC4305FA03FC4CEA39
:101A2000040491F803C0BCF1280F05D100F1080CA3
:101A300008FA0CF8C2F8148091F803C0BCF1480F02
:101A400007D100F1080C4FF0010808FA0CF8C2F8B1
:101A50001080401C0828CED35460BDE8F08110B53A
:101A6000FFF752FFFFF7A2FEFFF7D8FE00F0D0F815
:101A700000F058F800F076F900F004F8FFF7B8FE2F
:101A800010BD000008B50121042000F013FF102054
:101A90008DF803008001ADF8000003208DF80200EE
:101AA00069460348FFF750FF002000F003F808BD27
:101AB0000008014010B5044622464FF480610248F8
:101AC00000F094F910BD00000008014010B5044674
:101AD00022460221014800F089F910BD000C0140A6
:101AE00010B5044622460121014800F07FF910BDDF
:101AF000000C014010B5044622464FF480410248D4
:101B000000F074F910BD0000000C014010B504464F
:101B100022464FF40041024800F068F910BD000071
:101B2000000C014008B50121042000F0C3FE012192
:101B3000082000F0BFFE0121084600F0BBFE012195
:101B40002A4800F097F84020ADF8000018208DF8E2
:101B5000030003208DF8020069462548FFF7F4FED4
:101B60008020ADF8000018208DF8030003208DF8C8
:101B7000020069461E48FFF7E7FE4FF40050ADF83B
:101B8000000010208DF8030003208DF80200694644
:101B90001848FFF7D9FE0320ADF8000010208DF89B
:101BA000030003208DF8020069461248FFF7CCFEBF
:101BB0004FF44040ADF8000010208DF803000320E2
:101BC0008DF8020069460B48FFF7BEFE012000F0C9
:101BD00013F80020FFF77AFF0020FFF781FF0020B5
:101BE000FFF788FF0020FFF791FF08BD00023000DB
:101BF00000080140000C014010B5044622464FF495
:101C00000051024800F0F2F810BD0000000C014045
:101C10001FB50121042000F04DFE48208DF803007F
:101C20000220ADF8000003208DF80200694610483C
:101C3000FFF78AFE01210020FFF746FE02200290F6
:101C400001208DF80E0000208DF80C000C208DF87E
:101C50000D0002A8FFF760FD07208DF804000120A9
:101C60008DF807008DF8050001A800F087FC1FBD66
:101C700000080140F0B50A46002300240021002599
:101C800000F00046B6F1004F02D11D4EF16901E0AF
:101C90001B4E7168C0F3034583B200F44016B6F5DD
:101CA000401F08D121F07061154E766826F07066ED
:101CB000134F7E6012E000F48016B6F5801F06D147
:101CC000032606FA05F4A14341F0706106E0460DD3
:101CD000360103FA06F6B14341F0706122B1460DB8
:101CE000360103FA06F6314300F00046B6F1004F24
:101CF00002D1034EF16101E0014E7160F0BD0000C0
:101D0000000001400246002093680B400BB1012007
:101D100000E000207047000010B5044622464FF452
:101D20000061034800F062F80120FFF711FC10BDCC
:101D30000008014010B5044622464FF48051034884
:101D400000F054F80120FFF703FC10BD000801402B
:101D500010B54FF480510248FFF7D4FF10BD0000CA
:101D60000008014008B50121042000F0A3FD012175
:101D7000082000F09FFD18208DF803000420ADF826
:101D8000000003208DF8020069461648FFF7DCFDCD
:101D900048208DF803000820ADF8000003208DF8DE
:101DA000020069460F48FFF7CFFD18208DF80300A9
:101DB0004FF48060ADF8000003208DF80200694602
:101DC0000948FFF7C1FD48208DF803004FF400607B
:101DD000ADF8000003208DF8020069460248FFF7C5
:101DE000B3FD08BD00080140000C01400AB10161CB
:101DF00000E04161704700BFFEE72DE9F041044675
:101E00000E4617461D4600F088F8002141EA4401BD
:101E1000C8B200F06DF800F031F8304600F068F814
:101E200000F02CF80A20FFF793FB00F076F8012170
:101E300001EB4401C8B200F05BF800F01FF84FF06E
:101E400000080AE028466D1C00F027F8002000F08A
:101E500043F808F1010000F0FF08781E4045F1DC6E
:101E6000284600F01AF8012000F036F81E20FFF78F
:101E70006FFB00F060F80020BDE8F08110B5012094
:101E8000FFF758FF0120FFF747FFFFF761FF044608
:101E90000020FFF741FF204610BD70B5044600202A
:101EA00020700120FFF746FF002512E00120FFF718
:101EB00033FF20784006000E2070FFF749FF18B16D
:101EC000207840F0010020700020FFF725FF681CFB
:101ED000C5B2082DEADB70BD10B504462046FFF7F9
:101EE00029FF0120FFF718FF0020FFF715FF10BDA5
:101EF00070B5044600250DE004F08000FFF71AFFDE
:101F00000120FFF709FF0020FFF706FF6006040E1F
:101F1000681CC5B2082DEFDB70BD10B50120FFF7BE
:101F200009FF0120FFF7F8FE0020FFF703FF002064
:101F3000FFF7F2FE10BD10B50020FFF7FBFE0120F9
:101F4000FFF7EAFE0120FFF7F5FE10BD2DE9F04195
:101F500005460E4617461C46FFF7DFFF002141EA03
:101F60004501C8B2FFF7C4FFFFF788FF3046FFF70F
:101F7000BFFFFFF783FF4FF0000809E02078FFF76D
:101F8000B7FFFFF77BFF641C08F1010000F0FF08BA
:101F9000781E4045F2DC2078FFF7AAFFFFF76EFFBE
:101FA0001E20FFF7D5FAFFF7C6FF0020BDE8F0813D
:101FB00010B50120FFF720FE10BD10B5FFF7F8FFA8
:101FC0000021084600F021F810BD10B50120FFF7F0
:101FD0007DFD0020FFF784FD10BD10B50020FFF748
:101FE00075FD0120FFF77CFD10BD10B504462046AD
:101FF00000F080FE10BD10B50A464B42904200DD55
:102000001046984200DA184610BD70B505460C46D9
:10201000002D0BDBFFF7E1FF4FF4E1512846FFF7FE
:10202000EAFF0546A8B2FFF7E0FF0FE0FFF7CDFF9C
:102030004FF4E1512846FFF7DEFF05462E1E01DB77
:10204000314600E0714288B2FFF7CFFF002C0BDB76
:1020500000F023F84FF4E1512046FFF7CCFF04468F
:10206000A0B200F022F80FE000F00FF84FF4E151B9
:102070002046FFF7C0FF0446261E01DB314600E084
:10208000714288B200F011F870BD10B50020FFF762
:1020900031FD0120FFF73AFD10BD10B50120FFF71B
:1020A00029FD0020FFF732FD10BD10B50446204683
:1020B00000F02AFE10BD000010B5044600212046A5
:1020C000FEF7C8FB04D203492046FEF7D2F80446C7
:1020D000204610BD0000B4432DE9F04F91B00446F6
:1020E000894692460AA80BA90CAB0DAACDE90010AF
:1020F0008A498B4802F072F820B14FF0FF3011B0DE
:10210000BDE8F08FBDF82C0000F4807000287DD071
:102110000D98FEF7FEFA05464FF09D41FEF733F9A4
:10212000804908600E98FEF7F4FA05464FF09D418D
:10213000FEF729F97C4908600F98FEF7EAFA054690
:102140004FF09D41FEF71FF9784908601098FEF79F
:10215000E0FA05464FF09D41FEF715F97449086015
:10216000704801684FF08040FEF7DBF805906F483B
:1021700001680598FEF7D5F883466B4801684FF073
:102180004040FEF7CEF80590694801680598FEF7D3
:10219000C8F859460690FEF76CF80790FEF72BFB3F
:1021A000CDE9080101F050FB07464FF06632614B64
:1021B000FEF7CEF90546FEF731FB20605B4801686B
:1021C0004FF08040FEF7ADF8029058480168029841
:1021D000FEF7A7F88346544801684FF04040FEF7E9
:1021E000A0F80290504801680298FEF79AF8594604
:1021F0000390FEF790F880464FF07E51FEF739F8D5
:102200000746FEF7F8FACDE9060100E084E045480C
:1022100001684FF08040FEF784F80390424801685F
:102220000398FEF77EF88046404801684FF08040F2
:10223000FEF777F803903E4801680398FEF771F8BF
:1022400083464146FEF715F80746FEF7D4FACDE976
:102250000401DDE9062301F03FFD4FF06632354B06
:10226000CDE90801FEF774F90546FEF7D7FAC9F87B
:1022700000002F4801680068FEF753F804902B48CF
:1022800001680068FEF74DF8029027480168006871
:10229000FEF747F80190234801680068FEF741F80F
:1022A00000900199FDF7E5FF83460299FEF733F8A8
:1022B00003900499FEF72FF80590FEF79CFA054667
:1022C0000E461B48016817480068FEF72AF804907C
:1022D0001648016814480068FEF723F80390049933
:1022E000FDF7C7FF4FF080410590FEF71AF88346CF
:1022F000FEF781FA2A463346CDE9060101F0ECFCEF
:102300004FF066320B4BCDE90801FEF721F9074685
:10231000FEF784FACAF800000020F0E66E080020FC
:1023200068080020580800205C0800206008002091
:102330006408002066A64C4038B5684603F056F89D
:10234000044614B14FF0FF3038BD782003F0E2FDB1
:10235000044614B16FF00100F6E7782002F034FF74
:10236000044614B16FF00200EEE7642003F084FD30
:10237000044614B16FF00300E6E701F023FF0446C2
:1023800014B16FF00400DFE7164802F099FE05462D
:1023900002F074F9044614B16FF00500D4E740F27E
:1023A000731001F0B7FD044614B16FF00600CBE7DF
:1023B000642002F093F8044614B16FF00700C3E7FD
:1023C00004F010F9044614B16FF00800BCE70120D6
:1023D00003F04EFC044614B16FF00900B4E700208E
:1023E000B2E700004E08002010B501216B2000F07C
:1023F000A3F800216C2000F09FF80921192000F0BB
:102400009BF806211A2000F097F818211B2000F0F5
:1024100093F818211C2000F08FF807E0FFF78CFFDD
:10242000054908704FF49670FFF786F80248007867
:102430000028F3D110BD00004A08002000F1B401CB
:1024400008B2B42802DDA0F5B47108B270470000EC
:102450002DE9FC5F13491448CDE9001013480088AA
:10246000FEF776F98046DDE90023FEF771F80446B1
:102470000D460F480068FEF7BEF9064622462B4679
:10248000FEF760F88246FEF7C9F90949086042F292
:10249000107004F0FFF9054800880A3003490880ED
:1024A000BDE8FC9FDC3DFCD9E8CC703F480800202B
:1024B000440800202DE9F04704460F4690460025C9
:1024C000002607EB080005B2A7EB080006B220467D
:1024D000FEF71FF98246FFF7EFFD8146FEF745F94B
:1024E00004B22846FEF715F98246FFF7E5FD81465E
:1024F000FEF73BF905B23046FEF70BF98246FFF7CF
:10250000DBFD8146FEF731F906B2B54208DBA64293
:1025100004DCAC4202DC0120BDE8F0870020FBE7D0
:10252000B54207DAA64201DDAC4201DC0120F3E747
:102530000020F1E70020EFE713B5044601AB0122CC
:1025400021466820FFF702FD1CBD00000148B0F9DC
:10255000000070474C08002010B504480068FEF7E2
:1025600004F900B20249088010BD000044080020B0
:102570004C08002000BFFEE77047000070B5002146
:1025800000230F22C47804B3154C246804F4E064DB
:10259000C4F5E064210AC1F10403CA40447804FA96
:1025A00003F184781440214309010E4C0678A155AB
:1025B000047804F01F050124AC4005786D11AD00CE
:1025C00005F1E025C5F8004109E0047804F01F0595
:1025D0000124AC40044D0678761145F8264070BDC4
:1025E0000CED00E000E400E080E100E0024901437E
:1025F000024A1160704700000000FA050CED00E08F
:102600002DE9F04104460D462E4685F0004731463F
:102610002068FEF729F900D2266039462068FEF7C7
:1026200019F900D22760BDE8F081000070B50446BA
:1026300004480088FEF776F80546214600F022F8A7
:1026400070BD0000280800202DE9F04104460D4629
:102650000A48068887883046FEF764F880460849AD
:1026600000F086F820603846FEF75CF880460449A2
:1026700000F07EF82860BDE8F08100002A08002004
:10268000000091432DE9F35FDDE90001FDF746FE0F
:102690002D4908602D480068FEF7ADF806464FF05A
:1026A00066322B4BFDF754FF04460D462648006862
:1026B000FEF7A1F806464FF03332264BFDF748FFF0
:1026C000804622462B46FDF79CFE8246FEF7A6F882
:1026D0001D490860084601681F480068FDF7C9FDEC
:1026E0001D4908601D491C48FFF78AFF174801680B
:1026F00015480068FDF70FFE194908601248006888
:10270000124908601648016816480068FDF709FE7E
:1027100006461148016814480068FDF702FE0746A6
:102720000948016811480068FDF7FBFD80463946FD
:10273000FDF79FFD05463146FDF79BFD0446FEF77C
:1027400014F8BDE8FC9F0000C4080020CC0800205D
:102750006666E63F3333D33FC808002000803B4520
:10276000D0080020C0080020BC080020B8080020C5
:102770002DE9F35FDDE90001FDF7D0FD2D4908608B
:102780002D480068FEF737F806464FF066322B4BAF
:10279000FDF7DEFE04460D4626480068FEF72BF8DE
:1027A00006464FF03332264BFDF7D2FE80462246D6
:1027B0002B46FDF726FE8246FEF730F81D490860DD
:1027C000084601681F480068FDF753FD1D49086071
:1027D0001D491C48FFF714FF174801681548006899
:1027E000FDF799FD19490860124800681249086010
:1027F0001648016816480068FDF793FD0646114823
:10280000016814480068FDF78CFD07460948016817
:1028100011480068FDF785FD80463946FDF729FD22
:1028200005463146FDF725FD0446FDF79EFFBDE850
:10283000FC9F0000E0080020E80800206666E63FF4
:102840003333D33FE408002000803B45EC080020F0
:10285000DC080020D8080020D40800200146002011
:10286000034A506820F4404008435060704700001D
:102870000010024029B1064A52690243044B5A61D2
:1028800004E0034A52698243014B5A6170470000D9
:102890000010024029B1064AD2690243044BDA61B2
:1028A00004E0034AD2698243014BDA6170470000B9
:1028B0000010024029B1064A92690243044B9A6112
:1028C00004E0034A92698243014B9A617047000019
:1028D0000010024030B500210022002400232D4DBD
:1028E0006D6805F00C0121B1042905D0082923D118
:1028F00005E0294D056022E0274D05601FE0254DCC
:102900006D6805F47012234D6D6805F4803402255E
:1029100005EB92421CB9214D554305600BE01D4D5E
:102920006D6805F400351DB11C4D5543056002E08E
:10293000194D5543056002E0174D056000BF00BF0B
:10294000144D6D6805F0F0010909154D6B5C0568C3
:10295000DD4045600F4D6D6805F4E061090A104DDA
:102960006B5C4568DD4085600A4D6D6805F460511B
:10297000C90A0B4D6B5C4568DD40C560054D6D684F
:1029800005F44041890B074D6B5CC568B5FBF3F559
:10299000056130BD0010024000127A0000093D00C0
:1029A000000000201000002010B500F001F810BD5C
:1029B0000CB50020019000903348006840F480304E
:1029C0003149086000BF3048006800F400300090D2
:1029D0000198401C0190009818B90198B0F5A06FBB
:1029E000F1D12948006800F4003010B101200090B6
:1029F00001E0002000900098012843D1234800689E
:102A000040F01000214908600846006820F00300EB
:102A100008600846006840F0020008601A484068F4
:102A2000194948600846406848600846406840F4D4
:102A3000806048600846406820F47C104860084682
:102A4000406840F4E81048600846006840F0807034
:102A5000086000BF0C48006800F000700028F9D042
:102A60000948406820F0030007494860084640686C
:102A700040F00200486000BF0348406800F00C00CE
:102A80000828F9D10CBD00000010024000200240CF
:102A900010B500BF502080F31188BFF34F8FBFF3F4
:102AA0006F8F00BF04F0F8F818B14FF08050044960
:102AB000086000BF002080F3118800BF10BD000037
:102AC00004ED00E010B51348006840F00100114922
:102AD000086008464068104908400E4948600846AA
:102AE00000680E4908400B4908600846006820F459
:102AF000802008600846406820F4FE0048604FF4DB
:102B00001F008860FFF750FF4FF000600449086025
:102B100010BD0000001002400000FFF8FFFFF6FEAD
:102B200008ED00E002E0012003F0B4FEFBE701E065
:102B3000FEF712FDFCE701E0FFF78AFCFCE700BFAF
:102B4000FEE702E0012003F0A5FEFBE702E0012022
:102B500003F0A0FEFBE702E0012003F09BFEFBE791
:102B600004E000F0A3FB642003F094FEF9E702E028
:102B7000012003F08FFEFBE700BFFEE702E001202B
:102B800003F088FEFBE701E0FEF7CCFAFCE705E086
:102B90004FF496714FF4FA60FEF7DAF8F8E70EB5E5
:102BA000002002900190009004E06A4601A902A86A
:102BB000FEF708FBF9E701E0FEF7CEFAFCE70000BC
:102BC0001CB54FF44070FFF711FD064801210023AA
:102BD0008022CDE9001004A1064804F029F803F092
:102BE00033FF1CBDB00800205461736B5F537461E8
:102BF00072740000A52F000810B50121880700F0AD
:102C000058F8012804D105480068401C03490860B1
:102C10000121880700F007F810BD0000F00800202F
:102C2000CA4302827047CA430282704721B10288B8
:102C300042F00102028004E002884FF6FE731A405F
:102C4000028070471FB501210846FFF723FE0020D0
:102C5000ADF80A00ADF8060040F2E730ADF8080024
:102C60004720ADF8040000208DF80C0001A94FF0BA
:102C7000804000F045F901218807FFF7D1FF0122CC
:102C80001146900700F026F81C208DF80000012066
:102C90008DF803008DF801006846FFF76FFC0021F6
:102CA0004FF0804000F02AF901218807FFF7BEFFAE
:102CB0001FBD30B50246002000230024158A05EA16
:102CC0000103958905EA010413B10CB1012000E06C
:102CD000002030BD1AB183890B43838102E08389D0
:102CE0008B438381704710B5FFF7ACFF00F016F8F7
:102CF00010BD000010B504462146024800F0FAF865
:102D000010BD00000004004010B5044621460248F2
:102D100000F0F2F810BD00000004004000B587B0DC
:102D200001210220FFF7B6FD684600F0D9F8002027
:102D3000ADF81600ADF812004FF4E150ADF81400F4
:102D40004720ADF8100000208DF8180004A91448A1
:102D500000F0D6F86020ADF800000020ADF80800C3
:102D60000120ADF802000020ADF8060069460C48CD
:102D700000F018F86020ADF800000020ADF8080061
:102D80000120ADF802000020ADF8060069460448B5
:102D900000F054F801210248FFF748FF07B000BDDA
:102DA0000004004070B5002400220023058C4FF67B
:102DB000FE7635400584028C8388048B4FF68F7530
:102DC0002C40B51E2C400D882C43751E2A400D89C1
:102DD0002A434D882A43144DA8420BD0134DA842D4
:102DE00008D0134DA84205D0124DA84202D0124D72
:102DF000A84213D14FF6F7752A404D892A434FF662
:102E0000FB752A408D882A434FF6FF652B404FF60D
:102E1000FF552B408D892B43CD892B438380048321
:102E2000CD888586028470BD002C014000340140AD
:102E300000400140004401400048014070B50024BA
:102E400000220023058C4FF6EF7635400584028C76
:102E50008388048B48F6FF752C404FF6FF452C40C5
:102E60000D884FF6FF7606EA05252C434FF6DF75F1
:102E70002A400D8906EA05152A434D8806EA0515FC
:102E80002A43154DA84202D0144DA8421DD14FF639
:102E90007F752A404D894FF6FF7606EA05152A43CD
:102EA0004FF6BF752A408D8806EA05152A434FF66E
:102EB000FF352B404FF2FF752B408D8906EA8505C3
:102EC0002B43CD8906EA85052B4383800483CD8877
:102ED0000587028470BD0000002C014000340140D1
:102EE0000021018041808180C180018141818181F7
:102EF000C181704781867047018770478184704720
:102F0000002202881D4B98420ED01D4B98420BD0D8
:102F1000B0F1804F08D01B4B984205D01A4B984215
:102F200002D01A4B984204D14FF68F731A404B8847
:102F30001A43174B984207D0164B984204D04FF6CD
:102F4000FF431A40CB881A4302808B8883850B8805
:102F500003850A4B98420BD0094B984208D00E4B80
:102F6000984205D00D4B984202D00D4B984201D1AA
:102F70000B7A03860123838270470000002C0140F6
:102F8000003401400004004000080040000C0040F4
:102F90000010004000140040004001400044014087
:102FA000004801401CB5044603F020FC4D480121B7
:102FB00000238022CDE900104BA14D4803F038FEDC
:102FC0004C48012100238022CDE900104AA14C4841
:102FD00003F02EFE4B48012100238022CDE9001092
:102FE00049A14B4803F024FE4A48012100238022D6
:102FF000CDE9001048A14A4803F01AFE49480121D2
:1030000000238022CDE9001047A1494803F010FEBB
:103010004848012100238022CDE9001046A14848FC
:1030200003F006FE4748012100238022CDE900106D
:1030300045A1474803F0FCFD4648012100238022BA
:10304000CDE9001044A1464803F0F2FD45480121B6
:1030500000238022CDE9001043A1454803F0E8FD9C
:103060004448012100238022CDE9001042A14448B8
:1030700003F0DEFD4348012100238022CDE900104A
:1030800041A1434803F0D4FD42480121002380229E
:10309000CDE9001040A1424803F0CAFD414801219A
:1030A00000238022CDE900103FA1414803F0C0FD7C
:1030B0004048012100238022CDE900103EA1404874
:1030C00003F0B6FD3F48012100238022CDE9001026
:1030D0003DA13F4803F0ACFD002003F0F5FB03F0F9
:1030E00097FB1CBD740800205441534B3100000075
:1030F000252B0008780800205441534B3200000073
:10310000612B00087C0800205441534B3300000021
:103110006F2B0008800800205441534B34000000FE
:10312000792B0008840800205441534B35000000DF
:103130007D2B0008880800205441534B36000000C6
:10314000872B00088C0800205441534B37000000A7
:103150008F2B0008900800205441534B380000008A
:103160009F2B0008940800205441534B3900000065
:10317000B72B0008980800205441534B3130000011
:103180002F2B00089C0800205441534B3131000084
:10319000372B0008A00800205441534B3132000067
:1031A0003F2B0008A40800205441534B313300004A
:1031B000432B0008A80800205441534B3134000031
:1031C0004D2B0008AC0800205441534B3135000012
:1031D000572B000810B54FF480610248FDF728F81E
:1031E00010BD00001400002010B540F225510F481A
:1031F00000F062F9012818D10D480088B0F5806F01
:1032000002D300200A4908800848001D00880949A7
:10321000074A1288885406480088401C04490880E0
:1032200040F22551014800F01FF910BD0044004054
:10323000140400201400002000B585B0FFF7CAFF79
:1032400001214804FFF726FB4FF4E13001900020F4
:10325000ADF810000C20ADF80E000020ADF80C0009
:10326000ADF80A00ADF8080001A90F4800F074F9A4
:1032700020210D4800F0EFF8012240F225510A48C4
:1032800000F044F926208DF8000001208DF803009D
:1032900002208DF801006846FFF770F9012102480D
:1032A00000F0F1F805B000BD00440040124800886D
:1032B00018B90020114908701DE00F480088104916
:1032C0000988884207D00C4800880D4908800220F0
:1032D0000A4908700FE008480088094909888842AF
:1032E00009D100200749044A1288885402490880FD
:1032F00001200249087070471404002018040020BF
:10330000160400201400002010B50446214605488C
:1033100000F0AEF900BF8021024800F0C0F800289C
:10332000F9D010BD0044004070B50446002504E00B
:10333000605DFFF7E9FF681C85B2605D0028F7D18A
:1033400070BD000010B54FF480610248FCF770FFBB
:1033500010BD00001904002010B540F225510F489F
:1033600000F0AAF8012818D10D480088B0F5806F48
:1033700002D300200A4908800848001D0088094936
:10338000074A1288885406480088401C044908806F
:1033900040F22551014800F067F810BD0048004098
:1033A0001A0800201904002000B585B0FFF7CAFFF5
:1033B00001218804FFF76EFA4FF4E13001900020FC
:1033C000ADF810000C20ADF80E000020ADF80C0098
:1033D000ADF80A00ADF8080001A90F4800F0BCF8EC
:1033E00020210D4800F037F8012240F225510A480B
:1033F00000F08CF827208DF8000001208DF80300E4
:1034000002208DF801006846FFF7B8F80121024854
:1034100000F039F805B000BD0048004010B5044682
:103420002146054800F024F900BF8021024800F041
:1034300036F80028F9D010BD0048004070B50446A9
:10344000002504E0605DFFF7E9FF681C85B2605D60
:103450000028F7D170BD01F40072B2F5007F00D1F1
:1034600000BFCA430280704710B50022002340F617
:103470006A14A14200D100BF0A1201249440A3B2F1
:10348000DC43048010BD21B1828942F40052828164
:1034900004E082894DF6FF731A408281704702462C
:1034A0000020B1F5007F00D100BF13880B400BB1A5
:1034B000012000E00020704770B502460024002380
:1034C0000025002040F66A16B14200D100BFC1F3CA
:1034D000421501F01F03012606FA03F3012D02D164
:1034E0009689334006E0022D02D1168A334001E06E
:1034F000968A33400C12012606FA04F416883440EA
:1035000013B10CB1012000E0002070BDF0B50346FE
:10351000002400260025002040F66A17B94200D199
:1035200000BF1846C1F3421401F01F06012707FA35
:1035300006F5012C01D10C3004E0022C01D1103031
:1035400000E014301AB107682F43076002E00768F3
:10355000AF430760F0BD00002DE9F04786B0054697
:103560000E460024A24600BFA1460027B08900B144
:1035700000BF2F462C8A4CF6FF700440F0880443AD
:103580002C82AC894EF6F3100440B0883189084390
:10359000718908430443AC81AC8A4FF6FF40044074
:1035A000B0890443AC8201A8FFF794F91F48874211
:1035B00002D1DDF810A001E0DDF80CA0A88900F42C
:1035C000004040B10AEBCA0000EB0A103168490024
:1035D000B0FBF1F807E00AEBCA0000EB0A10316813
:1035E0008900B0FBF1F86420B8FBF0F00401200979
:1035F000642101FB1089A88900F4004040B1322009
:1036000000EBC900B0FBF1F000F00700044308E054
:10361000322000EB09106421B0FBF1F000F00F0044
:1036200004432C8106B0BDE8F0870000003801405B
:1036300010B5FFF701FEFFF7B7FE03A0FFF774FE1A
:1036400006A0FFF7FBFE10BD41200A4361722D5515
:10365000534152543220496E69740A0041200A4392
:1036600061722D55534152543320496E69740A00DA
:10367000C1F308028280704700BFFEE7490050EAAC
:10368000C12018BF04204A0D18BF40F0010040F2CD
:10369000FF72B2EB515F08BF40F00200012808BF83
:1036A000052070472DE9F0414F1E00EBC70104468D
:1036B000D1E9000115461E4637F006020DD02A4614
:1036C0003346FCF745FF7F1E04EBC703D3E9002315
:1036D000FCF797FE37F00602F1D1022F25D0042F18
:1036E00013D0062F18BFBDE8F0812A463346FCF7F9
:1036F0002FFFD4E90A23FCF784FE2A463346FCF761
:1037000027FFD4E90823FCF77CFE2A463346FCF762
:103710001FFFD4E90623FCF774FE2A463346FCF764
:1037200017FFD4E90423FCF76CFE2A463346FCF766
:103730000FFFD4E90223FCF764FE2A463346FCF768
:1037400007FFD4E90023BDE8F041FCF75ABE01228F
:10375000FDF78AB9FCF755BE002213461046114604
:10376000FCF768BF024A00201107FDF77DB9000091
:1037700001FDFFFF02E008C8121F08C1002AFAD1AC
:1037800070477047002001E001C1121F002AFBD1E1
:103790007047000001490860704700009809002048
:1037A0002DE9FE4F06460F460025684601F070F9E8
:1037B000002442E056F8240057F82410A0EB010A38
:1037C000BAF1000F01DB514601E0CAF100010846E1
:1037D000FCF79FFF83464FF08F41FCF7D4FD8046F6
:1037E0005DF824000021FDF735F816D05DF82410AF
:1037F0004046FCF7C8FD82464FF07E51FCF78BFD3A
:10380000814629F0004A0F48416A5046FDF72CF8DE
:1038100012D20120A04005430EE00A48C16940468B
:10382000FDF718F805D30748016A4046FDF71CF874
:1038300002D20120A0400543641C032CBADB2846B9
:10384000BDE8FE8FB06F00082DE9F04D8D4F21F0DF
:10385000004A86B005460C46BA452ADBAAEB0700AB
:1038600028430AD08848824501DC1AD1CDB106B080
:103870002846BDE8F04DFFF76ABF844A844B2846CE
:10388000FCF766FE07460E46824A834B28462146D1
:10389000FCF75EFE06B03A463346BDE8F04DFCF755
:1038A000B0BD0120FFF776FF06B0BDE8F04DFFF791
:1038B00053BF7A48824542DABAF1795F0BDA28467B
:1038C000FFF7DCFE042808BFFFF74CFF284606B0D0
:1038D0002146BDE8F08D2A460B461046FCF738FE1F
:1038E000834602466E480E460B4606217844FFF793
:1038F000D9FE5A463346FCF72BFE804669488A4675
:103900005A46334604217844FFF7CCFE5A463346E4
:10391000FCF71EFE00223B46FCF773FD02460B46F9
:1039200040465146FCF786FE2A462346FCF710FE29
:1039300006B02A462346BDE8F04DFCF762BD284696
:1039400024F0004100223D463B46FCF7FEFD4FF0CF
:10395000FF32FDF789F80646024653480F460B46EC
:1039600006217844FFF79EFE32463B46FCF7F0FD09
:10397000CDE900014D4832463B4604217844FFF72B
:1039800091FE32463B46FCF7E3FD00222B46FCF756
:1039900038FD834602913046394602F0B7FE804634
:1039A00043480D46504517DCDDE900015A46029BAD
:1039B000FCF740FE42462B46FCF7CAFD42462B462A
:1039C000FCF71FFD0122FDF74FF8304A304BFCF7A2
:1039D000B9FD304A304B4CE04FF0000A52460B46DE
:1039E0004046FCF70EFDCDE9031052462B4610462B
:1039F0001946FCF7ADFD32463B46FCF7A6FDDDE976
:103A00000332FCF717FE06460F46DDE900015A4671
:103A1000029BFCF70FFE8346009101223046394697
:103A2000FDF722F8194A1A4BFCF78FFD06460F46A0
:103A3000012240462946FDF717F85A46009BFCF73D
:103A400087FD32463B46FCF77DFD06460F460122C8
:103A500050462946FDF708F80E4DDFF858802A46F3
:103A60004346FCF772FD32463B46FCF76EFD2A46A4
:103A70004346FCF76AFD002CD8BF81F0004106B038
:103A8000BDE8F08D0000F03F0000F07F075C1433CC
:103A900026A6913C182D4454FB21F93F0000E03F3D
:103AA000E0420000F64200006A420000804200004E
:103AB0003333EF3FFB21E93F2DE9F84F04460D4634
:103AC00021F0004000917349814211DC7249884223
:103AD00001DC06D12CB120462946BDE8F84FFFF79E
:103AE00036BE6E48002DCCBF6D496E49BDE8F88FDB
:103AF0006D49814211DD6D498142D8BF4FF0FF36DB
:103B00006DDD20462946FFF7B9FD042808BFFFF701
:103B100029FE20462946BDE8F88F6549654F25F006
:103B20000045814233DD6449814219DD0026324679
:103B30004FF0804320462946FCF763FC80468A46C6
:103B4000012220462946FCF78FFF00223B46FCF766
:103B5000F9FC42465346FCF76DFD04460D463EE037
:103B600001260022BA463B4620462946FCF749FC7E
:103B700080460F460022534620462946FCF7E2FCC9
:103B800042463B46FCF756FD04460D4627E04B49AE
:103B900081421BDDDFF828A1022600225346204681
:103BA0002946FCF7D5FC00223B46FCF72AFC804660
:103BB0000F460022534620462946FCF7C3FC4246E6
:103BC0003B46FCF737FD04460D4608E00326224637
:103BD0002B4600203B49FCF72DFD04460D462246AE
:103BE0002B4610461946FCF7B3FC8B46824602462C
:103BF0000B46FCF7ADFC07460246334888460B46A9
:103C000006217844FFF74EFD52465B46FCF7A0FCC8
:103C100082462E488B463A46434605217844FFF7B4
:103C200041FD3A464346FCF793FC02460B46002E04
:103C3000504659460CDAFCF7E4FB22462B46FCF7CB
:103C400087FC01B022462B46BDE8F04FFCF77DBC57
:103C5000FCF7D7FB22462B46FCF77AFC1C4A7A4439
:103C600002EBC603D3E90023FCF76CFC22462B468B
:103C7000FCF768FC174A7A4402EBC603D3E9002339
:103C8000FCF763FC009A002AB8BF81F00041BDE850
:103C9000F88F0000000010440000F07F182D4454FD
:103CA000FB21F93FFB21F9BF0000DC3F0000203E73
:103CB0000000F33F0000F03F0000E63F00800340BB
:103CC0000000F83F0000F0BF8240000040400000CC
:103CD000DE3F0000A63F00002DE9F04D9446CCF1F8
:103CE000000423F000464CEA0404594F46EAD47419
:103CF0009A46884621F00042BC4206D8454240EA36
:103D0000050442EAD474BC4204D9BDE8F04D6246D1
:103D1000FFF720BDAAF14055A5F17F6555EA0C04D7
:103D20000BD0022404EAAA744A4DDFF82CE144EADD
:103D3000D87452EA000B04D00CE0BDE8F04DFFF758
:103D4000BBBE002C14BF012CBDE8F08D022C30D07E
:103D5000032C32D056EA0C0B0AD0BE4220D1BA4214
:103D600009D126F0804622F080423346114617E002
:103D700000291ADB25E0DFF8E4B0FB44002C04BF87
:103D8000DBE90001BDE8F08D012C02BFDBE9000199
:103D900081F00041BDE8F08D022C0AD0032C0CD03C
:103DA000BA4212D1B8F1000F0BDA2A482C49BDE80B
:103DB000F08D28462B49BDE8F08D28467146BDE8B8
:103DC000F08D24482849BDE8F08D921B12153C2A3D
:103DD000C4BF204F244E10DCBAF1000FBEBF12F159
:103DE0003C0F00273E4608DB6246FCF723FC21F02F
:103DF0000041FFF761FE07460E4694B1012C08BF53
:103E000086F000460DD0194A194B022C384631462F
:103E100015D0FCF797FB2A46BDE8F04D114BFCF797
:103E200091BB0022134638463146FCF735FE04BFED
:103E30000220FFF7AFFC38463146BDE8F08DFCF7B5
:103E400081FB2A46BDE8F04D064BFCF77EBB000027
:103E50000000F07F182D4454FB2109C03A3F0000B8
:103E6000FB21F9BFFB210940FB21F93F075C14331B
:103E700026A6A13C2DE9F0410446E07800F0C006FA
:103E8000E07800F03F05607800F0010098B1EF1095
:103E90002846E91705EB5171C910A5EBC101491C72
:103EA00001F0FF080B48006820B10A48414602684B
:103EB0003846904700BF607800F0080030B10548F0
:103EC000406818B1B011034A516888470020BDE826
:103ED000F08100009C09002038B5044664B1202020
:103EE0008DF8000028208DF8010030208DF80200A8
:103EF00038208DF8030004E0A32204216846FCF773
:103F000090F96A46042140F69E2002F06BF801F019
:103F100053FC38BD3EB5044602208DF80000CA208F
:103F20008DF80100E3208DF8020009208DF80300D0
:103F30006A460421682002F055F8A3208DF800009D
:103F400004F0400048B1C0208DF80100C8208DF871
:103F50000200C2208DF8030006E0A3208DF80100C6
:103F60008DF802008DF8030004F4C07048B1C4203D
:103F70008DF80400CC208DF80500C6208DF80600D1
:103F800006E0A3208DF804008DF805008DF80600EA
:103F9000A3208DF807008DF808008DF809006A4607
:103FA0000A2140F6A72002F01DF804F0030018B122
:103FB00020208DF8000002E0D8208DF800006A462D
:103FC000012140F6B62002F00DF804F0200018B1EF
:103FD000012000F0ADF802E0002000F0A9F804F4A0
:103FE000C07008B304F4807060B1B2208DF8000096
:103FF0008B208DF80100B6208DF802009B208DF8F3
:1040000003000BE0B0208DF8000080208DF8010047
:10401000B4208DF8020090208DF803006A46042138
:1040200040F6A22001F0DEFF04F0010020B3F820EA
:104030008DF800006A4601214FF40B6001F0D2FFB9
:10404000FA21072000F02EFC072000F0F5FB0120EC
:1040500000F015FC642000F0F5FC4FF4FA7000F05D
:1040600004FDC821304800F0A5FB282000F0BEFB6D
:104070000A2000F0CEFB08E0D8208DF800006A4648
:1040800001214FF40B6001F0ADFF04F0020018B104
:10409000D9208DF8000002E0D8208DF800006A4693
:1040A000012140F23D7001F09DFF04F0040018B1C1
:1040B000012000F069F802E0002000F065F804F04B
:1040C000100018B10120FFF707FF02E00020FFF702
:1040D00003FF44F008001549488101F06DFB002002
:1040E0001249887304F0400018B10846807B801D97
:1040F000887304F4C07020B10C48807B801D0B498C
:10410000887304F0140020B10848807B1030074900
:10411000887304F0030020B10448807B001D03492C
:10412000887300203EBD000009E3CA029C090020FC
:104130003EB504466CB10EA1D1E900208968CDE9F5
:10414000002002916A4609214FF4976001F04AFF6E
:104150003EBD0AA2D2E900109268CDE901020091A9
:104160006A4609214FF4976001F03CFFF0E7000038
:10417000B8AAB38DB4980D355D000000B8AAAAAAFC
:10418000B088C3C5C700000038B5044664B1C0207C
:104190008DF80000C2208DF80100C4208DF80200C7
:1041A000C6208DF8030004E08B2204216846FCF74A
:1041B00038F86A46042140F6982001F013FF01F018
:1041C000FBFA38BD10B5C8234FF48062024940F6AF
:1041D000F63001F08BF910BDD86F00082DE9F04FD3
:1041E0008DB00746884615469946DDE9166B0024D2
:1041F000002030806B49887B5A4605A901F03CFAC3
:1042000018B1601E0DB0BDE8F08F6648807A00F0EE
:104210001400002867D09DF8140000069DF81510C2
:1042200040EA01409DF8161040EA01209DF8171061
:10423000084328609DF8180000069DF8191040EA10
:1042400001409DF81A1040EA01209DF81B10084318
:1042500068609DF81C0000069DF81D1040EA0140B2
:104260009DF81E1040EA01209DF81F100843A86029
:104270009DF8200000069DF8211040EA01409DF8BD
:10428000221040EA01209DF823100843E86004F161
:104290001000C4B2286800140190686800140290ED
:1042A000A86800140390E868001404900198404343
:1042B000029901FB0100039901FB0100049901FB34
:1042C000010ABAF1706F02DBBAF1885F05DD01F017
:1042D00073FA00203080401E94E7B6F9000040F4E5
:1042E0008070308000BF2F48807A00F0400020B3FB
:1042F00005A9601C085C095D40EA012000B2A8F82D
:10430000000005A9E01C095C05AAA01C105C41EA9C
:10431000002000B2A8F8020005A9601D095C201D5C
:10432000105C41EA002000B2A8F80400A01DC4B24D
:10433000B6F9000040F0080030801A48408900F4C7
:10434000C07008B305A9601C085C095D40EA012043
:1043500000B2388005A9E01C095C05AAA01C105C0D
:1043600041EA002000B2788005A9601D095C201D8B
:10437000105C41EA002000B2B880A01DC4B2B6F9BA
:10438000000040F0700030800648807A00F00300A2
:1043900018B105A90819FFF76DFD4846FDF7B2F8F9
:1043A00000202FE79C09002070B588B0064601A8C0
:1043B00000F068FFBDF804000021C90341EA504540
:1043C000C40300BF4448007A00F0030056F8200000
:1043D00005904148007A00F0040010B10598404271
:1043E00005903D48007AC0F3C10056F820000690C1
:1043F0003948007A00F0200010B10698404206903B
:104400003548007AC0F3811056F8200007903248F2
:10441000008900F4807010B1079840420790059819
:10442000C117A0FB042301FB043100FB0510810030
:1044300041EA927005900698C117A0FB042301FB86
:10444000043100FB0510810041EA92700690079844
:10445000C117A0FB042301FB043100FB0510810000
:1044600041EA927007900598000E8DF808000598B3
:10447000000C8DF809000598000A8DF80A000598CF
:10448000C0B28DF80B000698000E8DF80C0006984F
:10449000000C8DF80D000698000A8DF80E000698A5
:1044A000C0B28DF80F000798000E8DF81000079825
:1044B000000C8DF811000798000A8DF8120007987B
:1044C000C0B28DF8130002AA0C214FF4257001F040
:1044D00089FD08B070BD00009C09002030B585B092
:1044E000044616A207CA02AB07C3C82C03DD4FF06F
:1044F000FF3005B030BDC82090FBF4F0401E85B2FF
:10450000280A8DF80000E8B28DF801006A46022101
:1045100040F2162001F066FD10B14FF0FF30E8E7E1
:1045200002AA0C2140F6C12001F05CFD10B14FF051
:10453000FF30DEE7044884810020DAE7FEF2ABC4F6
:10454000AAF1DFDFBBAFDFDF9C0900201FB5044607
:104550004848007A00F0030054F8200001904548D4
:10456000007A00F0040010B10198404201904148E7
:10457000007AC0F3C10054F8200002903D48007A50
:1045800000F0200010B10298404202903948007AB1
:10459000C0F3811054F8200003903648008900F4DD
:1045A000807010B10398404203903349019880FB1A
:1045B0000101800F40EA810001902F49029880FBA1
:1045C0000110820042EA917002902B49039880FB0F
:1045D0000110820042EA917003900198000E8DF85C
:1045E00000000198000C8DF801000198000A8DF878
:1045F00002000198C0B28DF803006A4604214FF40E
:10460000747001F0EFFC18B14FF0FF3004B010BD32
:104610000298000E8DF800000298000C8DF8010041
:104620000298000A8DF802000298C0B28DF80300CB
:104630006A4604214FF4757001F0D4FC10B14FF0BC
:10464000FF30E3E70398000E8DF800000398000C9C
:104650008DF801000398000A8DF802000398C0B29B
:104660008DF803006A4604214FF4767001F0BAFC1D
:10467000CCE700009C09002009E3CA0210B586B00F
:10468000044647A00068039046A00068029046A038
:104690000068019045A00068009004F0030003A9A1
:1046A000085C8DF8140003A8C4F3C101405C8DF8C8
:1046B000150003A8C4F38111405C8DF8160004F0C6
:1046C000030002A9085C8DF8100002A8C4F3C10120
:1046D000405C8DF8110002A8C4F38111405C8DF894
:1046E000120005AA032140F2264001F07BFC18B11C
:1046F0004FF0FF3006B010BD04AA032140F22A405B
:1047000001F070FC10B14FF0FF30F3E70198059015
:104710000098049004F0040058B19DF8140040F093
:1047200001008DF814009DF8100040F001008DF894
:10473000100004F0200058B19DF8150040F0010071
:104740008DF815009DF8110040F001008DF8110062
:1047500004F4807058B19DF8160040F001008DF807
:1047600016009DF8120040F001008DF8120005AA15
:1047700003214FF4886001F035FC10B14FF0FF3099
:10478000B8E704AA032140F2314001F02BFC10B13C
:104790004FF0FF30AEE7064804810020AAE7000092
:1047A0004CCD6C000CC92C003656760026466600AF
:1047B0009C090020F8B505460E464FF47A7095FB2B
:1047C000F0F000FB06F4200E8DF80000200C8DF8B0
:1047D0000100200A8DF80200E0B28DF803006A465D
:1047E00004214FF4AE7001F0FDFBF8BD38B504466E
:1047F000052094FBF0F084B220128DF80000E0B2A6
:104800008DF801006A4602214FF4AD7001F0EAFB19
:1048100038BD38B50446052094FBF0F084B2201270
:104820008DF80000E0B28DF801006A4602214FF4D5
:10483000AC7001F0D7FB38BD38B5044600200090BD
:1048400004F0010020B19DF8000040F0300000901D
:1048500004F0020020B19DF8000040F00C00009030
:1048600004F0040020B19DF8000040F00300009027
:104870006A4601214FF4A47001F0B4FB38BD38B58D
:104880000446012C01DA012402E0042C00DD04249A
:10489000601EC0B200906A46012140F24F1001F044
:1048A000A1FB38BD2DE9FC4706460F4606F0070080
:1048B00010B1B7F5C86F03DD4FF0FF30BDE8FC87DE
:1048C0003846FBF72FFF81465949FBF75CFD8046D0
:1048D000684600F0B1FC9DF80000022806D00428CC
:1048E00016D0082826D0102848D135E04FF08D4149
:1048F0004046FBF716FD8146FBF750FF84B24D4959
:104900004046FBF70EFD8146FBF748FF85B238E0D5
:104910004FF08C414046FBF704FD8146FBF73EFF1C
:1049200084B245494046FBF7FCFC8146FBF736FF65
:1049300085B226E04FF08B414046FBF7F2FC814602
:10494000FBF72CFF84B23D494046FBF7EAFC814669
:10495000FBF724FF85B214E04FF08A414046FBF795
:10496000E0FC8146FBF71AFF84B235494046FBF76D
:10497000D8FC8146FBF712FF85B202E04FF0FF3012
:104980009CE700BF20128DF80400E0B28DF805000E
:1049900028128DF80600E8B28DF8070006F0010035
:1049A000A0B101AA02214FF4EA7001F01BFB10B183
:1049B0004FF0FF3082E70DF1060202214FF49270B2
:1049C00001F010FB10B14FF0FF3077E706F0020066
:1049D000A0B101AA02214FF4EC7001F003FB10B169
:1049E0004FF0FF306AE70DF1060202214FF4947098
:1049F00001F0F8FA10B14FF0FF305FE706F0040065
:104A0000A0B101AA02214FF4EE7001F0EBFA10B14F
:104A10004FF0FF3052E70DF1060202214FF496707D
:104A200001F0E0FA10B14FF0FF3047E7002045E712
:104A300000004843000040460000C04500004045DB
:104A40000000C04438B50446052094FBF0F085B260
:104A500028128DF80000E8B28DF801006A460221A4
:104A60004FF4EF7001F0BEFA38BD38B504460520AA
:104A700094FBF0F085B228128DF80000E8B28DF8B2
:104A800001006A4602214FF4ED7001F0ABFA38BD27
:104A90007CB5054628494968087801AB04220D21F8
:104AA000FDF7ABF908B107207CBD9DF80700C0F306
:104AB00001109DF8041001F0E00140EAE1008DF8DA
:104AC00000009DF80700C0F381009DF8051001F07B
:104AD000E00140EAE1008DF801009DF8070000F0D8
:104AE00003009DF8061001F0E00140EAE1008DF8B6
:104AF000020000241CE01DF8040018B9002045F84D
:104B0000240013E00D4845F8240006E055F8240081
:104B10000B49FBF706FC45F824001DF80400401E75
:104B2000C0B20DF804000028F0D100BF601CC4B270
:104B3000032CE0DB0020B7E7F80800207B14AE3E32
:104B40001D5A843F2DE9F04F87B005460C4691462B
:104B500001208DF8100000208DF81100FE4A126827
:104B6000517DFD4A5268107804AB0222FDF7EEF940
:104B700020B14FF0FF3007B0BDE8F08FC820FCF740
:104B8000DBFC00208DF81000F34A1268517CF24AD9
:104B90005268107804AB0122FDF7D8F910B14FF03C
:104BA000FF30E8E7EC4A12685179EB4A5268107816
:104BB00004AB0122FDF7CAF910B14FF0FF30DAE77C
:104BC000E54A1268517DE44A5268107804AB01222C
:104BD000FDF7BCF910B14FF0FF30CCE7DE4A1268A8
:104BE000917EDD4A5268107804AB0122FDF7AEF9E0
:104BF00010B14FF0FF30BEE7D74A12681179D64A9C
:104C00005268107804AB0122FDF7A0F910B14FF003
:104C1000FF30B0E70C208DF81000CF4A12681179F0
:104C2000CD4A5268107804AB0122FDF78FF910B11C
:104C30004FF0FF309FE70F20FCF77EFCC648806AEC
:104C4000407A8DF81000C44A12689178C24A5268BE
:104C5000107804AB0122FDF779F910B14FF0FF3065
:104C600089E7BD48806A007A8DF81000BA4A126858
:104C70005178B94A5268107804AB0122FDF766F901
:104C800010B14FF0FF3076E7B9F1000F07D0B2480E
:104C9000806A807A40F0E0008DF8100004E0AE48B1
:104CA000806A807A8DF81000AB4A12689179AA4A1E
:104CB0005268107804AB0122FDF748F910B14FF0AB
:104CC000FF3058E7B9F1000F07D0A348806AC07AD7
:104CD00040F0E0008DF8100003E0A048C07A8DF8A5
:104CE00010009D4A1268D1799B4A5268107804AB33
:104CF0000122FDF72BF910B14FF0FF303BE7B9F17E
:104D0000000F02D0C820FCF717FC40208DF81000DF
:104D1000914A12681179904A5268107804AB0122C6
:104D2000FDF714F910B14FF0FF3024E778208DF82B
:104D30001000894A12685179874A5268107804AB8A
:104D40000122FDF703F910B14FF0FF3013E783495B
:104D50008889FCF7F1FB00208DF810007E4A12686C
:104D600051797D4A5268107804AB0122FDF7EEF8C4
:104D700010B14FF0FF30FEE6774A1268117B764A99
:104D80005268107804AB0222FDF737F810B14FF0EB
:104D9000FF30F0E69DF811009DF8101040EA012B5D
:104DA0000C209BFBF0F0C6B20020A8606860286071
:104DB000A06060602060824665E0674A1268517BAF
:104DC000654A5268107804AB0C22FDF716F810B152
:104DD0004FF0FF30CFE69DF811009DF8101040EA2B
:104DE000012000B2ADF808009DF813009DF81210E4
:104DF00040EA012000B2ADF80A009DF815009DF8C8
:104E0000141040EA012000B2ADF80C00BDF9081002
:104E1000206808442060BDF90A106068084460609A
:104E2000BDF90C10A0680844A0609DF817009DF81B
:104E3000161040EA012000B2ADF800009DF81900FC
:104E40009DF8181040EA012000B2ADF802009DF86C
:104E50001B009DF81A1040EA012000B2ADF80400D2
:104E6000BDF90010286808442860BDF90210686880
:104E700008446860BDF90410A8680844A8600AF1F5
:104E8000010000F0FF0AB24597DB3448D0F800C0BB
:104E90002868C117090441EA10410704624600234B
:104EA0003846FBF78DF932460023CDE90201FBF7C6
:104EB00087F928602948D0F800C06868C11709043C
:104EC00041EA10410704624600233846FBF778F9AF
:104ED00032460023CDE90201FBF772F968601F48F2
:104EE000D0F800C0A868C117090441EA10410704BE
:104EF000624600233846FBF763F932460023CDE9CA
:104F00000201FBF75DF9A8601448D0F804C02068DE
:104F1000C117090441EA10410704624600233846DC
:104F2000FBF74EF932460023CDE90201FBF748F9C1
:104F300020600A48D0F804C06068C117090441EA3B
:104F400010410704624600233846FBF739F9324620
:104F50000023CDE9020103E0F8080020B06F00084B
:104F6000FBF72EF960601148D0F804C0A068C117A3
:104F7000090441EA10410704624600233846FBF762
:104F80001FF932460023CDE90201FBF719F9A060B1
:104F9000A068002804DDA068A0F58030A06003E0D0
:104FA000A06800F58030A0600020E4E5B06F000844
:104FB0002DE9FC5F06460F4600253D494968087803
:104FC00001AB03220D21FCF718FF10B10720BDE84B
:104FD000FC9F9DF8040000F01F008DF804009DF870
:104FE000050000F01F008DF805009DF8060000F098
:104FF0001F008DF80600002456E056F8240057F8EC
:105000002410A0EB010BBBF1000F01DB594601E0BE
:10501000CBF100010846FBF77CFB4FF08F4100907D
:10502000FBF7B1F9814601A8005D68B32149086822
:10503000FBF778FB834659461F48FBF7A4F98046E7
:1050400004E01E494046FBF76CF9804601A8005D6C
:10505000401EC0B201A908550028F2D14146484679
:10506000FBF791F983464FF07E51FBF754F98246E6
:105070002AF0004B0F4881695846FBF7F5FB12D226
:105080000120A04005430EE00A4801694846FBF7AD
:10509000E1FB05D3074841694846FBF7E5FB02D22F
:1050A0000120A0400543641C032CA6DB28468EE7A4
:1050B000F8080020B06F000800B04C4554E3853F6D
:1050C00070B50546284600F00FF80446E81C00F0CD
:1050D0000BF844EAC00084B2A81D00F005F844EAC9
:1050E000801084B2204670BD014691F90020002A4C
:1050F00001DD00201EE091F90020002A01DA0420E1
:1051000018E091F90120002A01DD012012E091F957
:105110000120002A01DA05200CE091F90220002A82
:1051200001DD022006E091F90220002A01DA0620C2
:1051300000E00720704710B5FCF791FCFDF7D3FDA8
:10514000FEF776FAFBF7C6FEFCF737FFFDF74CF9E2
:10515000FCF7C2F9FDF734FD002010BDF0B50B30AF
:10516000154D20F007010024144A0FE003688B421C
:105170000BD38B4205D95E1A43184768C3E9006711
:1051800000E04368136002C004E0021D10680028BC
:10519000ECD12046002802D1286808B10020F0BDDB
:1051A000064A07481060074A121A22F00702C0E9AF
:1051B000002401202860D7E79409002090090020EE
:1051C0007C3E00207840002070B50446002624F084
:1051D0000104184890F8240008B1002070BD15485B
:1051E000807A10B94FF0FF30F8E71248057C807ADA
:1051F0002040104908740846007CA04202D04FF0BD
:10520000FF3600E0002614B90A48007D18B10120DD
:1052100001F034FA02E0002001F030FA3CB100F075
:10522000CBFA20B1034805744FF0FF30D6E7304683
:10523000D4E70000F808002001461148407A30B158
:10524000012807D0022808D003280CD108E002204A
:1052500008700BE00420087008E00820087005E0E2
:105260001020087002E04FF0FF30704700BF044884
:10527000C07C18B108784006000E08700020F4E7E2
:10528000F808002001461348407A30B1012808D0C0
:1052900002280AD0032810D10BE04FF48040088088
:1052A0000EE041F69C7008800AE04FF480500880C0
:1052B00006E04FF40060088002E04FF0FF307047D6
:1052C00000BF0448C07C10B108884010088000204E
:1052D000F5E70000F808002001460248007C08704D
:1052E00000207047F808002001460F48007A30B1CE
:1052F000012807D0022809D003280FD10AE0FA209C
:1053000008800EE04FF4FA7008800AE04FF47A70DB
:10531000088006E04FF4FA60088002E00020088070
:1053200000BF00BF00207047F808002001460E486B
:10533000007A30B1012807D0022808D003280CD108
:1053400008E00A4808600BE00948086008E00948DE
:10535000086005E00848086002E04FF0FF30704741
:1053600000BF0020FBE70000F80800200000034316
:1053700000008342333303423333834101461248F2
:10538000C07A082817D2DFE800F01704070A0D10CA
:105390001318BC20088013E06220088010E02A2047
:1053A00008800DE0142008800AE00A20088007E049
:1053B0000520088004E000BF00BF0020088000BF77
:1053C00000BF002070470000F80800200146064892
:1053D00090F8240010B14FF0FF3070470248C089A8
:1053E00008800020F9E70000F80800201CB50446FA
:1053F00080208DF800003C4A1268517D3A4A52687C
:1054000010786B460122FCF7A1FD10B14FF0FF3080
:105410001CBD6420FCF790F800208DF80000324A93
:105420001268517D304A526810786B460122FCF7B1
:105430008DFD10B14FF0FF30EAE700212A48C1741A
:10544000FF218172FF2028490872FF2126484172FE
:10545000C1724FF6FF71C181FF2101748174012176
:10546000017380F82210002180F823104175017526
:105470001630016041608160163880F8241080F891
:105480002510C1844FF4FA6000F03AFC10B14FF0DF
:10549000FF30BDE7022000F003FB10B14FF0FF30FA
:1054A000B6E72A2000F0A6FC10B14FF0FF30AFE7BE
:1054B000322000F0E1FC10B14FF0FF30A8E70020EF
:1054C000FFF782FE10B14FF0FF30A1E734B10020AA
:1054D00000F028FB10B14FF0FF3099E7002000F0FA
:1054E00019FD002094E70000F80800202DE9F043A2
:1054F00085B005460E4690469946294890F8250005
:1055000020B14FF0FF3005B0BDE8F08316B94FF081
:10551000FF30F8E7002423E0281B102801DD1020CD
:1055200000E0281B87B232193946204600F05AFDA8
:1055300010B14FF0FF30E6E701AA3946204600F0EF
:10554000FBF810B14FF0FF30DDE730193A4601A902
:10555000FAF779FE10B16FF00100D4E7E01984B2D8
:10556000AC42D9DB4FEA28208DF8000008F0FF009C
:105570008DF801000A4A1268517F094A5268107872
:105580006B460222FCF7E2FC10B14FF0FF30BAE7A5
:105590000121034880F82510A0F826900020B2E7EA
:1055A000F808002038B50446DCB9002000F0ECFB18
:1055B00000208DF8000007208DF801002D4A1268A8
:1055C000517D2C4A526810786B460222FCF7BEFCD3
:1055D00010B14FF0FF3038BD002126480175002082
:1055E000F9E7012000F0D0FB20208DF80000012C0D
:1055F00006D100208DF80100052000F0FBFB17E02C
:10560000052C06DC01208DF80100052000F0F2FBDE
:105610000EE0142C06DC02208DF801000A2000F0B8
:10562000E9FB05E003208DF80100142000F0E2FB07
:105630009DF80100072101EB8010C0B28DF8010038
:105640000C4A1268517D0B4A526810786B46022250
:10565000FCF77CFC10B14FF0FF30BCE70821054897
:10566000817200210173012101750020FFF7ACFD5B
:105670000020B0E7F8080020F8B504460F461646AB
:105680002C4890F8240010B94FF0FF30F8BD29489D
:10569000807A10B94FF0FF30F8E7264A1268117B84
:1056A000244A526810786B460222FCF7A6FB10B120
:1056B0004FF0FF30EAE79DF801009DF8001040EA46
:1056C0000125A54203DA00203070401EDEE71948AC
:1056D00040684088B5EB600F17DD164A1268D17C30
:1056E000144A526810786B460122FCF786FB10B111
:1056F0004FF0FF30CAE79DF8000000F0100020B125
:1057000000F05AF86FF00100C0E7E2B2094B1B68E5
:10571000597B084B5B6818783B46FCF76EFB10B171
:105720004FF0FF30B2E795FBF4F0401E30700020E0
:10573000ACE70000F8080020F8B504460D46164610
:1057400016B94FF0FF30F8BD1A48807A10B94FF003
:10575000FF30F8E720128DF80000E0B28DF801006C
:105760009DF801002844134949684989884202DDAF
:105770004FF0FF30E7E70F4A1268D17E0D4A5268BA
:1057800010786B460222FCF7E1FB10B14FF0FF30BE
:10579000D9E7EAB2074B1B68197E064B5B6818789D
:1057A0003346FCF72AFB10B14FF0FF30CBE7002067
:1057B000C9E70000F808002008B57048807A10B9E1
:1057C0004FF0FF3008BD002000906C4A1268517CF9
:1057D0006A4A526810786B460122FCF7B7FB10B199
:1057E0004FF0FF30EEE7654A12685179634A52681C
:1057F00010786B460122FCF7A9FB10B14FF0FF3087
:10580000E0E75E4A126811795C4A526810786B468C
:105810000122FCF79BFB10B14FF0FF30D2E7574855
:1058200090F82400002853D00C200090534A1268AE
:105830001179524A526810786B460122FCF786FBB8
:1058400010B14FF0FF30BDE73220FBF775FEC020EE
:1058500000904A48807A00F0010020B19DF80000D5
:1058600040F020000090454A12681179434A52687E
:1058700010786B460122FCF769FB10B14FF0FF3046
:10588000A0E73E48407C10B10220009001E00020DB
:1058900000903A4A1268517C384A526810786B4638
:1058A0000122FCF753FB10B14FF0FF308AE70020D4
:1058B0000090324A12685179304A526810786B462B
:1058C0000122FCF743FB002855D04FF0FF3079E769
:1058D00004200090294A12681179284A52681078E9
:1058E0006B460122FCF732FB10B14FF0FF3069E745
:1058F0002248807C20B92148807A00F0010010B94C
:105900004020009001E0602000901C4A126811794C
:105910001A4A526810786B460122FCF717FB10B147
:105920004FF0FF304EE73220FBF706FE1348407C75
:1059300010B10120009001E0002000900F4A126891
:10594000517C0E4A526810786B460122FCF7FEFA31
:1059500010B14FF0FF3035E7084A12685179074A15
:1059600052681078054B10330122FCF7EFFA10B1A2
:105970004FF0FF3026E7002024E70000F808002061
:105980002DE9F04F8DB083460F4602200C9043481E
:1059900090F8240020B1002000F06AF9012600E010
:1059A000002603A8FFF7A0FC05A8FFF745FC01A807
:1059B000FFF7E4FC02A8FFF709FD384890F80AA0B9
:1059C00004A8FFF789FC002407E000223946584666
:1059D000FFF7B8F800B902E0641C022CF5DB00BF49
:1059E000022C01D100252AE0002407E0012206A9AB
:1059F00009A8FFF7A7F800B902E0641C022CF5DB48
:105A000000BF022C01D1002519E006A93846FDF798
:105A1000C7FE00F0FF0809A95846FFF7C9FA00F0D1
:105A2000FF090025B9F1000F01D145F00105B8F1DA
:105A3000000F01D145F0020545F0040500BFFF202D
:105A400016490872FF2115484172C1724FF6FF7165
:105A5000C181FF218172017401210173BDF80C0025
:105A600000F04EF99DF8140000F01AF8BDF804009B
:105A700000F0C0F9BDF8080000F0FEF9504600F053
:105A800049FA9DF81000FFF79FFB16B1012000F0C6
:105A9000EFF828460DB0BDE8F08F0000F8080020B0
:105AA00038B504461E48807A10B94FF0FF3038BD33
:105AB000022C06D0042C07D0082C08D0102C0CD1B6
:105AC00008E0002000900BE00820009008E0102083
:105AD000009005E01820009002E04FF0FF30E6E76C
