:020000040800F2
:10000000F844002071020008491C0008E3100008B1
:10001000451C000813080008ED320008000000002D
:10002000000000000000000000000000D9010008EE
:1000300031080008000000001D020008F522000839
:100040008B0200088B0200088B0200088B0200085C
:100050008B0200088B020008AD080008E1080008C8
:100060008B0200088B0200088B0200088B0200083C
:100070008B0200088B0200088B0200088B0200082C
:100080008B0200088B0200088B0200088B0200081C
:100090008B0200088B0200088B0200088B0200080C
:1000A0008B0200088B0200088B0200088B020008FC
:1000B000692600088B0200088B0200088B020008EA
:1000C0008B0200088B0200088B0200088B020008DC
:1000D0008B0200088B020008F92E00088B02000832
:1000E0008B0200088B0200088B02000800F002F867
:1000F00000F063F80AA090E8000C82448344AAF15F
:100100000107DA4501D100F058F8AFF2090EBAE85C
:100110000F0013F0010F18BFFB1A43F0010318473B
:1001200008890000288900000A444FF0000C10F8EC
:10013000013B13F0070408BF10F8014B1D1108BF65
:1001400010F8015B641E05D010F8016B641E01F805
:10015000016BF9D113F0080F1EBF10F8014BAD1C55
:100160000C1B09D16D1E58BF01F801CBFAD505E073
:1001700014F8016B01F8016B6D1EF9D59142D6D3CD
:10018000704700000023002400250026103A28BFF5
:1001900078C1FBD8520728BF30C148BF0B607047F9
:1001A0001FB500F0AFFA04000020002106F0F4FBB8
:1001B000401C60601FBD10B510BD00F0B5FA1146BF
:1001C000FFF7EEFF04F0DBFD00F0D3FA03B4FFF716
:1001D000F2FF03BC00F016FB224B19680868B0E878
:1001E000F00F80F30988BFF36F8F4FF0000080F3AA
:1001F00011884EF00D0E70470000000006480068A0
:10020000006880F3088862B661B6BFF34F8FBFF312
:100210006F8F00DF00BF00BF08ED00E0EFF3098043
:10022000BFF36F8F0F4B1A6820E9F00F106008B50D
:100230004FF0500080F31188BFF34F8FBFF36F8FE3
:1002400006F0B6F94FF0000080F31188BDE80840D1
:1002500019680868B0E8F00F80F30988BFF36F8F62
:10026000704700BF60010020EFF305807047000079
:100270000948804709480047FEE7FEE7FEE7FEE73A
:10028000FEE7FEE7FEE7FEE7FEE7FEE70448054976
:10029000054A064B7047000029230008ED000008BE
:1002A000F83E0020F8440020F8400020F8400020EC
:1002B00010B54C1084EA530404D54042C1F100014A
:1002C00038BF491E1B4204D55242C3F1000338BF58
:1002D0005B1E00F041F914F0804F04D04042C1F1A0
:1002E000000138BF491E14F0004F04D05242C3F140
:1002F000000338BF5B1E10BD2DE9F04791460F4645
:1003000080460446002614F8015B2DB100F018F970
:100310000068405DC007F6D12B2D02D02D2D18D0DE
:10032000641E4A463946204600F098F927B13968DC
:10033000A14201D1C7F800804FF0020471050BD52E
:100340004042002803DD00F003F90460A007BDE887
:10035000F08746F48066E4E70028F8DA00F0F8F861
:1003600004606FF00040F2E7401ECAB210F8011FAF
:100370008A4202D00029F9D10020704730B50546E5
:100380000B462A4613F8014B12F8010B08B1A042A4
:10039000F8D01CB1002802D06D1CF1E7284630BD12
:1003A00040EA010310B59B070FD1042A0DD310C8F2
:1003B00008C9121F9C42F8D020BA19BA884201D944
:1003C000012010BD4FF0FF3010BD1AB1D30703D08C
:1003D000521C07E0002010BD10F8013B11F8014B42
:1003E0001B1B07D110F8013B11F8014B1B1B01D15E
:1003F000921EF1D1184610BD40EA0103024630B505
:100400009B0710D14FF0013400E008C208C91D1B42
:100410009D4315EAC41FF8D013F0FF0102F8011B39
:100420000DD01B0AF8E711F8013B002B02F8013B45
:1004300005D011F8013B002B02F8013BF3D130BD90
:1004400002F0FF0343EA032242EA024200F002B84C
:100450004FF000020429C0F0128010F0030C00F0ED
:100460001B80CCF1040CBCF1020F18BF00F8012B6B
:10047000A8BF20F8022BA1EB0C0100F00DB85FEA39
:10048000C17C24BF00F8012B00F8012B48BF00F805
:10049000012B70474FF0000200B513469446964674
:1004A000203922BFA0E80C50A0E80C50B1F1200187
:1004B000BFF4F7AF090728BFA0E80C5048BF0CC035
:1004C0005DF804EB890028BF40F8042B08BF704793
:1004D00048BF20F8022B11F0804F18BF00F8012B05
:1004E000704710B5044610F0030F08BF11F0030F5A
:1004F00040F015804FF0013E121FC0F20E8051F8FF
:10050000043BA3EB0E0C2CEA030C1CEACE1C08BF28
:1005100040F8043BF0D0A1F1040102F10402521EA4
:1005200008DB11F8013B002B00F8013BF7D1114625
:10053000FFF78EFF204610BD7047704770470000E0
:1005400010B500F0DFF8001D10BD00BF4D640000C5
:1005500000487047983E002053EA020C00F0698082
:100560002DE9F04B4FF00006002B1FBFB3FA83F5C7
:1005700003FA05F424FA05F65E4012BF1643B2FAF8
:1005800082F502FA05F4C5F120051EBF22FA05FC2A
:1005900044EA0C04203556EA044C4FEA144418BFD0
:1005A000641C4FF000084FF00009904271EB030CFF
:1005B00039D3002919BFB1FA81F701FA07F6B0FA69
:1005C00080F700FA07F6C7F120071EBF20FA07FCE4
:1005D00046EA0C062037B6FBF4FCA7EB0507103FF4
:1005E00007F01F0BCBF120060CFA0BFB2CFA06F6DA
:1005F00044BFB3460026202FA4BF5E464FF0000B39
:100600005BEA060C08BF4FF0010B19EB0B09ABFBC3
:10061000027C48EB0608C01B06FB02CC0BFB03CC9C
:1006200071EB0C01C1E70B46024641464846BDE866
:10063000F08B13B54FF000004FF00001AFF30080D6
:10064000BDE81C40704710B5FFF782FF006810BD81
:1006500010B50446FFF77CFF046010BD2DE9F05F84
:10066000824615468B4600270AF10104B9460078F8
:10067000302801D09DB113E014F8010B0127782830
:1006800003D0582801D045B10AE00DB1102D07D193
:10069000002714F8010B102502E0082500E00A25C8
:1006A0000026B0460EE005FB080005FB06F1012719
:1006B0001FFA80F801EB1046B6F5803F00D3B9462B
:1006C00014F8010B294600F021F80028EBDABBF101
:1006D000000F05D00FB1641E00E05446CBF8004077
:1006E000B9F1000F06D0FFF733FF02210160C81EE9
:1006F000BDE8F09F48EA0640FAE70000004870476E
:10070000983E002000487047B83E00203A2800D2AA
:10071000303820F02002412A01D3A2F1370088426C
:1007200001D34FF0FF3070477546FFF7E7FFAE4645
:1007300005006946534620F00700854618B020B5ED
:10074000FFF7A4FDBDE820404FF000064FF0000782
:100750004FF000084FF0000B21F00701AC46ACE869
:10076000C009ACE8C009ACE8C009ACE8C0098D46D6
:10077000704710B50446AFF300802046BDE8104036
:10078000FFF724BD4FF0013C50F8042B51F8043B17
:100790009A4221D1A2EB0C03934313EACC1317D155
:1007A00050F8042B51F8043B9A4215D1A2EB0C03EC
:1007B000934313EACC130BD150F8042B51F8043BAC
:1007C0009A4209D1A2EB0C03934313EACC13DBD07A
:1007D0004FF00000704700BFD01A01BAB1FA81F1A2
:1007E00001F0180122FA01F0CB40C1F12001DBB287
:1007F000C0B2C01A2CFA01F3D11A914311EAC31105
:10080000E6D1704701491820ABBEFEE72600020082
:10081000704700BFFEE700000020014908707047E4
:100820001800002010B50446204602F005FC10BD5B
:1008300070470000014909680160704718010020F5
:10084000044A1168014400BF024A12688A42FBD37D
:10085000704700001801002000BF00BF7047000073
:1008600070B50B4801F0C6FF0948B0F9000006F06A
:10087000E5FF0546074906F0AFFE0446064907F0C6
:100880003DF806490860002002F000F870BD000045
:100890001C0000200000B6440000D04020000020D2
:1008A00001490968016070472000002010B501204F
:1008B00000F086F801280DD100F0B2FB012801D12B
:1008C00001F02CFF00F0ACFB20B901F01FFF01206C
:1008D00002490870012000F06DF810BD24000020CE
:1008E00010B5022000F06CF8012847D1244A2549B0
:1008F000254800F057FD00283DD124480078012804
:1009000004D00021084600F0F7FC10BD2048FFF796
:10091000C7FF00211C48006801F020FB1D4908604A
:100920001D4801681A48006801F092FA1B490860E6
:100930001B4801681248006801F0CAF919490860AB
:1009400014480068154909680844174908600846B2
:10095000006814490968401A144908601248006880
:1009600010490968084412490860084601680F48A0
:10097000006800F0C1FC022000F01CF800BFC4E7D2
:1009800034000020300000202C000020A8000020AF
:10099000080100200C010020A00000201001002010
:1009A000A400002014010020FC0000200001002011
:1009B0000401002001490860704700001404014050
:1009C000014600200022074B1B6803EA0102054B89
:1009D00014331B680B4013B10AB1012000E0002062
:1009E0007047000000040140002123498279002A59
:1009F0003AD00A46126803689A430B461A600A1DE9
:100A0000126803689A430B1D1A60027911440A6840
:100A100003681A430A60184A0832126803689A4346
:100A2000154B08331A601A1D126803689A43124B5B
:100A30000C331A604279102A0ED11A1F126803680B
:100A40001A430D4B08331A601A1D126803681A43C3
:100A5000094B0C331A600DE00749427911440A68CA
:100A600003681A430A6005E0027911440A680368C2
:100A70009A430A60704700000004014008B5012154
:100A8000042001F0B1FA10208DF803002020ADF809
:100A9000000003208DF802006946024800F06EF85D
:100AA00008BD00000008014008B50121042001F044
:100AB0009BFA0121082001F097FA04208DF8030029
:100AC000C020ADF8000003208DF8020069460948F7
:100AD00000F054F804208DF803004FF44070ADF896
:100AE000000003208DF802006946034800F046F834
:100AF00008BD0000000C01400008014030B5002294
:100B00008B071C0F0F2303FA04F20B4B8C1053F8C6
:100B100024309343084C8D1044F8253023468C1024
:100B200053F824308C07240F00FA04F42343024CBA
:100B30008D1044F8253030BD0800014008B5012172
:100B4000082001F051FA14208DF803004FF44060A2
:100B5000ADF8000003208DF802006946064800F059
:100B60000DF801229102044800F0B6FA0122D102E8
:100B7000014800F0B1FA08BD000C01402DE9F04138
:100B8000024600250026002000230024002791F8BB
:100B900003C00CF00F0591F803C00CF0100CBCF171
:100BA000000F03D091F802C04CEA050591F800C08F
:100BB000BCF1000F31D0146800202BE04FF0010C85
:100BC0000CFA00F3B1F800C00CEA03069E4220D1F3
:100BD00083004FF00F0C0CFA03F7BC4305FA03FC3B
:100BE0004CEA040491F803C0BCF1280F06D14FF081
:100BF000010C0CFA00FCC2F814C00AE091F803C022
:100C0000BCF1480F05D14FF0010C0CFA00FCC2F802
:100C100010C0401C0828D1D31460B1F800C0BCF14A
:100C2000FF0F34DD546800202EE000F1080C4FF077
:100C3000010808FA0CF3B1F800C00CEA03069E4262
:100C400021D183004FF00F0C0CFA03F7BC4305FAD7
:100C500003FC4CEA040491F803C0BCF1280F05D151
:100C600000F1080C08FA0CF8C2F8148091F803C0DF
:100C7000BCF1480F07D100F1080C4FF0010808FA49
:100C80000CF8C2F81080401C0828CED35460BDE890
:100C9000F08110B5FFF752FFFFF706FF00F0F4F800
:100CA00000F08AF800F09AF900F012F8FFF7E6FE7B
:100CB00000F0BEF910BD000010B5044622464FF406
:100CC0000051024800F008FA10BD00000010014079
:100CD00008B50121042001F087F90121082001F065
:100CE00083F90121102001F07FF910208DF8030015
:100CF0004002ADF8000003208DF8020069460E485E
:100D0000FFF73CFF10208DF803004002ADF8000013
:100D100003208DF8020069460848FFF72FFF1020D6
:100D20008DF80300ADF8000003208DF8020069463D
:100D30000348FFF723FF08BD00100140000C0140ED
:100D40000008014010B5044622464FF40051024805
:100D500000F0C2F910BD0000000C014010B50446BF
:100D600022464FF40061024800F0B6F910BD0000C1
:100D70000008014010B5044622464FF48061024845
:100D800000F0AAF910BD00000008014010B50446AB
:100D900022464FF40041024800F09EF910BD0000C9
:100DA0000008014010B5044622460821014800F021
:100DB00093F910BD000C014008B50121042001F099
:100DC00013F90121082001F00FF90121084601F073
:100DD0000BF90121234800F089F84020ADF800000C
:100DE00018208DF8030003208DF8020069461E4884
:100DF000FFF7C4FE8020ADF8000018208DF8030036
:100E000003208DF8020069461748FFF7B7FE4FF43C
:100E10001C40ADF8000010208DF8030003208DF871
:100E2000020069461048FFF7A9FE0820ADF800004F
:100E300010208DF8030003208DF8020069460B484E
:100E4000FFF79CFE002000F013F80020FFF786FF5C
:100E50000020FFF78FFF0020FFF798FF0020FFF72B
:100E6000A1FF08BD0002300000080140000C014055
:100E700010B5044622464FF48051024800F02CF988
:100E800010BD0000000801401FB50121042001F041
:100E9000ABF848208DF803000220ADF800000320D5
:100EA0008DF8020069461048FFF768FE0121002016
:100EB000FFF724FE0220029001208DF80E00002092
:100EC0008DF80C000C208DF80D0002A8FFF78CFDAA
:100ED00007208DF8040001208DF807008DF805002B
:100EE00001A800F0B3FE1FBD00080140F0B50A469E
:100EF000002300240021002500F00046B6F1004F39
:100F000002D11D4EF16901E01B4E7168C0F303452B
:100F100083B200F44016B6F5401F08D121F070618D
:100F2000154E766826F07066134F7E6012E000F46E
:100F30008016B6F5801F06D1032606FA05F4A143F4
:100F400041F0706106E0460D360103FA06F6B14342
:100F500041F0706122B1460D360103FA06F63143C5
:100F600000F00046B6F1004F02D1034EF16101E0FE
:100F7000014E7160F0BD00000000014002460020FB
:100F800093680B400BB1012000E000207047000087
:100F900010B5044622464FF48061034800F09CF8E7
:100FA0000120FFF759FC10BD000C014010B50446AC
:100FB00022464FF40061034800F08EF80120FFF74D
:100FC0004BFC10BD000C014010B54FF4006102480D
:100FD000FFF7D4FF10BD0000000C014008B501214F
:100FE000042001F001F818208DF803000420ADF86A
:100FF000000003208DF8020069460848FFF7BEFD97
:1010000048208DF803000820ADF8000003208DF87B
:10101000020069460148FFF7B1FD08BD0008014024
:1010200010B501210148FFF7A9FF10BD00080140DC
:101030001FB50121042000F0D7FF0121082000F096
:10104000D3FF10208DF80F000002ADF80C00032034
:101050008DF80E0003A91848FFF790FD28208DF8A1
:101060000F000120ADF80C0003208DF80E0003A93D
:101070001248FFF783FD00210846FFF73FFD0120DE
:1010800001908DF80A0000208DF8080010208DF8DE
:10109000090001A8FFF7A8FC06208DF80000012038
:1010A0008DF8030002208DF80100684600F0CEFDA7
:1010B000002000F005F81FBD000C014000080140B1
:1010C00010B5044622464FF48051024800F004F85F
:1010D00010BD0000000C01400AB1016100E0416157
:1010E000704700BFFEE770472DE9F04104460E4609
:1010F00017461D4600F088F8002141EA4401C8B2B5
:1011000000F06DF800F031F8304600F068F800F0BB
:101110002CF80A20FFF7A0FB00F076F8012101EB84
:101120004401C8B200F05BF800F01FF84FF000086F
:101130000AE028466D1C00F027F8002000F043F874
:1011400008F1010000F0FF08781E4045F1DC284658
:1011500000F01AF8012000F036F81E20FFF77CFBA3
:1011600000F060F80020BDE8F08110B50120FFF725
:101170001DFF0120FFF70CFFFFF726FF04460020AC
:10118000FFF706FF204610BD70B504460020207012
:101190000120FFF70BFF002512E00120FFF7F8FE0A
:1011A00020784006000E2070FFF70EFF18B120785F
:1011B00040F0010020700020FFF7EAFE681CC5B275
:1011C000082DEADB70BD10B504462046FFF7EEFEA1
:1011D0000120FFF7DDFE0020FFF7DAFE10BD70B53D
:1011E000044600250DE004F08000FFF7DFFE01203B
:1011F000FFF7CEFE0020FFF7CBFE6006040E681C52
:10120000C5B2082DEFDB70BD10B50120FFF7CEFE93
:101210000120FFF7BDFE0020FFF7C8FE0020FFF70A
:10122000B7FE10BD10B50020FFF7C0FE0120FFF78C
:10123000AFFE0120FFF7BAFE10BD2DE9F0410546D3
:101240000E4617461C46FFF7DFFF002141EA450125
:10125000C8B2FFF7C4FFFFF788FF3046FFF7BFFFB4
:10126000FFF783FF4FF0000809E02078FFF7B7FF92
:10127000FFF77BFF641C08F1010000F0FF08781EF7
:101280004045F2DC2078FFF7AAFFFFF76EFF1E2033
:10129000FFF7E2FAFFF7C6FF0020BDE8F08110B5C6
:1012A0000120FFF7E5FD10BD10B5FFF7F8FF0021A5
:1012B000084600F021F810BD10B50020FFF74EFDE4
:1012C0000120FFF757FD10BD10B50120FFF746FDC7
:1012D0000020FFF74FFD10BD10B50446204601F079
:1012E00065FB10BD10B50A464B42904200DD10462A
:1012F000984200DA184610BD70B505460C46002D20
:101300000BDBFFF7E1FF4FF4E1512846FFF7EAFF5F
:101310000546A8B2FFF7E0FF0FE0FFF7CDFF4FF45F
:10132000E1512846FFF7DEFF05462E1E01DB314660
:1013300000E0714288B2FFF7CFFF002C0BDB00F01A
:1013400023F84FF4E1512046FFF7CCFF0446A0B24A
:1013500000F022F80FE000F00FF84FF4E1512046C2
:10136000FFF7C0FF0446261E01DB314600E0714254
:1013700088B200F011F870BD10B50020FFF706FD2F
:101380000120FFF70FFD10BD10B50120FFF7FEFC97
:101390000020FFF707FD10BD10B50446204601F000
:1013A0000FFB10BD2DE9F04F91B0044689469246DF
:1013B0000AA80BA90CAB0DAACDE900108A498B48ED
:1013C00002F030FD20B14FF0FF3011B0BDE8F08FDA
:1013D000BDF82C0000F4807000287DD00D9806F038
:1013E0002DFA05464FF09D4106F0F6F88049086059
:1013F0000E9806F023FA05464FF09D4106F0ECF8F2
:101400007C4908600F9806F019FA05464FF09D4197
:1014100006F0E2F878490860109806F00FFA0546E1
:101420004FF09D4106F0D8F8744908607048016893
:101430004FF0804006F062FA05906F480168059809
:1014400006F05CFA83466B4801684FF0404006F0B6
:1014500055FA059069480168059806F04FFA594613
:10146000069006F04BF8079006F01CF8CDE908014D
:1014700002F00EF807464FF06632614B05F038FD7A
:10148000054605F09FFA20605B4801684FF08040F8
:1014900006F034FA029058480168029806F02EFAD5
:1014A0008346544801684FF0404006F027FA029006
:1014B00050480168029806F021FA5946039006F058
:1014C00025FB80464FF07E5106F018F8074605F0E0
:1014D000E9FFCDE9060100E084E0454801684FF0EE
:1014E000804006F00BFA039042480168039806F02A
:1014F00005FA8046404801684FF0804006F0FEF94A
:1015000003903E480168039806F0F8F98346414687
:1015100005F0F4FF074605F0C5FFCDE90401DDE95C
:10152000062302F0FDF94FF06632354BCDE9080194
:1015300005F0DEFC054605F045FAC9F800002F4825
:101540000168006806F0DAF904902B480168006829
:1015500006F0D4F9029027480168006806F0CEF939
:10156000019023480168006806F0C8F900900199CD
:1015700005F0C4FF8346029906F0C8FA0390049967
:1015800006F0C4FA059005F08DFF05460E461B488F
:1015900001681748006806F0B1F904901648016820
:1015A0001448006806F0AAF90390049905F0A6FF14
:1015B0004FF08041059006F0A1F9834605F072FFD7
:1015C0002A463346CDE9060102F0AAF94FF0663209
:1015D0000B4BCDE9080105F08BFC074605F0F2F94D
:1015E000CAF800000020F0E65A0000205400002055
:1015F00044000020480000204C0000205000002043
:1016000066A64C4038B5684603F0DCFC044614B1CD
:101610004FF0FF3038BD782004F068FA044614B16A
:101620006FF00100F6E7782003F0BAFB044614B12E
:101630006FF00200EEE7642004F00AFA044614B1E9
:101640006FF00300E6E702F0E1FB044614B16FF02F
:101650000400DFE7164803F057FB054602F032FEB0
:10166000044614B16FF00500D4E740F2731002F0A5
:1016700075FA044614B16FF00600CBE7642002F05F
:1016800051FD044614B16FF00700C3E704F076FD86
:10169000044614B16FF00800BCE7012004F0D4F850
:1016A000044614B16FF00900B4E70020B2E700006F
:1016B0003B00002010B508490848006806F0EAF928
:1016C00005D307490548006806F0E4F802D2002077
:1016D0000449087010BD000000008C422C0000205E
:1016E00000008CC2A800002010B501216B2000F082
:1016F00057F800216C2000F053F80921192000F060
:101700004FF806211A2000F04BF818211B2000F09A
:1017100047F818211C2000F043F807E0FFF772FF9C
:10172000054908704FF49670FFF78AF80248007870
:101730000028F3D110BD00003A0000202DE9FC5F25
:1017400013491448CDE900101348008805F0BCFB8C
:101750008046DDE9002305F0CBFB04460D460F482B
:10176000006805F09FFE064622462B4605F0B0FDB8
:10177000824605F027F90949086042F2107004F02A
:1017800055FE054800880A3003490880BDE8FC9FE3
:10179000DC3DFCD9E8CC703F38000020340000204C
:1017A00013B5044601AB012221466820FFF745FD31
:1017B0001CBD70B504460D4629462046FEF7DEFDE9
:1017C00008B1012070BD0020FCE7000000200449A2
:1017D000087004490870044908700449087070478B
:1017E000590100205A0100205B0100205C0100200B
:1017F00010B50446204600F005F8204600F092F8A7
:1018000010BD000010B504460FA12046FFF7D1FF20
:10181000012804D100F010FA00F0F0FC12E00BA156
:101820002046FFF7C6FF01280CD1002000F004FA83
:101830000020FFF787FA0020FFF73EFAFFF7C6FF08
:1018400000F0DCFC10BD00004F4E00004F4646008B
:101850000148007870470000580100202DE9F0474A
:1018600081460E4617469846DDF820A00024002544
:1018700001222321484600F031FC04460CB9BDE8A2
:10188000F08702222321484600F028FC054605B9CE
:10189000F5E72946204600F03CFC30700222232167
:1018A000484600F01BFC044604B9E8E70322232164
:1018B000484600F013FC054605B9E0E729462046F6
:1018C00000F027FC387003222321484600F006FC74
:1018D000044604B9D3E704222321484600F0FEFB66
:1018E000054605B9CBE72946204600F012FC88F8EA
:1018F000000004222321484600F0F0FB044604B90E
:10190000BDE701220021484600F0E8FB054605B985
:10191000B5E72946204600F0FCFB8AF8000000BF2E
:10192000ADE7000038B50446FFF792FF012807D164
:101930000548064B064A074900902046FFF78EFFF0
:1019400000F00AF838BD00005C0100205B010020B7
:101950005A0100205901002010B500F035F900F0BF
:1019600009F800F08BF800F065F800F0B7F800F027
:10197000D9F810BD2DE9F04127480078012849D158
:1019800026492748006806F085F81CD825480068D5
:1019900005F088FD0646244A244B05F045F8044628
:1019A00005F010F81F4908604FF07E511D4800688F
:1019B00006F070F803D24FF07E501A4908600020FC
:1019C0001B49087020E01A48007830B94FF03F40BA
:1019D000144908600120164908701248006805F093
:1019E00061FD0646104A114B05F01EF8044604F04E
:1019F000E9FF0C49086000210A48006806F04AF82F
:101A000002D20020074908600020FFF79BF901205F
:101A1000FFF752F9BDE8F0815B0100200000F041C2
:101A200028000020A00000209A9999999999B93F1F
:101A30005D01002010B50C480078012813D10B4936
:101A40000B48006805F05AFD094908600949084833
:101A5000006806F01FF806D207490548006806F03E
:101A600055F80349086010BD59010020000070417D
:101A7000A4000020000034430000B4432DE9F041ED
:101A80001148007801281CD11048006805F00AFDB3
:101A900006460F4A0F4B05F01BFC044604F092FF6C
:101AA0000A4908600C490948006805F0F3FE02D2B3
:101AB0000948064908600120FFF744F90020FFF7B4
:101AC000FBF8BDE8F08100005C010020A0000020D0
:101AD0009A9999999999B93F000080BF10B50C481F
:101AE0000078012813D10B490B48006806F00EF866
:101AF0000949086009490848006805F0CBFE06D28C
:101B000007490548006805F0F9FC0349086010BD65
:101B10005A01002000007041A4000020000034C3DE
:101B20000000B4432DE9F0412248007800283ED15E
:101B30002148007800283AD100212048006805F0AB
:101B4000A9FF17D21D48006805F0ACFC06461C4AE8
:101B50001C4B05F0BDFB044604F034FF1749086038
:101B600000211648006805F095FE20D20020134998
:101B700008601CE000211148006805F08BFE16D2B9
:101B80000E48006805F08EFC06460D4A0D4B04F029
:101B90004BFF044604F016FF08490860002107487F
:101BA000006805F077FF02D2002004490860BDE814
:101BB000F08100005B0100205C010020A0000020FB
:101BC0007B14AE47E17AB43F1548007801280ED166
:101BD0001448007801280AD113480078012806D15A
:101BE00012480078012802D10020114908600C48F1
:101BF0000078012806D10B480078012802D1002086
:101C00000B49086008480078012807D10748007888
:101C1000012803D1074800680649086070470000A2
:101C20005B0100205C010020590100205A010020C6
:101C3000A0000020A40000200149087070470000A7
:101C40005801002000BFFEE77047000070B500217A
:101C500000230F22C47804B3154C246804F4E06414
:101C6000C4F5E064210AC1F10403CA40447804FACF
:101C700003F184781440214309010E4C0678A155E4
:101C8000047804F01F050124AC4005786D11AD0007
:101C900005F1E025C5F8004109E0047804F01F05CE
:101CA0000124AC40044D0678761145F8264070BDFD
:101CB0000CED00E000E400E080E100E002490143B7
:101CC000024A1160704700000000FA050CED00E0C8
:101CD0002DE9F05F05460C462146284605F00BFF2E
:101CE0005049086050494F48006805F0D3FE07D2BC
:101CF0004E494C48006805F009FF4A4908600CE06D
:101D00004B494848006805F0C5FD06D2474945489B
:101D1000006805F0F3FB4349086042480168454804
:101D2000006805F0EBFB43490860434941480068FF
:101D300005F0B0FE02D240483E4908603F493D48A8
:101D4000006805F0A7FD02D23C483A49086000212E
:101D5000284605F09FFD04D20021204605F09AFD9B
:101D600009D30021284605F095FE04D9002120461C
:101D700005F090FE20D8324801683248006805F02E
:101D8000BDFD80462B4801682F48006805F0B6FD70
:101D90008146244801682D48006805F0AFFD824661
:101DA000494605F0ABFB0746414605F0A7FB064652
:101DB00005F008FDBDE8F09F0021284605F06AFD0A
:101DC00004D30021204605F065FD28D21D48006897
:101DD00080F000491A480168484605F08FFD074623
:101DE0001948006880F0004B12480168584605F019
:101DF00085FD81461548006880F0004B0948016860
:101E0000584605F07BFD8246494605F077FB804643
:101E1000394605F073FB064605F0D4FCCAE70020FE
:101E2000C8E70000EC000020000034430000B44389
:101E3000000034C3F00000200000FA430000FAC3A1
:101E4000F8000020E8000020E4000020E00000206E
:101E50002DE9F35FDDE9000105F04DFE344908602E
:101E60003448006805F01EFB06464FF06632324BE0
:101E700005F03EF804460D462D48006805F012FBBB
:101E800006464FF033322D4B05F032F8804622469D
:101E90002B4604F0C9FD824604F094FD24490860F5
:101EA000084601682648006805F028FB24490860B8
:101EB00024492348006805F0EDFD02D2214820495D
:101EC000086021491E48006805F0E4FC02D21E4863
:101ED0001B490860174801681548006805F016FEA0
:101EE0001A490860124800681249086017480168DA
:101EF0001748006805F002FD0646114801681548BC
:101F0000006805F0FBFC07460948016812480068B4
:101F100005F0F4FC8046394605F0F0FA05463146F6
:101F200005F0ECFA044605F04DFCBDE8FC9F00000E
:101F3000D0000020D80000206666E63F3333D33F50
:101F4000D400002000007A4400007AC4DC000020A5
:101F5000CC000020C8000020C40000202DE9F04182
:101F600004460D462946204605F0C5FD1149086086
:101F7000114801680F48006805F0C8FD0F49086066
:101F80000C4800680C4908600C4801680C4800685F
:101F900005F0B4FC0746074801680A48006805F0E8
:101FA000ADFC8046394605F0A9FA064605F00AFC64
:101FB000BDE8F081B4000020BC000020C00000207B
:101FC000B0000020AC00002029B1064AD2690243CB
:101FD000044BDA6104E0034AD2698243014BDA61BF
:101FE000704700000010024029B1064A926902437E
:101FF000044B9A6104E0034A92698243014B9A615F
:10200000704700000010024030B50021002200247B
:1020100000232D4D6D6805F00C0121B1042905D078
:10202000082923D105E0294D056022E0274D0560F0
:102030001FE0254D6D6805F47012234D6D6805F4A1
:102040008034022505EB92421CB9214D55430560B1
:102050000BE01D4D6D6805F400351DB11C4D554359
:10206000056002E0194D5543056002E0174D05601B
:1020700000BF00BF144D6D6805F0F0010909154D52
:102080006B5C0568DD4045600F4D6D6805F4E061EF
:10209000090A104D6B5C4568DD4085600A4D6D682E
:1020A00005F46051C90A0B4D6B5C4568DD40C560A5
:1020B000054D6D6805F44041890B074D6B5CC568A3
:1020C000B5FBF3F5056130BD0010024000127A0047
:1020D00000093D0000000020100000202DE9F0471D
:1020E0000546884616460024A94600270DE0002430
:1020F00041464846FEF738F9044614B90020BDE8C9
:10210000F08704F10109781CC7B2B742EFDB204623
:10211000F5E72DE9FF4104460D46002000900190AF
:10212000029003900026641C2F1B3A462146684605
:10213000FEF7D7F90A2200216846FEF7DDF80646C9
:10214000304604B0BDE8F08138B50024114800786D
:1021500001281DD110491148FEF74EF969460F4874
:1021600000F01EF80446FEF757FB012C06D0022CA7
:1021700005D0032C04D0042C07D102E005E004E0D4
:1021800003E00098FFF734FB00BF00BF00F0AAFE99
:1021900038BD000018000020C0010020D00500203C
:1021A00070B505460C460026284600F009F806469C
:1021B000032223212846FFF791FF2060304670BD9F
:1021C0002DE9F041044600250026002714B900201F
:1021D000BDE8F081022223212046FFF77FFF05465C
:1021E000032223212046FFF779FF06463146284681
:1021F000FFF78FFFC7B23846EAE7000010B5024884
:10220000FEF710FB10BD00004801002010B500F0E3
:1022100001F810BD0CB50020019000903348006813
:1022200040F480303149086000BF3048006800F455
:10223000003000900198401C0190009818B9019856
:10224000B0F5A06FF1D12948006800F4003010B15A
:102250000120009001E0002000900098012843D167
:102260002348006840F010002149086008460068D3
:1022700020F0030008600846006840F00200086093
:102280001A4840681949486008464068486008464E
:10229000406840F4806048600846406820F47C1044
:1022A00048600846406840F4E81048600846006806
:1022B00040F08070086000BF0C48006800F00070BB
:1022C0000028F9D00948406820F003000749486019
:1022D0000846406840F00200486000BF034840687C
:1022E00000F00C000828F9D10CBD000000100240DD
:1022F0000020024010B500BF502080F31188BFF3CA
:102300004F8FBFF36F8F00BF04F0D0F918B14FF0BB
:1023100080500449086000BF002080F3118800BF8E
:1023200010BD000004ED00E010B51348006840F057
:1023300001001149086008464068104908400E49EC
:102340004860084600680E4908400B490860084686
:10235000006820F4802008600846406820F4FE00F1
:1023600048604FF41F008860FFF750FF4FF0006097
:102370000449086010BD0000001002400000FFF892
:10238000FFFFF6FE08ED00E005E000F069FF4FF406
:10239000FA7004F04BF8F8E704E0FEF761FA642005
:1023A00004F044F8F9E701E0FFF7C8F9FCE700BFE3
:1023B000FEE700BFFEE700BFFEE700BFFEE704E068
:1023C00000F0FCFD642004F031F8F9E701E0FFF7CC
:1023D000BBFEFCE701E0FFF76DF9FCE700BFFEE79D
:1023E00000BFFEE700BFFEE700BFFEE700BFFEE75D
:1023F0001CB54FF44070FFF761FC06480121002333
:102400008022CDE9001004A1064804F01BF904F075
:1024100091F81CBD9C0000205461736B5F53746184
:1024200072740000B52C0008F0B50C461546002269
:102430000021068C4FF6FE773E400684028B018C0D
:102440004FF60C7632407E1C06EA03162E433243CA
:10245000104EB0420ED0104EB0420BD0B0F1804FB3
:1024600008D00E4EB04205D00D4EB04202D00D4EF7
:10247000B04206D14FF6FD76314044F001063143BB
:1024800005E04FF6F576314044F001063143028312
:102490000184F0BD002C01400034014000040040E4
:1024A00000080040000C0040F0B50C461546002224
:1024B00000210026078C4FF6EF7C07EA0C07078403
:1024C000028B018C4FF6FF7707EA041640F6FF47B0
:1024D0003A404FF6FF7707EA03373A434FF6FF7764
:1024E00007EA05273A43114FB8420ED0104FB842C1
:1024F0000BD0B0F1804F08D00E4FB84205D00E4F30
:10250000B84202D00D4FB84206D14FF6DF773940BE
:1025100046F01007394305E04FF65F77394044F045
:102520001007394302830184F0BD0000002C0140F4
:10253000003401400004004000080040000C00404E
:10254000F0B50C461546002200210026078C4FF6F8
:10255000FF6C07EA0C070784828B018C4FF6FF772C
:1025600007EA04264FF60C773A404FF6FF7707EA62
:1025700003172F433A43114FB8420ED0104FB842C1
:102580000BD0B0F1804F08D00E4FB84205D00E4F9F
:10259000B84202D00D4FB84206D14FF6FF5739402E
:1025A00046F48077394305E04FF2FF57394044F451
:1025B0008077394382830184F0BD0000002C014004
:1025C000003401400004004000080040000C0040BE
:1025D000F0B50C461546002200210026078C4EF669
:1025E000FF7C07EA0C070784828B018C4FF6FF778C
:1025F00007EA043640F6FF473A404FF6FF7707EA0E
:1026000005273A434FF6FF7707EA03373A43114F5E
:10261000B8420ED0104FB8420BD0B0F1804F08D066
:102620000E4FB84205D00E4FB84202D00D4FB842FF
:1026300006D14DF6FF77394046F48057394305E01F
:1026400047F6FF57394044F4805739438283018469
:10265000F0BD0000002C01400034014000040040A7
:1026600000080040000C004010B50121880700F070
:102670001AF9012804D105480068401C0349086084
:102680000121880700F007F810BD000018010020A4
:10269000CA4302827047CA430282704721B102884E
:1026A00042F00102028004E002884FF6FE731A40F5
:1026B0000280704710B5024800F0F2F810BD00002B
:1026C000000800400EB501210420FFF77DFC00202A
:1026D000ADF80600ADF802004FF6FF70ADF804004B
:1026E0004720ADF8000000208DF808006946064834
:1026F00000F08EFA0021044800F05CFA0021024844
:10270000FFF7CCFF0EBD00000008004010B500210F
:102710000148FFF7C3FF10BD0008004010B50121BC
:102720000148FFF7BBFF10BD0008004010B504468C
:102730002146024800F03EFA10BD000000080040AB
:102740001FB501210846FFF73FFC0020ADF80A0045
:10275000ADF8060040F2E730ADF808004720ADF8CC
:10276000040000208DF80C0001A94FF0804000F01B
:102770004FFA01218807FFF78BFF012211469007CE
:1027800000F001F91C208DF8000001208DF80300F5
:1027900002208DF801006846FFF758FA00214FF03B
:1027A000804000F007FA01218807FFF777FF1FBD7F
:1027B000F0B50C4615461E46002100220023018973
:1027C000028B038C4FF6F877394021434FF6FC47D4
:1027D0003A4040F201173A434FF6DD773B404FF65F
:1027E000FF7707EA06172F433B43018102830384E7
:1027F000F0BD000010B50446024800F051F800B2E8
:10280000208010BD002C014000B587B00121C80216
:10281000FFF7EAFB0020ADF81600ADF812004FF606
:10282000FF70ADF814000020ADF810008DF818000E
:1028300004A9154800F0ECF901A800F09BF800206D
:10284000ADF804000F20ADF80C0001A90E4800F00F
:102850003BF80420ADF804000F20ADF80C0001A9EE
:10286000094800F031F80021074800F0A3F90023DF
:102870001A4603210448FFF79BFF01210248FFF796
:102880000DFF07B000BD0000002C014010B504464C
:10289000A1B2024800F08EF910BD0000002C0140EA
:1028A0000146888C704730B5024600200023002482
:1028B000158A05EA0103958905EA010413B10CB1F3
:1028C000012000E0002030BD70B505460C462448CC
:1028D00085420ED0234885420BD0B5F1804F08D0F9
:1028E0002148854205D02148854202D020488542B2
:1028F00000D100E000BF208850B92389A2886188F8
:102900002846FFF791FDE188284600F055F925E0BB
:10291000208804280AD12389A28861882846FFF7E5
:10292000C3FDE188284600F050F917E02088082808
:102930000AD12389A28861882846FFF701FEE18831
:10294000284600F04FF909E02389A28861882846CB
:10295000FFF73EFEE188284600F04DF970BD00000B
:10296000002C0140003401400004004000080040F9
:10297000000C004000210180418001218180002164
:10298000C180018170471AB183890B43838102E0C2
:1029900083898B438381704710B5FFF735FFFFF7BD
:1029A000CFFE00F017F8FFF78DFE10BD10B50446FE
:1029B0002146024800F0FAF810BD00000004004073
:1029C00010B504462146024800F0F2F810BD0000A0
:1029D0000004004000B587B001210220FFF7F4FA9F
:1029E000684600F0D9F80020ADF81600ADF81200E6
:1029F0004FF4E150ADF814004720ADF8100000206E
:102A00008DF8180004A9144800F002F96020ADF810
:102A100000000020ADF808000120ADF80200002001
:102A2000ADF8060069460C4800F018F86020ADF8D3
:102A300000000020ADF808000120ADF802000020E1
:102A4000ADF806006946044800F054F80121024838
:102A5000FFF724FE07B000BD0004004070B500245D
:102A600000220023058C4FF6FE7635400584028C4B
:102A70008388048B4FF68F752C40B51E2C400D8833
:102A80002C43751E2A400D892A434D882A43144D34
:102A9000A8420BD0134DA84208D0134DA84205D030
:102AA000124DA84202D0124DA84213D14FF6F7752D
:102AB0002A404D892A434FF6FB752A408D882A43C8
:102AC0004FF6FF652B404FF6FF552B408D892B436A
:102AD000CD892B4383800483CD888586028470BD95
:102AE000002C0140003401400040014000440140FE
:102AF0000048014070B5002400220023058C4FF6E9
:102B0000EF7635400584028C8388048B48F6FF7588
:102B10002C404FF6FF452C400D884FF6FF7606EA15
:102B200005252C434FF6DF752A400D8906EA051569
:102B30002A434D8806EA05152A43154DA84202D0BE
:102B4000144DA8421DD14FF67F752A404D894FF68E
:102B5000FF7606EA05152A434FF6BF752A408D8891
:102B600006EA05152A434FF6FF352B404FF2FF7555
:102B70002B408D8906EA85052B43CD8906EA85051C
:102B80002B4383800483CD880587028470BD0000B9
:102B9000002C0140003401400021018041808180EF
:102BA000C180018141818181C181704781867047E7
:102BB0000187704781847047028B4FF6F3731A4088
:102BC0000283028B0A4302837047028B4FF2FF336A
:102BD0001A400283028B4FF6FF7303EA01231A4364
:102BE00002837047828B4FF6F3731A408283828B85
:102BF0000A4382837047828B4FF2FF331A408283ED
:102C0000828B4FF6FF7303EA01231A4382837047D6
:102C1000002202881D4B98420ED01D4B98420BD0CB
:102C2000B0F1804F08D01B4B984205D01A4B984208
:102C300002D01A4B984204D14FF68F731A404B883A
:102C40001A43174B984207D0164B984204D04FF6C0
:102C5000FF431A40CB881A4302808B8883850B88F8
:102C600003850A4B98420BD0094B984208D00E4B73
:102C7000984205D00D4B984202D00D4B984201D19D
:102C80000B7A03860123838270470000002C0140E9
:102C9000003401400004004000080040000C0040E7
:102CA000001000400014004000400140004401407A
:102CB000004801401CB5044603F064FB4D48012167
:102CC00000238022CDE900104BA14D4803F0BAFC4F
:102CD0004C48012100238022CDE900104AA14C4834
:102CE00003F0B0FC4B48012100238022CDE9001005
:102CF00049A14B4803F0A6FC4A4801210023802249
:102D0000CDE9001048A14A4803F09CFC4948012144
:102D100000238022CDE9001047A1494803F092FC2E
:102D20004848012100238022CDE9001046A14848EF
:102D300003F088FC4748012100238022CDE90010E0
:102D400045A1474803F07EFC46480121002380222C
:102D5000CDE9001044A1464803F074FC4548012128
:102D600000238022CDE9001043A1454803F06AFC0E
:102D70004448012100238022CDE9001042A14448AB
:102D800003F060FC4348012100238022CDE90010BC
:102D900041A1434803F056FC424801210023802210
:102DA000CDE9001040A1424803F04CFC414801210C
:102DB00000238022CDE900103FA1414803F042FCEE
:102DC0004048012100238022CDE900103EA1404867
:102DD00003F038FC3F48012100238022CDE9001098
:102DE0003DA13F4803F02EFC002003F039FB03F027
:102DF000DBFA1CBD600000205441534B3100000041
:102E000089230008640000205441534B3200000025
:102E1000BF230008680000205441534B33000000DA
:102E2000CD2300086C0000205441534B34000000B7
:102E3000D5230008700000205441534B350000009A
:102E4000DD230008740000205441534B360000007D
:102E5000E1230008780000205441534B3700000064
:102E6000E52300087C0000205441534B380000004B
:102E7000E9230008800000205441534B3900000032
:102E8000ED230008840000205441534B31300000F2
:102E900099230008880000205441534B3131000031
:102EA000A72300088C0000205441534B313200000E
:102EB000AF230008900000205441534B31330000F1
:102EC000B3230008940000205441534B31340000D8
:102ED000B7230008980000205441534B31350000BF
:102EE000BB23000810B54FF480610248FDF7B0FA2B
:102EF00010BD0000C001002010B540F225510F4860
:102F000000F0D8F8012818D10D480088B0F5806F7E
:102F100002D300200A4908800848001D008809499A
:102F2000074A1288885406480088401C04490880D3
:102F300040F22551014800F095F810BD00440040D2
:102F400014000020C001002000B585B0FFF7CAFFC3
:102F500001214804FFF738F84FF4E13001900020D8
:102F6000ADF810000C20ADF80E000020ADF80C00FC
:102F7000ADF80A00ADF8080001A90F4800F0EAF822
:102F800020210D4800F065F8012240F225510A4841
:102F900000F0BAF826208DF8000001208DF803001B
:102FA00002208DF801006846FEF750FE012102481C
:102FB00000F067F805B000BD0044004012480088EA
:102FC00018B90020114908701DE00F480088104909
:102FD0000988884207D00C4800880D4908800220E3
:102FE0000A4908700FE008480088094909888842A2
:102FF00009D100200749044A1288885402490880F0
:1030000001200249087070471400002018000020B9
:1030100016000020C001002010B5044621460548D6
:1030200000F01AF900BF8021024800F036F80028AD
:10303000F9D010BD0044004070B50446002504E0FE
:10304000605DFFF7E9FF681C85B2605D0028F7D17D
:1030500070BD01F40072B2F5007F00D100BFCA4319
:103060000280704710B50022002340F66A14A14286
:1030700000D100BF0A1201249440A3B2DC430480B3
:1030800010BD21B1828942F40052828104E082891C
:103090004DF6FF731A408281704702460020B1F559
:1030A000007F00D100BF13880B400BB1012000E06E
:1030B0000020704770B50246002400230025002040
:1030C00040F66A16B14200D100BFC1F3421501F0CB
:1030D0001F03012606FA03F3012D02D1968933401E
:1030E00006E0022D02D1168A334001E0968A334071
:1030F0000C12012606FA04F41688344013B10CB100
:10310000012000E0002070BDF0B503460024002639
:103110000025002040F66A17B94200D100BF1846CA
:10312000C1F3421401F01F06012707FA06F5012C2E
:1031300001D10C3004E0022C01D1103000E0143039
:103140001AB107682F43076002E00768AF430760C2
:10315000F0BD00002DE9F04786B005460E4600247C
:10316000A24600BFA1460027B08900B100BF2F468C
:103170002C8A4CF6FF700440F08804432C82AC8902
:103180004EF6F3100440B088318908437189084332
:103190000443AC81AC8A4FF6FF400440B08904433D
:1031A000AC8201A8FEF730FF1F48874202D1DDF84C
:1031B00010A001E0DDF80CA0A88900F4004040B1A7
:1031C0000AEBCA0000EB0A1031684900B0FBF1F8C5
:1031D00007E00AEBCA0000EB0A1031688900B0FB77
:1031E000F1F86420B8FBF0F004012009642101FB30
:1031F0001089A88900F4004040B1322000EBC900DA
:10320000B0FBF1F000F00700044308E0322000EBCF
:1032100009106421B0FBF1F000F00F0004432C8191
:1032200006B0BDE8F08700000038014010B5FFF798
:103230008BFE02A0FFF700FF10BD0000410A576996
:1032400072656C6573733A20436172204279204E37
:103250006169686170690A00C1F308028280704781
:1032600010B503F08FF800F02BF803F09DF800F094
:1032700001F810BD2DE9F0410D480078012814D166
:10328000FFF718FA804603F01FFE0646094A0A4B6C
:1032900003F02EFE044603F095FB08490860002069
:1032A000FFF744FA002002490870BDE8F0810000F1
:1032B000240000209CC420B07268913F28000020A8
:1032C00008B50020FDF7FCFE0120FDF7F9FE002007
:1032D000009003E000BF0098401C00900098B0F5FB
:1032E000967FF7DB0020FDF7EBFE08BD00BFFEE791
:1032F000490050EAC12018BF04204A0D18BF40F011
:10330000010040F2FF72B2EB515F08BF40F00200D3
:10331000012808BF052070472DE9F0414F1E00EB42
:10332000C7010446D1E9000115461E4637F00602E2
:103330000DD02A46334603F0DBFD7F1E04EBC703A6
:10334000D3E9002303F070FB37F00602F1D1022F1E
:1033500025D0042F13D0062F18BFBDE8F0812A46D0
:10336000334603F0C5FDD4E90A2303F05DFB2A468A
:10337000334603F0BDFDD4E9082303F055FB2A468C
:10338000334603F0B5FDD4E9062303F04DFB2A468E
:10339000334603F0ADFDD4E9042303F045FB2A4690
:1033A000334603F0A5FDD4E9022303F03DFB2A4692
:1033B000334603F09DFDD4E90023BDE8F04103F05E
:1033C00033BB012204F049BC03F02EBB002213469C
:1033D0001046114603F0E4BB024A0020110704F036
:1033E0003CBC000001FDFFFF2DE9FE4F06460F46E5
:1033F0000025684601F070F9002442E056F82400E8
:1034000057F82410A0EB010ABAF1000F01DB514676
:1034100001E0CAF10001084604F010FA83464FF0BB
:103420008F4104F0D9F880465DF82400002104F0B3
:1034300095F916D05DF82410404604F0CDF8824688
:103440004FF07E5104F062FB814629F0004A0F489C
:10345000416A504604F01EFB12D20120A0400543F1
:103460000EE00A48C169404604F014FA05D3074843
:10347000016A404604F00EFB02D20120A040054341
:10348000641C032CBADB2846BDE8FE8F147D0008BF
:103490002DE9F04D8D4F21F0004A86B005460C46CF
:1034A000BA452ADBAAEB070028430AD088488245A0
:1034B00001DC1AD1CDB106B02846BDE8F04DFFF7CA
:1034C00080BF844A844B284603F012FD07460E460F
:1034D000824A834B2846214603F00AFD06B03A464D
:1034E0003346BDE8F04D03F09FBA0120FDF7B0F878
:1034F00006B0BDE8F04DFFF769BF7A48824542DA71
:10350000BAF1795F0BDA2846FFF7F2FE042808BF0C
:10351000FFF762FF284606B02146BDE8F08D2A4637
:103520000B46104603F0E4FC834602466E480E4606
:103530000B4606217844FFF7EFFE5A46334603F068
:10354000D7FC804669488A465A4633460421784467
:10355000FFF7E2FE5A46334603F0CAFC00223B4620
:1035600003F062FA02460B464046514603F018FB50
:103570002A46234603F0BCFC06B02A462346BDE893
:10358000F04D03F051BA284624F0004100223D4698
:103590003B4603F0ABFD4FF0FF3204F05EFB064606
:1035A000024653480F460B4606217844FFF7B4FE07
:1035B00032463B4603F09CFCCDE900014D483246C3
:1035C0003B4604217844FFF7A7FE32463B4603F012
:1035D0008FFC00222B4603F027FA834602913046E7
:1035E000394602F05FFE804643480D46504517DCE1
:1035F000DDE900015A46029B03F0D2FA42462B460F
:1036000003F076FC42462B4603F00EFA012204F04A
:1036100024FB304A304B03F05BFE304A304B4CE029
:103620004FF0000A52460B46404603F0FDF9CDE943
:10363000031052462B461046194603F059FC3246F9
:103640003B4603F053FDDDE9033203F0A9FA0646D9
:103650000F46DDE900015A46029B03F0A1FA8346BA
:10366000009101223046394604F0F7FA194A1A4B04
:1036700003F03CFD06460F4601224046294604F071
:10368000ECFA5A46009B03F033FC32463B4603F00B
:103690001FFE06460F4601225046294604F0DDFA79
:1036A0000E4DDFF858802A46434603F01FFD324690
:1036B0003B4603F01BFD2A46434603F017FD002C52
:1036C000D8BF81F0004106B0BDE8F08D0000F03FAA
:1036D0000000F07F075C143326A6913C182D44545B
:1036E000FB21F93F0000E03F0054000016540000A9
:1036F0008A530000A05300003333EF3FFB21E93F22
:103700002DE9F84F04460D4621F000400091734921
:10371000814211DC7249884201DC06D12CB120467D
:103720002946BDE8F84FFFF74CBE6E48002DCCBFD0
:103730006D496E49BDE8F88F6D49814211DD6D49D3
:103740008142D8BF4FF0FF366DDD20462946FFF796
:10375000CFFD042808BFFFF73FFE20462946BDE8FD
:10376000F88F6549654F25F00045814233DD644996
:10377000814219DD002632464FF08043204629461B
:1037800003F052F980468A4601222046294604F079
:1037900064FA00223B4603F09BFD4246534603F089
:1037A000FFF904460D463EE001260022BA463B469C
:1037B0002046294603F038F980460F46002253463A
:1037C0002046294603F084FD42463B4603F0E8F9D3
:1037D00004460D4627E04B4981421BDDDFF828A156
:1037E0000226002253462046294603F081FB002290
:1037F0003B4603F019F980460F4600225346204607
:10380000294603F065FD42463B4603F0C9F90446EC
:103810000D4608E0032622462B4600203B4903F0D4
:10382000BFF904460D4622462B461046194603F0C2
:103830005FFB8B46824602460B4603F059FB074668
:103840000246334888460B4606217844FFF764FD5C
:1038500052465B4603F04CFB82462E488B463A4666
:10386000434605217844FFF757FD3A46434603F0A7
:103870003FFB02460B46002E504659460CDA03F039
:10388000D3F822462B4603F033FB01B022462B46E9
:10389000BDE8F04F03F02ABC03F0C6F822462B46E1
:1038A00003F026FB1C4A7A4402EBC603D3E900234B
:1038B00003F00EFD22462B4603F00AFD174A7A4418
:1038C00002EBC603D3E9002303F010FC009A002AA0
:1038D000B8BF81F00041BDE8F88F0000000010443F
:1038E0000000F07F182D4454FB21F93FFB21F9BF64
:1038F0000000DC3F0000203E0000F33F0000F03FEE
:103900000000E63F008003400000F83F0000F0BFE9
:10391000A251000060510000FE500000C65000009F
:103920002DE9F04D9446CCF1000423F000464CEA1A
:103930000404594F46EAD4749A46884621F000425E
:10394000BC4206D8454240EA050442EAD474BC426F
:1039500004D9BDE8F04D6246FFF736BDAAF14055E7
:10396000A5F17F6555EA0C040BD0022404EAAA7481
:103970004A4DDFF82CE144EAD87452EA000B04D037
:103980000CE0BDE8F04DFFF7BBBE002C14BF012CCE
:10399000BDE8F08D022C30D0032C32D056EA0C0B4F
:1039A0000AD0BE4220D1BA4209D126F0804622F088
:1039B00080423346114617E000291ADB25E0DFF884
:1039C000E4B0FB44002C04BFDBE90001BDE8F08D4E
:1039D000012C02BFDBE9000181F00041BDE8F08D60
:1039E000022C0AD0032C0CD0BA4212D1B8F1000F2D
:1039F0000BDA2A482C49BDE8F08D28462B49BDE852
:103A0000F08D28467146BDE8F08D24482849BDE870
:103A1000F08D921B12153C2AC4BF204F244E10DC9F
:103A2000BAF1000FBEBF12F13C0F00273E4608DB83
:103A3000624603F0B5F821F00041FFF761FE07464A
:103A40000E4694B1012C08BF86F000460DD0194AED
:103A5000194B022C3846314615D003F039FC2A4662
:103A6000BDE8F04D114B03F033BC0022134638463D
:103A7000314603F0EDF904BF0220FCF7E9FD3846BA
:103A80003146BDE8F08D03F023FC2A46BDE8F04D39
:103A9000064B03F02BBB00000000F07F182D4454B0
:103AA000FB2109C05A500000FB21F9BFFB2109404E
:103AB000FB21F93F075C143326A6A13C2DE9F04118
:103AC0000446E07800F0C006E07800F03F0560783A
:103AD00000F0010098B1EF102846E91705EB51718D
:103AE000C910A5EBC101491C01F0FF080B48006893
:103AF00020B10A48414602683846904700BF6078C6
:103B000000F0080030B10548406818B1B011034A10
:103B1000516888470020BDE8F0810000C005002002
:103B200038B5044664B120208DF8000028208DF8B7
:103B3000010030208DF8020038208DF8030004E0E9
:103B4000A32204216846FCF77BFC6A46042140F668
:103B50009E2002F033F801F01BFC38BD3EB5044650
:103B600002208DF80000CA208DF80100E3208DF8B6
:103B7000020009208DF803006A460421682002F043
:103B80001DF8A3208DF8000004F0400048B1C020CB
:103B90008DF80100C8208DF80200C2208DF80300C6
:103BA00006E0A3208DF801008DF802008DF80300D7
:103BB00004F4C07048B1C4208DF80400CC208DF806
:103BC0000500C6208DF8060006E0A3208DF804004D
:103BD0008DF805008DF80600A3208DF807008DF8FC
:103BE00008008DF809006A460A2140F6A72001F076
:103BF000E5FF04F0030018B120208DF8000002E07A
:103C0000D8208DF800006A46012140F6B62001F068
:103C1000D5FF04F0200018B1012000F0ADF802E05B
:103C2000002000F0A9F804F4C07008B304F4807018
:103C300060B1B2208DF800008B208DF80100B62015
:103C40008DF802009B208DF803000BE0B0208DF86A
:103C5000000080208DF80100B4208DF80200902033
:103C60008DF803006A46042140F6A22001F0A6FF69
:103C700004F0010020B3F8208DF800006A4601210D
:103C80004FF40B6001F09AFFFA21072000F02EFCA0
:103C9000072000F0F5FB012000F015FC642000F087
:103CA000F5FC4FF4FA7000F004FDC821304800F034
:103CB000A5FB282000F0BEFB0A2000F0CEFB08E0A8
:103CC000D8208DF800006A4601214FF40B6001F006
:103CD00075FF04F0020018B1D9208DF8000002E051
:103CE000D8208DF800006A46012140F23D7001F0B5
:103CF00065FF04F0040018B1012000F069F802E04B
:103D0000002000F065F804F0100018B10120FFF762
:103D100007FF02E00020FFF703FF44F00800154909
:103D2000488101F035FB00201249887304F04000FF
:103D300018B10846807B801D887304F4C07020B1E0
:103D40000C48807B801D0B49887304F0140020B15F
:103D50000848807B10300749887304F0030020B1C5
:103D60000448807B001D0349887300203EBD00008D
:103D700009E3CA02C00500203EB504466CB10EA19D
:103D8000D1E900208968CDE9002002916A46092125
:103D90004FF4976001F012FF3EBD0AA2D2E9001075
:103DA0009268CDE9010200916A4609214FF49760BB
:103DB00001F004FFF0E70000B8AAB38DB4980D3508
:103DC0005D000000B8AAAAAAB088C3C5C700000059
:103DD00038B5044664B1C0208DF80000C2208DF8CB
:103DE0000100C4208DF80200C6208DF8030004E015
:103DF0008B2204216846FCF723FB6A46042140F627
:103E0000982001F0DBFE01F0C3FA38BD10B5C823DD
:103E10004FF48062024940F6F63001F053F910BDCC
:103E20003C7D00082DE9F04F8DB0074688461546C9
:103E30009946DDE9166B0024002030806B49887BB1
:103E40005A4605A901F004FA18B1601E0DB0BDE88C
:103E5000F08F6648807A00F01400002867D09DF843
:103E6000140000069DF8151040EA01409DF8161058
:103E700040EA01209DF81710084328609DF81800BB
:103E800000069DF8191040EA01409DF81A1040EA1A
:103E900001209DF81B10084368609DF81C00000677
:103EA0009DF81D1040EA01409DF81E1040EA0120D7
:103EB0009DF81F100843A8609DF8200000069DF89B
:103EC000211040EA01409DF8221040EA01209DF8AF
:103ED00023100843E86004F11000C4B228680014FD
:103EE0000190686800140290A86800140390E868C4
:103EF0000014049001984043029901FB01000399CA
:103F000001FB0100049901FB010ABAF1706F02DBA9
:103F1000BAF1885F05DD01F03BFA00203080401ED9
:103F200094E7B6F9000040F48070308000BF2F485D
:103F3000807A00F0400020B305A9601C085C095D90
:103F400040EA012000B2A8F8000005A9E01C095CC5
:103F500005AAA01C105C41EA002000B2A8F80200EB
:103F600005A9601D095C201D105C41EA002000B21B
:103F7000A8F80400A01DC4B2B6F9000040F0080083
:103F800030801A48408900F4C07008B305A9601C4D
:103F9000085C095D40EA012000B2388005A9E01CF8
:103FA000095C05AAA01C105C41EA002000B27880E0
:103FB00005A9601D095C201D105C41EA002000B2CB
:103FC000B880A01DC4B2B6F9000040F07000308087
:103FD0000648807A00F0030018B105A90819FFF718
:103FE0006DFD4846FCF726FC00202FE7C0050020A9
:103FF00070B588B0064601A800F030FFBDF8040097
:104000000021C90341EA5045C40300BF4448007A77
:1040100000F0030056F8200005904148007A00F0B7
:10402000040010B10598404205903D48007AC0F365
:10403000C10056F8200006903948007A00F02000B0
:1040400010B10698404206903548007AC0F38110BE
:1040500056F8200007903248008900F4807010B1B3
:104060000798404207900598C117A0FB042301FB65
:10407000043100FB0510810041EA9270059006981A
:10408000C117A0FB042301FB043100FB05108100D4
:1040900041EA927006900798C117A0FB042301FB28
:1040A000043100FB0510810041EA927007900598E9
:1040B000000E8DF808000598000C8DF80900059891
:1040C000000A8DF80A000598C0B28DF80B0006981A
:1040D000000E8DF80C000698000C8DF80D00069867
:1040E000000A8DF80E000698C0B28DF80F000798F0
:1040F000000E8DF810000798000C8DF8110007983D
:10410000000A8DF812000798C0B28DF8130002AAB9
:104110000C214FF4257001F051FD08B070BD000076
:10412000C005002030B585B0044616A207CA02AB10
:1041300007C3C82C03DD4FF0FF3005B030BDC820E9
:1041400090FBF4F0401E85B2280A8DF80000E8B21A
:104150008DF801006A46022140F2162001F02EFD82
:1041600010B14FF0FF30E8E702AA0C2140F6C12061
:1041700001F024FD10B14FF0FF30DEE704488481E8
:104180000020DAE7FEF2ABC4AAF1DFDFBBAFDFDF6E
:10419000C00500201FB504464848007A00F003001F
:1041A00054F8200001904548007A00F0040010B156
:1041B0000198404201904148007AC0F3C10054F890
:1041C000200002903D48007A00F0200010B10298D3
:1041D000404202903948007AC0F3811054F8200020
:1041E00003903648008900F4807010B10398404273
:1041F00003903349019880FB0101800F40EA810060
:1042000001902F49029880FB0110820042EA9170D0
:1042100002902B49039880FB0110820042EA9170C2
:1042200003900198000E8DF800000198000C8DF8A5
:1042300001000198000A8DF802000198C0B28DF8C3
:1042400003006A4604214FF4747001F0B7FC18B102
:104250004FF0FF3004B010BD0298000E8DF8000042
:104260000298000C8DF801000298000A8DF80200F7
:104270000298C0B28DF803006A4604214FF47570AD
:1042800001F09CFC10B14FF0FF30E3E70398000E03
:104290008DF800000398000C8DF801000398000AC7
:1042A0008DF802000398C0B28DF803006A4604211D
:1042B0004FF4767001F082FCCCE70000C0050020CE
:1042C00009E3CA0210B586B0044647A0006803900F
:1042D00046A00068029046A00068019045A00068D2
:1042E000009004F0030003A9085C8DF8140003A8F3
:1042F000C4F3C101405C8DF8150003A8C4F381111B
:10430000405C8DF8160004F0030002A9085C8DF8EB
:10431000100002A8C4F3C101405C8DF8110002A88E
:10432000C4F38111405C8DF8120005AA032140F20C
:10433000264001F043FC18B14FF0FF3006B010BD2D
:1043400004AA032140F22A4001F038FC10B14FF0DA
:10435000FF30F3E7019805900098049004F0040002
:1043600058B19DF8140040F001008DF814009DF83C
:10437000100040F001008DF8100004F0200058B14A
:104380009DF8150040F001008DF815009DF8110012
:1043900040F001008DF8110004F4807058B19DF8D0
:1043A000160040F001008DF816009DF8120040F054
:1043B00001008DF8120005AA03214FF4886001F076
:1043C000FDFB10B14FF0FF30B8E704AA032140F223
:1043D000314001F0F3FB10B14FF0FF30AEE706487B
:1043E00004810020AAE700004CCD6C000CC92C0011
:1043F0003656760026466600C0050020F8B505460C
:104400000E464FF47A7095FBF0F000FB06F4200E98
:104410008DF80000200C8DF80100200A8DF80200B4
:10442000E0B28DF803006A4604214FF4AE7001F04B
:10443000C5FBF8BD38B50446052094FBF0F084B206
:1044400020128DF80000E0B28DF801006A460221CA
:104450004FF4AD7001F0B2FB38BD38B5044605200D
:1044600094FBF0F084B220128DF80000E0B28DF8D9
:1044700001006A4602214FF4AC7001F09FFB38BD89
:1044800038B504460020009004F0010020B19DF8EA
:10449000000040F03000009004F0020020B19DF8D0
:1044A000000040F00C00009004F0040020B19DF8E2
:1044B000000040F0030000906A4601214FF4A47010
:1044C00001F07CFB38BD38B50446012C01DA01242B
:1044D00002E0042C00DD0424601EC0B200906A4695
:1044E000012140F24F1001F069FB38BD2DE9FC4776
:1044F00006460F4606F0070010B1B7F5C86F03DD9A
:104500004FF0FF30BDE8FC87384603F0AFF9814635
:10451000594903F061F88046684600F079FC9DF83F
:104520000000022806D0042816D0082826D010281B
:1045300048D135E04FF08D41404603F0DFF9814628
:1045400003F05CF984B24D49404603F0D7F9814647
:1045500003F054F985B238E04FF08C41404603F047
:10456000CDF9814603F04AF984B24549404603F04B
:10457000C5F9814603F042F985B226E04FF08B4140
:10458000404603F0BBF9814603F038F984B23D4957
:10459000404603F0B3F9814603F030F985B214E0E8
:1045A0004FF08A41404603F0A9F9814603F026F90D
:1045B00084B23549404603F0A1F9814603F01EF963
:1045C00085B202E04FF0FF309CE700BF20128DF86B
:1045D0000400E0B28DF8050028128DF80600E8B25C
:1045E0008DF8070006F00100A0B101AA02214FF4E6
:1045F000EA7001F0E3FA10B14FF0FF3082E70DF1FD
:10460000060202214FF4927001F0D8FA10B14FF077
:10461000FF3077E706F00200A0B101AA02214FF4B3
:10462000EC7001F0CBFA10B14FF0FF306AE70DF1FA
:10463000060202214FF4947001F0C0FA10B14FF05D
:10464000FF305FE706F00400A0B101AA02214FF499
:10465000EE7001F0B3FA10B14FF0FF3052E70DF1F8
:10466000060202214FF4967001F0A8FA10B14FF043
:10467000FF3047E7002045E7000048430000404680
:104680000000C045000040450000C04438B5044665
:10469000052094FBF0F085B228128DF80000E8B2F6
:1046A0008DF801006A4602214FF4EF7001F086FA9E
:1046B00038BD38B50446052094FBF0F085B22812C9
:1046C0008DF80000E8B28DF801006A4602214FF42F
:1046D000ED7001F073FA38BD7CB50546284949688C
:1046E000087801AB04220D21FCF7FEFC08B107207D
:1046F0007CBD9DF80700C0F301109DF8041001F087
:10470000E00140EAE1008DF800009DF80700C0F3E9
:1047100081009DF8051001F0E00140EAE1008DF80C
:1047200001009DF8070000F003009DF8061001F05D
:10473000E00140EAE1008DF8020000241CE01DF8D1
:10474000040018B9002045F8240013E00D4845F88E
:10475000240006E055F824000B4903F0CFF845F893
:1047600024001DF80400401EC0B20DF8040000280B
:10477000F0D100BF601CC4B2032CE0DB0020B7E71F
:104780001C0100207B14AE3E1D5A843F2DE9F04FE2
:1047900087B005460C46914601208DF81000002098
:1047A0008DF81100FE4A1268517DFD4A526810785A
:1047B00004AB0222FCF741FD20B14FF0FF3007B0FF
:1047C000BDE8F08FC820FCF73BF800208DF8100002
:1047D000F34A1268517CF24A5268107804AB012205
:1047E000FCF72BFD10B14FF0FF30E8E7EC4A126800
:1047F0005179EB4A5268107804AB0122FCF71DFD99
:1048000010B14FF0FF30DAE7E54A1268517DE44A13
:104810005268107804AB0122FCF70FFD10B14FF085
:10482000FF30CCE7DE4A1268917EDD4A526810788C
:1048300004AB0122FCF701FD10B14FF0FF30BEE7E1
:10484000D74A12681179D64A5268107804AB01220F
:10485000FCF7F3FC10B14FF0FF30B0E70C208DF8FF
:104860001000CF4A12681179CD4A5268107804AB13
:104870000122FCF7E2FC10B14FF0FF309FE70F2060
:10488000FBF7DEFFC648806A407A8DF81000C44A04
:1048900012689178C24A5268107804AB0122FCF782
:1048A000CCFC10B14FF0FF3089E7BD48806A007A38
:1048B0008DF81000BA4A12685178B94A52681078D7
:1048C00004AB0122FCF7B9FC10B14FF0FF3076E7E2
:1048D000B9F1000F07D0B248806A807A40F0E0005A
:1048E0008DF8100004E0AE48806A807A8DF81000E0
:1048F000AB4A12689179AA4A5268107804AB012237
:10490000FCF79BFC10B14FF0FF3058E7B9F1000FF6
:1049100007D0A348806AC07A40F0E0008DF810000C
:1049200003E0A048C07A8DF810009D4A1268D17942
:104930009B4A5268107804AB0122FCF77EFC10B150
:104940004FF0FF303BE7B9F1000F02D0C820FBF772
:1049500077FF40208DF81000914A12681179904A33
:104960005268107804AB0122FCF767FC10B14FF0DD
:10497000FF3024E778208DF81000894A12685179B9
:10498000874A5268107804AB0122FCF756FC10B13C
:104990004FF0FF3013E783498889FBF751FF002070
:1049A0008DF810007E4A126851797D4A526810785D
:1049B00004AB0122FCF741FC10B14FF0FF30FEE6E2
:1049C000774A1268117B764A5268107804AB02224B
:1049D000FCF78AFB10B14FF0FF30F0E69DF81100B4
:1049E0009DF8101040EA012B0C209BFBF0F0C6B2A2
:1049F0000020A86068602860A06060602060824637
:104A000065E0674A1268517B654A5268107804ABCA
:104A10000C22FCF769FB10B14FF0FF30CFE69DF898
:104A200011009DF8101040EA012000B2ADF8080016
:104A30009DF813009DF8121040EA012000B2ADF875
:104A40000A009DF815009DF8141040EA012000B2FC
:104A5000ADF80C00BDF90810206808442060BDF9CD
:104A60000A10606808446060BDF90C10A068084432
:104A7000A0609DF817009DF8161040EA012000B2D2
:104A8000ADF800009DF819009DF8181040EA0120CB
:104A900000B2ADF802009DF81B009DF81A1040EA24
:104AA000012000B2ADF80400BDF9001028680844E8
:104AB0002860BDF90210686808446860BDF90410F8
:104AC000A8680844A8600AF1010000F0FF0AB24596
:104AD00097DB3448D0F800C02868C117090441EAC0
:104AE00010410704624600233846FBF7E1FB3246DB
:104AF0000023CDE90201FBF7DBFB28602948D0F851
:104B000000C06868C117090441EA10410704624601
:104B100000233846FBF7CCFB32460023CDE90201E7
:104B2000FBF7C6FB68601F48D0F800C0A868C11733
:104B3000090441EA10410704624600233846FBF7A6
:104B4000B7FB32460023CDE90201FBF7B1FBA860B9
:104B50001448D0F804C02068C117090441EA104184
:104B60000704624600233846FBF7A2FB32460023C7
:104B7000CDE90201FBF79CFB20600A48D0F804C095
:104B80006068C117090441EA104107046246002326
:104B90003846FBF78DFB32460023CDE9020103E0E6
:104BA0001C010020147D0008FBF782FB60601148A7
:104BB000D0F804C0A068C117090441EA10410704F5
:104BC000624600233846FBF773FB32460023CDE9EB
:104BD0000201FBF76DFBA060A068002804DDA0685F
:104BE000A0F58030A06003E0A06800F58030A060F0
:104BF0000020E4E5147D00082DE9FC5F06460F4621
:104C000000253D494968087801AB03220D21FCF7D6
:104C10006BFA10B10720BDE8FC9F9DF8040000F07E
:104C20001F008DF804009DF8050000F01F008DF8AE
:104C300005009DF8060000F01F008DF80600002416
:104C400056E056F8240057F82410A0EB010BBBF1F6
:104C5000000F01DB594601E0CBF10001084602F0EC
:104C6000EDFD4FF08F41009002F0B6FC814601A8A7
:104C7000005D68B32149086802F0F8FD8346594693
:104C80001F4802F0A9FC804604E01E49404602F09D
:104C900035FE804601A8005D401EC0B201A908553E
:104CA0000028F2D14146484602F096FC83464FF078
:104CB0007E5102F02BFF82462AF0004B0F4881699B
:104CC000584602F0E7FE12D20120A04005430EE054
:104CD0000A480169484602F0DDFD05D307484169ED
:104CE000484602F0D7FE02D20120A0400543641CD2
:104CF000032CA6DB28468EE71C010020147D00084B
:104D000000B04C4554E3853F70B50546284600F099
:104D10000FF80446E81C00F00BF844EAC00084B227
:104D2000A81D00F005F844EA801084B2204670BD4A
:104D3000014691F90020002A01DD00201EE091F9D2
:104D40000020002A01DA042018E091F90120002A4D
:104D500001DD012012E091F90120002A01DA05208D
:104D60000CE091F90220002A01DD022006E091F911
:104D70000220002A01DA062000E00720704710B563
:104D8000FBF787FFFDF708FEFEF750FAFCF7ABF9DB
:104D9000FCF78AFAFCF7A8FCFDF72AFB002010BDFF
:104DA00070B50446002624F00104184890F8240049
:104DB00008B1002070BD1548807A10B94FF0FF305F
:104DC000F8E71248057C807A2040104908740846AC
:104DD000007CA04202D04FF0FF3600E0002614B95C
:104DE0000A48007D18B1012001F014FA02E0002009
:104DF00001F010FA3CB100F0CBFA20B10348057481
:104E00004FF0FF30D6E73046D4E700001C01002009
:104E100001461148407A30B1012807D0022808D055
:104E200003280CD108E0022008700BE00420087071
:104E300008E00820087005E01020087002E04FF03C
:104E4000FF30704700BF0448C07C18B108784006A6
:104E5000000E08700020F4E71C01002001461348F2
:104E6000407A30B1012808D002280AD0032810D196
:104E70000BE04FF4804008800EE041F69C70088003
:104E80000AE04FF48050088006E04FF4006008808C
:104E900002E04FF0FF30704700BF0448C07C10B103
:104EA0000888401008800020F5E700001C01002061
:104EB00001460248007C0870002070471C01002059
:104EC00001460F48007A30B1012807D0022809D0E6
:104ED00003280FD10AE0FA2008800EE04FF4FA70A0
:104EE00008800AE04FF47A70088006E04FF4FA6018
:104EF000088002E00020088000BF00BF002070474B
:104F00001C01002001460E48007A30B1012807D06C
:104F1000022808D003280CD108E00A4808600BE0FA
:104F20000948086008E00948086005E0084808608A
:104F300002E04FF0FF30704700BF0020FBE70000A9
:104F40001C0100200000034300008342333303426E
:104F50003333834101461248C07A082817D2DFE86C
:104F600000F01704070A0D101318BC20088013E086
:104F70006220088010E02A2008800DE014200880BC
:104F80000AE00A20088007E00520088004E000BF4E
:104F900000BF0020088000BF00BF00207047000055
:104FA0001C0100200146064890F8240010B14FF083
:104FB000FF3070470248C08908800020F9E70000F0
:104FC0001C0100201CB5044680208DF800003C4ADE
:104FD0001268517D3A4A526810786B460122FCF7FC
:104FE0002CF910B14FF0FF301CBD6420FBF728FCFA
:104FF00000208DF80000324A1268517D304A526814
:1050000010786B460122FCF718F910B14FF0FF3011
:10501000EAE700212A48C174FF218172FF20284954
:105020000872FF2126484172C1724FF6FF71C1819B
:10503000FF21017481740121017380F82210002185
:1050400080F8231041750175163001604160816060
:10505000163880F8241080F82510C1844FF4FA60C7
:1050600000F03AFC10B14FF0FF30BDE7022000F035
:1050700003FB10B14FF0FF30B6E72A2000F0A6FC8A
:1050800010B14FF0FF30AFE7322000F0E1FC10B17B
:105090004FF0FF30A8E70020FFF782FE10B14FF07D
:1050A000FF30A1E734B1002000F028FB10B14FF031
:1050B000FF3099E7002000F019FD002094E7000080
:1050C0001C0100202DE9F04385B005460E469046B0
:1050D0009946294890F8250020B14FF0FF3005B0DF
:1050E000BDE8F08316B94FF0FF30F8E7002423E065
:1050F000281B102801DD102000E0281B87B2321980
:105100003946204600F05AFD10B14FF0FF30E6E777
:1051100001AA3946204600F0FBF810B14FF0FF30ED
:10512000DDE730193A4601A9FBF73AF910B16FF003
:105130000100D4E7E01984B2AC42D9DB4FEA282061
:105140008DF8000008F0FF008DF801000A4A12688F
:10515000517F094A526810786B460222FCF76DF8BD
:1051600010B14FF0FF30BAE70121034880F8251055
:10517000A0F826900020B2E71C01002038B50446B4
:10518000DCB9002000F0ECFB00208DF800000720C7
:105190008DF801002D4A1268517D2C4A5268107812
:1051A0006B460222FCF749F810B14FF0FF3038BDD2
:1051B0000021264801750020F9E7012000F0D0FB0E
:1051C00020208DF80000012C06D100208DF8010070
:1051D000052000F0FBFB17E0052C06DC01208DF814
:1051E0000100052000F0F2FB0EE0142C06DC02208A
:1051F0008DF801000A2000F0E9FB05E003208DF89E
:105200000100142000F0E2FB9DF80100072101EBF2
:105210008010C0B28DF801000C4A1268517D0B4A13
:10522000526810786B460222FCF707F810B14FF075
:10523000FF30BCE70821054881720021017301217C
:1052400001750020FFF7ACFD0020B0E71C01002035
:10525000F8B504460F4616462C4890F8240010B9BD
:105260004FF0FF30F8BD2948807A10B94FF0FF3079
:10527000F8E7264A1268117B244A526810786B4678
:105280000222FBF731FF10B14FF0FF30EAE79DF843
:1052900001009DF8001040EA0125A54203DA002034
:1052A0003070401EDEE7194840684088B5EB600F5B
:1052B00017DD164A1268D17C144A526810786B4682
:1052C0000122FBF711FF10B14FF0FF30CAE79DF844
:1052D000000000F0100020B100F05AF86FF001005B
:1052E000C0E7E2B2094B1B68597B084B5B68187832
:1052F0003B46FBF7F9FE10B14FF0FF30B2E795FBEC
:10530000F4F0401E30700020ACE700001C010020CB
:10531000F8B504460D46164616B94FF0FF30F8BDF5
:105320001A48807A10B94FF0FF30F8E720128DF854
:105330000000E0B28DF801009DF8010028441349F7
:1053400049684989884202DD4FF0FF30E7E70F4A9C
:105350001268D17E0D4A526810786B460222FBF724
:105360006CFF10B14FF0FF30D9E7EAB2074B1B6872
:10537000197E064B5B6818783346FBF7B5FE10B113
:105380004FF0FF30CBE70020C9E700001C010020F0
:1053900008B57048807A10B94FF0FF3008BD002082
:1053A00000906C4A1268517C6A4A526810786B46C9
:1053B0000122FBF742FF10B14FF0FF30EEE7654AE4
:1053C00012685179634A526810786B460122FBF7E4
:1053D00034FF10B14FF0FF30E0E75E4A12681179F8
:1053E0005C4A526810786B460122FBF726FF10B129
:1053F0004FF0FF30D2E7574890F82400002853D0F0
:105400000C200090534A12681179524A5268107861
:105410006B460122FBF711FF10B14FF0FF30BDE7E3
:105420003220FBF70DFAC02000904A48807A00F045
:10543000010020B19DF8000040F020000090454A96
:1054400012681179434A526810786B460122FBF7C3
:10545000F4FE10B14FF0FF30A0E73E48407C10B1A1
:105460000220009001E0002000903A4A1268517C2E
:10547000384A526810786B460122FBF7DEFE10B105
:105480004FF0FF308AE700200090324A12685179CD
:10549000304A526810786B460122FBF7CEFE002896
:1054A00055D04FF0FF3079E704200090294A126868
:1054B0001179284A526810786B460122FBF7BDFE2D
:1054C00010B14FF0FF3069E72248807C20B92148B5
:1054D000807A00F0010010B94020009001E06020C7
:1054E00000901C4A126811791A4A526810786B466B
:1054F0000122FBF7A2FE10B14FF0FF304EE7322041
:10550000FBF79EF91348407C10B10120009001E0A8
:10551000002000900F4A1268517C0E4A52681078A1
:105520006B460122FBF789FE10B14FF0FF3035E7E3
:10553000084A12685179074A52681078054B1033AF
:105540000122FBF77AFE10B14FF0FF3026E7002072
:1055500024E700001C0100202DE9F04F8DB08346A8
:105560000F4602200C90434890F8240020B1002000
:1055700000F06AF9012600E0002603A8FFF7A0FC6E
:1055800005A8FFF745FC01A8FFF7E4FC02A8FFF718
:1055900009FD384890F80AA004A8FFF789FC002408
:1055A00007E0002239465846FFF7F0F800B902E05C
:1055B000641C022CF5DB00BF022C01D100252AE07F
:1055C000002407E0012206A909A8FFF7DFF800B9C7
:1055D00002E0641C022CF5DB00BF022C01D1002587
:1055E00019E006A93846FDF7FFFE00F0FF0809A9FB
:1055F0005846FFF701FB00F0FF090025B9F1000F45
:1056000001D145F00105B8F1000F01D145F00205C7
:1056100045F0040500BFFF2016490872FF21154818
:105620004172C1724FF6FF71C181FF218172017415
:1056300001210173BDF80C0000F04EF99DF8140033
:1056400000F01AF8BDF8040000F0C0F9BDF8080039
:1056500000F0FEF9504600F049FA9DF81000FFF7FF
:105660009FFB16B1012000F0EFF828460DB0BDE811
:10567000F08F00001C01002038B504461E48807AD7
:1056800010B94FF0FF3038BD022C06D0042C07D0E3
:10569000082C08D0102C0CD108E0002000900BE062
:1056A0000820009008E01020009005E018200090ED
:1056B00002E04FF0FF30E6E700BF0F48407A9DF868
:1056C0000010B0EBE10F01D10020DCE70A4A1268BC
:1056D000D179094A526810786B460122FBF7ADFD7B
:1056E00010B14FF0FF30CEE79DF80000C110024826
:1056F00041720020C7E700001C01002038B50446B5
:105700005048807CA04201D1002038BD002C46D0FA
:105710004C4A126811794B4A526810786B46012244
:10572000FBF7E2FC10B14FF0FF30EEE79DF8000010
:1057300020F020000090434A12681179414A5268D3
:1057400010786B460122FBF778FD10B14FF0FF3067
:10575000DBE70320FBF774F802200090394890F84B
:10576000220020B19DF8000040F0800000903548F4
:1057700090F8230020B19DF8000040F03000009028
:10578000304A1268D17D2F4A526810786B46012248
:10579000FBF753FD002851D04FF0FF30B5E7294A01
:1057A00012681179274A526810786B460122FBF77C
:1057B0009BFC10B14FF0FF30A7E72248807A00F041
:1057C000010028B19DF8000040F02000009004E0A6
:1057D0009DF8000020F0200000901A4A126811790C
:1057E000184A526810786B460122FBF726FD10B16B
:1057F0004FF0FF3089E70320FBF722F8114890F8BB
:10580000220010B18020009001E0002000900D489F
:1058100090F8230020B19DF8000040F03000009087
:10582000084A1268D17D074A526810786B460122F7
:10583000FBF703FD10B14FF0FF3066E701488474B9
:10584000002062E71C01002038B50446214890F88A
:105850002400A04201D1002038BD24B31D4890F897
:10586000250010B94FF0FF30F6E7002000F0D2FC21
:105870000020FFF743FF1749C88C00F0E9F800202B
:1058800000901449496808786B4601222321FBF7F0
:10589000D4FC01210F4880F82410012000F0BAFC4C
:1058A000FFF776FD13E0002000F0B4FC0948007C0F
:1058B00000900849496808786B4601222321FBF7CC
:1058C000BCFC0021034880F82410FFF761FD002094
:1058D000C2E700001C01002038B504461F48807A4A
:1058E00010B94FF0FF3038BDFA2C09D0B4F5FA7F6B
:1058F00009D0B4F57A7F09D0B4F5FA6F0CD108E07D
:10590000002000900BE00820009008E0102000909C
:1059100005E01820009002E04FF0FF30E3E700BF01
:105920000E48007A9DF80010B0EBE10F01D1002085
:10593000D9E70A4A12689179084A526810786B468A
:105940000122FBF77AFC10B14FF0FF30CBE79DF856
:105950000000C010014908720020C4E71C010020AB
:1059600038B50446184890F82300A04201D1002021
:1059700038BD14B13020009001E0002000901248A2
:10598000807C20B19DF8000040F0020000900E489D
:1059900090F8220020B19DF8000040F080000090B7
:1059A000094A1268D17D084A526810786B46012274
:1059B000FBF743FC10B14FF0FF30D9E7024880F805
:1059C00023400020D4E700001C01002038B5044625
:1059D0001E48807A10B94FF0FF3038BDBC2C02DB76
:1059E0000120009015E0622C02DB0220009010E004
:1059F0002A2C02DB032000900BE0142C02DB042095
:105A0000009006E00A2C02DB0520009001E0062051
:105A100000900E48C07A9DF80010884201D1002005
:105A2000DBE70A4A12689178084A526810786B4698
:105A30000122FBF702FC10B14FF0FF30CDE79DF8DB
:105A400000100248C1720020C7E700001C010020BE
:105A500038B504462448807A10B94FF0FF3038BD7D
:105A6000214890F8240010B14FF0FF30F7E71E48AE
:105A7000007D50B134B1282C04DC2046FFF77EFBBA
:105A80000020ECE70020FFF779FB042C01DA042466
:105A900004E0B4F57A7F01DD4FF47A744FF47A7044
:105AA00090FBF4F0401EC0B200900F4A126851788B
:105AB0000D4A526810786B460122FBF7BEFB10B10D
:105AC0004FF0FF30CBE79DF80000401C4FF47A7197
:105AD00091FBF0F081B20448C1810146C9894810A8
