:020000040800F2
:10000000104200209D010008311A0008A7140008C2
:100010002D1A0008970C0008852800080000000031
:1000200000000000000000000000000005010008C2
:10003000EF0C00080000000049010008ED1C00085A
:10004000B7010008B7010008B7010008B7010008B0
:10005000B7010008B7010008B70100081D0D00082E
:10006000B7010008B7010008B7010008B701000890
:10007000B7010008B7010008B7010008B701000880
:10008000B7010008B7010008B7010008B701000870
:10009000B7010008B7010008B7010008490D0008C2
:1000A000B7010008B7010008B7010008B701000850
:1000B000051E0008B7010008B7010008B7010008D5
:1000C000B7010008B7010008B7010008B701000830
:1000D000B7010008B7010008F523000865250008EE
:1000E000B7010008B7010008B7010008DFF810D019
:1000F00000F0F2FB0048004709320008AFF300802F
:1001000010420020224B19680868B0E8F00F80F315
:100110000988BFF36F8F4FF0000080F311884EF015
:100120000D0E70470000000006480068006880F36C
:10013000088862B661B6BFF34F8FBFF36F8F00DFE1
:1001400000BF00BF08ED00E0EFF30980BFF36F8F41
:100150000F4B1A6820E9F00F106008B54FF05000FF
:1001600080F31188BFF34F8FBFF36F8F03F0C6FD8D
:100170004FF0000080F31188BDE808401968086856
:10018000B0E8F00F80F30988BFF36F8F704700BFAE
:10019000D4080020EFF30580704700000648804730
:1001A00006480047FEE7FEE7FEE7FEE7FEE7FEE75C
:1001B000FEE7FEE7FEE7FEE7211D0008ED00000870
:1001C000D2B201E000F8012B491EFBD27047002299
:1001D000F6E710B513460A4604461946FFF7F0FF46
:1001E000204610BDF0B480EA0102D40F4200B2EB09
:1001F000410F02D20246084611464A0042D0C30DC2
:10020000DDB2C1F3C752AD1A202D35DAC1F31601A4
:1002100041F4000204B15242C5F1200602FA06F18F
:100220002A411044B3EBD05F23D0C4B1012DA0EB21
:10023000C35009DCF0BC4FF0004202EAC352DBB20B
:1002400000F5000000F01EBA400000F1807000EBE5
:10025000C350A0F1807040EAD170490009E049081C
:1002600041EAC071A0EBC35000F50000400800EB6C
:10027000C350F0BC00F0FDB96142012202EB410124
:10028000001BF6E7F0BC704781F00041AAE780F060
:100290000040A7E780EA010210B502F000434000E9
:1002A00022D04A001FD0010E01EB1261C0F35600AC
:1002B000C2F3560240F4000042F40002A0FB022008
:1002C00000047F39140400D0401C50EA124001D4CD
:1002D0004000491EC2B20C0604EBD010401C40087E
:1002E000802A02D003E0002010BD20F00100002988
:1002F00000DA0020184310BD30B480EA010202F099
:10030000004530F0004221F0004013D090B1C30D01
:10031000D40DC2F31601C0F31600E41A41F4000133
:1003200040F400027D34914201D3641C00E0490096
:10033000002C02DA30BC002070474FF4000000238C
:10034000914201D3891A034340084FEA4101F7D192
:1003500051B1914202D14FF0004105E002D24FF07D
:10036000010101E06FF0010103EBC450284430BCEF
:1003700000F07FB92DE9FE4F804681EA0300C00FEF
:100380000C46009021F0004123F00045B8EB02003C
:10039000A94105D24046214690461C460B460246DE
:1003A00023F00040104347D0270DC7F30A00C3F3E2
:1003B0000A510290401A019040286BDAC3F31300EF
:1003C00040F4801B0098924620B10023D2EB030A30
:1003D00063EB0B0B01985946C0F14002504600F008
:1003E00027F906460D4650465946019A00F02FF966
:1003F00010EB08006141002487EA115284EAE77398
:100400001A4340D0009A62B3019A012A4FEA075278
:1004100015DC001B61EB02014FF0004202EA0752BB
:10042000CDE90042001C41F5801132462B4600F018
:1004300066F903B0BDE8F08F40462146F9E7001B9E
:1004400061EB0201001C41F5801300185B4120188C
:10045000A2F5001747EB030140EAD570B6196D41CC
:1004600011E06D084FEA360645EAC0754FEA0752BB
:10047000001B61EB0201001C41F5801149084FEAA5
:1004800030000019514132462B4603B0BDE8F04F11
:1004900000F026B90098012240000023D0EB0202B0
:1004A00063EBE073009821464FEAE074B8EB00007C
:1004B00061EB0401E9E783F000435BE781F0004171
:1004C00058E72DE9FE4F81EA030404F0004421F0CF
:1004D000004100944FF0000B23F0004350EA010468
:1004E0005ED052EA03045BD0C3F30A54C1F30A5549
:1004F0002C44A4F2F3340194A0FB0254C1F3130181
:1005000041F48011C3F3130343F4801301FB02444D
:1005100000FB034E840A970A44EA815447EA835752
:10052000A4FB076802958D0A05FB07854FEA932C0B
:1005300004FB0C542705029D4FEA065847EA16377C
:10054000B5EB08056EEB070C870E920E47EA811794
:1005500042EA8312A7FB0201B6EB0B0164EB000435
:100560002B0D43EA0C335E1844EB1C50DA4651461F
:10057000E7FB0201C5F313044FEA0B3343EA1453BC
:100580004FEA0432019C43EA0603A4F10C040294EE
:10059000009CCDE900B400F0B2F803B0BDE8F08FE4
:1005A00000200146F9E7C10F80EAE0700844CA075D
:1005B0009623002100F066B80EB540F23341029157
:1005C0000021CDE900110A460B4600F098F803B06F
:1005D00000BD00F0004230F000400AD0C10D01F52E
:1005E0006071C0F3160042EA0151C208400711438E
:1005F000704700200146704701F0004330B421F0FD
:10060000004150EA010206D00A0DA2F56072C1F362
:100610001301002A02DC30BC00207047440F44EA7A
:10062000C104C100E01830BC00EBC25000F021B89A
:10063000202A04DB203A00FA02F1002070479140A2
:10064000C2F1200320FA03F3194390407047202A97
:1006500006DBCB17203A41FA02F043EAE07306E0EA
:1006600041FA02F3D040C2F12002914008431946FA
:1006700070470029A8BF7047401C490008BF20F000
:100680000100704710B4B0FA80FC00FA0CF050EA98
:10069000010404BF10BC704749B1CCF1200421FA19
:1006A00004F411FA0CF118BF012121430843A3EB14
:1006B0000C01CB1D4FEA00614FEA102042BF002021
:1006C00010BC704700EBC35010440029A4BF10BCFD
:1006D0007047401C490008BF20F0010010BC704763
:1006E00010B5141E73F1000408DA401C41F100013A
:1006F00092185B411A4301D120F0010010BD2DE991
:10070000F04D92469B4611B1B1FA81F202E0B0FA87
:1007100080F220329046FFF78BFF04460F4640EAF6
:100720000A0041EA0B0153465A46084313D01146CA
:1007300053EA010019D0C8F14002504600F0DEF83B
:1007400005460E46504659464246FFF771FF08439C
:1007500005D0012004E020463946BDE8F08D002098
:10076000054346EAE0762C4337430A986305E40ADA
:10077000A0EB08000022FD0A44EA47540A3002D5E3
:1007800000200146E9E7010510196941DDE9084546
:1007900000196941BDE8F04DA2E72DE9F04D81EA6D
:1007A000030404F0004B21F0004514464FF0000A0A
:1007B00023F0004150EA050220D054EA01021DD086
:1007C000C5F30A570246C5F31303C1F31300C1F37F
:1007D0000A5640F4801543F48013A7EB0608101B5B
:1007E000D64608F2FD3873EB050002D308F1010884
:1007F00001E092185B41B8F1000F03DA00200146D6
:10080000BDE8F08D00204FF48011064684460EE0CE
:10081000171B73EB050705D3121B63EB0503064398
:100820004CEA010C49084FEA300092185B4150EA4B
:100830000107EDD152EA030012D082EA040083EAF4
:100840000501084305D0101BAB4106D2012200234D
:1008500006E000224FF0004302E06FF00102531067
:100860001AEB06004CEB085110EB0A0041EB0B01B0
:10087000BDE8F04DFFF734BF70B521F000430343EE
:100880000CD0C1F30A550024D5EB040564EB040336
:10089000D617AD1AB34102DB0020014670BD201807
:1008A00041EB025170BD000030B5041E71F100042F
:1008B00004DB4FF00044404264EB0101141E73F16D
:1008C000000405DB1C464FF00043524263EB040377
:1008D0008B4208BF824230BD064C074D06E0E068FF
:1008E00040F0010394E8070098471034AC42F6D377
:1008F000FFF700FC2842000848420008202A04DBD9
:10090000203A21FA02F00021704721FA02F3D04088
:10091000C2F1200291400843194670472DE9F04D7D
:1009200000231A461B1A8A4103DB00200146BDE85A
:10093000F08DC1F30A52C1F3130141F480154FF059
:10094000000BD10702D100186D41521E002704464A
:1009500040F2FF11384601EB620A3E4680460246ED
:1009600000204FF48011FFF7C9FFC2197141BB1875
:1009700046EB0100B4EB030C75EB000C04D3E41A56
:1009800065EB000517460E46241908F101006D417C
:1009900080463428E3DDF91946EB0600091BA8411F
:1009A00003D24FF0FF32134601E0002213461BEB47
:1009B000070046EB0A51BDE8F04DFFF791BE70B558
:1009C0008C1810F8015B15F0070301D110F8013BFA
:1009D0002A1106D110F8012B03E010F8016B01F881
:1009E000016B5B1EF9D12B0705D40023521E0DD4D9
:1009F00001F8013BFAE710F8013BCB1A921C03E027
:100A000013F8015B01F8015B521EF9D5A142D8D35E
:100A1000002070BD21B1826842F00102826003E0D3
:100A2000826822F001028260704721B1826842F43C
:100A30008072826003E0826822F480728260704774
:100A4000014600208A6802F004020AB1012000E099
:100A500000207047014600208A6802F008020AB1AF
:100A6000012000E00020704700B591B0012148024C
:100A700001F04EF80121084601F02AF84FF4004039
:100A800001F01AF8052301221946314800F092F8C6
:100A90000523022204212E4800F08CF805230322AE
:100AA00000212B4800F086F800200C900F904FF4A6
:100AB00060200E9001208DF835008DF83400032061
:100AC0008DF840000CA9224800F048F820484C302E
:100AD000019080150790002005901E4802904FF469
:100AE00080600890802006900020039003200490EE
:100AF0002020099000200B904FF480500A9001A90B
:100B0000154800F0D6F80121134800F0C6F801217D
:100B10000F48FFF78AFF01210D48FFF77BFF0C48C4
:100B200000F0A4F800BF0A48FFF794FF0128FAD0AC
:100B3000074800F0ABF800BF0548FFF781FF012828
:100B4000FAD00121024800F096F811B000BD000073
:100B500000240140280800200800024030B5024669
:100B60000020002350680F4C20400D790C6844EAA7
:100B700005242043506090680B4C2040D1E902547A
:100B80002C434D7944EA450420439060D06A20F418
:100B900070000C7C641EE4B2234340EA0350D06230
:100BA00030BD0000FFFEF0FFFDF7F1FF10B5FFF7CD
:100BB0005BFF10BDF0B504460D4600200021092D55
:100BC00011DDE068A5F10A0606EB4607072606FADE
:100BD00007F18843A5F10A0606EB460603FA06F17B
:100BE0000843E0600CE0206905EB4507072606FA9C
:100BF00007F1884305EB450603FA06F10843206137
:100C0000072A0FDA606B561E06EB86071F2606FAC8
:100C100007F18843561E06EB860605FA06F10843DF
:100C2000606322E00D2A0FDA206BD61F06EB8607E1
:100C30001F2606FA07F18843D61F06EB860605FA3B
:100C400006F10843206310E0E06AA2F10D0606EB0E
:100C500086071F2606FA07F18843A2F10D0606EB68
:100C6000860605FA06F10843E062F0BD816841F0AE
:100C700008018160704721B1826842F4A00282605D
:100C800003E0826822F4A00282607047816841F02C
:100C900004018160704700BFFEE721B1026842F0A5
:100CA0000102026004E002684FF6FE731A4002601F
:100CB000704710B50022026847F6F0739A430C6A39
:100CC0008B6823430C6923434C6923438C6923437A
:100CD000CC6923434C6A23438C6A23431A43026042
:100CE000CB6843600B6883604B68C36010BD70477E
:100CF0000149096801607047A4080020044A11688E
:100D0000014400BF024A12688A42FBD370470000C8
:100D1000A408002000BF00BF7047000010B50220EB
:100D200000F07EF8012807D1044A0549054800F083
:100D30001BFD022000F06EF810BD000038080020F6
:100D4000340800203008002010B5402000F068F87A
:100D500001280FD14021294800F02CFB38B9284840
:100D60000088401C26490880012000F02DFA402010
:100D700000F050F8802000F053F801280FD18021B6
:100D80001E4800F017FB38B91D480088401C1C495C
:100D90000880012000F018FA802000F03BF84FF4A2
:100DA000807000F03DF8012810D10102134800F0D6
:100DB00001FB38B913480088401C12490880012003
:100DC00000F002FA4FF4807000F024F84FF4007045
:100DD00000F026F8012810D14102084800F0EAFA94
:100DE00038B908480088401C06490880012000F0F6
:100DF000EBF94FF4007000F00DF810BD000C01404D
:100E000020080020220800200149086070470000E7
:100E100014040140014908607047000014040140B7
:100E2000014600200022074B1B6803EA0102054B24
:100E300014331B680B4013B10AB1012000E00020FD
:100E40007047000000040140002123498279002AF4
:100E50003AD00A46126803689A430B461A600A1D84
:100E6000126803689A430B1D1A60027911440A68DC
:100E700003681A430A60184A0832126803689A43E2
:100E8000154B08331A601A1D126803689A43124BF7
:100E90000C331A604279102A0ED11A1F12680368A7
:100EA0001A430D4B08331A601A1D126803681A435F
:100EB000094B0C331A600DE00749427911440A6866
:100EC00003681A430A6005E0027911440A6803685E
:100ED0009A430A60704700000004014008B50121F0
:100EE000042000F015FE00208DF803003120ADF83D
:100EF000000003208DF802006946024800F0B0F8B7
:100F000008BD00000008014008B50121042000F0E0
:100F1000FFFD10208DF803000001ADF80000032054
:100F20008DF802006946024800F09AF808BD0000FA
:100F3000000801401FB50121082000F0E9FD012152
:100F4000084600F0E5FD48208DF80F00C020ADF800
:100F50000C0003208DF80E0003A9204800F080F853
:100F600048208DF80F004FF44070ADF80C000320BE
:100F70008DF80E0003A9194800F072F8062101202F
:100F800000F02EF80721012000F02AF808210120A6
:100F900000F026F80921012000F022F84FF47070CB
:100FA000FFF732FF4FF47070019001208DF80A00B6
:100FB00000208DF808000C208DF8090001A8FFF72B
:100FC00043FF17208DF8000001208DF803008DF8F5
:100FD0000100684600F02EFD1FBD0000000C01401E
:100FE00030B500228B071C0F0F2303FA04F20B4BC2
:100FF0008C1053F824309343084C8D1044F825305E
:1010000023468C1053F824308C07240F00FA04F484
:101010002343024C8D1044F8253030BD08000140B8
:1010200008B50121042000F073FD14208DF80300A1
:101030004FF4C050ADF8000003208DF8020069465F
:10104000064800F00DF80122D102044800F026FA0B
:1010500001221103014800F021FA08BD00080140F7
:101060002DE9F0410246002500260020002300243F
:10107000002791F803C00CF00F0591F803C00CF0A5
:10108000100CBCF1000F03D091F802C04CEA05052A
:1010900091F800C0BCF1000F31D0146800202BE0A3
:1010A0004FF0010C0CFA00F3B1F800C00CEA030693
:1010B0009E4220D183004FF00F0C0CFA03F7BC4383
:1010C00005FA03FC4CEA040491F803C0BCF1280FB4
:1010D00006D14FF0010C0CFA00FCC2F814C00AE073
:1010E00091F803C0BCF1480F05D14FF0010C0CFA88
:1010F00000FCC2F810C0401C0828D1D31460B1F81D
:1011000000C0BCF1FF0F34DD546800202EE000F178
:10111000080C4FF0010808FA0CF3B1F800C00CEA13
:1011200003069E4221D183004FF00F0C0CFA03F707
:10113000BC4305FA03FC4CEA040491F803C0BCF17B
:10114000280F05D100F1080C08FA0CF8C2F8148039
:1011500091F803C0BCF1480F07D100F1080C4FF023
:10116000010808FA0CF8C2F81080401C0828CED3F9
:101170005460BDE8F08110B5FFF752FFFFF7AEFEF7
:10118000FFF7D8FE00F058F800F044F900F004F83A
:10119000FFF7BAFE10BD000008B50121042000F0E1
:1011A000B7FC10208DF803008001ADF8000003208B
:1011B0008DF8020069460348FFF752FF002000F057
:1011C00003F808BD0008014010B5044622464FF45C
:1011D0008061024800F062F910BD00000008014083
:1011E00010B5044622460221014800F057F910BD0F
:1011F000000C014010B5044622460121014800F0D0
:101200004DF910BD000C014010B5044622464FF4C4
:101210008041024800F042F910BD0000000C01407E
:1012200010B5044622464FF40041024800F036F95A
:1012300010BD0000000C014008B50121042000F0A1
:1012400067FC0121082000F063FC0121084600F042
:101250005FFC01212A4800F065F84020ADF800004D
:1012600018208DF8030003208DF8020069462548F8
:10127000FFF7F6FE8020ADF8000018208DF803007F
:1012800003208DF8020069461E48FFF7E9FE4FF47F
:101290000050ADF8000010208DF8030003208DF8F9
:1012A000020069461848FFF7DBFE0320ADF8000096
:1012B00010208DF8030003208DF8020069461248C3
:1012C000FFF7CEFE4FF44040ADF8000010208DF83F
:1012D000030003208DF8020069460B48FFF7C0FEAB
:1012E000012000F013F80020FFF77AFF0020FFF73D
:1012F00081FF0020FFF788FF0020FFF791FF08BD66
:101300000002300000080140000C014010B5044606
:1013100022464FF40051024800F0C0F810BD000012
:10132000000C0140F0B50A460023002400210025EE
:1013300000F00046B6F1004F02D11D4EF16901E008
:101340001B4E7168C0F3034583B200F44016B6F536
:10135000401F08D121F07061154E766826F0706646
:10136000134F7E6012E000F48016B6F5801F06D1A0
:10137000032606FA05F4A14341F0706106E0460D2C
:10138000360103FA06F6B14341F0706122B1460D11
:10139000360103FA06F6314300F00046B6F1004F7D
:1013A00002D1034EF16101E0014E7160F0BD000019
:1013B000000001400246002093680B400BB1012061
:1013C00000E000207047000010B5044622464FF4AC
:1013D0000061034800F062F80120FFF79BFC10BD9C
:1013E0000008014010B5044622464FF480510348DE
:1013F00000F054F80120FFF78DFC10BD00080140FB
:1014000010B54FF480510248FFF7D4FF10BD000023
:101410000008014008B50121042000F079FB0121FA
:10142000082000F075FB18208DF803000420ADF8AB
:10143000000003208DF8020069461648FFF710FEF1
:1014400048208DF803000820ADF8000003208DF837
:10145000020069460F48FFF703FE18208DF80300CD
:101460004FF48060ADF8000003208DF8020069465B
:101470000948FFF7F5FD48208DF803004FF40060A0
:10148000ADF8000003208DF8020069460248FFF71E
:10149000E7FD08BD00080140000C01400AB10161F0
:1014A00000E04161704700BFFEE72DE9F0410446CE
:1014B0000E4617461D4600F088F8002141EA440117
:1014C000C8B200F06DF800F031F8304600F068F86E
:1014D00000F02CF80A20FFF71DFC00F076F801213F
:1014E00001EB4401C8B200F05BF800F01FF84FF0C8
:1014F00000080AE028466D1C00F027F8002000F0E4
:1015000043F808F1010000F0FF08781E4045F1DCC7
:10151000284600F01AF8012000F036F81E20FFF7E8
:10152000F9FB00F060F80020BDE8F08110B5012063
:10153000FFF758FF0120FFF747FFFFF761FF044661
:101540000020FFF741FF204610BD70B50446002083
:1015500020700120FFF746FF002512E00120FFF771
:1015600033FF20784006000E2070FFF749FF18B1C6
:10157000207840F0010020700020FFF725FF681C54
:10158000C5B2082DEADB70BD10B504462046FFF752
:1015900029FF0120FFF718FF0020FFF715FF10BDFE
:1015A00070B5044600250DE004F08000FFF71AFF37
:1015B0000120FFF709FF0020FFF706FF6006040E79
:1015C000681CC5B2082DEFDB70BD10B50120FFF718
:1015D00009FF0120FFF7F8FE0020FFF703FF0020BE
:1015E000FFF7F2FE10BD10B50020FFF7FBFE012053
:1015F000FFF7EAFE0120FFF7F5FE10BD2DE9F041EF
:1016000005460E4617461C46FFF7DFFF002141EA5C
:101610004501C8B2FFF7C4FFFFF788FF3046FFF768
:10162000BFFFFFF783FF4FF0000809E02078FFF7C6
:10163000B7FFFFF77BFF641C08F1010000F0FF0813
:10164000781E4045F2DC2078FFF7AAFFFFF76EFF17
:101650001E20FFF75FFBFFF7C6FF0020BDE8F0810B
:1016600010B50120FFF752FE10BD10B5FFF7F8FFCF
:101670000021084600F021F810BD10B50120FFF749
:10168000AFFD0020FFF7B6FD10BD10B50020FFF73D
:10169000A7FD0120FFF7AEFD10BD10B504462046A2
:1016A00000F02EFC10BD10B50A464B42904200DD02
:1016B0001046984200DA184610BD70B505460C4633
:1016C000002D0BDBFFF7E1FF4FF4E1512846FFF758
:1016D000EAFF0546A8B2FFF7E0FF0FE0FFF7CDFFF6
:1016E0004FF4E1512846FFF7DEFF05462E1E01DBD1
:1016F000314600E0714288B2FFF7CFFF002C0BDBD0
:1017000000F023F84FF4E1512046FFF7CCFF0446E8
:10171000A0B200F022F80FE000F00FF84FF4E15112
:101720002046FFF7C0FF0446261E01DB314600E0DD
:10173000714288B200F011F870BD10B50020FFF7BB
:1017400063FD0120FFF76CFD10BD10B50120FFF710
:101750005BFD0020FFF764FD10BD10B50446204678
:1017600000F0D8FB10BD00002DE9F04F91B0044609
:10177000894692460AA80BA90CAB0DAACDE9001028
:101780008A498B4801F05AFC20B14FF0FF3011B06C
:10179000BDE8F08FBDF82C0000F4807000287DD0EB
:1017A0000D98FEF700FF05464FF09D41FEF7A4FDA2
:1017B000804908600E98FEF7F6FE05464FF09D4101
:1017C000FEF79AFD7C4908600F98FEF7ECFE05468F
:1017D0004FF09D41FEF790FD784908601098FEF7A4
:1017E000E2FE05464FF09D41FEF786FD7449086014
:1017F000704801684FF08040FEF74CFD05906F483F
:1018000001680598FEF746FD83466B4801684FF076
:101810004040FEF73FFD0590694801680598FEF7D6
:1018200039FD59460690FEF7DDFC0790FEF7D1FE24
:10183000CDE9080101F0BAF807464FF06632614B76
:10184000FEF73FFE0546FEF7D7FE20605B480168C5
:101850004FF08040FEF71EFD029058480168029844
:10186000FEF718FD8346544801684FF04040FEF7EC
:1018700011FD0290504801680298FEF70BFD594691
:101880000390FEF701FD80464FF07E51FEF7AAFC63
:101890000746FEF79EFECDE9060100E084E04548DC
:1018A00001684FF08040FEF7F5FC03904248016864
:1018B0000398FEF7EFFC8046404801684FF08040F7
:1018C000FEF7E8FC03903E4801680398FEF7E2FC4F
:1018D00083464146FEF786FC0746FEF77AFECDE9D1
:1018E0000401DDE9062301F0A9FA4FF06632354B19
:1018F000CDE90801FEF7E5FD0546FEF77DFEC9F8D6
:1019000000002F4801680068FEF7C4FC04902B48D3
:1019100001680068FEF7BEFC029027480168006875
:10192000FEF7B8FC0190234801680068FEF7B2FC9E
:1019300000900199FEF756FC83460299FEF7A4FC3D
:1019400003900499FEF7A0FC0590FEF742FE0546C1
:101950000E461B48016817480068FEF79BFC049080
:101960001648016814480068FEF794FC0390049937
:10197000FEF738FC4FF080410590FEF78BFC834664
:10198000FEF727FE2A463346CDE9060101F056FA56
:101990004FF066320B4BCDE90801FEF792FD07468A
:1019A000FEF72AFECAF800000020F0E65E080020DC
:1019B00058080020480800204C080020500800204B
:1019C0005408002066A64C402DE9FC5F13491448DA
:1019D000CDE9001013480088FEF7EEFD8046DDE9F2
:1019E0000023FEF76EFD04460D460F480068FEF723
:1019F000F0FD064622462B46FEF75DFD8246FEF7C9
:101A0000FBFD0949086042F2107002F0B5F8054884
:101A100000880A3003490880BDE8FC9FDC3DFCD902
:101A2000E8CC703F3C0800203808002000BFFEE7EB
:101A30007047000070B5002100230F22C47804B362
:101A4000154C246804F4E064C4F5E064210AC1F193
:101A50000403CA40447804FA03F184781440214313
:101A600009010E4C0678A155047804F01F050124E5
:101A7000AC4005786D11AD0005F1E025C5F80041D9
:101A800009E0047804F01F050124AC40044D0678F9
:101A9000761145F8264070BD0CED00E000E400E052
:101AA00080E100E002490143024A116070470000F2
:101AB0000000FA050CED00E001460020034A5068E2
:101AC00020F440400843506070470000001002407E
:101AD00029B1064A52690243044B5A6104E0034AA1
:101AE00052698243014B5A61704700000010024066
:101AF00029B1064AD2690243044BDA6104E0034A81
:101B0000D2698243014BDA61704700000010024045
:101B100029B1064A92690243044B9A6104E0034AE0
:101B200092698243014B9A617047000000100240A5
:101B300030B500210022002400232D4D6D6805F0F2
:101B40000C0121B1042905D0082923D105E0294D34
:101B5000056022E0274D05601FE0254D6D6805F406
:101B60007012234D6D6805F48034022505EB924216
:101B70001CB9214D554305600BE01D4D6D6805F402
:101B800000351DB11C4D5543056002E0194D55430C
:101B9000056002E0174D056000BF00BF144D6D6881
:101BA00005F0F0010909154D6B5C0568DD404560E5
:101BB0000F4D6D6805F4E061090A104D6B5C4568D6
:101BC000DD4085600A4D6D6805F46051C90A0B4D12
:101BD0006B5C4568DD40C560054D6D6805F44041AE
:101BE000890B074D6B5CC568B5FBF3F5056130BD2E
:101BF0000010024000127A0000093D0000000020A1
:101C00001000002010B500F001F810BD0CB5002048
:101C1000019000903348006840F4803031490860FA
:101C200000BF3048006800F4003000900198401C6C
:101C30000190009818B90198B0F5A06FF1D129482A
:101C4000006800F4003010B10120009001E0002095
:101C500000900098012843D12348006840F010000C
:101C6000214908600846006820F003000860084623
:101C7000006840F0020008601A484068194948604E
:101C80000846406848600846406840F48060486004
:101C90000846406820F47C1048600846406840F4DC
:101CA000E81048600846006840F08070086000BF97
:101CB0000C48006800F000700028F9D0094840681E
:101CC00020F00300074948600846406840F00200E1
:101CD000486000BF0348406800F00C000828F9D1B4
:101CE0000CBD0000001002400020024010B500BFF3
:101CF000502080F31188BFF34F8FBFF36F8F00BF69
:101D000002F07AF818B14FF080500449086000BF23
:101D1000002080F3118800BF10BD000004ED00E03A
:101D200010B51348006840F00100114908600846EA
:101D30004068104908400E494860084600680E494E
:101D400008400B4908600846006820F480200860BD
:101D50000846406820F4FE0048604FF41F00886089
:101D6000FFF750FF4FF000600449086010BD00000D
:101D7000001002400000FFF8FFFFF6FE08ED00E053
:101D800000BFFEE700BFFEE701E0FFF71DFEFCE736
:101D900000BFFEE700BFFEE700BFFEE700BFFEE7B3
:101DA00004E000F089FB642001F0E6FEF9E700BFE3
:101DB000FEE700BFFEE700BFFEE700BFFEE700BF93
:101DC000FEE700BFFEE700BFFEE700001CB54FF4D2
:101DD0004070FFF767FE0648012100238022CDE90D
:101DE000001004A1064801F0D3FF01F049FF1CBD1B
:101DF000A00800205461736B5F537461727400001B
:101E0000B121000810B50121880700F058F8012819
:101E100004D105480068401C034908600121880777
:101E200000F007F810BD0000A4080020CA43028299
:101E30007047CA430282704721B1028842F0010212
:101E4000028004E002884FF6FE731A400280704759
:101E50001FB501210846FFF74BFE0020ADF80A0030
:101E6000ADF8060040F2E730ADF808004720ADF8C5
:101E7000040000208DF80C0001A94FF0804000F014
:101E800045F901218807FFF7D1FF0122114690078C
:101E900000F026F81C208DF8000001208DF80300CA
:101EA0008DF801006846FFF7C5FD00214FF0804026
:101EB00000F02AF901218807FFF7BEFF1FBD30B5EA
:101EC0000246002000230024158A05EA01039589B3
:101ED00005EA010413B10CB1012000E0002030BD7F
:101EE0001AB183890B43838102E083898B43838109
:101EF000704710B5FFF7ACFF00F016F810BD0000FA
:101F000010B504462146024800F0FAF810BD000062
:101F10000004004010B504462146024800F0F2F8E3
:101F200010BD00000004004000B587B00121022070
:101F3000FFF7DEFD684600F0D9F80020ADF8160086
:101F4000ADF812004FF4E150ADF814004720ADF8A1
:101F5000100000208DF8180004A9144800F0D6F8ED
:101F60006020ADF800000020ADF808000120ADF8B9
:101F700002000020ADF8060069460C4800F018F891
:101F80006020ADF800000020ADF808000120ADF899
:101F900002000020ADF806006946044800F054F83D
:101FA00001210248FFF748FF07B000BD00040040D0
:101FB00070B5002400220023058C4FF6FE763540D4
:101FC0000584028C8388048B4FF68F752C40B51ED8
:101FD0002C400D882C43751E2A400D892A434D88BC
:101FE0002A43144DA8420BD0134DA84208D0134DDC
:101FF000A84205D0124DA84202D0124DA84213D1DA
:102000004FF6F7752A404D892A434FF6FB752A4053
:102010008D882A434FF6FF652B404FF6FF552B4026
:102020008D892B43CD892B4383800483CD8885867E
:10203000028470BD002C014000340140004001408A
:10204000004401400048014070B5002400220023F4
:10205000058C4FF6EF7635400584028C8388048B1F
:1020600048F6FF752C404FF6FF452C400D884FF683
:10207000FF7606EA05252C434FF6DF752A400D89C9
:1020800006EA05152A434D8806EA05152A43154D2B
:10209000A84202D0144DA8421DD14FF67F752A40A8
:1020A0004D894FF6FF7606EA05152A434FF6BF75B0
:1020B0002A408D8806EA05152A434FF6FF352B4046
:1020C0004FF2FF752B408D8906EA85052B43CD899C
:1020D00006EA85052B4383800483CD880587028427
:1020E00070BD0000002C014000340140002101803F
:1020F00041808180C180018141818181C18170479E
:10210000818670470187704781847047002202886A
:102110001D4B98420ED01D4B98420BD0B0F1804F12
:1021200008D01B4B984205D01A4B984202D01A4B4C
:10213000984204D14FF68F731A404B881A43174BBD
:10214000984207D0164B984204D04FF6FF431A40EE
:10215000CB881A4302808B8883850B8803850A4BC2
:1021600098420BD0094B984208D00E4B984205D0AC
:102170000D4B984202D00D4B984201D10B7A038649
:102180000123838270470000002C0140003401408D
:102190000004004000080040000C00400010004017
:1021A000001400400040014000440140004801404C
:1021B0001CB5044601F08CFC4D480121002380220F
:1021C000CDE900104BA14D4801F0E2FD4C48012142
:1021D00000238022CDE900104AA14C4801F0D8FD2F
:1021E0004B48012100238022CDE9001049A14B4832
:1021F00001F0CEFD4A48012100238022CDE90010E4
:1022000048A14A4801F0C4FD494801210023802229
:10221000CDE9001047A1494801F0BAFD4848012125
:1022200000238022CDE9001046A1484801F0B0FD0E
:102230004748012100238022CDE9001045A14748ED
:1022400001F0A6FD4648012100238022CDE90010BF
:1022500044A1464801F09CFD45480121002380220D
:10226000CDE9001043A1454801F092FD4448012109
:1022700000238022CDE9001042A1444801F088FDEE
:102280004348012100238022CDE9001041A14348A9
:1022900001F07EFD4248012100238022CDE900109B
:1022A00040A1424801F074FD4148012100238022F1
:1022B000CDE900103FA1414801F06AFD40480121ED
:1022C00000238022CDE900103EA1404801F060FDCE
:1022D0003F48012100238022CDE900103DA13F4865
:1022E00001F056FD002001F061FC01F003FC1CBD73
:1022F000640800205441534B31000000811D000848
:10230000680800205441534B32000000A11D000812
:102310006C0800205441534B33000000AF1D0008EF
:10232000700800205441534B34000000B31D0008D6
:10233000740800205441534B35000000B71D0008BD
:10234000780800205441534B36000000BB1D0008A4
:102350007C0800205441534B37000000BF1D00088B
:10236000800800205441534B38000000C31D000872
:10237000840800205441534B39000000C71D000859
:10238000880800205441534B31300000851D00085F
:102390008C0800205441534B31310000891D000846
:1023A000900800205441534B31320000911D000829
:1023B000940800205441534B31330000951D000810
:1023C000980800205441534B31340000991D0008F7
:1023D0009C0800205441534B313500009D1D0008DE
:1023E00010B54FF480610248FDF7F1FE10BD00000A
:1023F0001400002010B540F225510F4800F062F99A
:10240000012818D10D480088B0F5806F02D3002054
:102410000A4908800848001D00880949074A1288AF
:10242000885406480088401C0449088040F2255121
:10243000014800F01FF910BD0044004014040020C2
:102440001400002000B585B0FFF7CAFF0121480441
:10245000FFF74EFB4FF4E13001900020ADF8100083
:102460000C20ADF80E000020ADF80C00ADF80A000D
:10247000ADF8080001A90F4800F074F920210D48BB
:1024800000F0EFF8012240F225510A4800F044F92B
:1024900026208DF8000001208DF8030002208DF821
:1024A00001006846FFF7C6FA0121024800F0F1F882
:1024B00005B000BD004400401248008818B9002053
:1024C000114908701DE00F480088104909888842AA
:1024D00007D00C4800880D49088002200A4908707E
:1024E0000FE00848008809490988884209D100207E
:1024F0000749044A12888854024908800120024989
:1025000008707047140400201804002016040020EE
:102510001400002010B504462146054800F0AEF92D
:1025200000BF8021024800F0C0F80028F9D010BD9B
:102530000044004070B50446002504E0605DFFF7EC
:10254000E9FF681C85B2605D0028F7D170BD00000E
:1025500010B54FF480610248FDF739FE10BD000050
:102560001904002010B540F225510F4800F0AAF8D8
:10257000012818D10D480088B0F5806F02D30020E3
:102580000A4908800848001D00880949074A12883E
:10259000885406480088401C0449088040F22551B0
:1025A000014800F067F810BD004800401A080020FC
:1025B0001904002000B585B0FFF7CAFF0121880487
:1025C000FFF796FA4FF4E13001900020ADF81000CB
:1025D0000C20ADF80E000020ADF80C00ADF80A009C
:1025E000ADF8080001A90F4800F0BCF820210D4803
:1025F00000F037F8012240F225510A4800F08CF82B
:1026000027208DF8000001208DF8030002208DF8AE
:1026100001006846FFF70EFA0121024800F039F880
:1026200005B000BD0048004010B5044621460548ED
:1026300000F024F900BF8021024800F036F800289D
:10264000F9D010BD0048004070B50446002504E0F4
:10265000605DFFF7E9FF681C85B2605D0028F7D177
:1026600070BD01F40072B2F5007F00D100BFCA4313
:102670000280704710B50022002340F66A14A14280
:1026800000D100BF0A1201249440A3B2DC430480AD
:1026900010BD21B1828942F40052828104E0828916
:1026A0004DF6FF731A408281704702460020B1F553
:1026B000007F00D100BF13880B400BB1012000E068
:1026C0000020704770B5024600240023002500203A
:1026D00040F66A16B14200D100BFC1F3421501F0C5
:1026E0001F03012606FA03F3012D02D19689334018
:1026F00006E0022D02D1168A334001E0968A33406B
:102700000C12012606FA04F41688344013B10CB1F9
:10271000012000E0002070BDF0B503460024002633
:102720000025002040F66A17B94200D100BF1846C4
:10273000C1F3421401F01F06012707FA06F5012C28
:1027400001D10C3004E0022C01D1103000E0143033
:102750001AB107682F43076002E00768AF430760BC
:10276000F0BD00002DE9F04786B005460E46002476
:10277000A24600BFA1460027B08900B100BF2F4686
:102780002C8A4CF6FF700440F08804432C82AC89FC
:102790004EF6F3100440B08831890843718908432C
:1027A0000443AC81AC8A4FF6FF400440B089044337
:1027B000AC8201A8FFF7BCF91F48874202D1DDF8BF
:1027C00010A001E0DDF80CA0A88900F4004040B1A1
:1027D0000AEBCA0000EB0A1031684900B0FBF1F8BF
:1027E00007E00AEBCA0000EB0A1031688900B0FB71
:1027F000F1F86420B8FBF0F004012009642101FB2A
:102800001089A88900F4004040B1322000EBC900D3
:10281000B0FBF1F000F00700044308E0322000EBC9
:1028200009106421B0FBF1F000F00F0004432C818B
:1028300006B0BDE8F08700000038014010B5FFF792
:1028400001FEFFF7B7FE03A0FFF774FE06A0FFF737
:10285000FBFE10BD41200A4361722D555341525475
:102860003220496E69740A0041200A4361722D5575
:10287000534152543320496E69740A00C1F308026F
:102880008280704700BFFEE7490050EAC12018BFB0
:1028900004204A0D18BF40F0010040F2FF72B2EB75
:1028A000515F08BF40F00200012808BF05207047B3
:1028B0002DE9F0414F1E00EBC7010446D1E90001AC
:1028C00015461E4637F006020DD02A463346FDF760
:1028D000F8FD7F1E04EBC703D3E90023FDF74AFD93
:1028E00037F00602F1D1022F25D0042F13D0062F86
:1028F00018BFBDE8F0812A463346FDF7E2FDD4E972
:102900000A23FDF737FD2A463346FDF7DAFDD4E901
:102910000823FDF72FFD2A463346FDF7D2FDD4E903
:102920000623FDF727FD2A463346FDF7CAFDD4E905
:102930000423FDF71FFD2A463346FDF7C2FDD4E907
:102940000223FDF717FD2A463346FDF7BAFDD4E909
:102950000023BDE8F041FDF70DBD0122FDF78CBF5E
:10296000FDF708BD0022134610461146FDF715BFBE
:10297000024A00201107FDF77FBF000001FDFFFFA5
:1029800002E008C8121F08C1002AFAD17047704738
:10299000002001E001C1121F002AFBD17047000096
:1029A0000149086070470000340900202DE9F04D0E
:1029B0008D4F21F0004A86B005460C46BA452ADB09
:1029C000AAEB070028430AD08848824501DC1AD1C7
:1029D000CDB106B02846BDE8F04DFFF7BEBF844A32
:1029E000844B2846FDF76DFD07460E46824A834B11
:1029F00028462146FDF765FD06B03A463346BDE858
:102A0000F04DFDF7B7BC0120FFF7CAFF06B0BDE8E7
:102A1000F04DFFF7A7BF7A48824542DABAF1795FF5
:102A20000BDA2846FFF730FF042808BFFFF7A0FFA6
:102A3000284606B02146BDE8F08D2A460B461046D2
:102A4000FDF73FFD834602466E480E460B460621C3
:102A50007844FFF72DFF5A463346FDF732FD804696
:102A600069488A465A46334604217844FFF720FFD6
:102A70005A463346FDF725FD00223B46FDF77AFC1A
:102A800002460B4640465146FDF787FE2A4623463E
:102A9000FDF717FD06B02A462346BDE8F04DFDF7C9
:102AA00069BC284624F0004100223D463B46FDF724
:102AB00005FD4FF0FF32FDF7DFFE064602465348A4
:102AC0000F460B4606217844FFF7F2FE32463B469E
:102AD000FDF7F7FCCDE900014D4832463B460421A5
:102AE0007844FFF7E5FE32463B46FDF7EAFC00225C
:102AF0002B46FDF73FFC834602913046394600F0F5
:102B000077FF804643480D46504517DCDDE900015C
:102B10005A46029BFDF741FE42462B46FDF7D1FC8B
:102B200042462B46FDF726FC0122FDF7A5FE304A62
:102B3000304BFDF7C0FC304A304B4CE04FF0000A00
:102B400052460B464046FDF715FCCDE903105246B0
:102B50002B4610461946FDF7B4FC32463B46FDF7BE
:102B6000ADFCDDE90332FDF718FE06460F46DDE950
:102B700000015A46029BFDF710FE83460091012298
:102B800030463946FDF778FE194A1A4BFDF796FC98
:102B900006460F46012240462946FDF76DFE5A467D
:102BA000009BFDF78EFC32463B46FDF784FC064653
:102BB0000F46012250462946FDF75EFE0E4DDFF816
:102BC00058802A464346FDF779FC32463B46FDF7DE
:102BD00075FC2A464346FDF771FC002CD8BF81F0F6
:102BE000004106B0BDE8F08D0000F03F0000F07F2E
:102BF000075C143326A6913C182D4454FB21F93F61
:102C00000000E03FE4160000FA1600006E16000017
:102C1000841600003333EF3FFB21E93F2DE9F84FE5
:102C200004460D4621F0004000917349814211DCB9
:102C30007249884201DC06D12CB120462946BDE804
:102C4000F84FFFF78ABE6E48002DCCBF6D496E4924
:102C5000BDE8F88F6D49814211DD6D498142D8BFD1
:102C60004FF0FF366DDD20462946FFF70DFE0428A4
:102C700008BFFFF77DFE20462946BDE8F88F65496D
:102C8000654F25F00045814233DD6449814219DDFD
:102C9000002632464FF0804320462946FDF76AFB66
:102CA00080468A46012220462946FDF7E5FD00229E
:102CB0003B46FDF700FC42465346FDF76EFD0446D9
:102CC0000D463EE001260022BA463B4620462946F4
:102CD000FDF750FB80460F4600225346204629460A
:102CE000FDF7E9FB42463B46FDF757FD04460D461E
:102CF00027E04B4981421BDDDFF828A10226002294
:102D0000534620462946FDF7DCFB00223B46FDF7F3
:102D100031FB80460F460022534620462946FDF7E8
:102D2000CAFB42463B46FDF738FD04460D4608E027
:102D3000032622462B4600203B49FDF72EFD044684
:102D40000D4622462B4610461946FDF7BAFB8B4628
:102D5000824602460B46FDF7B4FB0746024633485F
:102D600088460B4606217844FFF7A2FD52465B4693
:102D7000FDF7A7FB82462E488B463A46434605217F
:102D80007844FFF795FD3A464346FDF79AFB024625
:102D90000B46002E504659460CDAFDF7EBFA224658
:102DA0002B46FDF78EFB01B022462B46BDE8F04FC7
:102DB000FDF784BBFDF7DEFA22462B46FDF781FBCB
:102DC0001C4A7A4402EBC603D3E90023FDF773FBE8
:102DD00022462B46FDF76FFB174A7A4402EBC603E7
:102DE000D3E90023FDF76AFB009A002AB8BF81F0FF
:102DF0000041BDE8F88F0000000010440000F07FA3
:102E0000182D4454FB21F93FFB21F9BF0000DC3FA2
:102E10000000203E0000F33F0000F03F0000E63FCE
:102E2000008003400000F83F0000F0BF861400005F
:102E300044140000E2130000AA1300002DE9F04D35
:102E40009446CCF1000423F000464CEA0404594FA8
:102E500046EAD4749A46884621F00042BC4206D81D
:102E6000454240EA050442EAD474BC4204D9BDE8B4
:102E7000F04D6246FFF774BDAAF14055A5F17F659C
:102E800055EA0C040BD0022404EAAA744A4DDFF878
:102E90002CE144EAD87452EA000B04D00CE0BDE8FF
:102EA000F04DFFF7BBBE002C14BF012CBDE8F08D28
:102EB000022C30D0032C32D056EA0C0B0AD0BE4282
:102EC00020D1BA4209D126F0804622F08042334612
:102ED000114617E000291ADB25E0DFF8E4B0FB44D7
:102EE000002C04BFDBE90001BDE8F08D012C02BF1E
:102EF000DBE9000181F00041BDE8F08D022C0AD031
:102F0000032C0CD0BA4212D1B8F1000F0BDA2A48C8
:102F10002C49BDE8F08D28462B49BDE8F08D2846A8
:102F20007146BDE8F08D24482849BDE8F08D921B1C
:102F300012153C2AC4BF204F244E10DCBAF1000FFA
:102F4000BEBF12F13C0F00273E4608DB6246FDF78C
:102F500024FC21F00041FFF761FE07460E4694B1C4
:102F6000012C08BF86F000460DD0194A194B022CDF
:102F70003846314615D0FDF79EFA2A46BDE8F04D99
:102F8000114BFDF798BA0022134638463146FDF73B
:102F90008BFC04BF0220FFF703FD38463146BDE835
:102FA000F08DFDF788FA2A46BDE8F04D064BFDF797
:102FB00085BA00000000F07F182D4454FB2109C0A1
:102FC0003E130000FB21F9BFFB210940FB21F93F23
:102FD000075C143326A6A13C2DE9F0410446E078B5
:102FE00000F0C006E07800F03F05607800F00100D6
:102FF00098B1EF102846E91705EB5171C910A5EB00
:10300000C101491C01F0FF080B48006820B10A48C3
:10301000414602683846904700BF607800F00800DB
:1030200030B10548406818B1B011034A516888476B
:103030000020BDE8F0810000380900202DE9F04FA4
:103040008DB00746884615469946DDE9166B002483
:10305000002030806B49887B5A4605A900F0E4F8CF
:1030600018B1601E0DB0BDE8F08F6648807A00F0A0
:103070001400002867D09DF8140000069DF8151074
:1030800040EA01409DF8161040EA01209DF8171013
:10309000084328609DF8180000069DF8191040EAC2
:1030A00001409DF81A1040EA01209DF81B100843CA
:1030B00068609DF81C0000069DF81D1040EA014064
:1030C0009DF81E1040EA01209DF81F100843A860DB
:1030D0009DF8200000069DF8211040EA01409DF86F
:1030E000221040EA01209DF823100843E86004F113
:1030F0001000C4B22868001401906868001402909F
:10310000A86800140390E8680014049001984043F4
:10311000029901FB0100039901FB0100049901FBE5
:10312000010ABAF1706F02DBBAF1885F05DD00F0C9
:10313000DBF800203080401E94E7B6F9000040F430
:103140008070308000BF2F48807A00F0400020B3AC
:1031500005A9601C085C095D40EA012000B2A8F8DE
:10316000000005A9E01C095C05AAA01C105C41EA4E
:10317000002000B2A8F8020005A9601D095C201D0E
:10318000105C41EA002000B2A8F80400A01DC4B2FF
:10319000B6F9000040F0080030801A48408900F479
:1031A000C07008B305A9601C085C095D40EA0120F5
:1031B00000B2388005A9E01C095C05AAA01C105CBF
:1031C00041EA002000B2788005A9601D095C201D3D
:1031D000105C41EA002000B2B880A01DC4B2B6F96C
:1031E000000040F0700030800648807A00F0030054
:1031F00018B105A90819FFF7EFFE4846FDF778FD5D
:1032000000202FE73809002010B5FDF7B4FFFEF7C6
:1032100070FEFFF713FBFDF7C9FCFEF726FAFEF779
:10322000D5FD002010BD0000F8B504460F46164637
:103230002C4890F8240010B94FF0FF30F8BD294811
:10324000807A10B94FF0FF30F8E7264A1268117BF8
:10325000244A526810786B460222FEF726F910B114
:103260004FF0FF30EAE79DF801009DF8001040EABA
:103270000125A54203DA00203070401EDEE7194820
:1032800040684088B5EB600F17DD164A1268D17CA4
:10329000144A526810786B460122FEF706F910B105
:1032A0004FF0FF30CAE79DF8000000F0100020B199
:1032B00000F01AF86FF00100C0E7E2B2094B1B689A
:1032C000597B084B5B6818783B46FEF7EEF810B167
:1032D0004FF0FF30B2E795FBF4F0401E3070002055
:1032E000ACE70000A808002008B57048807A10B943
:1032F0004FF0FF3008BD002000906C4A1268517CEE
:103300006A4A526810786B460122FEF777F910B1CD
:103310004FF0FF30EEE7654A12685179634A526810
:1033200010786B460122FEF769F910B14FF0FF30BB
:10333000E0E75E4A126811795C4A526810786B4681
:103340000122FEF75BF910B14FF0FF30D2E757488A
:1033500090F82400002853D00C200090534A1268A3
:103360001179524A526810786B460122FEF746F9ED
:1033700010B14FF0FF30BDE73220FDF7BFFCC02099
:1033800000904A48807A00F0010020B19DF80000CA
:1033900040F020000090454A12681179434A526873
:1033A00010786B460122FEF729F910B14FF0FF307B
:1033B000A0E73E48407C10B10220009001E00020D0
:1033C00000903A4A1268517C384A526810786B462D
:1033D0000122FEF713F910B14FF0FF308AE7002009
:1033E0000090324A12685179304A526810786B4620
:1033F0000122FEF703F9002855D04FF0FF3079E79E
:1034000004200090294A12681179284A52681078DD
:103410006B460122FEF7F2F810B14FF0FF3069E77A
:103420002248807C20B92148807A00F0010010B940
:103430004020009001E0602000901C4A1268117941
:103440001A4A526810786B460122FEF7D7F810B17D
:103450004FF0FF304EE73220FDF750FC1348407C20
:1034600010B10120009001E0002000900F4A126886
:10347000517C0E4A526810786B460122FEF7BEF866
:1034800010B14FF0FF3035E7084A12685179074A0A
:1034900052681078054B10330122FEF7AFF810B1D7
:1034A0004FF0FF3026E7002024E70000A8080020A6
:1034B0002DE9F04105460E46264807682648006873
:1034C000001D00F0BBFA50B92348006890F82C109A
:1034D0000120884021490968814320480160681C17
:1034E000D8B9D6B11E4948681B49096888601A498D
:1034F00082680968CA6018490968091D82685160B4
:1035000015490968091D8160154A134909684A610E
:1035100011460968491C11601AE07C190E480068C0
:103520004460BC4207D20C480168091D0D48006880
:1035300000F0A8FA0CE008480168091D0A48006874
:1035400000F0A0FA09480068844201D207480460EC
:10355000BDE8F081E8080020D4080020EC08002035
:10356000FC090020DC080020D80800200409002005
:1035700010B5044600F0ACFA2F480068401C2E49F4
:1035800008602E48006840B92C480460084600686E
:1035900001280DD100F01CF90AE02948006838B96B
:1035A00026480068C06AE16A884201D8234804605E
:1035B00024480068401C2349086094F82C1001201E
:1035C00088402149096808431F490860E16A01EB06
:1035D00081011E4A02EB81014868A0608268E260B6
:1035E000211D826851608160E16A01EB8101174A07
:1035F00002EB81026261E16A01EB8101134A52F838
:103600002110491CE26A02EB8202104B43F822109F
:1036100000F070FA0A48006868B108480068C06A9B
:10362000E16A884207D24FF0805009490860BFF331
:103630004F8FBFF36F8F10BDE4080020D408002027
:10364000F008002000090020EC08002048090020B4
:1036500004ED00E010B516E000F03AFA0C48C0683E
:10366000C468201D00F0EAF90A480068401E0949B4
:10367000086009480068401E0749086000F03AFAEF
:10368000204600F00BF8044800680028E4D110BD83
:10369000E8090020E4080020E008002010B50446F6
:1036A000206B00F037FA204600F034FA10BD00001D
:1036B00030B54FF45053154800F007042CB1C01D2D
:1036C00020F00700114C041B1B1B0246104C22600B
:1036D00000240F4D6C60D018083820F007000D4C06
:1036E000206000240B4D2D686C600A4D2D682C6005
:1036F0001146441A4C60074C24680C60064D4C6817
:103700002C60064D4C682C6030BD0000100A002073
:10371000140900201C090020240900202009002091
:1037200000BFFFF797FF064800680128F9D94FF05E
:10373000805004490860BFF34F8FBFF36F8FF0E7ED
:103740004809002004ED00E02DE9F05F81460E46B7
:1037500017469A46DDF828800C9CB900A522206BFC
:10376000FCF72EFD781E216B01EB800B2BF0070B75
:103770007EB1002507E0715D04F134004155705DB4
:1037800000B902E06D1C102DF5D300BF00214320CD
:103790000155B8F1050F01D34FF00408C4F82C808F
:1037A000201D00F06CF904F1180000F068F92461A4
:1037B000C8F10500A061646252464946584600F0CF
:1037C00005F920600B9808B10B980460BDE8F09FE4
:1037D00010B5002407E004EB84010F4A02EB8100DE
:1037E00000F040F9641C052CF5D30C4800F03AF9C0
:1037F0000B4800F037F90B4800F034F90A4800F0A4
:1038000031F90A4800F02EF90448094908600448D3
:103810000849086010BD000048090020AC090020DC
:10382000C0090020D4090020E8090020FC0900207C
:10383000D8080020DC08002010B50146164800E03A
:10384000006803688B42FBD30246436813448B42F3
:1038500004D143684C682344436001460A464B68E0
:1038600013440468A34211D10C4C03682468A3429A
:1038700008D04B680468646823444B6003681B6885
:103880000B6005E0054B1B680B6001E003680B60F3
:10389000884200D0016010BD140900201C090020DE
:1038A00009480068006808B9012000E0002020B144
:1038B0004FF0FF300549086005E003480068C06824
:1038C0000068024908607047D808002004090020F9
:1038D00000BF502080F31188BFF34F8FBFF36F8F6D
:1038E00000BF00BFFEE700002DE9F04705464FF09E
:1038F000000900F0FBF93048006808B9FFF7D8FE6E
:1039000075B105F00700C0F11008C8F1FF30A842FA
:1039100001D2012000E0002008B9454400E0002564
:10392000012000EBE570002841D0002D3FD0234856
:10393000006885423BD8224E3046046801E02646A6
:1039400024686068A84202D220680028F7D11A488B
:10395000006884422BD0306800F10809206830608C
:103960006068401B102807D967196068401B7860A1
:1039700065603846FFF760FF104960680968081AFB
:103980000E490860084600680E490968884203D25B
:103990000A4800680B490860606840F000406060B9
:1039A0000020206008480068401C0749086000F0BB
:1039B000EBFA4846BDE8F0871C09002020090020EA
:1039C000140900202409002028090020001F4FF0BE
:1039D00080730360001F21F001030360001F034B8D
:1039E000036014380260203870470000D1380008A6
:1039F0002DE9F04106460F46FCF790FF041E0D46E8
:103A000018BF0120284320F00040C0F17F6000F182
:103A1000E040C00F0ED0301C18BF0120384320F00A
:103A20000040C0F17F6000F1E040C00F04BF012002
:103A3000FEF7B6FF20462946BDE8F08101460A6937
:103A4000D1E901309860D1E901035860506888429B
:103A500001D188685060002008611068401E106025
:103A60001068704700F1080141604FF0FF3181603C
:103A700000F10801C160016100210160704700216F
:103A80000161704710B502460B685C1C0CB91069E7
:103A900007E002F1080000E04068446824689C42A6
:103AA000FAD944684C604C68A160886041600A6142
:103AB0001468641C146010BD42684A6093688B608F
:103AC000936859609160086103685B1C03607047EC
:103AD00000BF502080F31188BFF34F8FBFF36F8F6B
:103AE00000BF03480068401C01490860704700009F
:103AF0003009002006480068401E05490860084655
:103B0000006820B9002080F3118800BF00BF704713
:103B10003009002070B506463546E6B1083D2C4612
:103B20006068C00FB8B12068A8B9606820F0004094
:103B3000606000F0DBF808496068096808440649DD
:103B400008602046FFF778FE04480068401C0349DF
:103B5000086000F019FA70BD200900202C0900202F
:103B600000204FF0E0210861886102484861072089
:103B7000086170473F19010070B50446002544B143
:103B800000F0B4F800212046FFF792FC00F0FCF9A9
:103B900005463DB94FF0805003490860BFF34F8F91
:103BA000BFF36F8F70BD000004ED00E070B50546F7
:103BB000FFF78EFF15B92948006800E02846044643
:103BC000201DFFF73BFF78B9E06A00EB8000244935
:103BD00051F8200040B994F82C1001208840214968
:103BE000096881431F480160A06A18B104F11800F8
:103BF000FFF724FF1C480068401C1B490860174859
:103C00000068844209D1211D1848FFF755FF184864
:103C10000068401C1649086006E016480068401E0F
:103C200014490860FFF73CFEFFF764FF0B4800688B
:103C3000844202D02046FFF731FD0F48006858B19A
:103C400006480068844207D14FF080500B49086055
:103C5000BFF34F8FBFF36F8F70BD0000D4080020FB
:103C600048090020EC08002000090020E809002095
:103C7000E0080020E4080020F008002004ED00E047
:103C80001CB5124800210B468022CDE9001010A17E
:103C9000114800F07DF80446012C14D100BF5020DB
:103CA00080F31188BFF34F8FBFF36F8F00BF4FF0CA
:103CB000FF300A49086001200949086000200949CD
:103CC000086000F04BF8084800681CBD0809002097
:103CD00049444C4500000000213700080409002039
:103CE000F0080020E80800200C09002002480068C5
:103CF000401C014908607047100900201248006804
:103D000018B10120114908601DE000200F4908602A
:103D10000F480068B0FA80F0C0F11F0101EB81028A
:103D20000C4B03EB820042685268426000F10802CB
:103D30004368934202D14268526842604268D26846
:103D4000054B1A6000BF704710090020F8080020DA
:103D5000EC08002048090020D408002010B50A48CB
:103D6000006840F47000084908600846006840F0A8
:103D700070400860FFF7F4FE002004490860FCF77B
:103D8000D3F9002010BD000020ED00E03009002034
:103D90002DE9FF4F85B0804689461746DDE912AB15
:103DA000B800FFF7A1FD064676B14C20FFF79CFD59
:103DB00004462CB14C212046FCF709FA266304E0A6
:103DC0003046FFF7A7FE00E000247CB10020CDE9DB
:103DD00000ABCDE902403A4649464046089BFFF712
:103DE000B3FC2046FFF7C4FB012501E04FF0FF358F
:103DF000284609B0BDE8F08F2DE9F041002757486B
:103E0000006800287ED156480068451C544805606B
:103E10008DB95448D0F80080534800685149086073
:103E20005148C0F8008051480068401C4F49086064
:103E3000FFF736FD00BF4E480068854276D300BFCD
:103E400048480068006808B9012000E0002020B15F
:103E50004FF0FF304649086067E042480068C0689C
:103E6000C4686668B54202D2414806605DE0606998
:103E7000D4E902128A60D4E902214A60211D426815
:103E80008A4201D1E1684160002262610168491EF5
:103E90000160A06A98B1A06AD4E907128A60D4E9E7
:103EA00007214A6004F1180142688A4201D1216A5F
:103EB00041600022A2620168491E016000BF94F8BF
:103EC0002C10012088402B490968084329490860C3
:103ED000E16A01EB8101284A02EB81014868A06098
:103EE0008268E260211D826851608160E16A01EBB5
:103EF0008101214A02EB81026261E16A01EB8101E9
:103F00001D4A00E022E052F82110491CE26A02EB4F
:103F10008202194B43F822101849E06A0968C96AFD
:103F200088428DD901278BE700E000BF1348006865
:103F3000C06A00EB8000104951F82000012800D928
:103F400001270F48006800B1012704E00D48006810
:103F5000401C0C4908603846BDE8F081100900207B
:103F6000E8080020D8080020DC080020FC08002019
:103F700004090020EC08002048090020D408002093
:103F8000F8080020F408002070B500240026FFF790
:103F90009FFD4B480068401E49490860084600687C
:103FA00000287DD147480068002879D05BE046486A
:103FB000C068C468A06AD4E907128A60D4E90721FE
:103FC0004A6004F1180142688A4201D1216A4160C5
:103FD0000022A2620168491E01606069D4E90212F0
:103FE0008A60D4E902214A60211D42688A4201D1D7
:103FF000E1684160002262610168491E016094F835
:104000002C10012088403149096808432F49086075
:10401000E16A01EB81012E4A02EB81014868A06050
:104020008268E260211D826851608160E16A01EB73
:104030008101274A02EB81026261E16A01EB8101A1
:10404000234A52F82110491CE26A02EB8202204BFB
:1040500043F822101F49E06A0968C96A884202D3FE
:1040600001201D4908601848006808B9012000E0D7
:10407000002000289BD00CB1FFF712FC1748056800
:1040800065B100BFFFF7B8FE10B10120124908600A
:104090006D1E002DF6D10020104908600E4800E08A
:1040A00009E0006838B1012630070D490860BFF308
:1040B0004F8FBFF36F8FFFF71DFD304670BD0000BF
:1040C00010090020E4080020D4090020EC0800209A
:1040D00048090020D4080020F8080020F408002037
:1040E00004ED00E075191A0C6A231B1C00001F2048
:1040F0007274433B4138393A006B6C376F06246D5C
:104100006E706800000476005401F7FD00010000A5
:1041100083000000000800000001001832000500C4
:10412000000020410000D242295C0F3E9A99993E3E
:104130003333733F295C0F3E555555555555C53F93
:104140007D6FEB0312D6D4BF5544880E55C1C93FCD
:104150003B8F68B52882A4BF88B20175E0EF493F64
:1041600009F7FD0DE13D023F4B2D8A1C273A03C0A4
:10417000C88A599CE52A004059018D1B6C06E6BF90
:1041800082922EB1C5B8B33F4FBB610567ACDD3F2E
:10419000182D4454FB21E93F9BF681D20B73EF3F6E
:1041A000182D4454FB21F93FE2652F227F2B7A3CE6
:1041B000075C143326A6813CBDCBF07A8807703C9F
:1041C000075C143326A6913CC4EB98999999C9BF12
:1041D000711623FEC671BCBF6D9A74AFF2B0B3BF47
:1041E0009AFDDE522DDEADBF2F6C6A2C44B4A2BF07
:1041F0000D5555555555D53FFF8300922449C23F73
:104200006E204CC5CD45B73F513DD0A0660DB13FA6
:10421000EB0D76244B7BA93F11DA22E33AAD903FB8
:1042200000000000000000004842000800000020DC
:1042300038090000BE09000898420008380900202B
:10424000D838000090290008412D01020304040021
:104250000FFF06070809020406085553415254325D
:1042600001FF01FF01FF3107FF5553415254320155
:10427000FF01FF01FF01233364FF290402600113E2
:10428000E440140802410220080A21102401180207
:0842900023041AAA01410000F9
:04000005080000ED02
:00000001FF
