:020000040800F2
:10000000084200209D0100085B180008BB11000891
:10001000571800087D0B0008B526000800000000F6
:1000200000000000000000000000000005010008C2
:10003000810B00080000000049010008DD1A0008DB
:10004000B7010008B7010008B7010008B7010008B0
:10005000B7010008B7010008B7010008F10B00085C
:10006000B7010008B7010008B7010008B701000890
:10007000B7010008B7010008B7010008B701000880
:10008000B7010008B7010008B7010008B701000870
:10009000B7010008B7010008B7010008B701000860
:1000A000B7010008B7010008B7010008B701000850
:1000B000051C0008B7010008B7010008B7010008D7
:1000C000B7010008B7010008B7010008B701000830
:1000D000B7010008B7010008252200089523000891
:1000E000B7010008B7010008B7010008DFF810D019
:1000F00000F0A6FC0048004773410008AFF3008001
:1001000008420020224B19680868B0E8F00F80F31D
:100110000988BFF36F8F4FF0000080F311884EF015
:100120000D0E70470000000006480068006880F36C
:10013000088862B661B6BFF34F8FBFF36F8F00DFE1
:1001400000BF00BF08ED00E0EFF30980BFF36F8F41
:100150000F4B1A6820E9F00F106008B54FF05000FF
:1001600080F31188BFF34F8FBFF36F8F05F018FC3A
:100170004FF0000080F31188BDE808401968086856
:10018000B0E8F00F80F30988BFF36F8F704700BFAE
:10019000CC080020EFF30580704700000648804738
:1001A00006480047FEE7FEE7FEE7FEE7FEE7FEE75C
:1001B000FEE7FEE7FEE7FEE7111B0008ED00000882
:1001C0002DE9F0410024061B254671F1000605DAF1
:1001D00001240027D0EB070067EB0101161E73F125
:1001E000000605DA0027D2EB0702012567EB0303BF
:1001F00000F0A2FA86460E4617469C46AC4204D052
:100200000025D0EB050E65EB010624B10020D2EBF2
:10021000000760EB030C704631463A466346BDE882
:10022000F081D2B201E000F8012B491EFBD27047E9
:100230000022F6E710B513460A4604461946FFF7B2
:10024000F0FF204610BD30B504460020034600E014
:100250005B1C934203D2E05CCD5C401BF8D030BD08
:10026000F0B480EA0102D40F4200B2EB410F02D297
:100270000246084611464A0042D0C30DDDB2C1F322
:10028000C752AD1A202D35DAC1F3160141F4000230
:1002900004B15242C5F1200602FA06F12A41104487
:1002A000B3EBD05F23D0C4B1012DA0EBC35009DC68
:1002B000F0BC4FF0004202EAC352DBB200F500008E
:1002C00000F095BA400000F1807000EBC350A0F13F
:1002D000807040EAD170490009E0490841EAC071E4
:1002E000A0EBC35000F50000400800EBC350F0BC89
:1002F00000F074BA6142012202EB4101001BF6E7F3
:10030000F0BC704781F00041AAE780F00040A7E709
:1003100080EA010210B502F00043400022D04A00FA
:100320001FD0010E01EB1261C0F35600C2F356025A
:1003300040F4000042F40002A0FB022000047F39D8
:10034000140400D0401C50EA124001D44000491E61
:10035000C2B20C0604EBD010401C4008802A02D028
:1003600003E0002010BD20F00100002900DA002089
:10037000184310BD30B480EA010202F0004530F0AD
:10038000004221F0004013D090B1C30DD40DC2F350
:100390001601C0F31600E41A41F4000140F4000213
:1003A0007D34914201D3641C00E04900002C02DA44
:1003B00030BC002070474FF400000023914201D36D
:1003C000891A034340084FEA4101F7D151B19142E4
:1003D00002D14FF0004105E002D24FF0010101E0EF
:1003E0006FF0010103EBC450284430BC00F0F6B9B3
:1003F0002DE9FE4F804681EA0300C00F0C460090B5
:1004000021F0004123F00045B8EB0200A94105D2DC
:100410004046214690461C460B46024623F00040CB
:10042000104347D0270DC7F30A00C3F30A510290C7
:10043000401A019040286BDAC3F3130040F4801B8C
:100440000098924620B10023D2EB030A63EB0B0B1A
:1004500001985946C0F14002504600F09EF9064608
:100460000D4650465946019A00F0A6F910EB0800D7
:100470006141002487EA115284EAE7731A4340D0AD
:10048000009A62B3019A012A4FEA075215DC001B59
:1004900061EB02014FF0004202EA0752CDE900424F
:1004A000001C41F5801132462B4600F0DDF903B007
:1004B000BDE8F08F40462146F9E7001B61EB0201E1
:1004C000001C41F5801300185B412018A2F50017AD
:1004D00047EB030140EAD570B6196D4111E06D0894
:1004E0004FEA360645EAC0754FEA0752001B61EB3A
:1004F0000201001C41F5801149084FEA3000001943
:10050000514132462B4603B0BDE8F04F00F09DB993
:100510000098012240000023D0EB020263EBE0735D
:10052000009821464FEAE074B8EB000061EB04014B
:10053000E9E783F000435BE781F0004158E72DE9EC
:10054000FE4F81EA030404F0004421F000410094CE
:100550004FF0000B23F0004350EA01045ED052EA52
:1005600003045BD0C3F30A54C1F30A552C44A4F22C
:10057000F3340194A0FB0254C1F3130141F4801140
:10058000C3F3130343F4801301FB024400FB034E47
:10059000840A970A44EA815447EA8357A4FB076810
:1005A00002958D0A05FB07854FEA932C04FB0C543A
:1005B0002705029D4FEA065847EA1637B5EB0805AE
:1005C0006EEB070C870E920E47EA811742EA831200
:1005D000A7FB0201B6EB0B0164EB00042B0D43EA11
:1005E0000C335E1844EB1C50DA465146E7FB02011F
:1005F000C5F313044FEA0B3343EA14534FEA0432B2
:10060000019C43EA0603A4F10C040294009CCDE98A
:1006100000B400F029F903B0BDE8F08F00200146D6
:10062000F9E7C10F80EAE0700844CA079623002169
:1006300000F0DDB896230022114600F0D8B80EB5C0
:1006400040F2334102910021CDE900110A460B46E8
:1006500000F00AF903B000BD00F0004220F00040B5
:10066000C10DC0F3160040F400007F2901DA00201C
:100670007047962903DCC1F19601C84001E0963924
:100680008840002AF4D04042704720F00040C10D5D
:10069000C0F3160040F400007F2901DA0020704703
:1006A000962903DCC1F19601C8407047963988400D
:1006B000704700F0004230F000400AD0C10D01F553
:1006C0006071C0F3160042EA0151C20840071143AD
:1006D000704700200146704701F0004330B421F01C
:1006E000004150EA010206D00A0DA2F56072C1F382
:1006F0001301002A02DC30BC00207047440F44EA9A
:10070000C104C100E01830BC00EBC25000F066B874
:10071000002801DBC0F10040002901DBC1F10041EC
:1007200081427047002801DBC0F10040002901DB55
:10073000C1F10041884270472DE9F05F0546002075
:1007400092469B4688460646814640241BE0284642
:1007500041464746224600F085F953465A46C01A9C
:10076000914110D311461846224600F016F82D1A72
:1007700067EB01084F4622460120002100F00DF8EA
:1007800017EB00094E41201EA4F10104DFDC4846AE
:1007900031462A464346BDE8F09F202A04DB203A32
:1007A00000FA02F1002070479140C2F1200320FAC4
:1007B00003F3194390407047202A06DBCB17203AF9
:1007C00041FA02F043EAE07306E041FA02F3D04056
:1007D000C2F1200291400843194670470029A8BF82
:1007E0007047401C490008BF20F00100704710B45A
:1007F000B0FA80FC00FA0CF050EA010404BF10BC0F
:10080000704749B1CCF1200421FA04F411FA0CF13B
:1008100018BF012121430843A3EB0C01CB1D4FEA74
:1008200000614FEA102042BF002010BC704700EB6F
:10083000C35010440029A4BF10BC7047401C49009D
:1008400008BF20F0010010BC704710B5141E73F1F2
:10085000000408DA401C41F1000192185B411A4380
:1008600001D120F0010010BD2DE9F04D92469B46CC
:1008700011B1B1FA81F202E0B0FA80F22032904672
:10088000FFF78BFF04460F4640EA0A0041EA0B01DE
:1008900053465A46084313D0114653EA010019D073
:1008A000C8F14002504600F0DDF805460E465046BD
:1008B00059464246FFF771FF084305D0012004E086
:1008C00020463946BDE8F08D0020054346EAE07633
:1008D0002C4337430A986305E40AA0EB0800002282
:1008E000FD0A44EA47540A3002D500200146E9E7F0
:1008F000010510196941DDE9084500196941BDE8A4
:10090000F04DA2E72DE9F04D81EA030404F0004B1D
:1009100021F0004514464FF0000A23F0004150EA50
:10092000050220D054EA01021DD0C5F30A57024641
:10093000C5F31303C1F31300C1F30A5640F4801545
:1009400043F48013A7EB0608101BD64608F2FD38C7
:1009500073EB050002D308F1010801E092185B4136
:10096000B8F1000F03DA00200146BDE8F08D002049
:100970004FF48011064684460EE0171B73EB050703
:1009800005D3121B63EB050306434CEA010C49082F
:100990004FEA300092185B4150EA0107EDD152EA6C
:1009A000030012D082EA040083EA0501084305D05F
:1009B000101BAB4106D20122002306E000224FF0BB
:1009C000004302E06FF0010253101AEB06004CEBFB
:1009D000085110EB0A0041EB0B01BDE8F04DFFF7A9
:1009E00034BF70B521F0004303430CD0C1F30A5566
:1009F0000024D5EB040564EB0403D617AD1AB3410C
:100A000002DB0020014670BD201841EB025170BD91
:100A100030B5041E71F1000404DB4FF00044404285
:100A200064EB0101141E73F1000405DB1C464FF05A
:100A30000043524263EB04038B4208BF824230BD45
:100A4000064C074D06E0E06840F0010394E807001B
:100A500098471034AC42F6D3FFF74CFBC86A000845
:100A6000E86A0008202A04DB203A21FA02F000217B
:100A7000704721FA02F3D040C2F1200291400843AE
:100A8000194670472DE9F04D00231A461B1A8A417A
:100A900003DB00200146BDE8F08DC1F30A52C1F32B
:100AA000130141F480154FF0000BD10702D100185B
:100AB0006D41521E0027044640F2FF11384601EBFB
:100AC000620A3E468046024600204FF48011FFF73E
:100AD000C9FFC2197141BB1846EB0100B4EB030C0E
:100AE00075EB000C04D3E41A65EB000517460E46BF
:100AF000241908F101006D4180463428E3DDF9191D
:100B000046EB0600091BA84103D24FF0FF32134603
:100B100001E0002213461BEB070046EB0A51BDE83B
:100B2000F04DFFF792BE70B58C1810F8015B15F010
:100B3000070301D110F8013B2A1106D110F8012B4F
:100B400003E010F8016B01F8016B5B1EF9D12B0774
:100B500005D40023521E0DD401F8013BFAE710F82A
:100B6000013BCB1A921C03E013F8015B01F8015B17
:100B7000521EF9D5A142D8D3002070BD00BFFEE7B8
:100B80007047000001490968016070479C08002017
:100B9000044A1168014400BF024A12688A42FBD32A
:100BA000704700009C08002000BF00BF7047000095
:100BB00070B50B4801F084F80948B0F90000FFF760
:100BC00030FD05460749FFF7D5FB04460649FFF708
:100BD0009FFB06490860002001F07CF870BD000012
:100BE000200800200000B6440000D0402408002067
:100BF00010B5022000F018F8012807D1044A054971
:100C0000054800F03BFC022000F008F810BD000091
:100C1000300800202C080020280800200149086026
:100C20007047000014040140014600200022074BD9
:100C30001B6803EA0102054B14331B680B4013B118
:100C40000AB1012000E000207047000000040140CC
:100C5000002123498279002A3AD00A4612680368A3
:100C60009A430B461A600A1D126803689A430B1DCB
:100C70001A60027911440A6803681A430A60184A24
:100C80000832126803689A43154B08331A601A1D1C
:100C9000126803689A43124B0C331A604279102A87
:100CA0000ED11A1F126803681A430D4B08331A60DD
:100CB0001A1D126803681A43094B0C331A600DE0C1
:100CC0000749427911440A6803681A430A6005E03B
:100CD000027911440A6803689A430A607047000069
:100CE0000004014030B500228B071C0F0F2303FACC
:100CF00004F20B4B8C1053F824309343084C8D10A6
:100D000044F8253023468C1053F824308C07240FE8
:100D100000FA04F42343024C8D1044F8253030BD12
:100D20000800014008B50121042000F0E9FD14206D
:100D30008DF803004FF4C050ADF8000003208DF88B
:100D400002006946064800F00DF80122D10204486D
:100D500000F02EFA01221103014800F029FA08BD23
:100D6000000801402DE9F041024600250026002040
:100D700000230024002791F803C00CF00F0591F820
:100D800003C00CF0100CBCF1000F03D091F802C0AE
:100D90004CEA050591F800C0BCF1000F31D0146891
:100DA00000202BE04FF0010C0CFA00F3B1F800C06A
:100DB0000CEA03069E4220D183004FF00F0C0CFA80
:100DC00003F7BC4305FA03FC4CEA040491F803C0A2
:100DD000BCF1280F06D14FF0010C0CFA00FCC2F850
:100DE00014C00AE091F803C0BCF1480F05D14FF0E0
:100DF000010C0CFA00FCC2F810C0401C0828D1D32A
:100E00001460B1F800C0BCF1FF0F34DD546800205D
:100E10002EE000F1080C4FF0010808FA0CF3B1F8CD
:100E200000C00CEA03069E4221D183004FF00F0C54
:100E30000CFA03F7BC4305FA03FC4CEA040491F8EE
:100E400003C0BCF1280F05D100F1080C08FA0CF81A
:100E5000C2F8148091F803C0BCF1480F07D100F12B
:100E6000080C4FF0010808FA0CF8C2F81080401C7A
:100E70000828CED35460BDE8F08110B5FFF752FFCB
:100E800000F0A8F800F030F800F04EF910BD0000B6
:100E900010B5044622460221014800F089F910BD30
:100EA000000C014010B5044622460121014800F023
:100EB0007FF910BD000C014010B5044622464FF4E6
:100EC0008041024800F074F910BD0000000C0140A0
:100ED00010B5044622464FF40041024800F068F97C
:100EE00010BD0000000C014008B50121042000F0F5
:100EF00007FD0121082000F003FD0121084600F054
:100F0000FFFC01212A4800F097F84020ADF80000CE
:100F100018208DF8030003208DF80200694625484B
:100F2000FFF720FF8020ADF8000018208DF80300A7
:100F300003208DF8020069461E48FFF713FF4FF4A7
:100F40000050ADF8000010208DF8030003208DF84C
:100F5000020069461848FFF705FF0320ADF80000BE
:100F600010208DF8030003208DF802006946124816
:100F7000FFF7F8FE4FF44040ADF8000010208DF868
:100F8000030003208DF8020069460B48FFF7EAFED4
:100F9000012000F013F80020FFF77AFF0020FFF790
:100FA00081FF0020FFF788FF0020FFF791FF08BDB9
:100FB0000002300000080140000C014010B504465A
:100FC00022464FF40051024800F0F2F810BD000034
:100FD000000C01401FB50121042000F091FC4820C5
:100FE0008DF803000220ADF8000003208DF8020008
:100FF00069461048FFF7B6FE01210020FFF772FE98
:101000000220029001208DF80E0000208DF80C00C7
:101010000C208DF80D0002A8FFF71AFE07208DF8AE
:10102000040001208DF807008DF8050001A800F0EC
:1010300015FC1FBD00080140F0B50A46002300243E
:101040000021002500F00046B6F1004F02D11D4EF0
:10105000F16901E01B4E7168C0F3034583B200F4EF
:101060004016B6F5401F08D121F07061154E766824
:1010700026F07066134F7E6012E000F48016B6F51D
:10108000801F06D1032606FA05F4A14341F07061E2
:1010900006E0460D360103FA06F6B14341F07061F1
:1010A00022B1460D360103FA06F6314300F0004640
:1010B000B6F1004F02D1034EF16101E0014E7160C3
:1010C000F0BD0000000001400246002093680B4084
:1010D0000BB1012000E000207047000010B504466D
:1010E00022464FF40061034800F062F80120FFF748
:1010F0005BFD10BD0008014010B5044622464FF4C8
:101100008051034800F054F80120FFF74DFD10BD59
:101110000008014010B54FF480510248FFF7D4FF9A
:1011200010BD00000008014008B50121042000F0B6
:10113000E7FB0121082000F0E3FB18208DF80300F5
:101140000420ADF8000003208DF80200694616481F
:10115000FFF708FE48208DF803000820ADF80000D6
:1011600003208DF8020069460F48FFF7FBFD1820A9
:101170008DF803004FF48060ADF8000003208DF877
:10118000020069460948FFF7EDFD48208DF803008D
:101190004FF40060ADF8000003208DF802006946AE
:1011A0000248FFF7DFFD08BD00080140000C0140C8
:1011B0000AB1016100E04161704700BFFEE72DE91F
:1011C000F04104460E4617461D4600F088F80021FF
:1011D00041EA4401C8B200F06DF800F031F8304641
:1011E00000F068F800F02CF80A20FFF7DDFC00F0B2
:1011F00076F8012101EB4401C8B200F05BF800F081
:101200001FF84FF000080AE028466D1C00F027F890
:10121000002000F043F808F1010000F0FF08781EFC
:101220004045F1DC284600F01AF8012000F036F8BD
:101230001E20FFF7B9FC00F060F80020BDE8F08147
:1012400010B50120FFF758FF0120FFF747FFFFF718
:1012500061FF04460020FFF741FF204610BD70B536
:101260000446002020700120FFF746FF002512E011
:101270000120FFF733FF20784006000E2070FFF7B3
:1012800049FF18B1207840F0010020700020FFF7DE
:1012900025FF681CC5B2082DEADB70BD10B50446F9
:1012A0002046FFF729FF0120FFF718FF0020FFF776
:1012B00015FF10BD70B5044600250DE004F0800058
:1012C000FFF71AFF0120FFF709FF0020FFF706FFD5
:1012D0006006040E681CC5B2082DEFDB70BD10B5AA
:1012E0000120FFF709FF0120FFF7F8FE0020FFF7BC
:1012F00003FF0020FFF7F2FE10BD10B50020FFF73E
:10130000FBFE0120FFF7EAFE0120FFF7F5FE10BD0E
:101310002DE9F04105460E4617461C46FFF7DFFF54
:10132000002141EA4501C8B2FFF7C4FFFFF788FF7B
:101330003046FFF7BFFFFFF783FF4FF0000809E0DB
:101340002078FFF7B7FFFFF77BFF641C08F101006F
:1013500000F0FF08781E4045F2DC2078FFF7AAFF76
:10136000FFF76EFF1E20FFF71FFCFFF7C6FF0020F0
:10137000BDE8F08110B50120FFF720FE10BD10B5CB
:10138000FFF7F8FF0021084600F021F810BD10B566
:101390000120FFF77DFD0020FFF784FD10BD10B593
:1013A0000020FFF775FD0120FFF77CFD10BD10B593
:1013B0000446204600F0BCFC10BD10B50A464B4266
:1013C000904200DD1046984200DA184610BD70B514
:1013D00005460C46002D0BDBFFF7E1FF4FF4E15112
:1013E0002846FFF7EAFF0546A8B2FFF7E0FF0FE047
:1013F000FFF7CDFF4FF4E1512846FFF7DEFF05462A
:101400002E1E01DB314600E0714288B2FFF7CFFFAC
:10141000002C0BDB00F023F84FF4E1512046FFF7DE
:10142000CCFF0446A0B200F022F80FE000F00FF865
:101430004FF4E1512046FFF7C0FF0446261E01DBB2
:10144000314600E0714288B200F011F870BD10B56D
:101450000020FFF731FD0120FFF73AFD10BD10B568
:101460000120FFF729FD0020FFF732FD10BD10B568
:101470000446204600F066FC10BD00002DE9F04F48
:1014800091B00446894692460AA80BA90CAB0DAA56
:10149000CDE900108A498B4801F0BEFE20B14FF023
:1014A000FF3011B0BDE8F08FBDF82C0000F4807063
:1014B00000287DD00D98FFF7B4F805464FF09D4108
:1014C000FEF758FF804908600E98FFF7AAF8054616
:1014D0004FF09D41FEF74EFF7C4908600F98FFF7E3
:1014E000A0F805464FF09D41FEF744FF784908609B
:1014F0001098FFF796F805464FF09D41FEF73AFF2A
:1015000074490860704801684FF08040FEF700FFA2
:1015100005906F4801680598FEF7FAFE83466B4810
:1015200001684FF04040FEF7F3FE059069480168FE
:101530000598FEF7EDFE59460690FEF791FE0790DE
:10154000FFF7B7F8CDE9080101F09CF907464FF025
:101550006632614BFEF7F3FF0546FFF7BDF82060EA
:101560005B4801684FF08040FEF7D2FE0290584879
:1015700001680298FEF7CCFE8346544801684FF09C
:101580004040FEF7C5FE0290504801680298FEF701
:10159000BFFE59460390FEF7B5FE80464FF07E51E0
:1015A000FEF75EFE0746FFF784F8CDE9060100E08E
:1015B00084E0454801684FF08040FEF7A9FE0390A3
:1015C000424801680398FEF7A3FE80464048016840
:1015D0004FF08040FEF79CFE03903E480168039860
:1015E000FEF796FE83464146FEF73AFE0746FFF7B2
:1015F00060F8CDE90401DDE9062301F08BFB4FF033
:101600006632354BCDE90801FEF799FF0546FFF735
:1016100063F8C9F800002F4801680068FEF778FEFB
:1016200004902B4801680068FEF772FE029027487C
:1016300001680068FEF76CFE0190234801680068AD
:10164000FEF766FE00900199FEF70AFE83460299B6
:10165000FEF758FE03900499FEF754FE0590FFF73D
:1016600028F805460E461B48016817480068FEF733
:101670004FFE04901648016814480068FEF748FEC3
:1016800003900499FEF7ECFD4FF080410590FEF7C2
:101690003FFE8346FFF70DF82A463346CDE90601A3
:1016A00001F038FB4FF066320B4BCDE90801FEF735
:1016B00046FF0746FFF710F8CAF800000020F0E6E2
:1016C0005608002050080020400800204408002050
:1016D000480800204C08002066A64C4038B56846F3
:1016E00002F068FE044614B14FF0FF3038BD782098
:1016F00003F0F4FB044614B16FF00100F6E7782024
:1017000002F046FD044614B16FF00200EEE76420DB
:1017100003F096FB044614B16FF00300E6E701F016
:101720006FFD044614B16FF00400DFE7164802F0C5
:10173000E5FC054601F0C0FF044614B16FF005005A
:10174000D4E740F2731001F003FC044614B16FF0CB
:101750000600CBE7642001F0DFFE044614B16FF011
:101760000700C3E703F002FF044614B16FF008005E
:10177000BCE7012003F060FA044614B16FF00900E1
:10178000B4E70020B2E700003708002010B50121BF
:101790006B2000F057F800216C2000F053F809216D
:1017A000192000F04FF806211A2000F04BF81821FC
:1017B0001B2000F047F818211C2000F043F807E038
:1017C000FFF78CFF054908704FF49670FFF7E0F9BA
:1017D000024800780028F3D110BD00003608002030
:1017E0002DE9FC5F13491448CDE900101348008827
:1017F000FEF725FF8046DDE90023FEF7A0FE044644
:101800000D460F480068FEF754FF064622462B4659
:10181000FEF78FFE8246FEF75FFF0949086042F23D
:10182000107003F0FBFF054800880A300349088068
:10183000BDE8FC9FDC3DFCD9E8CC703F34080020BB
:101840003008002013B5044601AB01222146682070
:10185000FFF75EFD1CBD00BFFEE7704770B50021BD
:1018600000230F22C47804B3154C246804F4E06408
:10187000C4F5E064210AC1F10403CA40447804FAC3
:1018800003F184781440214309010E4C0678A155D8
:10189000047804F01F050124AC4005786D11AD00FB
:1018A00005F1E025C5F8004109E0047804F01F05C2
:1018B0000124AC40044D0678761145F8264070BDF1
:1018C0000CED00E000E400E080E100E002490143AB
:1018D000024A1160704700000000FA050CED00E0BC
:1018E00029B1064AD2690243044BDA6104E0034A93
:1018F000D2698243014BDA61704700000010024058
:1019000029B1064A92690243044B9A6104E0034AF2
:1019100092698243014B9A617047000000100240B7
:1019200030B500210022002400232D4D6D6805F004
:101930000C0121B1042905D0082923D105E0294D46
:10194000056022E0274D05601FE0254D6D6805F418
:101950007012234D6D6805F48034022505EB924228
:101960001CB9214D554305600BE01D4D6D6805F414
:1019700000351DB11C4D5543056002E0194D55431E
:10198000056002E0174D056000BF00BF144D6D6893
:1019900005F0F0010909154D6B5C0568DD404560F7
:1019A0000F4D6D6805F4E061090A104D6B5C4568E8
:1019B000DD4085600A4D6D6805F46051C90A0B4D24
:1019C0006B5C4568DD40C560054D6D6805F44041C0
:1019D000890B074D6B5CC568B5FBF3F5056130BD40
:1019E0000010024000127A0000093D0000000020B3
:1019F0001000002010B500F001F810BD0CB500205B
:101A0000019000903348006840F48030314908600C
:101A100000BF3048006800F4003000900198401C7E
:101A20000190009818B90198B0F5A06FF1D129483C
:101A3000006800F4003010B10120009001E00020A7
:101A400000900098012843D12348006840F010001E
:101A5000214908600846006820F003000860084635
:101A6000006840F0020008601A4840681949486060
:101A70000846406848600846406840F48060486016
:101A80000846406820F47C1048600846406840F4EE
:101A9000E81048600846006840F08070086000BFA9
:101AA0000C48006800F000700028F9D00948406830
:101AB00020F00300074948600846406840F00200F3
:101AC000486000BF0348406800F00C000828F9D1C6
:101AD0000CBD0000001002400020024010B500BF05
:101AE000502080F31188BFF34F8FBFF36F8F00BF7B
:101AF00003F0D4FF18B14FF080500449086000BFD4
:101B0000002080F3118800BF10BD000004ED00E04C
:101B100010B51348006840F00100114908600846FC
:101B20004068104908400E494860084600680E4960
:101B300008400B4908600846006820F480200860CF
:101B40000846406820F4FE0048604FF41F0088609B
:101B5000FFF750FF4FF000600449086010BD00001F
:101B6000001002400000FFF8FFFFF6FE08ED00E065
:101B700003E04FF4FA7003F051FEFAE704E0FFF7D8
:101B800017F8642003F04AFEF9E701E0FFF728FEAA
:101B9000FCE700BFFEE700BFFEE700BFFEE700BFB7
:101BA000FEE704E000F0A0FB642003F037FEF9E755
:101BB00000BFFEE700BFFEE700BFFEE700BFFEE795
:101BC00000BFFEE700BFFEE700BFFEE71CB54FF415
:101BD0004070FFF77BFE0648012100238022CDE9FB
:101BE000001004A1064803F025FF03F09BFE1CBD76
:101BF000980800205461736B5F5374617274000025
:101C0000E11F000810B50121880700F070F80128D5
:101C100004D105480068401C034908600121880779
:101C200000F007F810BD00009C080020CA430282A3
:101C30007047CA430282704721B1028842F0010214
:101C4000028004E002884FF6FE731A40028070475B
:101C50001FB501210846FFF743FE0020ADF80A003A
:101C6000ADF8060040F2E730ADF808004720ADF8C7
:101C7000040000208DF80C0001A94FF0804000F016
:101C80005DF901218807FFF7D1FF01221146900776
:101C900000F03EF81C208DF8000001208DF80300B4
:101CA00002208DF801006846FFF7D8FD00214FF0B3
:101CB000804000F041F901218807FFF7BDFF1FBDFB
:101CC00010B50446024800F00FF800B2208010BDA5
:101CD000002C014010B50446A1B2024800F02CF9D6
:101CE00010BD0000002C01400146888C704730B5C3
:101CF0000246002000230024158A05EA0103958985
:101D000005EA010413B10CB1012000E0002030BD50
:101D10001AB183890B43838102E083898B438381DA
:101D2000704710B5FFF794FF00F016F810BD0000E3
:101D300010B504462146024800F0FAF810BD000034
:101D40000004004010B504462146024800F0F2F8B5
:101D500010BD00000004004000B587B00121022042
:101D6000FFF7BEFD684600F0D9F80020ADF8160078
:101D7000ADF812004FF4E150ADF814004720ADF873
:101D8000100000208DF8180004A9144800F0D6F8BF
:101D90006020ADF800000020ADF808000120ADF88B
:101DA00002000020ADF8060069460C4800F018F863
:101DB0006020ADF800000020ADF808000120ADF86B
:101DC00002000020ADF806006946044800F054F80F
:101DD00001210248FFF730FF07B000BD00040040BA
:101DE00070B5002400220023058C4FF6FE763540A6
:101DF0000584028C8388048B4FF68F752C40B51EAA
:101E00002C400D882C43751E2A400D892A434D888D
:101E10002A43144DA8420BD0134DA84208D0134DAD
:101E2000A84205D0124DA84202D0124DA84213D1AB
:101E30004FF6F7752A404D892A434FF6FB752A4025
:101E40008D882A434FF6FF652B404FF6FF552B40F8
:101E50008D892B43CD892B4383800483CD88858650
:101E6000028470BD002C014000340140004001405C
:101E7000004401400048014070B5002400220023C6
:101E8000058C4FF6EF7635400584028C8388048BF1
:101E900048F6FF752C404FF6FF452C400D884FF655
:101EA000FF7606EA05252C434FF6DF752A400D899B
:101EB00006EA05152A434D8806EA05152A43154DFD
:101EC000A84202D0144DA8421DD14FF67F752A407A
:101ED0004D894FF6FF7606EA05152A434FF6BF7582
:101EE0002A408D8806EA05152A434FF6FF352B4018
:101EF0004FF2FF752B408D8906EA85052B43CD896E
:101F000006EA85052B4383800483CD8805870284F8
:101F100070BD0000002C0140003401400021018010
:101F200041808180C180018141818181C18170476F
:101F3000818670470187704781847047002202883C
:101F40001D4B98420ED01D4B98420BD0B0F1804FE4
:101F500008D01B4B984205D01A4B984202D01A4B1E
:101F6000984204D14FF68F731A404B881A43174B8F
:101F7000984207D0164B984204D04FF6FF431A40C0
:101F8000CB881A4302808B8883850B8803850A4B94
:101F900098420BD0094B984208D00E4B984205D07E
:101FA0000D4B984202D00D4B984201D10B7A03861B
:101FB0000123838270470000002C0140003401405F
:101FC0000004004000080040000C004000100040E9
:101FD000001400400040014000440140004801401E
:101FE0001CB5044603F0C6FB4D48012100238022A6
:101FF000CDE900104BA14D4803F01CFD4C480121D8
:1020000000238022CDE900104AA14C4803F012FDC4
:102010004B48012100238022CDE9001049A14B4803
:1020200003F008FD4A48012100238022CDE9001079
:1020300048A14A4803F0FEFC4948012100238022C0
:10204000CDE9001047A1494803F0F4FC48480121BC
:1020500000238022CDE9001046A1484803F0EAFCA5
:102060004748012100238022CDE9001045A14748BF
:1020700003F0E0FC4648012100238022CDE9001056
:1020800044A1464803F0D6FC4548012100238022A4
:10209000CDE9001043A1454803F0CCFC44480121A0
:1020A00000238022CDE9001042A1444803F0C2FC85
:1020B0004348012100238022CDE9001041A143487B
:1020C00003F0B8FC4248012100238022CDE9001032
:1020D00040A1424803F0AEFC414801210023802288
:1020E000CDE900103FA1414803F0A4FC4048012184
:1020F00000238022CDE900103EA1404803F09AFC65
:102100003F48012100238022CDE900103DA13F4836
:1021100003F090FC002003F09BFB03F03DFB1CBD93
:102120005C0800205441534B31000000711B000833
:10213000600800205441534B32000000A31B0008EC
:10214000640800205441534B33000000B11B0008C9
:10215000680800205441534B34000000B51B0008B0
:102160006C0800205441534B35000000B91B000897
:10217000700800205441534B36000000BD1B00087E
:10218000740800205441534B37000000C11B000865
:10219000780800205441534B38000000C51B00084C
:1021A0007C0800205441534B39000000C91B000833
:1021B000800800205441534B313000007D1B000843
:1021C000840800205441534B313100008B1B000820
:1021D000880800205441534B31320000931B000803
:1021E0008C0800205441534B31330000971B0008EA
:1021F000900800205441534B313400009B1B0008D1
:10220000940800205441534B313500009F1B0008B7
:1022100010B54FF480610248FEF70AF810BD0000C7
:102220001400002010B540F225510F4800F062F96B
:10223000012818D10D480088B0F5806F02D3002026
:102240000A4908800848001D00880949074A128881
:10225000885406480088401C0449088040F22551F3
:10226000014800F01FF910BD004400401404002094
:102270001400002000B585B0FFF7CAFF0121480413
:10228000FFF72EFB4FF4E13001900020ADF8100075
:102290000C20ADF80E000020ADF80C00ADF80A00DF
:1022A000ADF8080001A90F4800F074F920210D488D
:1022B00000F0EFF8012240F225510A4800F044F9FD
:1022C00026208DF8000001208DF8030002208DF8F3
:1022D00001006846FFF7C2FA0121024800F0F1F858
:1022E00005B000BD004400401248008818B9002025
:1022F000114908701DE00F4800881049098888427C
:1023000007D00C4800880D49088002200A4908704F
:102310000FE00848008809490988884209D100204F
:102320000749044A1288885402490880012002495A
:1023300008707047140400201804002016040020C0
:102340001400002010B504462146054800F0AEF9FF
:1023500000BF8021024800F0C0F80028F9D010BD6D
:102360000044004070B50446002504E0605DFFF7BE
:10237000E9FF681C85B2605D0028F7D170BD0000E0
:1023800010B54FF480610248FDF752FF10BD000008
:102390001904002010B540F225510F4800F0AAF8AA
:1023A000012818D10D480088B0F5806F02D30020B5
:1023B0000A4908800848001D00880949074A128810
:1023C000885406480088401C0449088040F2255182
:1023D000014800F067F810BD004800401A080020CE
:1023E0001904002000B585B0FFF7CAFF0121880459
:1023F000FFF776FA4FF4E13001900020ADF81000BD
:102400000C20ADF80E000020ADF80C00ADF80A006D
:10241000ADF8080001A90F4800F0BCF820210D48D4
:1024200000F037F8012240F225510A4800F08CF8FC
:1024300027208DF8000001208DF8030002208DF880
:1024400001006846FFF70AFA0121024800F039F856
:1024500005B000BD0048004010B5044621460548BF
:1024600000F024F900BF8021024800F036F800286F
:10247000F9D010BD0048004070B50446002504E0C6
:10248000605DFFF7E9FF681C85B2605D0028F7D149
:1024900070BD01F40072B2F5007F00D100BFCA43E5
:1024A0000280704710B50022002340F66A14A14252
:1024B00000D100BF0A1201249440A3B2DC4304807F
:1024C00010BD21B1828942F40052828104E08289E8
:1024D0004DF6FF731A408281704702460020B1F525
:1024E000007F00D100BF13880B400BB1012000E03A
:1024F0000020704770B5024600240023002500200C
:1025000040F66A16B14200D100BFC1F3421501F096
:102510001F03012606FA03F3012D02D196893340E9
:1025200006E0022D02D1168A334001E0968A33403C
:102530000C12012606FA04F41688344013B10CB1CB
:10254000012000E0002070BDF0B503460024002605
:102550000025002040F66A17B94200D100BF184696
:10256000C1F3421401F01F06012707FA06F5012CFA
:1025700001D10C3004E0022C01D1103000E0143005
:102580001AB107682F43076002E00768AF4307608E
:10259000F0BD00002DE9F04786B005460E46002448
:1025A000A24600BFA1460027B08900B100BF2F4658
:1025B0002C8A4CF6FF700440F08804432C82AC89CE
:1025C0004EF6F3100440B0883189084371890843FE
:1025D0000443AC81AC8A4FF6FF400440B089044309
:1025E000AC8201A8FFF79CF91F48874202D1DDF8B1
:1025F00010A001E0DDF80CA0A88900F4004040B173
:102600000AEBCA0000EB0A1031684900B0FBF1F890
:1026100007E00AEBCA0000EB0A1031688900B0FB42
:10262000F1F86420B8FBF0F004012009642101FBFB
:102630001089A88900F4004040B1322000EBC900A5
:10264000B0FBF1F000F00700044308E0322000EB9B
:1026500009106421B0FBF1F000F00F0004432C815D
:1026600006B0BDE8F08700000038014010B5FFF764
:1026700001FEFFF7B7FE03A0FFF774FE06A0FFF709
:10268000FBFE10BD41200A4361722D555341525447
:102690003220496E69740A0041200A4361722D5547
:1026A000534152543320496E69740A00C1F3080241
:1026B0008280704700BFFEE7490050EAC12018BF82
:1026C00004204A0D18BF40F0010040F2FF72B2EB47
:1026D000515F08BF40F00200012808BF0520704785
:1026E0002DE9F0414F1E00EBC7010446D1E900017E
:1026F00015461E4637F006020DD02A463346FDF732
:102700001EFF7F1E04EBC703D3E90023FDF770FE15
:1027100037F00602F1D1022F25D0042F13D0062F57
:1027200018BFBDE8F0812A463346FDF708FFD4E91B
:102730000A23FDF75DFE2A463346FDF700FFD4E984
:102740000823FDF755FE2A463346FDF7F8FED4E987
:102750000623FDF74DFE2A463346FDF7F0FED4E989
:102760000423FDF745FE2A463346FDF7E8FED4E98B
:102770000223FDF73DFE2A463346FDF7E0FED4E98D
:102780000023BDE8F041FDF733BE0122FEF729B971
:10279000FDF72EBE0022134610461146FEF7B2B8D2
:1027A000024A00201107FEF71CB9000001FDFFFFDF
:1027B00002E008C8121F08C1002AFAD1704770470A
:1027C000002001E001C1121F002AFBD17047000068
:1027D00001490860704700002C0900202DE9FE4FD8
:1027E00006460F460025684601F070F9002442E0D5
:1027F00056F8240057F82410A0EB010ABAF1000F94
:1028000001DB514601E0CAF100010846FDF709FF6E
:1028100083464FF08F41FDF7ADFD80465DF8240003
:102820000021FDF775FF16D05DF824104046FDF736
:10283000A1FD82464FF07E51FDF764FD814629F0EF
:10284000004A0F48416A5046FDF76CFF12D2012042
:10285000A04005430EE00A48C1694046FDF758FF15
:1028600005D30748016A4046FDF75CFF02D201200C
:10287000A0400543641C032CBADB2846BDE8FE8F4C
:10288000B45D00082DE9F04D8D4F21F0004A86B06F
:1028900005460C46BA452ADBAAEB070028430AD0B6
:1028A0008848824501DC1AD1CDB106B02846BDE882
:1028B000F04DFFF76ABF844A844B2846FDF73FFE80
:1028C00007460E46824A834B28462146FDF737FECF
:1028D00006B03A463346BDE8F04DFDF789BD01200C
:1028E000FFF776FF06B0BDE8F04DFFF753BF7A481B
:1028F000824542DABAF1795F0BDA2846FFF7DCFE4F
:10290000042808BFFFF74CFF284606B02146BDE863
:10291000F08D2A460B461046FDF711FE834602460F
:102920006E480E460B4606217844FFF7D9FE5A46FC
:102930003346FDF704FE804669488A465A463346C8
:1029400004217844FFF7CCFE5A463346FDF7F7FDE5
:1029500000223B46FDF74CFD02460B4640465146E1
:10296000FDF7D0FF2A462346FDF7E9FD06B02A46CB
:102970002346BDE8F04DFDF73BBD284624F000415D
:1029800000223D463B46FDF7D7FD4FF0FF32FEF7F4
:1029900028F80646024653480F460B46062178445F
:1029A000FFF79EFE32463B46FDF7C9FDCDE900012B
:1029B0004D4832463B4604217844FFF791FE3246AB
:1029C0003B46FDF7BCFD00222B46FDF711FD83467B
:1029D00002913046394602F05DFE804643480D467E
:1029E000504517DCDDE900015A46029BFDF78AFFDE
:1029F00042462B46FDF7A3FD42462B46FDF7F8FC69
:102A00000122FDF7EEFF304A304BFDF792FD304AD0
:102A1000304B4CE04FF0000A52460B464046FDF763
:102A2000E7FCCDE9031052462B4610461946FDF748
:102A300086FD32463B46FDF77FFDDDE90332FDF7BB
:102A400061FF06460F46DDE900015A46029BFDF78D
:102A500059FF83460091012230463946FDF7C1FFF8
:102A6000194A1A4BFDF768FD06460F4601224046FB
:102A70002946FDF7B6FF5A46009BFDF760FD32463A
:102A80003B46FDF756FD06460F46012250462946B5
:102A9000FDF7A7FF0E4DDFF858802A464346FDF7A5
:102AA0004BFD32463B46FDF747FD2A464346FDF7C0
:102AB00043FD002CD8BF81F0004106B0BDE8F08D89
:102AC0000000F03F0000F07F075C143326A6913C25
:102AD000182D4454FB21F93F0000E03FAC400000BA
:102AE000C2400000364000004C4000003333EF3F4E
:102AF000FB21E93F2DE9F84F04460D4621F0004047
:102B000000917349814211DC7249884201DC06D18F
:102B10002CB120462946BDE8F84FFFF736BE6E4877
:102B2000002DCCBF6D496E49BDE8F88F6D498142DB
:102B300011DD6D498142D8BF4FF0FF366DDD204673
:102B40002946FFF7B9FD042808BFFFF729FE2046F4
:102B50002946BDE8F88F6549654F25F0004581425B
:102B600033DD6449814219DD002632464FF080434F
:102B700020462946FDF73CFC80468A460122204635
:102B80002946FDF72EFF00223B46FDF7D2FC4246C8
:102B90005346FDF7B7FE04460D463EE001260022EF
:102BA000BA463B4620462946FDF722FC80460F46A2
:102BB0000022534620462946FDF7BBFC42463B46D1
:102BC000FDF7A0FE04460D4627E04B4981421BDD80
:102BD000DFF828A102260022534620462946FDF7A9
:102BE000AEFC00223B46FDF703FC80460F46002268
:102BF000534620462946FDF79CFC42463B46FDF7DE
:102C000081FE04460D4608E0032622462B4600209E
:102C10003B49FDF777FE04460D4622462B461046FB
:102C20001946FDF78CFC8B46824602460B46FDF7A3
:102C300086FC07460246334888460B460621784400
:102C4000FFF74EFD52465B46FDF779FC82462E4863
:102C50008B463A46434605217844FFF741FD3A4604
:102C60004346FDF76CFC02460B46002E5046594683
:102C70000CDAFDF7BDFB22462B46FDF760FC01B0E8
:102C800022462B46BDE8F04FFDF756BCFDF7B0FBE2
:102C900022462B46FDF753FC1C4A7A4402EBC6033E
:102CA000D3E90023FDF745FC22462B46FDF741FC06
:102CB000174A7A4402EBC603D3E90023FDF73CFC34
:102CC000009A002AB8BF81F00041BDE8F88F0000EB
:102CD000000010440000F07F182D4454FB21F93F00
:102CE000FB21F9BF0000DC3F0000203E0000F33F65
:102CF0000000F03F0000E63F008003400000F83F86
:102D00000000F0BF4E3E00000C3E0000AA3D000057
:102D1000723D00002DE9F04D9446CCF1000423F003
:102D200000464CEA0404594F46EAD4749A46884651
:102D300021F00042BC4206D8454240EA050442EA7E
:102D4000D474BC4204D9BDE8F04D6246FFF720BD03
:102D5000AAF14055A5F17F6555EA0C040BD0022479
:102D600004EAAA744A4DDFF82CE144EAD87452EA26
:102D7000000B04D00CE0BDE8F04DFFF7BBBE002C0B
:102D800014BF012CBDE8F08D022C30D0032C32D0C2
:102D900056EA0C0B0AD0BE4220D1BA4209D126F025
:102DA000804622F080423346114617E000291ADBA4
:102DB00025E0DFF8E4B0FB44002C04BFDBE90001B0
:102DC000BDE8F08D012C02BFDBE9000181F000417C
:102DD000BDE8F08D022C0AD0032C0CD0BA4212D1DF
:102DE000B8F1000F0BDA2A482C49BDE8F08D2846CF
:102DF0002B49BDE8F08D28467146BDE8F08D24488A
:102E00002849BDE8F08D921B12153C2AC4BF204F03
:102E1000244E10DCBAF1000FBEBF12F13C0F0027A8
:102E20003E4608DB6246FDF76DFD21F00041FFF7ED
:102E300061FE07460E4694B1012C08BF86F000469D
:102E40000DD0194A194B022C3846314615D0FDF7E2
:102E500070FB2A46BDE8F04D114BFDF76ABB00221E
:102E6000134638463146FDF7D3FD04BF0220FFF775
:102E7000AFFC38463146BDE8F08DFDF75AFB2A46D7
:102E8000BDE8F04D064BFDF757BB00000000F07F9A
:102E9000182D4454FB2109C0063D0000FB21F9BF59
:102EA000FB210940FB21F93F075C143326A6A13C16
:102EB0002DE9F0410446E07800F0C006E07800F02B
:102EC0003F05607800F0010098B1EF102846E9173F
:102ED00005EB5171C910A5EBC101491C01F0FF08B8
:102EE0000B48006820B10A484146026838469047BE
:102EF00000BF607800F0080030B10548406818B1A4
:102F0000B011034A516888470020BDE8F0810000F5
:102F10003009002038B5044664B120208DF8000047
:102F200028208DF8010030208DF8020038208DF81F
:102F3000030004E0A32204216846FDF772F96A4603
:102F4000042140F69E2002F031F801F019FC38BD52
:102F50003EB5044602208DF80000CA208DF801001D
:102F6000E3208DF8020009208DF803006A46042151
:102F7000682002F01BF8A3208DF8000004F0400048
:102F800048B1C0208DF80100C8208DF80200C22091
:102F90008DF8030006E0A3208DF801008DF80200F3
:102FA0008DF8030004F4C07048B1C4208DF804000B
:102FB000CC208DF80500C6208DF8060006E0A32081
:102FC0008DF804008DF805008DF80600A3208DF81B
:102FD00007008DF808008DF809006A460A2140F6BE
:102FE000A72001F0E3FF04F0030018B120208DF8C2
:102FF000000002E0D8208DF800006A46012140F66A
:10300000B62001F0D3FF04F0200018B1012000F039
:10301000ADF802E0002000F0A9F804F4C07008B395
:1030200004F4807060B1B2208DF800008B208DF820
:103030000100B6208DF802009B208DF803000BE004
:10304000B0208DF8000080208DF80100B4208DF8AC
:10305000020090208DF803006A46042140F6A22069
:1030600001F0A4FF04F0010020B3F8208DF8000067
:103070006A4601214FF40B6001F098FFFA21072006
:1030800000F02EFC072000F0F5FB012000F015FCFD
:10309000642000F0F5FC4FF4FA7000F004FDC82144
:1030A000304800F0A5FB282000F0BEFB0A2000F00D
:1030B000CEFB08E0D8208DF800006A4601214FF4CD
:1030C0000B6001F073FF04F0020018B1D9208DF8F5
:1030D000000002E0D8208DF800006A46012140F28D
:1030E0003D7001F063FF04F0040018B1012000F00E
:1030F00069F802E0002000F065F804F0100018B153
:103100000120FFF707FF02E00020FFF703FF44F074
:1031100008001549488101F033FB002012498873EB
:1031200004F0400018B10846807B801D887304F4C9
:10313000C07020B10C48807B801D0B49887304F05F
:10314000140020B10848807B10300749887304F0D0
:10315000030020B10448807B001D034988730020D0
:103160003EBD000009E3CA02300900203EB5044616
:103170006CB10EA1D1E900208968CDE9002002914F
:103180006A4609214FF4976001F010FF3EBD0AA284
:10319000D2E900109268CDE9010200916A46092146
:1031A0004FF4976001F002FFF0E70000B8AAB38D7A
:1031B000B4980D355D000000B8AAAAAAB088C3C5AE
:1031C000C700000038B5044664B1C0208DF8000087
:1031D000C2208DF80100C4208DF80200C6208DF8B1
:1031E000030004E08B2204216846FDF71AF86A46C2
:1031F000042140F6982001F0D9FE01F0C1FA38BD53
:1032000010B5C8234FF48062024940F6F63001F051
:1032100051F910BDDC5D00082DE9F04F8DB0074677
:10322000884615469946DDE9166B0024002030805B
:103230006B49887B5A4605A901F002FA18B1601E55
:103240000DB0BDE8F08F6648807A00F014000028C9
:1032500067D09DF8140000069DF8151040EA014063
:103260009DF8161040EA01209DF8171008432860C9
:103270009DF8180000069DF8191040EA01409DF8DD
:103280001A1040EA01209DF81B10084368609DF861
:103290001C0000069DF81D1040EA01409DF81E101C
:1032A00040EA01209DF81F100843A8609DF8200007
:1032B00000069DF8211040EA01409DF8221040EAE6
:1032C00001209DF823100843E86004F11000C4B207
:1032D000286800140190686800140290A86800141F
:1032E0000390E8680014049001984043029901FBA0
:1032F0000100039901FB0100049901FB010ABAF1E5
:10330000706F02DBBAF1885F05DD01F039FA002049
:103310003080401E94E7B6F9000040F480703080A1
:1033200000BF2F48807A00F0400020B305A9601C40
:10333000085C095D40EA012000B2A8F8000005A978
:10334000E01C095C05AAA01C105C41EA002000B248
:10335000A8F8020005A9601D095C201D105C41EA67
:10336000002000B2A8F80400A01DC4B2B6F9000005
:1033700040F0080030801A48408900F4C07008B35B
:1033800005A9601C085C095D40EA012000B2388094
:1033900005A9E01C095C05AAA01C105C41EA0020FC
:1033A00000B2788005A9601D095C201D105C41EA0F
:1033B000002000B2B880A01DC4B2B6F9000040F0F1
:1033C000700030800648807A00F0030018B105A92B
:1033D0000819FFF76DFD4846FDF7D4FB00202FE7E5
:1033E0003009002070B588B0064601A800F02EFF15
:1033F000BDF804000021C90341EA5045C40300BFE1
:103400004448007A00F0030056F820000590414837
:10341000007A00F0040010B10598404205903D4844
:10342000007AC0F3C10056F8200006903948007AAF
:1034300000F0200010B10698404206903548007A0E
:10344000C0F3811056F8200007903248008900F43C
:10345000807010B10798404207900598C117A0FBF3
:10346000042301FB043100FB0510810041EA927046
:1034700005900698C117A0FB042301FB043100FB53
:103480000510810041EA927006900798C117A0FBD1
:10349000042301FB043100FB0510810041EA927016
:1034A00007900598000E8DF808000598000C8DF81F
:1034B00009000598000A8DF80A000598C0B28DF839
:1034C0000B000698000E8DF80C000698000C8DF885
:1034D0000D000698000A8DF80E000698C0B28DF80F
:1034E0000F000798000E8DF810000798000C8DF85B
:1034F00011000798000A8DF812000798C0B28DF8E5
:10350000130002AA0C214FF4257001F04FFD08B002
:1035100070BD00003009002030B585B0044616A209
:1035200007CA02AB07C3C82C03DD4FF0FF3005B05C
:1035300030BDC82090FBF4F0401E85B2280A8DF8FB
:103540000000E8B28DF801006A46022140F2162020
:1035500001F02CFD10B14FF0FF30E8E702AA0C217A
:1035600040F6C12001F022FD10B14FF0FF30DEE740
:10357000044884810020DAE7FEF2ABC4AAF1DFDF61
:10358000BBAFDFDF300900201FB504464848007A92
:1035900000F0030054F8200001904548007A00F044
:1035A000040010B10198404201904148007AC0F3F4
:1035B000C10054F8200002903D48007A00F020003D
:1035C00010B10298404202903948007AC0F381104D
:1035D00054F8200003903648008900F4807010B140
:1035E0000398404203903349019880FB0101800F0A
:1035F00040EA810001902F49029880FB011082006F
:1036000042EA917002902B49039880FB01108200DE
:1036100042EA917003900198000E8DF80000019825
:10362000000C8DF801000198000A8DF80200019845
:10363000C0B28DF803006A4604214FF4747001F0A3
:10364000B5FC18B14FF0FF3004B010BD0298000E69
:103650008DF800000298000C8DF801000298000A15
:103660008DF802000298C0B28DF803006A4604216A
:103670004FF4757001F09AFC10B14FF0FF30E3E7A2
:103680000398000E8DF800000398000C8DF80100DF
:103690000398000A8DF802000398C0B28DF8030069
:1036A0006A4604214FF4767001F080FCCCE70000FC
:1036B0003009002009E3CA0210B586B0044647A0CD
:1036C0000068039046A00068029046A00068019040
:1036D00045A00068009004F0030003A9085C8DF881
:1036E000140003A8C4F3C101405C8DF8150003A8C1
:1036F000C4F38111405C8DF8160004F0030002A9A8
:10370000085C8DF8100002A8C4F3C101405C8DF87C
:10371000110002A8C4F38111405C8DF8120005AAC3
:10372000032140F2264001F041FC18B14FF0FF3078
:1037300006B010BD04AA032140F22A4001F036FC75
:1037400010B14FF0FF30F3E7019805900098049016
:1037500004F0040058B19DF8140040F001008DF809
:1037600014009DF8100040F001008DF8100004F0E6
:10377000200058B19DF8150040F001008DF81500AB
:103780009DF8110040F001008DF8110004F48070E4
:1037900058B19DF8160040F001008DF816009DF814
:1037A000120040F001008DF8120005AA03214FF429
:1037B000886001F0FBFB10B14FF0FF30B8E704AABE
:1037C000032140F2314001F0F1FB10B14FF0FF3026
:1037D000AEE7064804810020AAE700004CCD6C004B
:1037E0000CC92C00365676002646660030090020AB
:1037F000F8B505460E464FF47A7095FBF0F000FBE5
:1038000006F4200E8DF80000200C8DF80100200A2F
:103810008DF80200E0B28DF803006A4604214FF4EF
:10382000AE7001F0C3FBF8BD38B50446052094FB2B
:10383000F0F084B220128DF80000E0B28DF80100A3
:103840006A4602214FF4AD7001F0B0FB38BD38B5C7
:103850000446052094FBF0F084B220128DF800009D
:10386000E0B28DF801006A4602214FF4AC7001F01D
:103870009DFB38BD38B504460020009004F00100DF
:1038800020B19DF8000040F03000009004F00200EC
:1038900020B19DF8000040F00C00009004F00400FE
:1038A00020B19DF8000040F0030000906A4601211D
:1038B0004FF4A47001F07AFB38BD38B50446012CF2
:1038C00001DA012402E0042C00DD0424601EC0B2F1
:1038D00000906A46012140F24F1001F067FB38BDAD
:1038E0002DE9FC4706460F4606F0070010B1B7F574
:1038F000C86F03DD4FF0FF30BDE8FC873846FCF7AA
:1039000099FE81465949FCF735FD8046684600F02E
:1039100077FC9DF80000022806D0042816D008285D
:1039200026D0102848D135E04FF08D414046FCF7B5
:10393000EFFC8146FCF7A9FE84B24D494046FCF7F6
:10394000E7FC8146FCF7A1FE85B238E04FF08C41E0
:103950004046FCF7DDFC8146FCF797FE84B2454902
:103960004046FCF7D5FC8146FCF78FFE85B226E089
:103970004FF08B414046FCF7CBFC8146FCF785FEBF
:1039800084B23D494046FCF7C3FC8146FCF77DFE0E
:1039900085B214E04FF08A414046FCF7B9FC8146FD
:1039A000FCF773FE84B235494046FCF7B1FC814612
:1039B000FCF76BFE85B202E04FF0FF309CE700BFE2
:1039C00020128DF80400E0B28DF8050028128DF861
:1039D0000600E8B28DF8070006F00100A0B101AAC8
:1039E00002214FF4EA7001F0E1FA10B14FF0FF301C
:1039F00082E70DF1060202214FF4927001F0D6FA2F
:103A000010B14FF0FF3077E706F00200A0B101AA35
:103A100002214FF4EC7001F0C9FA10B14FF0FF3001
:103A20006AE70DF1060202214FF4947001F0BEFA2C
:103A300010B14FF0FF305FE706F00400A0B101AA1B
:103A400002214FF4EE7001F0B1FA10B14FF0FF30E7
:103A500052E70DF1060202214FF4967001F0A6FA2A
:103A600010B14FF0FF3047E7002045E70000484322
:103A7000000040460000C045000040450000C04432
:103A800038B50446052094FBF0F085B228128DF875
:103A90000000E8B28DF801006A4602214FF4EF7091
:103AA00001F084FA38BD38B50446052094FBF0F0E7
:103AB00085B228128DF80000E8B28DF801006A4640
:103AC00002214FF4ED7001F071FA38BD7CB5054666
:103AD00028494968087801AB04220D21FDF76FFBE6
:103AE00008B107207CBD9DF80700C0F301109DF8C8
:103AF000041001F0E00140EAE1008DF800009DF8BB
:103B00000700C0F381009DF8051001F0E00140EAD4
:103B1000E1008DF801009DF8070000F003009DF81A
:103B2000061001F0E00140EAE1008DF802000024F7
:103B30001CE01DF8040018B9002045F8240013E02B
:103B40000D4845F8240006E055F824000B49FCF721
:103B5000DFFB45F824001DF80400401EC0B20DF83C
:103B600004000028F0D100BF601CC4B2032CE0DBCD
:103B70000020B7E7A00800207B14AE3E1D5A843F0A
:103B80002DE9F04F87B005460C46914601208DF88F
:103B9000100000208DF81100FE4A1268517DFD4A88
:103BA0005268107804AB0222FDF7B2FB20B14FF04F
:103BB000FF3007B0BDE8F08FC820FCF7E9FF002018
:103BC0008DF81000F34A1268517CF24A526810785E
:103BD00004AB0122FDF79CFB10B14FF0FF30E8E78A
:103BE000EC4A12685179EB4A5268107804AB012212
:103BF000FDF78EFB10B14FF0FF30DAE7E54A1268AF
:103C0000517DE44A5268107804AB0122FDF780FB35
:103C100010B14FF0FF30CCE7DE4A1268917EDD4AEA
:103C20005268107804AB0122FDF772FB10B14FF01F
:103C3000FF30BEE7D74A12681179D64A5268107829
:103C400004AB0122FDF764FB10B14FF0FF30B0E789
:103C50000C208DF81000CF4A12681179CD4A5268B5
:103C6000107804AB0122FDF753FB10B14FF0FF3089
:103C70009FE70F20FCF78CFFC648806A407A8DF8DA
:103C80001000C44A12689178C24A5268107804AB96
:103C90000122FDF73DFB10B14FF0FF3089E7BD4831
:103CA000806A007A8DF81000BA4A12685178B94AD1
:103CB0005268107804AB0122FDF72AFB10B14FF0D7
:103CC000FF3076E7B9F1000F07D0B248806A807AFA
:103CD00040F0E0008DF8100004E0AE48806A807A81
:103CE0008DF81000AB4A12689179AA4A5268107890
:103CF00004AB0122FDF70CFB10B14FF0FF3058E789
:103D0000B9F1000F07D0A348806AC07A40F0E00004
:103D10008DF8100003E0A048C07A8DF810009D4A8D
:103D20001268D1799B4A5268107804AB0122FDF7E2
:103D3000EFFA10B14FF0FF303BE7B9F1000F02D0BE
:103D4000C820FCF725FF40208DF81000914A12682A
:103D50001179904A5268107804AB0122FDF7D8FA25
:103D600010B14FF0FF3024E778208DF81000894A19
:103D700012685179874A5268107804AB0122FDF726
:103D8000C7FA10B14FF0FF3013E783498889FCF779
:103D9000FFFE00208DF810007E4A126851797D4A9E
:103DA0005268107804AB0122FDF7B2FA10B14FF05F
:103DB000FF30FEE6774A1268117B764A5268107827
:103DC00004AB0222FDF7FBF910B14FF0FF30F0E633
:103DD0009DF811009DF8101040EA012B0C209BFB70
:103DE000F0F0C6B20020A86068602860A060606043
:103DF0002060824665E0674A1268517B654A5268D6
:103E0000107804AB0C22FDF7DAF910B14FF0FF3057
:103E1000CFE69DF811009DF8101040EA012000B295
:103E2000ADF808009DF813009DF8121040EA01203B
:103E300000B2ADF80A009DF815009DF8141040EA94
:103E4000012000B2ADF80C00BDF90810206808444C
:103E50002060BDF90A10606808446060BDF90C106C
:103E6000A0680844A0609DF817009DF8161040EA6D
:103E7000012000B2ADF800009DF819009DF818105F
:103E800040EA012000B2ADF802009DF81B009DF849
:103E90001A1040EA012000B2ADF80400BDF900108C
:103EA000286808442860BDF9021068680844686002
:103EB000BDF90410A8680844A8600AF1010000F0E8
:103EC000FF0AB24597DB3448D0F800C02868C11714
:103ED000090441EA10410704624600233846FCF712
:103EE0006FF932460023CDE90201FCF769F9286039
:103EF0002948D0F800C06868C117090441EA104198
:103F00000704624600233846FCF75AF9324600237C
:103F1000CDE90201FCF754F968601F48D0F800C0F1
:103F2000A868C117090441EA10410704624600234A
:103F30003846FCF745F932460023CDE90201FCF78B
:103F40003FF9A8601448D0F804C02068C1170904DC
:103F500041EA10410704624600233846FCF730F975
:103F600032460023CDE90201FCF72AF920600A4815
:103F7000D0F804C06068C117090441EA1041070481
:103F8000624600233846FCF71BF932460023CDE990
:103F9000020103E0A0080020B45D0008FCF710F95E
:103FA00060601148D0F804C0A068C117090441EA54
:103FB00010410704624600233846FCF701F93246F7
:103FC0000023CDE90201FCF7FBF8A060A0680028FF
:103FD00004DDA068A0F58030A06003E0A06800F5D3
:103FE0008030A0600020E4E5B45D00082DE9FC5FAE
:103FF00006460F4600253D494968087801AB032273
:104000000D21FDF7DCF810B10720BDE8FC9F9DF8FD
:10401000040000F01F008DF804009DF8050000F07A
:104020001F008DF805009DF8060000F01F008DF8B8
:104030000600002456E056F8240057F82410A0EBA0
:10404000010BBBF1000F01DB594601E0CBF1000190
:104050000846FCF7E6FA4FF08F410090FCF78AF92A
:10406000814601A8005D68B321490868FCF7E2FABF
:10407000834659461F48FCF77DF9804604E01E49F7
:104080004046FCF745F9804601A8005D401EC0B2DD
:1040900001A908550028F2D141464846FCF76AF9C3
:1040A00083464FF07E51FCF72DF982462AF0004BF3
:1040B0000F4881695846FCF735FB12D20120A04019
:1040C00005430EE00A4801694846FCF721FB05D389
:1040D000074841694846FCF725FB02D20120A04071
:1040E0000543641C032CA6DB28468EE7A0080020AD
:1040F000B45D000800B04C4554E3853F70B50546FB
:10410000284600F00FF80446E81C00F00BF844EADB
:10411000C00084B2A81D00F005F844EA801084B203
:10412000204670BD014691F90020002A01DD0020E3
:104130001EE091F90020002A01DA042018E091F92C
:104140000120002A01DD012012E091F90120002A5E
:1041500001DA05200CE091F90220002A01DD02209D
:1041600006E091F90220002A01DA062000E007208B
:10417000704710B5FCF781FEFDF7D3FDFEF776FA28
:10418000FDF7FDF8FDF702FBFDF720FD002010BD57
:1041900070B50446002624F00104184890F8240065
:1041A00008B1002070BD1548807A10B94FF0FF307B
:1041B000F8E71248057C807A2040104908740846C8
:1041C000007CA04202D04FF0FF3600E0002614B978
:1041D0000A48007D18B1012001F014FA02E0002025
:1041E00001F010FA3CB100F0CBFA20B1034805749D
:1041F0004FF0FF30D6E73046D4E70000A00800209B
:1042000001461148407A30B1012807D0022808D071
:1042100003280CD108E0022008700BE0042008708D
:1042200008E00820087005E01020087002E04FF058
:10423000FF30704700BF0448C07C18B108784006C2
:10424000000E08700020F4E7A00800200146134883
:10425000407A30B1012808D002280AD0032810D1B2
:104260000BE04FF4804008800EE041F69C7008801F
:104270000AE04FF48050088006E04FF400600880A8
:1042800002E04FF0FF30704700BF0448C07C10B11F
:104290000888401008800020F5E70000A0080020F2
:1042A00001460248007C087000207047A0080020EA
:1042B00001460F48007A30B1012807D0022809D002
:1042C00003280FD10AE0FA2008800EE04FF4FA70BC
:1042D00008800AE04FF47A70088006E04FF4FA6034
:1042E000088002E00020088000BF00BF0020704767
:1042F000A008002001460E48007A30B1012807D0FE
:10430000022808D003280CD108E00A4808600BE016
:104310000948086008E00948086005E008480860A6
:1043200002E04FF0FF30704700BF0020FBE70000C5
:10433000A0080020000003430000834233330342FF
:104340003333834101461248C07A082817D2DFE888
:1043500000F01704070A0D101318BC20088013E0A2
:104360006220088010E02A2008800DE014200880D8
:104370000AE00A20088007E00520088004E000BF6A
:1043800000BF0020088000BF00BF00207047000071
:10439000A00800200146064890F8240010B14FF014
:1043A000FF3070470248C08908800020F9E700000C
:1043B000A00800201CB5044680208DF800003C4A6F
:1043C0001268517D3A4A526810786B460122FCF718
:1043D0009FFF10B14FF0FF301CBD6420FCF7D8FBED
:1043E00000208DF80000324A1268517D304A526830
:1043F00010786B460122FCF78BFF10B14FF0FF30B5
:10440000EAE700212A48C174FF218172FF20284970
:104410000872FF2126484172C1724FF6FF71C181B7
:10442000FF21017481740121017380F822100021A1
:1044300080F823104175017516300160416081607C
:10444000163880F8241080F82510C1844FF4FA60E3
:1044500000F03AFC10B14FF0FF30BDE7022000F051
:1044600003FB10B14FF0FF30B6E72A2000F0A6FCA6
:1044700010B14FF0FF30AFE7322000F0E1FC10B197
:104480004FF0FF30A8E70020FFF782FE10B14FF099
:10449000FF30A1E734B1002000F028FB10B14FF04D
:1044A000FF3099E7002000F019FD002094E700009C
:1044B000A00800202DE9F04385B005460E46904641
:1044C0009946294890F8250020B14FF0FF3005B0FB
:1044D000BDE8F08316B94FF0FF30F8E7002423E081
:1044E000281B102801DD102000E0281B87B232199C
:1044F0003946204600F05AFD10B14FF0FF30E6E794
:1045000001AA3946204600F0FBF810B14FF0FF3009
:10451000DDE730193A4601A9FBF795FE10B16FF0BF
:104520000100D4E7E01984B2AC42D9DB4FEA28207D
:104530008DF8000008F0FF008DF801000A4A1268AB
:10454000517F094A526810786B460222FCF7E0FE60
:1045500010B14FF0FF30BAE70121034880F8251071
:10456000A0F826900020B2E7A008002038B5044645
:10457000DCB9002000F0ECFB00208DF800000720E3
:104580008DF801002D4A1268517D2C4A526810782E
:104590006B460222FCF7BCFE10B14FF0FF3038BD75
:1045A0000021264801750020F9E7012000F0D0FB2A
:1045B00020208DF80000012C06D100208DF801008C
:1045C000052000F0FBFB17E0052C06DC01208DF830
:1045D0000100052000F0F2FB0EE0142C06DC0220A6
:1045E0008DF801000A2000F0E9FB05E003208DF8BA
:1045F0000100142000F0E2FB9DF80100072101EB0F
:104600008010C0B28DF801000C4A1268517D0B4A2F
:10461000526810786B460222FCF77AFE10B14FF018
:10462000FF30BCE708210548817200210173012198
:1046300001750020FFF7ACFD0020B0E7A0080020C6
:10464000F8B504460F4616462C4890F8240010B9D9
:104650004FF0FF30F8BD2948807A10B94FF0FF3095
:10466000F8E7264A1268117B244A526810786B4694
:104670000222FCF7A4FD10B14FF0FF30EAE79DF8ED
:1046800001009DF8001040EA0125A54203DA002050
:104690003070401EDEE7194840684088B5EB600F77
:1046A00017DD164A1268D17C144A526810786B469E
:1046B0000122FCF784FD10B14FF0FF30CAE79DF8EE
:1046C000000000F0100020B100F05AF86FF0010077
:1046D000C0E7E2B2094B1B68597B084B5B6818784E
:1046E0003B46FCF76CFD10B14FF0FF30B2E795FB95
:1046F000F4F0401E30700020ACE70000A00800205D
:10470000F8B504460D46164616B94FF0FF30F8BD11
:104710001A48807A10B94FF0FF30F8E720128DF870
:104720000000E0B28DF801009DF801002844134913
:1047300049684989884202DD4FF0FF30E7E70F4AB8
:104740001268D17E0D4A526810786B460222FCF73F
:10475000DFFD10B14FF0FF30D9E7EAB2074B1B681D
:10476000197E064B5B6818783346FCF728FD10B1BC
:104770004FF0FF30CBE70020C9E70000A008002081
:1047800008B57048807A10B94FF0FF3008BD00209E
:1047900000906C4A1268517C6A4A526810786B46E5
:1047A0000122FCF7B5FD10B14FF0FF30EEE7654A8E
:1047B00012685179634A526810786B460122FCF7FF
:1047C000A7FD10B14FF0FF30E0E75E4A12681179A3
:1047D0005C4A526810786B460122FCF799FD10B1D3
:1047E0004FF0FF30D2E7574890F82400002853D00C
:1047F0000C200090534A12681179524A526810787E
:104800006B460122FCF784FD10B14FF0FF30BDE78D
:104810003220FCF7BDF9C02000904A48807A00F0B1
:10482000010020B19DF8000040F020000090454AB2
:1048300012681179434A526810786B460122FCF7DE
:1048400067FD10B14FF0FF30A0E73E48407C10B14B
:104850000220009001E0002000903A4A1268517C4A
:10486000384A526810786B460122FCF751FD10B1AE
:104870004FF0FF308AE700200090324A12685179E9
:10488000304A526810786B460122FCF741FD00283F
:1048900055D04FF0FF3079E704200090294A126884
:1048A0001179284A526810786B460122FCF730FDD6
:1048B00010B14FF0FF3069E72248807C20B92148D1
:1048C000807A00F0010010B94020009001E06020E3
:1048D00000901C4A126811791A4A526810786B4687
:1048E0000122FCF715FD10B14FF0FF304EE73220EA
:1048F000FCF74EF91348407C10B10120009001E014
:10490000002000900F4A1268517C0E4A52681078BD
:104910006B460122FCF7FCFC10B14FF0FF3035E78D
:10492000084A12685179074A52681078054B1033CB
:104930000122FCF7EDFC10B14FF0FF3026E700201C
:1049400024E70000A00800202DE9F04F8DB0834639
:104950000F4602200C90434890F8240020B100201C
:1049600000F06AF9012600E0002603A8FFF7A0FC8A
:1049700005A8FFF745FC01A8FFF7E4FC02A8FFF734
:1049800009FD384890F80AA004A8FFF789FC002424
:1049900007E0002239465846FFF7F2F800B902E076
:1049A000641C022CF5DB00BF022C01D100252AE09B
:1049B000002407E0012206A909A8FFF7E1F800B9E1
:1049C00002E0641C022CF5DB00BF022C01D10025A3
:1049D00019E006A93846FDF701FF00F0FF0809A914
:1049E0005846FFF703FB00F0FF090025B9F1000F5F
:1049F00001D145F00105B8F1000F01D145F00205E4
:104A000045F0040500BFFF2016490872FF21154834
:104A10004172C1724FF6FF71C181FF218172017431
:104A200001210173BDF80C0000F04EF99DF814004F
:104A300000F01AF8BDF8040000F0C0F9BDF8080055
:104A400000F0FEF9504600F049FA9DF81000FFF71B
:104A50009FFB16B1012000F0EFF828460DB0BDE82D
:104A6000F08F0000A008002038B504461E48807A68
:104A700010B94FF0FF3038BD022C06D0042C07D0FF
:104A8000082C08D0102C0CD108E0002000900BE07E
:104A90000820009008E01020009005E01820009009
:104AA00002E04FF0FF30E6E700BF0F48407A9DF884
:104AB0000010B0EBE10F01D10020DCE70A4A1268D8
:104AC000D179094A526810786B460122FCF720FC24
:104AD00010B14FF0FF30CEE79DF80000C110024842
:104AE00041720020C7E70000A008002038B5044646
:104AF0005048807CA04201D1002038BD002C46D017
:104B00004C4A126811794B4A526810786B46012260
:104B1000FCF755FB10B14FF0FF30EEE79DF80000B9
:104B200020F020000090434A12681179414A5268EF
:104B300010786B460122FCF7EBFB10B14FF0FF3011
:104B4000DBE70320FCF724F802200090394890F8B6
:104B5000220020B19DF8000040F080000090354810
:104B600090F8230020B19DF8000040F03000009044
:104B7000304A1268D17D2F4A526810786B46012264
:104B8000FCF7C6FB002851D04FF0FF30B5E7294AAB
:104B900012681179274A526810786B460122FCF797
:104BA0000EFB10B14FF0FF30A7E72248807A00F0EB
:104BB000010028B19DF8000040F02000009004E0C2
:104BC0009DF8000020F0200000901A4A1268117928
:104BD000184A526810786B460122FCF799FB10B115
:104BE0004FF0FF3089E70320FBF7D2FF114890F820
:104BF000220010B18020009001E0002000900D48BC
:104C000090F8230020B19DF8000040F030000090A3
:104C1000084A1268D17D074A526810786B46012213
:104C2000FCF776FB10B14FF0FF3066E70148847463
:104C3000002062E7A008002038B50446214890F81B
:104C40002400A04201D1002038BD24B31D4890F8B3
:104C5000250010B94FF0FF30F6E7002000F0D2FC3D
:104C60000020FFF743FF1749C88C00F0E9F8002047
:104C700000901449496808786B4601222321FCF70B
:104C800047FB01210F4880F82410012000F0BAFCF6
:104C9000FFF776FD13E0002000F0B4FC0948007C2B
:104CA00000900849496808786B4601222321FCF7E7
:104CB0002FFB0021034880F82410FFF761FD00203E
:104CC000C2E70000A008002038B504461F48807ADB
:104CD00010B94FF0FF3038BDFA2C09D0B4F5FA7F87
:104CE00009D0B4F57A7F09D0B4F5FA6F0CD108E099
:104CF000002000900BE00820009008E010200090B9
:104D000005E01820009002E04FF0FF30E3E700BF1D
:104D10000E48007A9DF80010B0EBE10F01D10020A1
:104D2000D9E70A4A12689179084A526810786B46A6
:104D30000122FCF7EDFA10B14FF0FF30CBE79DF800
:104D40000000C010014908720020C4E7A00800203C
:104D500038B50446184890F82300A04201D100203D
:104D600038BD14B13020009001E0002000901248BE
:104D7000807C20B19DF8000040F0020000900E48B9
:104D800090F8220020B19DF8000040F080000090D3
:104D9000094A1268D17D084A526810786B46012290
:104DA000FCF7B6FA10B14FF0FF30D9E7024880F8AF
:104DB00023400020D4E70000A008002038B50446B6
:104DC0001E48807A10B94FF0FF3038BDBC2C02DB92
:104DD0000120009015E0622C02DB0220009010E020
:104DE0002A2C02DB032000900BE0142C02DB0420B1
:104DF000009006E00A2C02DB0520009001E006206E
:104E000000900E48C07A9DF80010884201D1002021
:104E1000DBE70A4A12689178084A526810786B46B4
:104E20000122FCF775FA10B14FF0FF30CDE79DF885
:104E300000100248C1720020C7E70000A00800204F
:104E400038B504462448807A10B94FF0FF3038BD99
:104E5000214890F8240010B14FF0FF30F7E71E48CA
:104E6000007D50B134B1282C04DC2046FFF77EFBD6
:104E70000020ECE70020FFF779FB042C01DA042482
:104E800004E0B4F57A7F01DD4FF47A744FF47A7060
:104E900090FBF4F0401EC0B200900F4A12685178A7
:104EA0000D4A526810786B460122FCF731FA10B1B6
:104EB0004FF0FF30CBE79DF80000401C4FF47A71B3
:104EC00091FBF0F081B20448C1810146C9894810C4
:104ED000FFF774FF0020BAE7A008002038B50446A9
:104EE00004F0700010B10120009005E014B1002022
:104EF000009001E0402000902B4A1268517D2A4A20
:104F0000526810786B460122FCF702FA20B10021AA
:104F100025488172481E38BD9DF8000020F04001F0
:104F2000214801730020009004F0400020B99DF852
:104F3000000040F00400009004F0200020B99DF82B
:104F4000000040F00200009004F0100020B99DF82D
:104F5000000040F00100009004F0080020B99DF826
:104F6000000040F0380000900F4A1268917D0E4A10
:104F7000526810786B460122FCF7CAF920B1002173
:104F800009488172481EC6E724B1082C02D00020CF
:104F9000FFF7DEFE04488472002101753220FBF722
:104FA000F7FD0020B7E70000A0080020F8B5044690
:104FB0000D46164616B94FF0FF30F8BD1A48807AF4
:104FC00010B94FF0FF30F8E720128DF80000E0B282
:104FD0008DF801009DF8010028441349496849896A
:104FE000884202DD4FF0FF30E7E70F4A1268D17EBA
:104FF0000D4A526810786B460222FCF789F910B10D
:105000004FF0FF30D9E7EAB2074B1B68197E064B19
:105010005B6818783346FCF77BF910B14FF0FF302E
:10502000CBE70020C9E70000A00800202DE9F041EF
:1050300005460E462648076826480068001D00F011
:105040004FFB50B92348006890F82C10012088408D
:1050500021490968814320480160681CD8B9D6B14C
:105060001E4948681B49096888601A4982680968AE
:10507000CA6018490968091D8268516015490968A4
:10508000091D8160154A134909684A61114609687A
:10509000491C11601AE07C190E4800684460BC424B
:1050A00007D20C480168091D0D48006800F03CFB60
:1050B0000CE008480168091D0A48006800F034FB4C
:1050C00009480068844201D207480460BDE8F081C5
:1050D000E0080020CC080020E4080020F4090020AB
:1050E000D4080020D0080020FC08002010B5044699
:1050F00000F040FB2F480068401C2E4908602E48F5
:10510000006840B92C4804600846006801280DD1A9
:1051100000F01CF90AE02948006838B92648006800
:10512000C06AE16A884201D82348046024480068C4
:10513000401C2349086094F82C1001208840214924
:10514000096808431F490860E16A01EB81011E4AB2
:1051500002EB81014868A0608268E260211D8268DC
:1051600051608160E16A01EB8101174A02EB810223
:105170006261E16A01EB8101134A52F82110491C76
:10518000E26A02EB8202104B43F8221000F004FBAB
:105190000A48006868B108480068C06AE16A884245
:1051A00007D24FF0805009490860BFF34F8FBFF31B
:1051B0006F8F10BDDC080020CC080020E80800201C
:1051C000F8080020E40800204009002004ED00E079
:1051D00010B516E000F0CEFA0C48C068C468201D77
:1051E00000F07EFA0A480068401E09490860094834
:1051F0000068401E0749086000F0CEFA204600F023
:105200000BF8044800680028E4D110BDE009002034
:10521000DC080020D808002010B50446206B00F000
:10522000CBFA204600F0C8FA10BD000030B54FF4AC
:105230005053154800F007042CB1C01D20F00700A2
:10524000114C041B1B1B0246104C226000240F4D06
:105250006C60D018083820F007000D4C2060002446
:105260000B4D2D686C600A4D2D682C601146441A58
:105270004C60074C24680C60064D4C682C60064D51
:105280004C682C6030BD0000080A00200C0900208A
:10529000140900201C0900201809002000BFFFF796
:1052A00097FF064800680128F9D94FF0805004495B
:1052B0000860BFF34F8FBFF36F8FF0E74009002006
:1052C00004ED00E02DE9F05F81460E4617469A4650
:1052D000DDF828800C9CB900A522206BFAF7A1FF0D
:1052E000781E216B01EB800B2BF0070B7EB10025A4
:1052F00007E0715D04F134004155705D00B902E0D2
:105300006D1C102DF5D300BF002143200155B8F1CD
:10531000050F01D34FF00408C4F82C80201D00F0C5
:1053200000FA04F1180000F0FCF92461C8F105004E
:10533000A061646252464946584600F005F9206073
:105340000B9808B10B980460BDE8F09F10B50024DD
:1053500007E004EB84010F4A02EB810000F0D4F96E
:10536000641C052CF5D30C4800F0CEF90B4800F076
:10537000CBF90B4800F0C8F90A4800F0C5F90A4813
:1053800000F0C2F904480949086004480849086067
:1053900010BD000040090020A4090020B809002029
:1053A000CC090020E0090020F4090020D0080020EA
:1053B000D408002010B50146164800E000680368D4
:1053C0008B42FBD30246436813448B4204D14368AB
:1053D0004C682344436001460A464B681344046802
:1053E000A34211D10C4C03682468A34208D04B6837
:1053F0000468646823444B6003681B680B6005E025
:10540000054B1B680B6001E003680B60884200D00D
:10541000016010BD0C090020140900200948006833
:10542000006808B9012000E0002020B14FF0FF30F3
:105430000549086005E003480068C0680068024943
:1054400008607047D0080020FC08002000BF5020F2
:1054500080F31188BFF34F8FBFF36F8F00BF00BF82
:10546000FEE700002DE9F04705464FF0000900F087
:105470008FFA3048006808B9FFF7D8FE75B105F01B
:105480000700C0F11008C8F1FF30A84201D2012086
:1054900000E0002008B9454400E00025012000EBB1
:1054A000E570002841D0002D3FD023480068854298
:1054B0003BD8224E3046046801E0264624686068E6
:1054C000A84202D220680028F7D11A480068844216
:1054D0002BD0306800F10809206830606068401BFC
:1054E000102807D967196068401B786065603846E6
:1054F000FFF760FF104960680968081A0E490860E4
:10550000084600680E490968884203D20A480068C4
:105510000B490860606840F0004060600020206037
:1055200008480068401C0749086000F07FFB4846B7
:10553000BDE8F08714090020180900200C0900209C
:105540001C09002020090020001F4FF08073036019
:10555000001F21F001030360001F034B0360143898
:1055600002602038704700004D54000870B588B0C4
:1055700002A905A8FFF7E8F90446072C3CD101A8C9
:10558000FEF7B8FE0598FBF74CF806460199FAF7C6
:10559000BFFE0546FBF760F805900698FBF741F85B
:1055A00006460199FAF7B4FE0546FBF755F8069052
:1055B0000798FBF736F806460199FAF7A9FE054663
:1055C000FBF74AF8079005A8FDF7DEFF6846FEF7EF
:1055D0003DFEBDF80010029848430290BDF800104F
:1055E000039848430390BDF8001004984843049082
:1055F00002A8FDF7F7FE03E04FF0FF3008B070BDE2
:105600000020FBE738B50446214890F82400C0B1DB
:1056100014B10220009001E0002000901C4A1268A2
:10562000517C1B4A526810786B460122FBF770FED2
:1056300010B14FF0FF3038BD9DF800101448417490
:1056400023E01348807A10B94FF0FF30F3E724B11C
:105650000F48407C08B10020EDE714B10120009014
:1056600001E0002000900A4A1268517C084A526802
:1056700010786B460122FBF74BFE10B14FF0FF3064
:10568000D9E79DF80010024841740020D3E70000DC
:10569000A00800202DE9F04106460F46FBF7F2F97D
:1056A000041E0D4618BF0120284320F00040C0F121
:1056B0007F6000F1E040C00F0ED0301C18BF012009
:1056C000384320F00040C0F17F6000F1E040C00F9F
:1056D00004BF0120FDF77CF820462946BDE8F08193
:1056E00001460A69D1E901309860D1E901035860A7
:1056F0005068884201D188685060002008611068B5
:10570000401E10601068704700F1080141604FF0C2
:10571000FF31816000F10801C16001610021016079
:10572000704700210161704710B502460B685C1C90
:105730000CB9106907E002F1080000E04068446815
:1057400024689C42FAD944684C604C68A160886027
:1057500041600A611468641C146010BD42684A60AC
:1057600093688B60936859609160086103685B1C63
:105770000360704700BF502080F31188BFF34F8F44
:10578000BFF36F8F00BF03480068401C01490860E9
:10579000704700002809002006480068401E05499F
:1057A00008600846006820B9002080F3118800BF17
:1057B00000BF70472809002070B506463546E6B19F
:1057C000083D2C466068C00FB8B12068A8B9606871
:1057D00020F00040606000F0DBF80849606809686C
:1057E0000844064908602046FFF7E4FD04480068C5
:1057F000401C0349086000F019FA70BD1809002028
:105800002409002000204FF0E0210861886102484F
:1058100048610720086170473F19010070B50446D0
:10582000002544B100F0B4F800212046FFF7FEFB4C
:1058300000F0FCF905463DB94FF08050034908607F
:10584000BFF34F8FBFF36F8F70BD000004ED00E01A
:1058500070B50546FFF78EFF15B92948006800E0CE
:1058600028460446201DFFF73BFF78B9E06A00EBAD
:105870008000244951F8200040B994F82C100120F0
:1058800088402149096881431F480160A06A18B116
:1058900004F11800FFF724FF1C480068401C1B4956
:1058A000086017480068844209D1211D1848FFF795
:1058B00055FF18480068401C1649086006E0164865
:1058C0000068401E14490860FFF7A8FDFFF764FF59
:1058D0000B480068844202D02046FFF79DFC0F4829
:1058E000006858B106480068844207D14FF08050E4
:1058F0000B490860BFF34F8FBFF36F8F70BD00007F
:10590000CC08002040090020E4080020F80800200E
:10591000E0090020D8080020DC080020E80800206A
:1059200004ED00E01CB5124800210B468022CDE9B1
:10593000001010A1114800F07DF80446012C14D18C
:1059400000BF502080F31188BFF34F8FBFF36F8FDC
:1059500000BF4FF0FF300A49086001200949086084
:1059600000200949086000F04BF8084800681CBD99
:105970000009002049444C45000000009D520008E9
:10598000FC080020E8080020E008002004090020AE
:1059900002480068401C014908607047080900205F
:1059A0001248006818B10120114908601DE000206C
:1059B0000F4908600F480068B0FA80F0C0F11F017D
:1059C00001EB81020C4B03EB82004268526842609B
:1059D00000F108024368934202D142685268426073
:1059E0004268D268054B1A6000BF70470809002062
:1059F000F0080020E408002040090020CC08002026
:105A000010B50A48006840F470000849086008466C
:105A1000006840F070400860FFF7F4FE0020044981
:105A20000860FAF781FB002010BD000020ED00E0C7
:105A3000280900202DE9FF4F85B08046894617468A
:105A4000DDE912ABB800FFF70DFD064676B14C203C
:105A5000FFF708FD04462CB14C212046FAF7E8FB7D
:105A6000266304E03046FFF7A7FE00E000247CB187
:105A70000020CDE900ABCDE902403A464946404618
:105A8000089BFFF71FFC2046FFF730FB012501E0D4
:105A90004FF0FF35284609B0BDE8F08F2DE9F04101
:105AA00000275748006800287ED156480068451CEA
:105AB000544805608DB95448D0F8008053480068B8
:105AC000514908605148C0F8008051480068401CA6
:105AD0004F490860FFF7A2FC00BF4E4800688542AE
