:020000040800F2
:10000000E044002071020008AF1200089B0A0008BB
:10001000AD120008830600088F1D000800000000D4
:10002000000000000000000000000000D9010008EE
:1000300095060008000000001D020008F5150008E4
:100040008B0200088B0200088B0200088B0200085C
:100050008B0200088B020008050700083D07000816
:100060008B0200088B0200088B0200088B0200083C
:100070008B0200088B0200088B0200088B0200082C
:100080008B0200088B0200088B0200088B0200081C
:100090008B0200088B0200088B0200088B0200080C
:1000A0008B0200088B0200088B0200088B020008FC
:1000B000F91600088B0200088B0200088B0200086A
:1000C0008B0200088B0200088B0200088B020008DC
:1000D0008B0200088B020008051C00088B02000838
:1000E0008B0200088B0200088B02000800F002F867
:1000F00000F063F80AA090E8000C82448344AAF15F
:100100000107DA4501D100F058F8AFF2090EBAE85C
:100110000F0013F0010F18BFFB1A43F0010318473B
:10012000A0430000C04300000A444FF0000C10F848
:10013000013B13F0070408BF10F8014B1D1108BF65
:1001400010F8015B641E05D010F8016B641E01F805
:10015000016BF9D113F0080F1EBF10F8014BAD1C55
:100160000C1B09D16D1E58BF01F801CBFAD505E073
:1001700014F8016B01F8016B6D1EF9D59142D6D3CD
:10018000704700000023002400250026103A28BFF5
:1001900078C1FBD8520728BF30C148BF0B607047F9
:1001A0001FB500F0E7F904000020002102F0ECFF89
:1001B000401C60601FBD10B510BD00F0EDF9114688
:1001C000FFF7EEFF02F02AFA00F00BFA03B4FFF794
:1001D000F2FF03BC00F04EFA224B19680868B0E841
:1001E000F00F80F30988BFF36F8F4FF0000080F3AA
:1001F00011884EF00D0E70470000000006480068A0
:10020000006880F3088862B661B6BFF34F8FBFF312
:100210006F8F00DF00BF00BF08ED00E0EFF3098043
:10022000BFF36F8F0F4B1A6820E9F00F106008B50D
:100230004FF0500080F31188BFF34F8FBFF36F8FE3
:1002400002F028FE4FF0000080F31188BDE808405E
:1002500019680868B0E8F00F80F30988BFF36F8F62
:10026000704700BF48010020EFF305807047000091
:100270000948804709480047FEE7FEE7FEE7FEE73A
:10028000FEE7FEE7FEE7FEE7FEE7FEE70448054976
:10029000054A064B7047000021160008ED000008D3
:1002A000E03E0020E0440020E0400020E04000204C
:1002B0002DE9F04791460F4680460446002614F883
:1002C000015B2DB100F0ECF80068405DC007F6D18D
:1002D0002B2D02D02D2D18D0641E4A4639462046BB
:1002E00000F0F5F827B13968A14201D1C7F80080C4
:1002F0004FF0020471050BD54042002803DD00F0E9
:10030000D7F80460A007BDE8F08746F48066E4E70C
:100310000028F8DA00F0CCF804606FF00040F2E753
:10032000401ECAB210F8011F8A4202D00029F9D13A
:100330000020704730B505460B462A4613F8014B9E
:1003400012F8010B08B1A042F8D01CB1002802D06D
:100350006D1CF1E7284630BD40EA0103024630B586
:100360009B0710D14FF0013400E008C208C91D1BE3
:100370009D4315EAC41FF8D013F0FF0102F8011BDA
:100380000DD01B0AF8E711F8013B002B02F8013BE6
:1003900005D011F8013B002B02F8013BF3D130BD31
:1003A00002F0FF0343EA032242EA024200F002B8ED
:1003B0004FF000020429C0F0128010F0030C00F08E
:1003C0001B80CCF1040CBCF1020F18BF00F8012B0C
:1003D000A8BF20F8022BA1EB0C0100F00DB85FEADA
:1003E000C17C24BF00F8012B00F8012B48BF00F8A6
:1003F000012B70474FF0000200B513469446964615
:10040000203922BFA0E80C50A0E80C50B1F1200127
:10041000BFF4F7AF090728BFA0E80C5048BF0CC0D5
:100420005DF804EB890028BF40F8042B08BF704733
:1004300048BF20F8022B11F0804F18BF00F8012BA5
:10044000704710B5044610F0030F08BF11F0030FFA
:1004500040F015804FF0013E121FC0F20E8051F89F
:10046000043BA3EB0E0C2CEA030C1CEACE1C08BFC9
:1004700040F8043BF0D0A1F1040102F10402521E45
:1004800008DB11F8013B002B00F8013BF7D11146C6
:10049000FFF78EFF204610BD704770477047000081
:1004A00010B500F067F8001D10BD00BFDD2C000086
:1004B00000487047803E002010B5FFF7F9FF006844
:1004C00010BD10B50446FFF7F3FF046010BD2DE921
:1004D000F05F824615468B4600270AF10104B946B3
:1004E0000078302801D09DB113E014F8010B0127EA
:1004F000782803D0582801D045B10AE00DB1102D5D
:1005000007D1002714F8010B102502E0082500E0B0
:100510000A250026B0460EE005FB080005FB06F1A3
:1005200001271FFA80F801EB1046B6F5803F00D393
:10053000B94614F8010B294600F020F80028EBDA40
:10054000BBF1000F05D00FB1641E00E05446CBF89C
:100550000040B9F1000F06D0FFF7AAFF02210160A9
:10056000C81EBDE8F09F48EA0640FAE70048704719
:10057000803E002000487047A03E00203A2800D26C
:10058000303820F02002412A01D3A2F137008842FE
:1005900001D34FF0FF3070477546FFF7E7FFAE46D7
:1005A00005006946534620F00700854618B020B57F
:1005B000FFF76CFEBDE820404FF000064FF000074B
:1005C0004FF000084FF0000B21F00701AC46ACE8FB
:1005D000C009ACE8C009ACE8C009ACE8C0098D4668
:1005E000704710B50446AFF300802046BDE81040C8
:1005F000FFF7ECBD4FF0013C50F8042B51F8043BE1
:100600009A4221D1A2EB0C03934313EACC1317D1E6
:1006100050F8042B51F8043B9A4215D1A2EB0C037D
:10062000934313EACC130BD150F8042B51F8043B3D
:100630009A4209D1A2EB0C03934313EACC13DBD00B
:100640004FF00000704700BFD01A01BAB1FA81F133
:1006500001F0180122FA01F0CB40C1F12001DBB218
:10066000C0B2C01A2CFA01F3D11A914311EAC31196
:10067000E6D1704701491820ABBEFEE72600020014
:100680007047FEE701490020087070470000002015
:1006900001F004BB70470000014909680160704720
:1006A0000001002003490A6810440A688242FCD312
:1006B000704700000001002000BF00BF704700002D
:1006C00010B50A4801F052F8084CB4F9000003F0E4
:1006D00053FC074903F072FB064903F065FC6060B8
:1006E000BDE81040002001F04BB8000008000020D9
:1006F0000000B6440000D0400149496801607047DD
:100700000800002010B5012000F062F801280DD18A
:1007100000F0B0F9012801D101F01CF800F0AAF9AD
:1007200020B901F011F8044901200870BDE810401B
:10073000012000F047B800001000002010B5022092
:1007400000F046F8012834D11A4A1B491B4800F032
:10075000D9FA48BB1A4C2078012805D00021BDE801
:100760001040084600F08CBA15486030FFF7C4FF0F
:1007700012480021006800F03FFE60666168206E4C
:1007800000F0E4FDA0660B48A168006800F09AFD47
:10079000E066D4E9191211440A1AC4E91512014499
:1007A0001046E16500F06CFABDE81040022000F050
:1007B00009B810BD200000204C0000201C000020C3
:1007C00090000020014908607047000014040140B7
:1007D000064A014600201268044B0A4014331B6885
:1007E0000B4202D0002A00D00120704700040140D3
:1007F000F0B5CC78002204F00F03E40601D58C7824
:1008000023430C784FF00F0C14F0FF0F4FF0010E44
:100810001BD005680E880EFA02F42640A64210D1BD
:1008200096000CFA06F725EA070703FA06F5CE78D4
:100830003D43282E02D0482E02D002E0446100E061
:100840000461521C082AE5D305600A88FF2A1CD9D6
:100850004468002202F108060EFA06F50E882E40C2
:10086000AE420ED196000CFA06F7BC4303FA06F727
:10087000CE783C43282E00D14561CE78482E00D159
:100880000561521C082AE5D34460F0BD00F030B881
:1008900002464FF40051014800F0FAB80010014040
:1008A00002464FF40051014800F0F2B8000C01403C
:1008B00002460221014800F0EBB80000000C0140A4
:1008C00002460121014800F0E3B80000000C01409D
:1008D00002464FF48041014800F0DAB8000C0140B4
:1008E00002464FF40041014800F0D2B8000C01402C
:1008F000F8B50121042000F0A9FD0121082000F035
:10090000A5FD0121084600F0A1FD0121264800F0C7
:1009100059F84020ADF800001825244E8DF80350FA
:1009200003248DF8024069463046FFF761FF8020BE
:10093000ADF800008DF803508DF80240694630464E
:10094000FFF756FF7014ADF800001025184E8DF813
:1009500003508DF8024069463046FFF749FFADF875
:1009600000408DF803508DF8024069463046FFF78D
:100970003FFFA003ADF800008DF803508DF8024052
:1009800069463046FFF734FF012000F013F80020DD
:10099000FFF78EFF0020FFF793FF0020FFF798FF7F
:1009A0000020FFF79DFFF8BD000230000008014065
:1009B000000C014002464FF40051014800F068B8B5
:1009C000000C0140F0B5144C002801DAE36900E0A6
:1009D0006368450D2E0185B2C0F30157B540C0F3E1
:1009E0000342032F05D0C6020AD503269640B3431F
:1009F00007E023F07062636823F07063636002E0D5
:100A0000AB4343F0706201B12A43002801DAE2618E
:100A1000F0BD6260F0BD0000000001400246002011
:100A200092680A4200D001207047000010B50246CB
:100A30004FF48061034800F02BF8BDE8104001201E
:100A4000FFF73ABE000C014010B502464FF40061BA
:100A5000034800F01DF8BDE810400120FFF72CBE50
:100A6000000C01404FF400610148FFF7D7BF0000C0
:100A7000000C014001210148FFF7D0BF00080140F0
:100A800002464FF48051014800F002B8000C0140CA
:100A90000AB10161704741617047FEE72DE9F041FD
:100AA0001D4616460F46044600F07EF86006000E0E
:100AB00000F066F800F02DF8384600F061F800F01C
:100AC00028F80A20FFF7F8FD00F06EF8012000EB8F
:100AD0004400C0B200F054F800F01BF80024761E69
:100AE00007E0451C00F024F8002000F03EF8641CEC
:100AF000E4B2B4422846F4DB00F01AF8012000F01A
:100B000034F81E20FFF7D8FD00F05DF80020BDE8A6
:100B1000F08110B50120FFF797FF0120FFF786FF56
:100B2000FFF7A0FF04460020FFF780FF204610BD1E
:100B300070B50446002020700120FFF785FF0025D6
:100B40000120FFF773FF207840002070FFF78AFF35
:100B500018B1207840F0010020700020FFF766FFF8
:100B60006D1CEDB2082DEBD370BD10B5FFF76CFF17
:100B70000120FFF75BFFBDE810400020FFF756BFE4
:100B800070B50546002405F08000FFF75DFF0120E9
:100B9000FFF74CFF0020FFF749FF6806641C050EB5
:100BA000E4B2082CEFD370BD10B50120FFF74CFF65
:100BB0000120FFF73BFF0020FFF746FFBDE8104094
:100BC0000020FFF733BF10B50020FFF73DFF0120E5
:100BD000FFF72CFFBDE810400120FFF735BF2DE9DE
:100BE000F0411D4616460C460746FFF7DDFF780626
:100BF000000EFFF7C5FFFFF78CFF2046FFF7C0FF91
:100C0000FFF787FF0024761E06E0FFF7B9FFFFF726
:100C100080FF641CE4B26D1CB4422878F5DBFFF75A
:100C2000AFFFFFF776FF1E20FFF746FDFFF7CBFF74
:100C30000020BDE8F08110B50120FFF7BBFE4FF4A6
:100C4000E151BDE81040484200F01AB810B501204B
:100C5000FFF72EFEBDE810400020FFF731BE10B5B3
:100C60000020FFF725FEBDE810400120FFF728BE59
:100C70004A42884200DD0846904200DA104670473A
:100C800070B50C4606004FF4E15506D4FFF7E7FFB8
:100C900029463046FFF7ECFF08E0FFF7D7FF29466B
:100CA0003046FFF7E5FF002800DA404280B200F04E
:100CB0007DFD002C06DB00F01CF829462046FFF7DE
:100CC000D7FF08E000F00CF829462046FFF7D0FFD8
:100CD000002800DA4042BDE8704080B200F06CBDF0
:100CE00010B50020FFF7F4FDBDE810400120FFF72C
:100CF000F7BD10B50120FFF7EBFDBDE81040002067
:100D0000FFF7EEBD2DE9F74F8AB0834608A906A884
:100D1000CDE900016B4907AB02AA881F01F0CAFBAD
:100D200020B14FF0FF300DB0BDE8F08FBDF81800D6
:100D3000C0057CD5029803F01FF96FF01D073946F6
:100D400003F0DDFA5F4C8046223CE060039803F03C
:100D500013F9394603F0D3FA06462061049803F0EC
:100D60000BF9394603F0CBFA05466061059803F0AC
:100D700003F9394603F0C3FA0746A0610121404652
:100D800003F0BDFA294603F00FF905464FF040483D
:100D90004146304603F008F9394603F005F9294683
:100DA00002F0A4FF02F076FF01F06EF8DFF818A160
:100DB0004FF066394A46534602F092FC02F0FAF9C7
:100DC000CBF8000060690121054603F098FA8346DC
:100DD000294603F0E9F8054620694146074603F035
:100DE000E3F8394603F0E0F8294603F0B3F94FF091
:100DF0007E5102F07BFF02F04DFF05460E460121B9
:100E0000E06803F07CFA394603F0CEF8074658460E
:100E1000A16903F0C9F8394602F068FF02F03AFF11
:100E20002A46334601F078FA4A46534600E046E047
:100E300002F056FC02F0BEF90B990860A1698B46DE
:100E4000584603F0B1F8616907468846404603F00A
:100E5000ABF8216906460846019103F0A5F8E16860
:100E600005460846009103F09FF8294602F03EFF30
:100E7000314603F06FF9394603F06CF902F00AFFCE
:100E800004460D465946009803F08EF80646414642
:100E9000019803F089F8314602F028FF012103F0A0
:100EA0002EFA02F0F7FE22462B4601F035FA4A46AA
:100EB000534602F015FC02F07DF90C990860002001
:100EC00031E700003A00002066A64C40054806497C
:100ED0004068884202DC0549884202D90449002062
:100EE000087070471800002000008C4200008CC27F
:100EF0009000002070B50E4C608802F0DDFB0D4ABA
:100F00000D4B02F0EDFB05460E46A06802F0C2FE56
:100F10002A46334602F0D4FD02F04CF9A06042F2BA
:100F2000107001F021FF60880A30608070BD000001
:100F300018000020DC3DFCD9E8CC703F10B5FFF76D
:100F4000F9F9002800D0012010BD0000034800215D
:100F500041708170C1700171704700004001002034
:100F600010B5044600F006F82046BDE8104000F039
:100F700079B8000070B505460EA1FFF7DFFF0E4CF3
:100F8000012812D00DA12846FFF7D8FF01280FD164
:100F900000202070FFF784FC0020FFF779FCFFF7AA
:100FA000D5FFBDE8704000F0CBBA01202070F8E713
:100FB00070BD00004F4E0000400100204F4646002B
:100FC0002DE9F04716460F461D4681460122232192
:100FD000DDF8208000F046FA040041D002222321EF
:100FE000484600F03FFA01003AD0204600F04DFAA2
:100FF000387002222321484600F034FA04002FD032
:1010000003222321484600F02DFA010028D0204673
:1010100000F03BFA307003222321484600F022FA08
:1010200004001DD004222321484600F01BFA0100D1
:1010300016D0204600F029FA2870042223214846C1
:1010400000F010FA04000BD001220021484600F005
:1010500009FA010004D0204600F017FA88F80000D1
:10106000BDE8F087084908B50978012907D1064984
:10107000091D4B1E8A1E0091C91EFFF7A1FFBDE886
:10108000084000F003B800004001002010B500F057
:10109000F5F800F00BF800F073F800F053F800F0EA
:1010A00097F8BDE8104000F0B1B800002DE9F0411C
:1010B0001E4CE078012837D11D4800261E4F0168DC
:1010C0001C48DFF878801E4D814210DB286802F052
:1010D000E1FD3A46434602F09FF802F06BF84FF00C
:1010E0007E512860884200DD2960667114E06079D5
:1010F00020B94FF03F40286001206071286802F05D
:10110000C9FD3A46434602F087F802F053F82860DA
:10111000B0F5000F00DB2E600020FFF7C1FBBDE83B
:10112000F0410120FFF7B4BBBDE8F0814001002091
:10113000140000200000F0419A9999999999B93FBB
:1011400094000020094810B5407801280CD1094CC2
:101150000749206802F0CAFD07492060884203DD84
:10116000064902F0F7FF206010BD0000400100209A
:101170000000704198000020000034430000B44398
:101180000E4810B50079012816D10D4C206802F0E8
:1011900081FD0C4A0C4B02F093FC02F00BF80B495A
:1011A0002060884200D921600120FFF779FBBDE86B
:1011B00010400020FFF76CBB10BD00004001002074
:1011C000940000209A9999999999B93F000080BF9D
:1011D000094810B5807801280CD1094C07492068CE
:1011E00002F0B8FF07492060884203D9064902F09F
:1011F0007DFD206010BD0000400100200000704116
:1012000098000020000034C30000B4432DE9F047EB
:101210001548C1780079014316D1144C4FF40008E9
:1012200000252068124FDFF84C90134E40450DDB2F
:1012300002F030FD3A464B4602F042FC01F0BAFFA4
:101240002060B04200D32560BDE8F087B042FBD3F8
:1012500002F020FD3A464B4601F0DEFF01F0AAFF06
:1012600020604045EFDAEFE74001002094000020C5
:101270007B14AE47E17AB43F00008080094A1046F3
:10128000D37841788078012B0AD11279012A07D1CD
:101290000022054B012902D1012800D11A601A60F1
:1012A000704700004001002094000020FEE77047D6
:1012B0000249084302490860704700000000FA052F
:1012C0000CED00E02DE9F04102F03AFF194C1A4A0A
:1012D0001A49A064904202DD02F03CFF04E0184A83
:1012E000904202D902F002FDA06401460E46E06C75
:1012F00002F0FCFC1349E064884202DC1249884297
:1013000000D9E164216D606C02F04EFE0746E16C8D
:10131000206C02F049FE05463146E06B02F044FEC7
:10132000294602F0E3FC394602F0E0FCBDE8F0415A
:1013300002F006BE90000020000034430000B443D9
:10134000000034C30000FA430000FAC32DE9F04165
:1013500002F0F6FE234C0746606B804602F09AFCD2
:101360004FF06632204B02F0BBF905460E46384678
:1013700002F090FC4FF033321C4B02F0B1F92A46D8
:10138000334601F049FF01F015FF05460146E062D2
:10139000206B02F0ABFC16492063884202DC154941
:1013A000884200D921634146284602F0D3FEC4E9B1
:1013B0000D500146A06A02F0F7FD0746216B606AF6
:1013C00002F0F2FD06462946206A02F0EDFD3146A4
:1013D00002F08CFC394602F089FCBDE8F04102F0D5
:1013E000AFBD0000900000206666E63F3333D33F78
:1013F00000007A4400007AC470B502F0A1FE0C4CE3
:1014000005466061A16902F0A5FEC4E906500146E7
:10141000206902F0C9FD06462946E06802F0C4FDD5
:10142000314602F063FCBDE8704002F089BD000067
:1014300090000020044A0029D16901D0014300E056
:101440008143D1617047000000100240044A002926
:10145000916901D0014300E0814391617047000030
:101460000010024070B51546024600200E460446A4
:1014700008E031461046FEF753FF002804D0421C16
:10148000641CE4B2AC42F4D370BD1FB500220B461D
:10149000411C00920192029203925A1A6846FEF78A
:1014A000D0FF0A2200216846FEF702FF04B010BDFB
:1014B00038B50E480078012817D10D490D48FEF7C0
:1014C0004BFF69460B4800F017F80446FFF7DAF8BF
:1014D000012C08D0022C06D0032C04D0042C02D1FD
:1014E0000098FFF73DFD00F085FB38BD00000020AF
:1014F000A8010020B805002070B50C46064600F093
:1015000009F80546032223213046FFF7ABFF206090
:10151000284670BD70B504000FD002222321FFF7CA
:10152000A1FF0546032223212046FFF79BFF01462A
:101530002846FFF7AAFFC0B270BD002070BD0000B2
:101540000148FFF7A5B80000300100200CB50022CB
:10155000264800920192016841F4803101604FF405
:10156000A063016801F4003101910099491C0091C8
:10157000019911B900999942F3D10168890333D5D2
:10158000012101911A490A6842F010020A600A68B2
:1015900022F003020A600A6842F002020A6041680F
:1015A000416041684160416841F480614160416847
:1015B00021F47C114160416841F4E8114160016807
:1015C00041F08071016001688901FCD5416821F01A
:1015D00003014160416841F0020141604168C1F38B
:1015E00081010229FAD10CBD01920CBD001002400C
:1015F0000020024010B5502080F31188BFF34F8FB8
:10160000BFF36F8F01F0AEFC18B104494FF080506A
:101610000860002080F3118810BD000004ED00E098
:101620000F4810B5016841F00101016041680D4AA1
:101630001140416001680C4A11400160016821F4C9
:1016400080210160416821F4FE0141604FF41F01D7
:101650008160FFF77BFF05494FF00060086010BD17
:10166000001002400000FFF8FFFFF6FE08ED00E06A
:101670004FF4FA7400F04EFB204601F075FBF9E7D9
:10168000FFF71EF8642001F06FFBF9E7FFF732FC6B
:10169000FCE7FEE7FEE7FEE7FEE700F0D9FA64208C
:1016A00001F062FBF9E7FFF703FFFCE7FFF70EFC31
:1016B000FCE7FEE7FEE7FEE7FEE7FEE71CB54FF4BA
:1016C0004070FFF7F5FD07490120CDE90001002337
:1016D000802205A1074801F017FCBDE81C4001F07D
:1016E000A9BB00008C0000205461736B5F537461D0
:1016F00072740000FD19000810B501218C07204606
:1017000000F046F8012803D104490A68521C0A6017
:101710002046BDE81040012100F002B80001002081
:10172000C943018270470029018802D041F00101BC
:1017300001E021F00101018070470000014800F044
:1017400025B800000008004000210148FFF7EBBF6A
:101750000008004001210148FFF7E5BF00080040F4
:101760000146014800F0FAB80008004010B50446F0
:10177000024800F00BF8208010BD0000002C014052
:1017800081B2014800F0EAB8002C0140808C70471B
:1017900002460020138A92890B4202EA010202D01B
:1017A000002A00D00120704700F00CB80146014823
:1017B00000F0D0B8000400400146014800F0CCB869
:1017C00000040040F0B587B001210220FFF732FE8F
:1017D000684600F0B5F80024ADF816404FF4E1502B
:1017E000ADF81400ADF812404720144FADF81000CA
:1017F0008DF8184004A9384600F0B2F86026ADF81C
:1018000000600125ADF80840ADF80250ADF8064083
:101810006946384600F014F8ADF80060ADF80840AD
:10182000ADF80250ADF806406946384600F048F879
:1018300001213846FFF777FF07B0F0BD00040040F4
:1018400030B5028C22F001020284028C8388048B62
:1018500022F0020224F073050C882C430D891543F5
:101860004A882A43114DA8420BD0114DA84208D0F6
:10187000104DA84205D0104DA84202D00F4DA842ED
:101880000DD122F008054A8923F440732A4322F03F
:1018900004058A882A438D891D43CB892B43838085
:1018A0000483C9888186028430BD0000002C014079
:1018B0000034014000400140004401400048014024
:1018C00070B5028C22F010020284028C8388048B93
:1018D0000D8824F4E6464FF6FF7404EA05253543E7
:1018E0000E8922F0200204EA061616434A8804EA0A
:1018F00002123243104EB04202D0104EB04215D107
:1019000022F080064A8923F4406304EA021232433B
:1019100022F040068A8804EA021232438E8904EAE1
:1019200086061E43CB8904EA830333438380058301
:10193000C9880187028470BD002C01400034014039
:101940000021018041808180C180018141818181AC
:10195000C1817047818670470187704781847047D5
:1019600030B502881B4C1C4DA0420DD0A8420BD0B4
:10197000B0F1804F08D0194B984205D0184B9842CF
:1019800002D0184B984203D122F070034A881A43C0
:10199000154B984206D0154B984203D022F4407361
:1019A000CA881A4302808A8882850A880285A042F2
:1019B0000AD0A84208D00E4A904205D00D4A904263
:1019C00002D00D4A904201D1097A0186012181821B
:1019D00030BD0000002C01400034014000040040F4
:1019E00000080040000C00400010004000140040BF
:1019F0000040014000440140004801401CB501F096
:101A00006DF94E480124CDE90040002380224CA10D
:101A10004D4801F079FA49480023001DCDE9004006
:101A200080224AA14B4801F06FFA44480023083055
:101A3000CDE90040802248A1494801F065FA3F48BD
:101A400000230C30CDE90040802246A1474801F038
:101A50005BFA3A4800231030CDE90040802244A1CF
:101A6000454801F051FA354800231430CDE90040D3
:101A7000802242A1434801F047FA30480023183041
:101A8000CDE90040802240A1414801F03DFA2B48B9
:101A900000231C30CDE9004080223EA13F4801F0E8
:101AA00033FA264800232030CDE9004080223CA1B3
:101AB0003D4801F029FA214800232430CDE90040B7
:101AC00080223AA13B4801F01FFA1C48002328302D
:101AD000CDE90040802238A1394801F015FA1748B5
:101AE00000232C30CDE90040802236A1374801F098
:101AF0000BFA124800233030CDE90040802234A197
:101B0000354801F001FA0D4800233430CDE900409A
:101B1000802232A1334801F0F7F908480023383019
:101B2000CDE90040802230A1314801F0EDF90020DC
:101B300001F032F9BDE81C4001F0DEB85000002091
:101B40005441534B31000000711600085441534B6F
:101B5000320000009B1600085441534B3300000034
:101B6000A71600085441534B34000000AD1600087E
:101B70005441534B35000000B31600085441534BF9
:101B800036000000B51600085441534B37000000E2
:101B9000B71600085441534B38000000B91600082E
:101BA0005441534B39000000BB1600085441534BBD
:101BB00031300000811600085441534B3131000090
:101BC0008D1600085441534B313200009316000823
:101BD0005441534B31330000951600085441534B88
:101BE00031340000971600085441534B3135000042
:101BF000991600084FF480610148FEF7D9BB000038
:101C0000A801002070B50F4D40F22554214628460A
:101C100000F05DF8012814D10B4B5888B0F5806FA7
:101C200001D3002058800748001D008807495A88C2
:101C30008854521C5A8021462846BDE8704000F066
:101C400039B870BD0044004000000020A801002009
:101C500008490022488828B18B88984204D088809F
:101C6000022005E00A707047034B1A544A80012095
:101C70000870704700000020A801002010B5064C35
:101C80000146204600F042F88021204600F018F876
:101C90000028F9D010BD00000044004070B5054692
:101CA000002403E0FFF7EAFF641CA4B2285D0028CB
:101CB000F8D170BD0A0A01219140C94301807047E3
:101CC0000246002012880A4200D00120704770B5F9
:101CD00001F01F0501260024C1F3421306FA05F2A4
:101CE000012B0FD0022B0FD0838A4FEA11210088DD
:101CF000134206FA01F600EA060001D000B1012401
:101D0000204670BD8389F0E7038AEEE7C1F308013E
:101D10008180704710B500F0E1FF00F023F800F07B
:101D2000EBFFBDE8104000F001B8000010B50A4C10
:101D3000207801280FD1FFF701FD01F0BDFC074A13
:101D4000074B01F0CDFC01F035FA60600020FFF791
:101D500007FD0020207010BD100000209CC420B0A2
:101D60007268913F08B50020FEF78AFE0120FEF759
:101D700087FE00204FF49671009000BF401C009039
:101D80008842FADBBDE808400020FEF779BEFEE796
:101D9000490050EAC12018BF04204A0D18BF40F086
:101DA000010040F2FF72B2EB515F08BF40F0020049
:101DB000012808BF052070472DE9F0414F1E00EBB8
:101DC000C7010446D1E9000115461E4637F0060258
:101DD0000DD02A46334601F083FC7F1E04EBC70377
:101DE000D3E9002301F018FA37F00602F1D1022FEF
:101DF00025D0042F13D0062F18BFBDE8F0812A4646
:101E0000334601F06DFCD4E90A2301F005FA2A46B5
:101E1000334601F065FCD4E9082301F0FDF92A46B8
:101E2000334601F05DFCD4E9062301F0F5F92A46BA
:101E3000334601F055FCD4E9042301F0EDF92A46BC
:101E4000334601F04DFCD4E9022301F0E5F92A46BE
:101E5000334601F045FCD4E90023BDE8F04101F030
:101E6000DBB9012202F01DBA01F0D6B900221346F7
:101E70001046114601F08CBA024A0020110702F008
:101E800010BA000001FDFFFF2DE9F04D8D4F21F04C
:101E9000004A86B005460C46BA452ADBAAEB070085
:101EA00028430AD08848824501DC1AD1CDB106B05A
:101EB0002846BDE8F04DFFF7D4BF844A844B28463E
:101EC00001F00EFC07460E46824A834B2846214607
:101ED00001F006FC06B03A463346BDE8F04D01F08D
:101EE0009BB90120FEF7EDFA06B0BDE8F04DFFF713
:101EF000BDBF7A48824542DABAF1795F0BDA2846EB
:101F0000FFF746FF042808BFFFF7B6FF284606B0D4
:101F10002146BDE8F08D2A460B46104601F0E0FB55
:101F2000834602466E480E460B4606217844FFF76C
:101F300043FF5A46334601F0D3FB804669488A4640
:101F40005A46334604217844FFF736FF5A46334653
:101F500001F0C6FB00223B4601F05EF902460B464B
:101F60004046514601F014FA2A46234601F0B8FBD8
:101F700006B02A462346BDE8F04D01F04DB928468B
:101F800024F0004100223D463B4601F0A7FC4FF003
:101F9000FF3202F086F90646024653480F460B46CA
:101FA00006217844FFF708FF32463B4601F098FBD4
:101FB000CDE900014D4832463B4604217844FFF705
:101FC000FBFE32463B4601F08BFB00222B4601F024
:101FD00023F9834602913046394600F013FE8046CD
:101FE00043480D46504517DCDDE900015A46029B87
:101FF00001F0CEF942462B4601F072FB42462B46D9
:1020000001F00AF9012202F04CF9304A304B01F09C
:1020100057FD304A304B4CE04FF0000A52460B4619
:10202000404601F0F9F8CDE9031052462B46104620
:10203000194601F055FB32463B4601F04FFCDDE905
:10204000033201F0A5F906460F46DDE900015A46C4
:10205000029B01F09DF983460091012230463946EA
:1020600002F01FF9194A1A4B01F038FC06460F46D8
:1020700001224046294602F014F95A46009B01F01D
:102080002FFB32463B4601F01BFD06460F46012260
:102090005046294602F005F90E4DDFF858802A46D1
:1020A000434601F01BFC32463B4601F017FC2A4632
:1020B000434601F013FC002CD8BF81F0004106B06C
:1020C000BDE8F08D0000F03F0000F07F075C1433A6
:1020D00026A6913C182D4454FB21F93F0000E03F17
:1020E000A0240000B62400002A24000040240000A0
:1020F0003333EF3FFB21E93F2DE9F84F04460D460E
:1021000021F0004000917349814211DC72498842FC
:1021100001DC06D12CB120462946BDE8F84FFFF777
:10212000A0BE6E48002DCCBF6D496E49BDE8F88F4A
:102130006D49814211DD6D498142D8BF4FF0FF36B4
:102140006DDD20462946FFF723FE042808BFFFF770
:1021500093FE20462946BDE8F88F6549654F25F076
:102160000045814233DD6449814219DD0026324653
:102170004FF080432046294601F04EF880468A46BB
:1021800001222046294602F08CF800223B4601F04D
:1021900097FC4246534601F0FBF804460D463EE0EC
:1021A00001260022BA463B462046294601F034F873
:1021B00080460F46002253462046294601F080FC07
:1021C00042463B4601F0E4F804460D4627E04B4901
:1021D00081421BDDDFF828A102260022534620465B
:1021E000294601F07DFA00223B4601F015F88046B1
:1021F0000F46002253462046294601F061FC424624
:102200003B4601F0C5F804460D4608E00326224689
:102210002B4600203B4901F0BBF804460D46224600
:102220002B461046194601F05BFA8B468246024661
:102230000B4601F055FA07460246334888460B46DE
:1022400006217844FFF7B8FD52465B4601F048FA94
:1022500082462E488B463A46434605217844FFF78E
:10226000ABFD3A46434601F03BFA02460B46002ED0
:10227000504659460CDA00F0CFFF22462B4601F0BB
:102280002FFA01B022462B46BDE8F04F01F026BBE5
:1022900000F0C2FF22462B4601F022FA1C4A7A4483
:1022A00002EBC603D3E9002301F00AFC22462B46C9
:1022B00001F006FC174A7A4402EBC603D3E9002377
:1022C00001F00CFB009A002AB8BF81F00041BDE884
:1022D000F88F0000000010440000F07F182D4454D7
:1022E000FB21F93FFB21F9BF0000DC3F0000203E4D
:1022F0000000F33F0000F03F0000E63F0080034095
:102300000000F83F0000F0BF422200000022000061
:102310009E210000662100002DE9F04D9446CCF18D
:10232000000423F000464CEA0404594F46EAD474F2
:102330009A46884621F00042BC4206D8454240EA0F
:10234000050442EAD474BC4204D9BDE8F04D6246AB
:10235000FFF78ABDAAF14055A5F17F6555EA0C0447
:102360000BD0022404EAAA744A4DDFF82CE144EAB7
:10237000D87452EA000B04D00CE0BDE8F04DFFF732
:10238000BBBE002C14BF012CBDE8F08D022C30D058
:10239000032C32D056EA0C0B0AD0BE4220D1BA42EE
:1023A00009D126F0804622F080423346114617E0DC
:1023B00000291ADB25E0DFF8E4B0FB44002C04BF61
:1023C000DBE90001BDE8F08D012C02BFDBE9000173
:1023D00081F00041BDE8F08D022C0AD0032C0CD016
:1023E000BA4212D1B8F1000F0BDA2A482C49BDE8E5
:1023F000F08D28462B49BDE8F08D28467146BDE892
:10240000F08D24482849BDE8F08D921B12153C2A16
:10241000C4BF204F244E10DCBAF1000FBEBF12F132
:102420003C0F00273E4608DB624600F0B1FF21F07A
:102430000041FFF761FE07460E4694B1012C08BF2C
:1024400086F000460DD0194A194B022C3846314609
:1024500015D001F035FB2A46BDE8F04D114B01F0D7
:102460002FBB002213463846314601F0E9F804BF7D
:102470000220FEF726F838463146BDE8F08D01F01F
:102480001FFB2A46BDE8F04D064B01F027BA0000BD
:102490000000F07F182D4454FB2109C0FA200000F1
:1024A000FB21F9BFFB210940FB21F93F075C1433F5
:1024B00026A6A13C2DE9FF4F89B01646DDE916524C
:1024C0000024DFF854810F4681462C80A24698F8FC
:1024D0000E00694600F0AEF84FF0FF3B18B15846C9
:1024E0000DB0BDE8F08FB8F80A0010F0140F4CD012
:1024F000BDF800109DF8022049BA090441EA022CF7
:102500009DF803104CEA010CC6F800C0BDF8041099
:102510009DF8062049BA090441EA02239DF80710F4
:102520000B437360BDF808109DF80A2049BA0904EE
:1025300041EA02219DF80B201B141143B160BDF844
:102540000C209DF80E4052BA120442EA04229DF873
:102550000F4009142243F2604FEA2C4612147643CE
:10256000494303FB036302FB021119441024A1F148
:102570007061B1F1007F04D900F0A4F8A5F800A0C3
:10258000ADE7298841F48071298041066A460ED55D
:102590001119A41D0B885BBA3B804B885BBA7B800A
:1025A000898849BAB980298841F00801298010F446
:1025B000C07F11D01119A41D0B885BBAA9F8003097
:1025C0004B885BBAA9F80230898849BAA9F8041087
:1025D000298841F070012980800718D01444E078E0
:1025E00000F0C00500F03F016078C00707D0C808C0
:1025F00001F00701D8F80020491C02B1904760782B
:10260000000704D5D8F8041009B1A80988470C9828
:10261000FEF742F8002063E7A805002010B5FEF79A
:1026200035F9FFF7C1F8FEF706FBFFF747F8002082
:1026300010BD00002DE9F843214E0546174696F8D7
:10264000240089464FF0FF3890B3B07A80B33068E9
:102650006B460222017B70680078FEF71FFA38BBD8
:10266000BDF8000044BAAC4202D2002038701FE02E
:1026700070684188B4EB510F11D9316800786B460E
:10268000C97C0122FEF70AFA90B99DF80000C00645
:1026900005D500F017F86FF00100BDE8F883306849
:1026A000EAB24B46417B70680078FEF7F7F908B153
:1026B0004046F2E7B4FBF5F0401E38700020ECE72E
:1026C00004010020F8B5554D4FF0FF36A87A0028D8
:1026D0007ED000248DF8004028686B460122417CA2
:1026E00068680078FEF77BFA002871D128686B468D
:1026F0000122417968680078FEF771FA002867D1F5
:1027000028686B460122017968680078FEF767FA4D
:1027100000285DD195F82400E0B30C208DF800006E
:1027200028686B460122017968680078FEF757FA3D
:10273000002871D13220FDF7B5FFC0208DF80000D0
:10274000A87AC00702D0E0208DF8000028686B4608
:102750000122017968680078FEF741FA00285BD110
:10276000687C18B102208DF8000001E08DF800406F
:1027700028686B460122417C68680078FEF72FFAD2
:1027800030BB8DF8004028686B46012241796868AB
:1027900000783DE0FFE704208DF8000028686B46D4
:1027A0000122017968680078FEF719FA80B9A87CDF
:1027B00088B9A87AC0070ED060208DF8000028687C
:1027C0006B460122017968680078FEF708FA00E09C
:1027D00022E008BB01E04020EFE73220FDF762FF76
:1027E000687C18B101208DF8000001E08DF80040F0
:1027F00028686B460122417C68680078FEF7EFF993
:1028000050B92868054B0122417968681033007877
:10281000FEF7E5F9002800D03046F8BD040100209D
:102820002DE9F0411E4D0F460446EE682868001D54
:1028300000F00EFA38B9286890F82C100120884072
:10284000296981432961601C15D1A7B115492A68FE
:10285000486890602B688268DA602A688368121D75
:102860005A602A68121D8260286841610868401C0D
:102870000860BDE8F08128683444B44244602968A7
:1028800005D2E86BBDE8F041091D00F002BAA86B63
:10289000091D00F0FEF9A86A8442EAD2AC62E8E7BA
:1028A000480100206C0A00202DE9F041044600F0A8
:1028B00015FA364EB068401CB0603068344F10B125
:1028C000706940B32DE03460B068012829D100253B
:1028D00005EB850007EB800000F0CDF96D1C052DA0
:1028E000F6D32B48643000F0C6F92948783000F060
:1028F000C2F927488C3000F0BEF92548A03000F01E
:10290000BAF92348B43000F0B6F921486430B06316
:102910001430F06305E03068E16AC06A884200D88C
:102920003460706A0121401C7062E06A3269814043
:102930001143316100EB800007EB80004068A0602C
:102940008168E1608268211D51608160E06A00EB6E
:10295000800007EB8001616157F82010491C47F89F
:10296000201000F0C9F9706900280CD03068E16AC5
:10297000C06A884207D207494FF080500860BFF311
:102980004F8FBFF36F8FBDE8F0810000480100203A
:10299000B809002004ED00E010B50446006B00F01B
:1029A000B5F92046BDE8104000F0B0B90E484FF42C
:1029B0005051420706D0C01D0B4920F00700411AB4
:1029C000C1F55051094B00220144C3E90002083906
:1029D000143B21F0070119604A600A600A1AC0E935
:1029E00000129A605A607047800A00209C01002003
:1029F000134E144DA6F1A0074FF08058DFF8489011
:102A000011E000F06BF9F068C468201D00F020F9B7
:102A1000A868401EA8606868401E686000F06CF9F5
:102A20002046FFF7B9FF68680028EAD13868012816
:102A3000F9D9C9F80080BFF34F8FBFF36F8FF2E76A
:102A4000580A00204801002004ED00E02DE9F0477D
:102A50000D46DDE909841746824691009946089E95
:102A6000A522206BFDF79CFC6FF00301206B01EBAE
:102A70008701084420F0070765B100202218295C6F
:102A800082F83410295C11B1401C1028F6D30020C4
:102A900084F84300052E00D30426201DE66200F0D2
:102AA000F5F804F1180000F0F1F82461C6F1050012
:102AB0006462A0614A465146384600F091F82060B1
:102AC000B8F1000F01D0C8F80040BDE8F087000061
:102AD00030B5114900E011460A688242FBD34B68C9
:102AE0005C18844203D14068184448600846436833
:102AF0001C18944209D1084C143C2468A24209D005
:102B000052681A4442600A6812680260814200D02A
:102B1000086030BD0460F9E79C0100200548816B26
:102B2000096821B1816BC9680968816270474FF0FB
:102B3000FF31FAE748010020502080F31188BFF3ED
:102B40004F8FBFF36F8FFEE770B50446002500F08E
:102B500099F9224E306808B9FFF728FFCCB304F08A
:102B60000700C0F11000C1438C4232D8211800295F
:102B70002FDD706881422CD8184A14321046046840
:102B800001E0224604466068884202D2206800289C
:102B9000F7D1306884421CD01568206810606068E6
:102BA0000835421A102A04D9601842606160FFF7A4
:102BB0008FFF61687068401A7060B268904200D2FE
:102BC000B06041F00040606000202060F068401C70
:102BD000F06000F04FFA284670BD00008801002028
:102BE00010B5031F4FF080741C601B1F21F0010102
:102BF0001960191F024B0B60143940380A6010BD70
:102C0000392B00082DE9F04106460F4600F072FE10
:102C1000041E0D4618BF0120284320F00040C0F1DB
:102C20007F6000F1E040C00F0ED0301C18BF0120C3
:102C3000384320F00040C0F17F6000F1E040C00F59
:102C400004BF0120FDF73DFC20462946BDE8F08188
:102C5000D0E9013201699A60D0E901235A604A68DB
:102C6000824201D182684A60002202610868401EE7
:102C700008600868704700F108014FF0FF32C0E9B2
:102C80000112C160016100210160704700210161F2
:102C9000704730B50C68621C02D000F1080202E0F7
:102CA000026904E01A4653681D68A542FAD95368C0
:102CB0004B6099608A60516008610168491C01603D
:102CC00030BD42684A6093688B6093685960916038
:102CD00008610168491C016070470000502080F3C2
:102CE0001188BFF34F8FBFF36F8F02480168491CF3
:102CF00001607047A401002003490868401E086075
:102D000001D180F311887047A401002070B500281C
:102D10001BD0A0F108046068002816DA2168002999
:102D200013D120F00040606000F0ACF8074D6068FF
:102D30006968084468602046FFF7CAFE2869401C9D
:102D40002861BDE8704000F095B970BD8801002091
:102D50004FF0E020002101618161024941610721BA
:102D6000016170473F19010010B5020009D000F061
:102D700089F800211046FFF753FD00F07BF9002889
:102D800007D104494FF080500860BFF34F8FBFF365
:102D90006F8F10BD04ED00E070B50446FFF79EFF95
:102DA000214D04B92C68201DFFF752FF58B9E06A85
:102DB0001E4A00EB800152F8211021B90121814007
:102DC000286988432861A06A18B104F11800FFF748
:102DD0003FFF686A401C68622868844208D1134833
:102DE000211DA030FFF76DFF6868401C686004E09B
:102DF000A868401EA860FFF791FEFFF77DFF2868D6
:102E0000844202D02046FFF7C7FD686900280AD037
:102E10002868844207D106494FF080500860BFF30C
:102E20004F8FBFF36F8F70BD48010020B80900209D
:102E300004ED00E07CB50F480025CDE900502B469D
:102E400080220DA10E4800F05FF80A4C2C3C0128AE
:102E50000ED1502080F31188BFF34F8FBFF36F8FD7
:102E60004FF0FF30A06201206061E56000F034F8AF
:102E7000206B7CBD7401002049444C4500000000DB
:102E8000F12900080248416B491C4163704700006A
:102E9000480100200E4A506B10B10120D0617047EC
:102EA0000020D06110690B49B0FA80F0C0F11F001A
:102EB00000EB800001EB800000F1080341684968E5
:102EC0004160994201D149684160C868106070470B
:102ED00048010020B8090020094810B5016841F4F4
:102EE00070010160016841F070410160FFF730FF3F
:102EF000044900200860FDF781F9002010BD0000A2
:102F000020ED00E0A40100202DE9FF5F8346DDE90C
:102F10000E87994616468A469000FFF715FE050073
:102F20001DD04C20FFF710FE040015D04C21FDF7FA
:102F300061FA25630021CDE90241CDE900874B46C6
:102F4000324651465846FFF781FD2046FFF7ACFC5C
:102F5000012004B0BDE8F09F2846FFF7D7FE4FF0F0
:102F6000FF30F6E72DE9F041404E0025706B28B1A7
:102F7000B069401CB0612846BDE8F081F468641C6B
:102F8000F46008D1B06BF16BB163F063306A401C40
:102F90003062FFF7C3FDB06ADFF8D4E084420BD3A0
:102FA0004FF0000CB06B0068A0B1B06BC068C16896
:102FB0004868844211D2B0623068C06A00EB800079
:102FC0005EF82000012800D90125F0690028D2D040
:102FD0000125D0E74FF0FF30EDE7D1E90232486933
:102FE0009A60D1E902235A6043680A1D934201D1D5
:102FF000CB684360C1F814C003685B1E0360886A35
:1030000088B1D1E907379F60D1E907377B6047680E
:1030100001F118039F4201D10B6A4360C1F828C037
:1030200003685B1E0360C86A0123376983403B4322
:10303000336100EB80000EEB80004068886083689D
:10304000CB6083685A608260C86A00EB80000EEB38
:1030500080024A615EF82020521C4EF82020C86A87
:103060003168C96A88429DD901259BE74801002043
:10307000B80900202DE9F0470024A146FFF72EFEF5
:103080003E4D686B401E6863686B002871D1A8686C
:10309000DFF8ECC000264FF00108E0BB69E0DCF887
:1030A0000C00C468D4E90721A06A9160D4E9071232
:1030B0005160426804F118018A4201D1216A4160DD
:1030C000A6620168491E0160D4E90221606991602D
:1030D000D4E9021251604268211D8A4201D1E2689E
:1030E000426066610268521E0260E06A2F694346D0
:1030F00008FA00F23A432A61214A00EB80008C3A38
:1031000002EB80004068A0608768E76087687960AC
:103110008160E06A00E00FE000EB800002EB8001DC
:10312000616152F82010491C42F82010E06A2968B9
:10313000C96A884200D3EB61DCF800000028AED1F8
:103140000CB1FFF7EBFCAC693CB14746FFF70AFF57
:1031500000B1EF61641EF9D1AE61E86948B1094977
:103160004FF080504FF001090860BFF34F8FBFF35D
:103170006F8FFFF7C1FD4846BDE8F087480100208A
:10318000440A002004ED00E010B500290AD00878B8
:10319000002807D005487844FDF72CFA002801D014
:1031A000002010BD0248784410BD00004A13000002
:1031B0004213000021F00042A2F16052B2F5801FDC
:1031C00001F0004328BFD2F17F6C0BD95FEA001CED
:1031D00043EAC20242EB507018BF704728BF20F08C
:1031E00001007047B2F5801FBCBF184670474FEA18
:1031F000410C1CF5001F02D2084600F09CBF70B5C0
:1032000000F018FB00000089FFF7F6BF4FF0004008
:10321000A0F580007047000010B591EA030F48BF89
:1032200083F0004300F15484841A71EB030C05D23F
:10323000121943EB0C03001B61EB0C01DFF824E1D6
:103240004FEA1154A4EB135C1EEA430F18BF9EEA29
:10325000445F73D023EA0E03DCF1200E21EA04510F
:1032600043F4801332D322FA0CFE10EB0E0023FA43
:103270000CFE41EB0E01CCF1200E03FA0EFE10EB1A
:103280000E0051F10001B1F5801FCCF1200E32D2B9
:1032900001EB045112FA0EF2BDE8104058BF70471E
:1032A000401C38BF5FEA420218BF7047002814BFB5
:1032B00020F0010041F100014FEA410313F5001F26
:1032C00038BF7047A1F1C04100F002BB012A43EBB7
:1032D0000302ACF1200CDCF11F0E32BF4FF0000EE8
:1032E00023FA0CF310EB030041EB0451B4EB115F34
:1032F000D0D0A1EB045101F5801149085FEA3000FC
:1033000001EB04510ED350F1000038BF12FA0EFE4B
:1033100008D1BDE81040C9E7401C38BF5FEA42024F
:10332000CAD1C3E7BDE810404FEA410313F5001FBF
:1033300038BF7047A1F1C04100F0CABA9EEA445FAD
:1033400008D011EA5E0FBDE8104004BF01F0004153
:1033500000207047BDE8104070B500F06BFA00BF68
:1033600064FBBE3E0000E0FF02494FF0000000F0A9
:1033700066BF00BF0000F87F491058BFC1F140414F
:103380005B1058BFC3F140438B42EFF3008070479E
:103390002DE9C04130B4DFF8A0C23CEA111418BFD7
:1033A0003CEA131400F0EC8081EA03051CEA1114D6
:1033B00044EAD57418BF1CEA131500F0C780A4EBCB
:1033C00005044FF0004545EAC12145EAC32341EA1F
:1033D000505143EA525304F17F74994204F500348A
:1033E0004FEAC0204FEAC22208BF904200F09C8002
:1033F0004FEA13650FF24016765D4FEA134506FB60
:1034000005F7C7F1807706FB07F74FEAD737A7FB29
:1034100003687642C8F58038A7FB06CE38BFA8F10E
:10342000010807FB08E64FF0000EA6FB028CE6FB46
:1034300003CEDCF1000CCEF1004E38BFAEF1010E30
:10344000A6FB0C584FF000074FF00005E6FB0E8777
:10345000A1FB08C6A0FB07CE16EB0E0645F1000542
:10346000E1FB076515F1E04E7EBFA4F580345FEA0D
:1034700046066D4116F1800745F100054FEA172712
:103480004FEA066647EA0567A6F1DE46B6F1805FB9
:103490004FEA15251FD9384624F0010C05EBC471FD
:1034A000BCF1FE6F01EB0C1102D8F0BCBDE800814D
:1034B00024425CBF01F5801E9EEAC47F02D4F0BCAA
:1034C000BDE80081244238D4F0BCA1F1C041BDE880
:1034D000004100F0FDB94FEAD22242EA43524FEADE
:1034E000D323A7FB02864FEAD02040EA415007FBD6
:1034F00003661EEA0E0F4FEAD12105FB026658BF94
:10350000A6EB0056B6EB00564FEA520E4EEAC37ECB
:1035100018EB0E0E56EB530EBDD518EB02085E41AC
:103520007F1C55F10005B6E74FF480154FF00007FA
:103530004FF000064FF00008ADE7F0BC4FF0000080
:1035400001F1C04101F00041BDE8008111EA0C1F0A
:103550000CEA131500D00CE013EA0C1F00F02580D4
:103560004FF00000F0BC81EA030101F00041BDE82A
:103570000081F0BCBDE8004181EA030100F0A8B978
:10358000F0BCBDE8004170B500F054F9097EFC3E86
:1035900000F007B881EA03014FF0000001F000419C
:1035A000704781EA030100F093B9F0BCBDE8004127
:1035B0004FF0000021497047FFFDFBF9F7F5F4F2E9
:1035C000F0EEEDEBE9E8E6E4E3E1E0DEDDDBDAD8BE
:1035D000D7D5D4D3D1D0CFCDCCCBCAC8C7C6C5C41C
:1035E000C2C1C0BFBEBDBCBBBAB9B8B7B6B5B4B333
:1035F000B2B1B0AFAEADACABAAA9A8A8A7A6A5A41E
:10360000A3A3A2A1A09F9F9E9D9C9C9B9A999998E1
:103610009797969595949393929191908F8F8E8E84
:103620008D8C8C8B8B8A8989888887878685858411
:1036300084838382828181800000FF070000F87FFD
:1036400051EA030C17D41CF5801F58BFBCF5801F2E
:1036500000F10680994218BF704708BF904270473A
:1036600007D711F5801F58BF13F5801F19D4994251
:103670007047894270471CF5801F08D5BCF5801F34
:10368000F7D58B4218BF704708BF824270474FF48E
:10369000001C1CEB410F38BF1CEB430F01D28B42C7
:1036A000704770B500F0C6F8922449004FF0005101
:1036B0004FF08053FFF760BEB0FA80F310FA03F1C9
:1036C0000AD0C3F11D0303F580634FEA41504FEA6E
:1036D000035202EBD12170474FF000007047000009
:1036E000DFF848C170B51CEA111E1EBF1CEA131595
:1036F0009EEA0C0F95EA0C0F00F06F8081EA03043C
:1037000023EA4C134EEAD47E21EA4C1141F4801195
:1037100043F48013AE44A1FB024CA0FB0365AEF161
:103720007F7E361955EB0C05A1FB034C4CF10003D1
:10373000A0FB021C16EB0C06654153F10003094285
:1037400018BF46F0010613F4007F0BD14FEA033196
:103750004FEA0530340341EA155140EA16506FF044
:1037600003020AE04FEAC3214FEAC520F40241EA0E
:10377000555140EA56506FF0020202EB2E4201EB27
:10378000025585EACE710AD05FEA440C18BF24F0D6
:10379000004450F1000041F1000120EAD47040F2F1
:1037A000FE7C624500D270BDA84214BF4FF0804439
:1037B0004FF04044002E08BF0024BEF1806FA8BF28
:1037C000A1F1C041BDE8704080F282804FF000005E
:1037D00001F1C04101F0004170479EEA0C0F0CEA74
:1037E000131518BF95EA0C0F06D04FF0000081EAC0
:1037F000030E0EF0004170BD00F01CF88900013E80
:1038000000F007B800F009B84FEA430C5FEA5C5CCF
:1038100008D081EA030100F05BB84FEA410C5FEA8F
:103820005C5CF6D14FF00000014970470000FF07D3
:103830000000F87F0EF1020E2EF0030E5EF8046B0E
:10384000364205D4012A43EB030515F5001F12D8B3
:10385000012841EB010C1CF5001F0CD80ED14FEADA
:10386000D17C15F5001F0CEB4C0C0CF1020C08BFC1
:103870004CEBD37C04E04FF0080C01E04FEAD37C22
:103880000CEB4C0526FA05F606F00706B6F1040C1B
:1038900006D20EEB860CBDE870404CF0010C604780
:1038A000DFE80CF0090B02024FF000414FF000007E
:1038B000A1F5002170BD19461046012851EB010405
:1038C00018BFD4F5001484BF002001F0004170BD82
:1038D0000808A0F500114FEA3101704791EA030F83
:1038E00010B581F000413FF59FAC83F0004300F03C
:1038F000EFB800002DE9F04101F5801CBCF5001F78
:10390000C0F2C3804FEA115C21EA0C510CF1FD0CAE
:1039100041F480115FEA5C0C0CF5C07C01D34000DF
:1039200049413DA4890241EA905187028E0E0A0C5A
:10393000A45D04FB04F602FB06F6C6F14046A4FBB8
:103940000662F60D46EA422606FB06F4A4FB0123B6
:103950005242C3F1404338BF5B1EA6FB0242002423
:10396000E6FB0324D20B42EA4446A6FB0623A1FB56
:1039700002E2A3FB07E4A4184FF0000252F1000298
:10398000E3FB01426442C2F1404E38BFAEF1010E8A
:10399000A6FB04234FF00002E6FB0E32A2FB034617
:1039A0004FF00004B61954F10004E2FB0264A1FBDD
:1039B00006E6A4FB07E816EB08064FF0000858F1EE
:1039C0000008E4FB01687642C8F1405838BFA8F10E
:1039D0000108A2FB06E4A3FB08E52D194FF0000443
:1039E00054F10004E2FB0854A1FB05E6A7FB04E840
:1039F00018EB06084FF0000656F10006E1FB0486BE
:103A000018F1200556F10006A809A8F11B08B10914
:103A100008F03F08B8F10A0F40EA86601CD901EBB4
:103A20000C51BDE8F08100BFFCF5EEE8E2DDD8D333
:103A3000CFCBC7C3C0BDB9B6B4B1AEACA9A7A5A31F
:103A4000A19F9D9B9A9896959392908F8D8C8B8930
:103A50008887868584838281A0FB006800FB01F251
:103A600008EB4208B8EB872807D5341858EB010457
:103A7000D5D5401C51F10001D1E7341A78EB01048F
:103A8000CDD4401E71F10001C9E75FEA4C0C5FEA3A
:103A90009C5C0DD105D34FF0000001F00041BDE862
:103AA000F081BDE8F04170B5FFF7C4FE6DDBFFBEED
:103AB000BDE8F0414FF00000004970470000F87F7A
:103AC00010B591EA030F48BF83F000433FF5ACAB5C
:103AD000841A71EB030C07D212198CF0004C43EBE3
:103AE0000C03001B61EB0C01DFF8A4E14FEA115459
:103AF000A4EB135C1EEA430F18BF9EEA445F00F07C
:103B0000B08023EA6E03524221EA0451C3EB6E03F4
:103B100038BF5B1EDCF1200E25D322FA0CFE10EB21
:103B20000E0043FA0CFE41EB0E01CCF1200E03FA1D
:103B30000EFE10EB0E0051F10001CCF1200E29D445
:103B400012FA0EF201EB0451BDE8104058BF704765
:103B5000401C1CBFB2F1004F704700280CBF491C2D
:103B600020F00100704712EB020E43EB030218BF76
:103B70004FF0010E4EEA4202ACF1200CDCF11E0EB9
:103B800054D943FA0CFE10EB0E0051F1FF31CCF189
:103B90001E0ED5D50EF1010E12FA0EFE404141EB7C
:103BA000010101EB445C5FEA5C5C10D910EBDE7054
:103BB00001EB045138BFBEF1004FBDE8104018BF03
:103BC000704700280CBF491C20F00100704730D21C
:103BD0004FEAD42C11F5001124F400641BD0B1FA83
:103BE00081F20B3AA41AA41ED2F12003914030FABC
:103BF00003F31943904001EBCC71002C01EB04510D
:103C0000BDE81040A8BF704701F1C0414FF000006F
:103C100001F000417047B0FA80F310FA03F100D1CF
:103C200010BDE41A173C4805C90AE4E701EB04514A
:103C300010BD491001EB0451BDE810404FEA3000BF
:103C400002E04FF0000170474A0008BF0042F8D080
:103C5000B2F5001F28BF704701F000414FF000008F
:103C600070479EEA445F07D011EA5E0FBDE810403E
:103C700004BF002100207047BDE8104070B5FFF779
:103C8000D9FD00BF40DFF63E83F00041104670478B
:103C90000000E0FF43004FEAD30C4FEA3C0C4340E6
:103CA0001FBF40070CF1605113F0FE4F70471CF02E
:103CB000006F03D100200CF0004170470CF000436E
:103CC00043EA507010B540EACC0000F0EEF900BFB6
:103CD000000000924FEA0001FFF7FABD4FF00041EB
:103CE0004FF00000A1F500217047000090EA010F9D
:103CF00048BF81F0004100F13482421A3CBF801A73
:103D000089184FEAD0524FF07F4C1CEA410FA2EBCA
:103D1000D15318BF9CEA026F00F03B804FF0004C7B
:103D20004CEA00204CEA012121FA03FC10EB0C0CB8
:103D30001ED202F1FF325FEA1C2040EBC25038BFB6
:103D400070471CF07F0F4FEA400C18BFBCF17F4F4B
:103D500038BF7047C3F12003994008BF20F001002D
:103D6000BCF17F4F38BF7047A0F1C04000F0E3B90D
:103D70004FEA3C00000A40EBC25028BF1CF0FF0F86
:103D80004FEA400CE6D018BFBCF17F4F38BF7047F8
:103D9000EAE79CEA026F05D010EA5C0F08BF00F06A
:103DA0000040704710B500F080F900BF64FBBE3ED4
:103DB000014800F044BA00BF0000C07F4FF47F0C00
:103DC0001CEAD0121EBF1CEAD11392EA0C0F93EA30
:103DD0000C0F00F0858090EA010F48BF42F480721A
:103DE00040F4000C41F400002CF07F4120F07F40B3
:103DF00000B58142A2EB03020FF2081CACEB504E5F
:103E0000C0F100009EF800E04FEA4E0E00FB0EFCF1
:103E100038BF49004FEA2C1C02F5FA020CFB0EF3E6
:103E20004FEACE1E4FEA112C4FEAC1210EEB635E22
:103E300042EB22420EFB0CFC4FEA1C5300FB031129
:103E40004FEA112C4FEA01310EFB0CFC4FEADC4C1F
:103E500000FB0C11C14228BF09184CEB03335DF87D
:103E600004EB10EB410143EBC250B2F57C0F38BFBD
:103E7000704729D512F0F00F1CBF00F1C04000F0D0
:103E800000407047008182838485868788898B8C77
:103E90008D8E8F919293959697999A9C9D9FA0A2B3
:103EA000A3A5A7A8AAACAEB0B2B3B5B7B9BCBEC003
:103EB000C2C5C7C9CCCED1D4D7D9DCDFE2E6E9ECA4
:103EC000F0F3F7FAFE0000004FEA400C0CF1807CA2
:103ED000BCF17E4F28BF7047B0F1C04000F02BB955
:103EE00090EA010F0CEAD11348BF42F48072624598
:103EF00038BF634507D213F47F0F16D080EA010064
:103F000000F00040704710B500F0CFF8097EFC3E8D
:103F100000F005B880EA010000F00040704780EA38
:103F2000010000F0004000F006B912F47F0F04BF5A
:103F30000248704780EA010000F0FDB80000C07F31
:103F400041000B0ED3F19E0208D950F400034FEA52
:103F5000032323FA02F048BF4042704710B500F037
:103F6000A4F800BF49922480002070476FF00042FF
:103F700082EA20007047000010F0004148BF404234
:103F8000B0FA80F310FA03F2C3F19D030BD051EAAB
:103F9000C35101EB1220530638BF704700F10100F6
:103FA00008BF20F0010070474FF47F0C1CEAD012CC
:103FB0001EBF1CEAD11392EA0C0F93EA0C0F00F01B
:103FC000478090EA010F48BF42F480724FF0004CE6
:103FD0004CEA00204CEA012102EB0302A0FB011392
:103FE000A2F50002002918BF43F001035B0028BFBF
:103FF0004FEA330342EB22425FEA132C4CEBC250F0
:104000002EBFBCEB436FB2F57C0F70474FEA036CD9
:10401000BCF1004F08BF20F00100B2F57C0F38BFA3
:1040200070470BD582F0FF0212F5803FC8BF704782
:1040300000F1C040D8BF00F00040704700F5000C10
:104040005FEA4C0C48BF7047B0F1C04000F073B855
:1040500090EA010F0CEAD11348BF42F48072624526
:1040600038BF634504D280EA010000F00040704789
:1040700010B500F01AF800BF8900013E00F007B843
:1040800000F009B85FEA410C5FEA1C6C08D080EAD6
:10409000010000F050B85FEA400C5FEA1C6CF6D1FA
:1040A0004FF00040A0F5800070470EF1020E2EF098
:1040B000030E5EF8044B244204D44FEA4102B2F1ED
:1040C0007F4F11D84FEA4003B3F17F4F0CD80ED188
:1040D0004FEAD07CB2F17F4F0CEB4C0C0CF1020C90
:1040E00008BF4CEBD17C04E04FF0080C01E04FEA34
:1040F000D17C0CEB4C0324FA03F404F00704B4F174
:10410000040C06D20EEB840CBDE810404CF0010C00
:104110006047DFE80CF0070802024FF00040A0F50E
:10412000800010BD0846420018BFD2F1807288BFDF
:1041300000F0004010BDFF2141EAD050C00570479B
:1041400080F0004090EA010F7FF5D7AD81F000418B
:1041500000F007B890EA010F48BF81F000413FF539
:10416000CCAD421A04D882F00042A0EB0200114408
:104170004FEAD0524FF07F4C1CEA410FA2EBD153D3
:1041800018BF9CEA026F4AD04FF0004C4CEA002066
:104190004CEA012121FA03FCB0EB0C0C0FD412F015
:1041A000FE0F36D05FEA4C001DD5001240EBC25026
:1041B00038BF70471CF03F0F18BF70470BE0A2F1EB
:1041C00001025FEA1C2040EBC25038BF70471CF070
:1041D0007F0F18BF7047C3F12003994014BF401EE2
:1041E00020F00100704780084FEA122308BF704793
:1041F000B0FA80FCA2EB0C02CCF1280C60FA0CF0B7
:1042000093EA122F04BF00EBC25070474FEAC3700D
:104210007047130A5FEADC1008BF7047F6E79CEAB4
:10422000026F04D010EA5C0F08BF0020704710B581
:10423000FFF73BFF40DFF63E81F0004070470CF097
:104240000F03092B08BF082000F07F800A2B0BD03A
:10425000082B18BF704708BF1CF0400F0AD04FF062
:1042600000004FF0000170471CF0400F18BF4FF0E6
:10427000004070471CF0100F08D020F0704300F091
:104280007F4242EAD3014FEA4370704700F060403A
:1042900021F07F4242EA000201F07F4040EA727062
:1042A00070474FF0FF0C4CF4E06C1CEA11531CBF3C
:1042B0009CEA030C9445C2BFDA4201EB02517047FD
:1042C000002B0DD0BCF1000F0FD0002A01F00041EF
:1042D000A4BF41F0E04141F07F614FF00000704722
:1042E00001F000414FF00000704750EA01334FF0F9
:1042F0009B0C18BF4CF0806C7FF436A870474FF0D1
:10430000FF0212EAD0521CBF92F0FF038B42C2BFE1
:10431000D14200EBC1507047002A0AD0002B0BD0CD
:10432000002900F00040A4BF40F0FE4040F400002F
:10433000704700F00040704743024FF00B0C18BF6D
:104340004CF0806C7FF434AD70471CF4801F11D0AA
:104350001CF4E02F03D06FEACC31490070474FF0D6
:104360004050EFF3008222F0704242EA000282F3F2
:10437000008870474FF00000704775191A0C6A23C7
:104380001B1C00001F207274433B4138393A006BFC
:104390006C376F06246D6E7068000004760054015F
:1043A000F7FD000183000000000800000001001874
:1043B00032000500000020410000D242295C0F3E7F
:1043C0009A99993E3333733F295C0F3E00000000F9
:1043D000555555555555C53F7D6FEB0312D6D4BF86
:1043E0005544880E55C1C93F3B8F68B52882A4BF8C
:1043F00088B20175E0EF493F09F7FD0DE13D023F4D
:104400004B2D8A1C273A03C0C88A599CE52A0040D4
:1044100059018D1B6C06E6BF82922EB1C5B8B33F21
:104420004FBB610567ACDD3F182D4454FB21E93FCC
:104430009BF681D20B73EF3F182D4454FB21F93FBB
:10444000E2652F227F2B7A3C075C143326A6813C41
:10445000BDCBF07A8807703C075C143326A6913CEC
:10446000C4EB98999999C9BF711623FEC671BCBF58
:104470006D9A74AFF2B0B3BF9AFDDE522DDEADBFC0
:104480002F6C6A2C44B4A2BF0D5555555555D53FD8
:10449000FF8300922449C23F6E204CC5CD45B73FF3
:1044A000513DD0A0660DB13FEB0D76244B7BA93F6B
:1044B00011DA22E33AAD903F000000000000000056
:1044C000F045000800000020A801000028010008B5
:1044D0002C460008A8010020384300008401000891
:1044E0001001000043000000F8FFFFFF00404040C3
:1044F00040404040404041414141414040404040B7
:104500004040404040404040404040404005020262
:104510000202020202020202020202020220202021
:10452000202020202020200202020202020290907D
:10453000909090901010101010101010101010107B
:1045400010101010101010100202020202028888CF
:1045500088888888080808080808080808080808DB
:1045600008080808080808080202020240000000C3
:10457000000000000000000000000000000000003B
:10458000000000000000000000000000000000002B
:10459000000000000000000000000000000000001B
:1045A000000000000000000000000000000000000B
:1045B00000000000000000000000000000000000FB
:1045C00000000000000000000000000000000000EB
:1045D00000000000000000000000000000000000DB
:1045E00000000000000000000000000000000000CB
:1045F00001180227645AFF04024701C94823D24325
:10460000D3704424C05AC50316F0C1033434421396
:104610007A431B08980401201AA424634F4B053CDD
:0C4620004661696C022B041AAA0100001C
:04000005080000ED02
:00000001FF
